:040000000200833245
:01000B0032C2
:0100130032BA
:01001B0032B2
:0100230032AA
:03002B000244FA92
:01003300329A
:01003B003292
:03004300024ABCB2
:03004B0002441755
:01005300327A
:01005B003272
:01006300326A
:01006B003262
:01007300325A
:03007B000256E446
:0301D30002007EA9
:03007E000205B4C4
:2001D600E58620E0FB225390FD00225380FB0022E58620E0FB004390020022E58620E0FBCC
:2001F600004380040022AF8290F0CCE4F090F0CDF08F061FEE60767E0090F994E0FDBD02C3
:200216000BEE905EF193FDBDC800405990F994E0FDBD010BEE905EF193FDBDC8005046EE19
:2002360024F1FCE4345EFD8C828D83E493F582C007C006C005C004121DE0E582D004D005E3
:20025600D006D007601F90F0CCE0FB90F0F9E0FAC3EB9A501090F0CCEAF08C828D83E4937F
:20027600FC90F0CDF00EBE0C005086808C90F0CDE0FFE06013BFC800400890F9947402F0A4
:20029600800690F9947401F090F0CDE0F5822290F127E0FEA3E0FFC3742C9E74019F400914
:2002B60090F11DE0700330015930090920020690F100E0700930031990F101E0601390FCBC
:2002D60099E0FFBFFF0280097827E4F28F82122901121FACAD82AE83AFF090F0CEEDF0EE90
:2002F600A3F0EFA3F0ED4E602D90F127E4F0A3F010010090F11DE06002D20190F11DE4F0C6
:200316008014122097AD82AE83AFF090F0CEEDF0EEA3F0EFA3F0121A4090F0CEE0FDA3E023
:20033600FEA3E0FFED4E700990F11BE4F0A3F08059740F2DFAE43EFB8F048A828B838CF0A7
:20035600125ED1FAA3125ED1FB90F11BEAF0EBA3F0740D2DFAE43EFB8F048A828B838CF08B
:20037600125ED160168D828E838FF01232D6E582701890F11BE4F0A3F0800F7402C0E074EC
:200396005FC0E01255DE15811581121A8BAE82AF8390F127E0FCA3E0FD90F127EE2CF0EF19
:2003B6003DA3F0BE580CBF020990F0FFE06003C2002290FA95E0600E90FA95E4F090006471
:2003D600E4F5F002198B90F11BE0FEA3E0FF4E603BEF30E71F8E048F0553057F78B3ECF288
:2003F600ED08F2E408F208F29003E8E4F5F0125B8302198B78B3EEF2EF08F2E408F208F282
:2004160090EA60E4F5F0125B8302198B121A8BAE82AF8378B3EEF2EF08F2E408F208F29018
:2004360003E8E4F5F0125B8302198B90F108E0FF600D8F82121DE0E58290F993F0800C75F3
:2004560082021201FCE58290F993F090F993E0700920030690F101E0701430090920020692
:2004760090F100E0700890F11EE0FFBF231390FC99E0FFBFFF0280097827E4F28F8212290C
:200496000190F993E0604890F11EE4F090F108E0700F758204121946121665758204121927
:2004B6007F90F11D74FDF0900028121923121A8BAE82AF8378B3EEF2EF08F2E408F208F2BD
:2004D6009003E8E4F5F0125B8312198BD20022758201121A06AC82AD83AEF0FF78B3ECF2FA
:2004F600ED08F2EE08F2EF08F29003E8E4F5F0125B8302198BE582FF24FA500302059CEFEB
:200516002F2F90051C7302441302052E02054502057502059C02057E740DC0E0745FC0E031
:200536001255DE15811581C20090F993E4F02290F993E0FE741AC0E0745FC0E01255DE156B
:20055600811581758204C00612194612151F12166575820412197FD00690F993EEF0229042
:200576000000E4F5F002198B742AC0E0745FC0E01255DE158115817582041219461228ED41
:2005960075820402197F7E00C007C006743AC0E0745FC0E01255DEE58124FCF5812275828A
:2005B6000112194675820F12475590FAE8E0FEA3E0FF7423C0E08E828F8312435D15817418
:2005D60004C0E0123EA6AC82AD83158190F11FECF0EDA3F0905EFDE493C0E0740193C0E0D1
:2005F600905EFFE493C0E0740193C0E0740293C0E0744CC0E0745FC0E01255DEE58124F9F5
:20061600F581124DD2121B24121ADC90F11D74FCF0AEBE5306187F00BE1009BF000690F14D
:200636001D74FEF0301A09900000E4F5F012198B746CC0E074FCC0E0E4C0E0747BC0E074AC
:200656005FC0E01255DEE58124FBF5811238CA900190E4F5F012198B7582041219461215FE
:20067600911238B190F0FCE060117483C0E0745FC0E01255DE1581158180187494C0E074DC
:200696005FC0E01255DE15811581902710E4F5F012198B90F993E0FFE0601F8F82121DE014
:2006B600E582702574A1C0E0745FC0E01255DE1581158190F993E4F0800F74BFC0E0745F6A
:2006D600C0E01255DE1581158190F993E0700312044190F993E06004D2008002C2007582C0
:2006F600041219461216653000067E287F0080047E587F028E828F8312192330000A7C88FE
:200716007D137E007F0080087CC07DD47E017F008C828D838EF0EF12198B3000051202A5F4
:0707360080F812044180F37A
:205EF100C864C965CA66CB67CC68CD690900D15F804E6F207570646174650A00434D445F15
:205F1100444F5F5343414E0A0052657365742073657474696E67730A0045726173696E67E8
:205F310020696D616765730A00436D6420307825782069676E6F7265640A000A2573204F14
:205F510045504C2076253034782C20636F6D70696C65642041756720203320323032342067
:205F710031313A32313A35340A004D41432025730A00446F696E67206661737420626F6FB2
:205F9100740A004E6F726D616C20626F6F740A004E6F20415020666F756E64206F6E2073F1
:205FB10061766564206368616E6E656C0A004E6F207361766564206368616E6E656C0A003A
:095FD1004368726F6D6137340002
:016FAE0001E1
:20073D00E58620E0FB225390FD00225380FB0022E58620E0FB004390020022E58620E0FB5F
:20075D00004380040022AC82AD83AEF0FF00C2A000758203123E138E82123E138D82123E07
:20077D00138C82023E13C007C006C005C004C003C002C001C000AC82AD83AEF0FFE5812447
:20079D00F5F8860208860300C2A000758203123E138E82123E138D82123E138C82123E1321
:2007BD008A068B07E58124F3F886040886058C028D031CBCFF011DEA4B6015758200123E64
:2007DD0013AB828E828F83EBF0A3AE82AF8380DE00D2A000D000D001D002D003D004D005FB
:2007FD00D006D00722AF8200C2A0008F82123E1300D2A0002200C2A000758205123E13753C
:20081D008200123E13E58220E0F500D2A00022AC82AD83AEF0FF7803E2FA08E2FBC007C028
:20083D0006C005C004C003C002120812758206120802D002D003D004D005D006D00700C285
:20085D00A000758202123E138E82123E138D82123E138C82123E138A068B077805E2FC08A4
:20087D00E2FD8C028D031CBCFF011DEA4B60128E828F83E0FBA3AE82AF838B82123E1380D0
:20089D00E100D2A000221208127582B9120802C20B227582AB12080275F034D5F0FDD20BE9
:2008BD0022C007C006C005C004C003C002C001C000C082C083C0F0C0E005810581E5812472
:2008DD00EFF88605088604E58124EDF8E6084670030209B7C005C004E58124F9F88602088B
:2008FD007B00E58124FDF8E4C39AF674019B08F6E58124FDF8E58124EBF9C3E79609E70877
:20091D0096D004D005500EE58124EDF8A98119E6F708E609F77803EDF2EC08F2A8811879A6
:20093D0005E6F308E609F3E58124FBF886820886830886F008E6C007C006C005C004C003F7
:20095D00C002C001C000C02512082CD025D000D001D002D003D004D005D006D007A881183A
:20097D008602088603E4FEFFE58124FBF8EA26F6EB0836F6EE0836F6EF0836F6A88118E652
:20099D002DFD08E63CFCE58124EDF8A98119E6C397F608E60997F60208E4E58124FAF58196
:2009BD00D000D001D002D003D004D005D006D00722C007C006C005C004C003C002C001C040
:2009DD0000C082C083C0F0C0E0E58124FDF88602088603EA7005EB540F6006758200020B76
:2009FD0002E58124F1F8E608467003020AFF758206C007C006C005C004C003C002C001C09A
:200A1D0000C025120802D025D000D001D002D003D004D005D006D00700C2A000E58124F14A
:200A3D00F88602088603C3EA9410EB94004018E58124FDF88602088603EA4B700A7582D84A
:200A5D00123E137D108008758220123E137D01E58124FDF808088682123E13E58124FDF890
:200A7D00088682123E13E58124FDF88682123E1300D2A000C007C006C005C004C003C002EF
:200A9D00C001C000C025120812D025D000D001D002D003D004D005D006D007C005901000B1
:200ABD00123EA6AA82AB83AEF0FF1581E58124FDF8EA26F6EB0836F6EE0836F6EF0836F6AD
:200ADD008D037F00E58124F1F88605088606EDC39BFDEE9FFEE58124F1F8A60508A60602B1
:1C0AFD0009FE758201E58124FCF581D000D001D002D003D004D005D006D0072224
:200B1900E58620E0FB225390FD00225380FB0022E58620E0FB004390020022E58620E0FB7F
:200B3900004380040022C007C006C005C004C003C002C001C000AC82AD83AEF0FFE5812412
:200B590006F581A88176807A00758204C007C006C005C004C003C002C001C000C025121940
:200B790046D025D000D001D002D003D004D005D006D0077416C0E0E4C0E0742DC0E074F131
:200B9900C0E08C828D838EF0EF120783E58124FCF58174162CFCE43DFDE43EFEE43FFB90DB
:200BB900F13DE0FFBF2004C207806B90F13DE0FFBF2104D207805F90F13DE0FF7E00C0075D
:200BD900C00674C2C0E07465C0E01255DEE58124FCF58190FAA87416F0E4A3F090F12D7560
:200BF900F000C007C006C005C004C003C002C001C000C025121C93D025758204C02512192A
:200C19007FD025D000D001D002D003D004D005D006D007020DFBC221C007C006C005C004A8
:200C3900C003C002C001C000C0251258A7D025D000D001D002D003D004D005D006D007907E
:200C5900F0E3E4F0A3F090F0D9F0A3F0E58124FBF8A60408A60508A60608A603A88118766F
:200C79000074E0C0E07401C0E0742DC0E074F1C0E0E58124F7F886820886830886F008E60E
:200C9900120783E58124FCF58130073AC002E58124FAF8860274780826FBE40836FEE4084B
:200CB90036FF74E0C0E07401C0E0740DC0E074F3C0E08A828B838EF0EF120783E58124FC0C
:200CD900F581D002801774E0C0E07401C0E0E4C0E090F30D12404F158115811581E5812412
:200CF900FBF874E026F674010836F6E40836F6E40836F67E067F0090F0D9E02401F0A3E0CB
:200D19003400F01EBEFF011FEE4F70EB7EE07F01FCFDA881E6605DEC242DF582ED34F1F5A5
:200D390083E0FBA881E65B60047B0080027B06C003EE242DF582EF34F1F583E0FBA88118CF
:200D5900E65BD00360027B07C006C0078A07EFC454F04BFAA8811818E654AA7006D007D0CE
:200D7900068009D007D0068A821258CBA881E6C313F6809EA88176800EBE00010F0CBC0021
:200D9900010DC3EC94E0ED9401408790F0E3E0FEA3E0FF74062EFEE43FFF90F0E3EEF0EF05
:200DB900A3F0A8811806A88118B640005003020C7A758204C007C006C005C004C003C00298
:200DD900C001C000C02512197FD025C0251258D9D025D000D001D002D003D004D005D00613
:200DF900D007E58124FAF581D000D001D002D003D004D005D006D00722AE82AF837D807C70
:200E190000C221C007C006C005C0041258A7D004D005D006D00790F0E3E4F0A3F090F0D936
:200E3900F0A3F07807F274C0C0E07403C0E0E4C0E090F12D12404F1581158115817B067A2A
:200E590000C007C006C005C004C003C0028E828F83120081D002D003D004D005D006D0072E
:200E790090F0D9E02401F0A3E03400F01BBBFF011AEB4A70CC780A74E0F2740108F278084C
:200E9900E4F208F2ED60587808E2242DF58208E234F1F583E0FAED5A60047A0080027A0612
:200EB900C002780AE2242DF58208E234F1F583E0FAED5AD00260027A07C006C0078C07EFBF
:200ED900C454F04AFCED54AA7006D007D0068009D007D0068C821258CBEDC313FD80A57DC2
:200EF90080780AE22401F208E23400F27808E22401F208E23400F27808C3E294E008E2942E
:200F1900015003020E9DC006C00790F0E3E0FAA3E0FF74062AFAE43FFF90F0E3EAF0EFA3DC
:200F3900F07807E22401F27807E2B44000D007D0065003020E3F0258D9C007C006C005C047
:200F590004C003C002C001C000AD82AE83AFF0780C125ED1F290F0D5E0F508A3E0F5097491
:200F7900012DFAE43EFB8F048A828B838CF0125ED1FA780FF2E408F2850882850983C00771
:200F9900C006C005C004C003C002C001C000121150E582D000D001D002D003D004D005D04A
:200FB90006D00760030210AE90F0D3E0F508A3E0F509780CE2F50A750B00780DE50AF2E537
:200FD9000B08F2850882850983C007C006C005C004C003C002C001C000121128D000D001CB
:200FF900D002D003D00490F0DFE0F508A3E0F50990F0E7E0FAA3E0FCEAC39508F582EC95A0
:2010190009F58378B1E50AF2E50B08F2C002C001C000125B63AB82AC83D000D001D002D090
:2010390005D006D007ECC423CBC423541F6BCB541FCB6BCBFC90F0F5EBF0ECA3F074022BD7
:20105900FBE43CFCEB2DFDEC3EFE780CE2604690F0F3E0FBA3E0FC90F0F374012BF0E43C27
:20107900A3F0EB242DFBEC34F1FC8B828C83E0F50A8D828E838FF0125ED1FAA3AD82AE83A8
:20109900E50A42028B828C83EAF0780CE2FC780C24F8F280B5D000D001D002D003D004D0FB
:2010B90005D006D0072290F0E5E0FEA3E0C423CEC423541F6ECE541FCE6ECE30E40244E07B
:2010D900FF90F0E3E0FCA3E0FD90F0E7E0FAA3E0FBEAC39CFCEB9DFD78B1ECF2ED08F29032
:2010F9000050C007C006125B63AC82AD83D006D007EC2EFEED3FFF90F0F3EEF0EFA3F030D9
:20111900040C90F0F374E02EF074013FA3F022AE82AF8390F0DBEEF0EFA3F090F0E5EEF0F8
:20113900EFA3F0780D90F0DDE22EF008E23FA3F01210BF75820022AF83E5827811F2EF0871
:20115900F27811790FE3C5F0E225F0FC09E3C5F008E235F0FD90F0E1ECF0EDA3F090F0D925
:20117900E0FAA3E0FB8A068B077811C3E2F5F0EE95F008E2F5F0EF95F04025EA9CEB648059
:201199008DF063F08095F05017781190F0DFE2F008E2A3F090F0E7EAF0EBA3F075820022EB
:2011B90075820122C007C006C005C004C003C002C001C000AC82AD83AEF0FFE5812404F562
:2011D90081BF2000502C8F82C007C006C005C004C003C002C001C000C025123D5ED025D096
:2011F90000D001D002D003D004D005D006D0070214E27E00EF24E0FFEE34FFFEEF2FFFEE78
:2012190033FEEF24DAF582EE345FF583E493FEA3E493FF90F0F5EEF0EFA3F0EFC4540FFEB0
:2012390090F0EDF0300507EE2EFE90F0EDF090F0EBE0FEA3E0FF90F0EEE0FD780FF2ED33D6
:2012590095E008F28E828F83C007C006C005C004C003C002C001C000C025121150E582D039
:2012790025D000D001D002D003D004D005D006D007602790F0EDE0FF3395E0FE0FBF00014C
:201299000E90F0E9E0FCA3E0FDEF2CFFEE3DFE90F0E9EFF0EEA3F00214E290F0E9E0FEA374
:2012B900E0FF90F0EDE0FD780DF2ED3395E008F28E828F83C007C006C005C004C003C00229
:2012D900C001C000C025121128D025D000D001D002D003D004D005D006D00790F0F5E0FE60
:2012F900A3E0FF53070F90F0F5EEF0EFA3F090F0E9E0FEA3E0FF8E055305078DF005F07D6B
:2013190080E4FC3392D28008A2D2EC13FCED13FDD5F0F590F0EDE0FC3395E0FB0CBC00015A
:201339000BEC2EFCEB3FFB90F0E9ECF0EBA3F030055A90F0DFE0FEA3E0FF90F0D9E0FBA366
:20135900E0FCEBC39EFEEC9FFF8E828F8378C67402F2E408F2C005C004C003C002C001C08F
:2013790000C025125E0CAE82D025D000D001D002D003D004D0058EF005F07E007F80800768
:20139900C3EF13FFEE13FED5F0F6802FC00590F0DFE0FBA3E0FC90F0D9E0FAA3E0EAC39B8B
:2013B900FA8AF005F07A007D808007C3ED13FDEA13FAD5F0F68A068D07D005C006C0079025
:2013D900F0DFE0FBA3E0FC90F0EBE0FAA3E0FFEAC39BFBEF9CFC90F0F5E0FEA3E0FF90F0E5
:2013F900F5EB2EF0EC3FA3F090F0F7E4F0A3F0D007D006C006C00790F0F7E0FBA3E0FC909F
:20141900F0EDE0FA3395E0FFC3EB9AEC9FD007D00640030214E2C006C00790F0F5E581240E
:20143900FBF8E0F6A3E008F6E58124FBF8E626FA08E633FFEA249AF582EF3460F583E58126
:2014590024FDF8E493F6A3E49308F6D007D006300517EB30E024E58124FDF890F0F5740154
:2014790026F0E40836A3F08011E58124FDF890F0F5740126F0E40836A3F0A88118EE56FB43
:20149900EF0856FC4B601F90F0F3E0FBA3E0FCEB242DFBEC34F1FC8B828C83E0FAED4202E8
:2014B9008B828C83EAF0EDC313FD700E90F0F3E02401F0A3E03400F07D8090F0F7E0240157
:2014D900F0A3E03400F002140CE58124FCF581D000D001D002D003D004D005D006D0072280
:205FDA000070071008500D9016601CA026A03010316037603D7044904D204F6055205780E2
:205FFA005F7066706D6073507880805085708C7093709A70A120A320A570AC80B470BB7078
:20601A00C2A0CCA0D670DD80E570EC70F370FA8002710971105115811D7124812C713381FF
:20603A003B7142814A7151715891617168A172A17CA186A1908198519D81A551AA81B2A1B3
:20605A00BC21BE71C571CC71D371DA71E181E971F071F741FB51007207420B9214721B720C
:20607A0022722972306236623C724362499252A25C8264A26E8276627C127D6283A28D724E
:20609A000000000000000000000000000000D87F0078000000000000007880009804E0059E
:2060BA00801E9864E005801E80648004183808640842FCFF8841F040083810442044C0444B
:2060DA0000397002880C881088207040E0001001083A08468845C84C3838180068008001A4
:2060FA000078E00718180C300420024002400240024004200C301818E00700100018000FE1
:20611A000072000F001800104000400040004000F807400040004000400019001E00800006
:20613A00800080008000800080001800180002000C003000C0000003000C00300040C00F49
:20615A0030300840084008403030C00F082008200820F87F0800080008001860284048404F
:20617A0088400843083C0840084208420842F03DC0004003400440184020F87F4000400065
:20619A00087C084408441042E041E00F10320844084408441042E00100401840E040004313
:2061BA00004C00500060F038084508420842084590456038001E0821884088408840302116
:2061DA00C01F1806180619061E06C000C000200120011002100208042001200120012001D1
:2061FA00200120012001200108041002100220012001C000C00000700040D84000410042C4
:20621A0000640038C00F30181820C84728486850D851E03F2000200008007000C001400E33
:20623A004018400C4003C00030000800F81F08110811081108118812700CC003300C1008BD
:20625A0008100810081008100818F81F08100810081008101008E007F81F8810881088104F
:20627A00881088100810F81F801080108010801080100010C003300C1008081008108810E6
:20629A008810F818F81F80008000800080008000F81F081008100810F81F081008100810E7
:2062BA000800081008100810F01FF81F0001800140022004200810100800F81F08000800EF
:2062DA000800080008000800F81F001C8007E00060008003001CF81FF81F0008000680012E
:2062FA0060001000F81FE007100808100810081008101008E007F81F801080108010801048
:20631A000011000EE00710080810081008100C101208E207F81F80108010C0102011100E88
:20633A000800180E0812081108118810901070180010001000100010F81F00100010001082
:20635A000010E01F18000800080008001000E01F0010000C8003600018001800E0000003C3
:20637A00000C00100018C0073800F0000007800370003800C0070018081010082004400239
:20639A008001800140022004100808100010000800060001F8000001000200040008001015
:2063BA0018102810481088100811081208140818FE7F024002400240024000400030000C03
:2063DA000003C00030000C0002000240024002400240FE7F2000C0000007001C0070000E9C
:2063FA00C0012000040004000400040004000400040004000400040000800040300048043E
:20641A00880488049004F8030800F87F10020804080408041006E001E00110020804080404
:20643A00080408040804E00118020804080408041002F87FE00190028804880488048804D3
:20645A00880300040004F83F00240044004400440044E00119020904090409041202FC07EA
:20647A00F87F00010002000400040004F803000400040064F8670100010401040164FE67E1
:20649A00F87F8000C0002001200210020804004000400040F87FF807000200040004F8038F
:2064BA00000200040004F803F80700030002000400040004F803E00110020804080408049B
:2064DA001002E001FF0710020804080408041006E001E00118020804080408041002FF0745
:2064FA00F8070001000200040004000718038804880448044804300400040004F01F08044F
:20651A00080408040804F0070800080008001000F807000480036000180008003000C00028
:20653A00000300040006E001180070008003800170001800E0010006080410022001C00059
:20655A00C00020011002080401040103C10062001C001800600080000003000408041804B3
:20657A00280448048804080508060804800080007C3F024002400240FE7F02400240024012
:20659A007C3F80008000C000000100010001800080004000400040008001F8010803080412
:2065BA00080808040803F80164617461547970652030782578206E6F7420737570706F72C6
:0565DA007465640A0075
:2014F900E58620E0FB225390FD00225380FB0022E58620E0FB004390020022E58620E0FB96
:2015190000438004002290F0FB7401F090F0FCE4F090F0FDF090F0FEF090F0FFF090F100CE
:2015390004F090F101F090F103E4F090F102F090F1067428F0E4A3F090F108F090F1047465
:2015590028F0740AA3F090F993E4F090F994F022AD82AE83125ED1FCBC011C7BFB7CF08B47
:20157900828C83740EC0E0C005C0061240E7158115811581021665227480C0E0E4C0E074EE
:20159900A2C0E074FDC0E090C000E4F5F0120783E58124FCF581740EC0E07414C0E074FE72
:2015B900C0E090F0FB1240E715811581158190FDA2E0FCA3E0FDA3E0FEA3E0FFBCA513BD3D
:2015D9005A10BEBA0DBFAB0A90FDA6E0FFBF0102803590FDA2E0FCA3E0FDA3E0FEA3E0FF78
:2015F90090FDA6E0FB7A00C004C005C006C007C003C00274DFC0E07465C0E01255DEE58198
:2016190024F8F58102151F90FDA7E090F993F090FDA8E090F994F0740DC0E07466C0E012FA
:2016390055DE158115811217B790FDA2E4F004C0E0E4C0E074A2C0E074FDC0E090C000E42C
:20165900F5F01208BEE58124FCF581227480C0E0E4C0E074A2C0E074FDC0E090C000E4F58E
:20167900F0120783E58124FCF58190FDA2E0FCA3E0FDA3E0FEA3E0FFBCA53EBD5A3BBEBAD2
:2016990038BFAB3578C174FBF274F008F2E408F278C4740EF2E408F290FE1475F000125D80
:2016B90052E5828583F045F0700F90FDA7E0FF90F993E0FEEFB506012290FE21E0FF90F1C3
:2016D90008E0FEEFB50602803EEE603BBE6400502390FE21E0FF7D00C007C005741FC0E0B9
:2016F9007466C0E01255DEE58124FCF58190F108E4F08013BEC800400890F9947402F08055
:201719000690F9947401F07480C0E0E4C0E0C0E090FDA212404F158115811581740EC0E0BC
:2017390074FBC0E074F0C0E090FE141240E715811581158190FDA274A5F0F4A3F074BAA350
:20175900F0C4A3F090FDA67401F090F993E090FDA7F090F994E090FDA8F07401C0E0E4C096
:20177900E090C000E4F5F01209CE158115817480C0E0E4C0E074A2C0E074FDC0E090C00013
:20179900E4F5F01208BEE58124FCF5817438C0E07466C0E01255DE158115810217B790F00C
:2017B900FFE0FF7E00C007C0067449C0E07466C0E01255DEE58124FCF58190F108E0FF7E29
:2017D90000C007C0067462C0E07466C0E01255DEE58124FCF58190F104E0FEA3E0FFC00687
:2017F900C0077475C0E07466C0E01255DEE58124FCF58190F0FCE0FF7E00C007C006748962
:20181900C0E07466C0E01255DEE58124FCF58190F993E0FF7E00C007C006749EC0E07466C2
:0C183900C0E01255DEE58124FCF58122A0
:2065DF004C6F616465642064656661756C74732073657474696E67735665722030782578B8
:2065FF00204D61676963203078256C780A004C6F616465642073657474696E67733A0A0082
:20661F0049676E6F7265642066697865644368616E6E656C2025640A005361766564207371
:20663F00657474696E67733A0A0020205363616E2041667465722054696D656F75742025D6
:20665F00640A00202066697865644368616E6E656C2025640A0020206261744C6F77566F83
:20667F006C746167652025640A002020656E61626C6546617374426F6F742025640A00209F
:0D669F00204C6173742063682025640A009C
:20184500E58620E0FB225390FD00225380FB0022E58620E0FB004390020022E58620E0FB46
:2018650000438004002275F10175805875FDDD75F33875904075FE6E75F4E875A00175FFD6
:2018850001227401C0E0E4C0E0900000E4F5F01209CE158115817417C0E0E4C0E074ACC08A
:2018A500E07466C0E090F12D1240ADE58124FCF5817417C0E0E4C0E0742DC0E074F1C0E02B
:2018C500900000E4F5F01208BEE58124FCF5812275E40075FC0075F70075FE02758F81750F
:1818E500F62F75FD8175FE2F53807E5390D075F30075F40075F50022D0
:1766AC005612098501084A4D000000002303280904EC0212045A0A7E
:027FFE00B26669
:2018FD00E58620E0FB225390FD00225380FB0022E58620E0FB004390020022E58620E0FB8E
:20191D00004380040022AE82AF837D00BD08005017ED75F002A42409F58274F135F0F58318
:20193D00EEF0EFA3F00D80E422E582FF30E0251251EFC007124480D2AF12186B123E0F1286
:20195D004926D00775820A12496590F993E0FEF5821248B1EF30E209123E3C200B03020819
:20197D00AF22E58230E206300B030208A322AF82AE83ADF0FC90F129EFF0EEA3F0EDA3F068
:20199D00ECA3F090F129E0FCA3E0FDA3E0FEA3E0FFC004C005C006C00774C3C0E07466C01B
:2019BD00E01255DEE58124FAF581300B16758204C007C006C005C00412197FD004D005D066
:2019DD0006D007C007C006C005C00412588DD004D005D006D0071218D58C828D838EF0EF20
:2019FD00124508758201021946E582FF601090F11EE0FFBFFF00500690F11EEF04F090F1A7
:201A1D001EE0FFBF18005007900E10E4F5F022BF24005007901C20E4F5F02290518075F02E
:201A3D0001E42290F11AE078B1F2E408F2900230125B63789E740EF2E408F212598CAE82ED
:201A5D00AF8374282EFEE43FFF90F119E054077D0025E0FCED33FDEC2409F582ED34F1F546
:201A7D0083EEF0EFA3F090F119E02401F0227E007F007D00BD0800501DED75F002A42409E4
:201A9D00F58274F135F0F583E0FBA3E0FCEB2EFEEC3FFF0D80DEEFC423CEC423541F6ECE70
:201ABD00541FCE6ECEFF90F106E0FCA3E0FDC3EE9CEF9D50058C828D83228E828F83229068
:201ADD00FAEAE0FF3395E0FEC007C00674D8C0E07466C0E01255DEE58124FCF58190F0F9D3
:201AFD00E0FF7E0090F0FAE0FD3395E0FCC007C006C005C00474E3C0E07466C0E01255DEA5
:201B1D00E58124FAF5812275820E12475512478175820F12475590FAE8E0FEA3E0FF7423E2
:201B3D00C0E08E828F8312435D15817404C0E0123EA6AC82AD83158190F125ECF0EDA3F07A
:201B5D00C20990F104E0FEA3E0FFC3EC9EED9F5004D209803A90F121E0FCA3E0FD4C601339
:201B7D00C3EC9EED9F500C90F125ECF0EDA3F0D209801C90F123E0FCA3E0FD4C6011C3EC2E
:201B9D009EED9F500A90F125ECF0EDA3F0D20990F123E0C0E0A3E0C0E090F121E0C0E0A3BB
:201BBD00E0C0E090F125E0C0E0A3E0C0E090F11FE0C0E0A3E0C0E074F4C0E07466C0E01268
:091BDD0055DEE58124F6F58122B4
:2066C300536C656570696E6720666F7220256C64206D730A0054656D7020256420430A004E
:2066E300525353492025642C204C51492025640A00426174745620426F6F742025642C203E
:1A6703006E6F772025642C2054782025642C207570646174652025640A003C
:0500DC00781374FFF22F
:201BE600E58620E0FB225390FD00225380FB0022E58620E0FB004390020022E58620E0FBA2
:201C0600004380040022121C62E582600790F9A6E0F58222121C2CE582600790F9AAE0F59F
:201C260082227582002290F995E05407FFBF012890F996E003035403FFBF031C90F996E069
:201C460023235403FFBF031090F995E023235401FFBF0104758201227582002290F995E083
:201C66005407FFBF012390F996E003035403FFBF021790F996E023235403FFBF030B90F9FD
:201C860095E020E6047582012275820022AFF0AE83E58290FAAAF0EEA3F0EFA3F090FAAAFA
:201CA600E0FDA3E0FEA3E0FF90FAA8E0FBA3E0FC79007A00C3E99BEA9C5052E94A6016E9BE
:201CC600540F6002800F741DC0E07467C0E01255DE15811581C003C004E92DF8EA3EFB8F46
:201CE6000488828B838CF0125ED1F87C00C000C004741FC0E07467C0E01255DEE58124FC94
:201D0600F58109B900010AD004D00380A7741DC0E07467C0E01255DE1581158122AFF0AE20
:201D260083E5827815F2EE08F2EF08F27818E4F27B017814C3E2F5F0EB95F050227815E21A
:201D4600FA08E2FC08E2FFEB2AFAE43CFC8A828C838FF0125ED1FA7818E22AF20B80D37850
:201D660015E2FD08E2FE08E2FF8D828E838FF0125ED1FD7818E2B50503D38001C3E433F569
:201D86008222AFF0AE83E582781AF2EE08F2EF08F2781DE4F27B017819C3E2F5F0EB95F09B
:201DA6005022781AE2FA08E2FC08E2FFEB2AFAE43CFC8A828C838FF0125ED1FA781DE22ACD
:201DC600F20B80D3781AE2FD08E2FE08E2FF8D828E838FF0781DE2025B48E5812404F581AC
:201DE600AF82C217C007124B4FD0078F821248B1C007124C04D217124B4FD0077E01EE2447
:201E0600FC5003021F0A90FA157414F0C007C00612391190FA2774EDF090FA15124A4BD02A
:201E260006D007124438AA82AB83ACF0FD90FAAD74A62AF0740E3BA3F0E43CA3F0E43DA30C
:201E4600F0C006124438AA82AB83ACF0FD90FAADE58124FCF8E0F6A3E008F6A3E008F6A315
:201E6600E008F6E58124FCF8C3EA96EB0896EC0896ED0896D0064003021F06C007C0061240
:201E86004B61AD82D006D007C374818DF063F08095F050AD90F9ABE0FDB507A5C007C0062B
:201EA600121C0CAD82D006D007BDEE95C007C006121C2CE582D006D00760867408C0E07455
:201EC600A2C0E074F9C0E090F9801240E715811581158190F998E0FCA3E0FD90F988ECF03F
:201EE600EDA3F08F047D00C004C0057425C0E07467C0E01255DEE58124FCF5818F8280201D
:201F06000E021E048F057E00C005C006742FC0E07467C0E01255DEE58124FCF581758200F6
:201F2600E58124FCF5812290FA15742AF012391190FA2774E5F090FA2E7480F090F11DE0E0
:201F460090FA2FF090F0FAE090FA2AF090F0F9E090FA29F090FAEAE090FA2BF090F125E059
:201F6600FEA3E0FF90FA2CEEF0EFA3F090FA30E4F0905EFD93FE740193FF90FA31EEF0EF2C
:201F8600A3F090F993E090FA33F090F103E090FA34F078197415F290FA2875F000121D8813
:201FA60090FA15024A4BD217124B4F121B24121ADC7F00781EE4F2781EE2B40E004003028D
:201FC600208AC007121F2DD007124438AA82AB83ACF0FD74882AF52674133BF527E43CF5A0
:201FE60028E43DF529C007124438AC82AD83AEF0FFC3EC9526ED9527EE9528EF9529D007E2
:20200600400302207DC007124B61AE82D007C374818EF063F08095F050CBC007121C0CAEF4
:2020260082D007BEE6BF78147411F290F9AB75F000C007121D23E582D00760A97408C0E0C6
:2020460074A2C0E074F9C0E090F9801240E715811581158190F99875F000125ED1FDA3123A
:202066005ED1FE90F988EDF0EEA3F090F11AEFF090F9AB75F00022781EE22401F2781EE282
:20208600FF021FBD90F11A740EF090000075F00022D217124B4F7F00781FE4F2781FE2B48B
:2020A6000E00400302217E90FA157414F090FA2774E3F0C00712391190FA15124A4BD007D9
:2020C600124438AA82AB83ACF0FD74882AF52A74133BF52BE43CF52CE43DF52DC0071244B1
:2020E60038AC82AD83AEF0FFC3EC952AED952BEE952CEF952DD0075072C007124B61AE82DE
:20210600D007C374818EF063F08095F050CEC007121C0CAE82D007BEE6C278147411F29035
:20212600F9AB75F000C007121D23E582D00760AC7408C0E074A2C0E074F9C0E090F9801233
:2021460040E715811581158190F99875F000125ED1FDA3125ED1FE90F988EDF0EEA3F090EB
:20216600F11AEFF090F9AB75F00022781FE22401F2781FE2FF0220A290F11A740EF090004B
:202186000075F00022AFF0AE83E5827820F2EE08F2EF08F27820E22402FA08E23400FB0865
:2021A600E2FC8A828B838CF0125ED1F52E852E2F75300090FA96E0F531AE317F00E52FC35F
:2021C6009EFEE5309FFF78B1EEF2EF08F2900063C004C003C002125B63AE82AF83D002D0A8
:2021E60003D0048E2F8F3090FAB1E52FF0E530A3F07820E22401FD08E23400FE08E2FF8D71
:20220600828E838FF0125ED1FD90F959E0FFEDB50702800122E52E24D5500122C3E52E956F
:20222600315001227463252FFEE43530FFC374239E74089F5001227820E2FD08E2FE08E2B4
:20224600FF78147466F28D828E838FF0C004C003C002121D23E582D002D003D00470030292
:2022660022FF7820E22403FD08E23400FE08E28D2F8E3090FAB1E0FEA3E0FFEE242DFEEF52
:2022860034F1FF8E828F837463C0E0E4C0E0C02FC0301240ADE58124FCF5818A828B838C77
:2022A600F0125ED1FA7F0078C67408F2E408F28A828F83C007C002125E0CAD82AE83D0028F
:2022C600D007ED245BFDEE34F9FE5302078AF005F07401800225E0D5F0FBF4FA8D828E830A
:2022E600E052028D828E83EAF0743CC0E07467C0E01255DE1581158122743EC0E07467C05F
:20230600E01255DE1581158122AF82AE83ADF0FC7823EFF2EE08F2ED08F2EC08F290FA96F8
:20232600E0FB7A0090F959E0FF7E00C003C002C007C006744FC0E07467C0E01255DEE58168
:2023460024FAF581D217124B4F12443885823285833385F034F535782379B3E22414F3089D
:20236600E2340009F308E2340009F308E2340009F3900019E4F5F0125B83AA82AB83AEF0B7
:20238600FFEA2532F532EB3533F533EE3534F534EF3535F535124438AA82AB83AEF0FFC30A
:2023A600EA9532EB9533EE9534EF9535503C124B61AF82C374818FF063F08095F050D61201
:2023C6001C0CAF82BFE8CE90F9AB75F00012218B7F00EF245BFDE434F9FE8D828E83E07069
:2023E600060FBF060040EBBF06AB741DC0E07467C0E01255DE15811581C217124B4F024C72
:202406000490F9ACE4F0A3F090F9AB75F00022742AC0E0E4C0E0C0E090FA1512404F158123
:202426001581158190FA15742AF090F97AE0600890FA2B74E4F0800690FA2B74E7F07408F3
:20244600C0E0748AC0E074F9C0E090FA231240E71581158115817408C0E07480C0E074F966
:20246600C0E090FA1B1240E715811581158190FA16E054F84401F090FA16E054C74440F006
:2024860090FA17E0440C54CF44C0F090F992E0FF04F090FA18EFF090F988E0FEA3E0FF90DE
:2024A600FA19EEF0EFA3F07D2C7EFA8D828E837411C0E07450C0E074F9C0E01240E71581FD
:2024C600158115817D2C7EFA7F0078197411F28D828E838FF0121D8890FA15024A4BE58130
:2024E6002404F581D217124B4F124C047F00BF1E0040030225C7C007122415D0071244383D
:20250600AB82AC83ADF0FE90FAB374642BF0749F3CA3F0740B3DA3F0E43EA3F0C007124B84
:2025260061AE82D007C374818EF063F08095F05051C007121C0CAE82D007BEE8028028BEE8
:20254600E9028005BEEC33802978147403F290F9AB75F000C007121D23E582D00760239087
:20256600F9AB75F0008063122407AC82AD83AEF0805890000075F000805090000075F0009E
:202586008048C007124438C8E58124FCC8A68208A68308A6F008F690FAB3E0FAA3E0FDA3D3
:2025A600E0FEA3E0FFE58124FCF8C3E69A08E69D08E69E08E69FD00750030225220F0224A8
:2025C600F4122407AD82AE83AFF0E58124FCF58122741BC0E0E4C0E0C0E090FA1512404F14
:2025E60015811581158190FA157419F090FA2B74EAF07408C0E0748AC0E074F9C0E090FAA3
:20260600231240E71581158115817408C0E07480C0E074F9C0E090FA1B1240E715811581CF
:20262600158190FA16E054F84401F090FA16E054C74440F090FA17E0440C54CF44C0F09076
:20264600F988E0FEA3E0FF90FA19EEF0EFA3F090F992E0FF04F090FA18EFF090FA15024A36
:202666004BD217124B4F7F00BF1000506CC0071225D7D00712443885823A85833B85F03CFB
:20268600F53D12443885823685833785F038F539E536C3953AFAE537953BFCE538953CFDA3
:2026A600E539953DFEC3EA94A6EC940EED9400EE94005022C007124B61AE82D007C37481F8
:2026C6008EF063F08095F050B9C007121C0CAE82D007BEEBAD220F808F22AF8278B3EFF218
:2026E600E408F208F208F290700075F001E4125B83AC82AD83AEF0FF74902DFD74013EFEEE
:20270600E43F8C828D838EF022AD82AE83AFF07C007B00BB0A00400302279EC0048B82C07C
:2027260007C006C005C0031226E0A882A983AAF0FCD003D005D006D0077416C0E0E4C0E037
:20274600742DC0E074F1C0E0888289838AF0EC120783E58124FCF581749AC0E074FCC0E05B
:2027660090F1351243BA15811581920DD004300D218D008E018F027408C0E0C000C00190B7
:20278600F12D12407B158115811581920D50038C82220B8B040227197582FF22AF825307E5
:2027A600F87E007D00BD0A00400302282AC0068D82C007C0051226E0AA82AB83ACF0FED085
:2027C60005D0077416C0E0E4C0E0742DC0E074F1C0E08A828B838CF0EE120783E58124FC7D
:2027E600F581749AC0E074FCC0E090F1351243BA158115819228D006302823C00690F1421A
:20280600E0FC5304F87B008F027E00ECB50206EBB506028004D0068005D0068E82220D8D2B
:20282600060227AB7582FF221226E0AC82AD83AEF0FF7416C0E0E4C0E0742DC0E074F1C079
:20284600E08C828D838EF0EF120783E58124FCF58190F142E0F58222AF828F060EEE24F558
:2028660050027E00EEB507038E82228E82C007C0061226E0AA82AB83ACF0FDD006D00774DA
:2028860016C0E0E4C0E0742DC0E074F1C0E08A828B838CF0ED120783E58124FCF581749A89
:2028A600C0E074FCC0E090F1351243BA15811581922850A890F142E0FD5305F87C00BD781E
:2028C6009BBC00988E82221226E0AC82AD83AEF0FF7417C0E0E4C0E08C828D838EF0EF1272
:2028E60009CE15811581227F00BF0A00500C8F82C0071228CDD0070F80EF22AF828F057E70
:2029060000C005C006745EC0E07467C0E01255DEE58124FCF5818F821226E0020B3F7828E3
:20292600E4F208F208F208F27B00BB0A0040030229C38B82C0031226E085823E85833F8563
:20294600F040F541D0037416C0E0E4C0E0742DC0E074F1C0E0853E82853F838540F0E541DD
:20296600120783E58124FCF581749AC0E074FCC0E090F1351243BA15811581920E503AC020
:202986000390F13EE0FAA3E0FBA3E0FEA3E0FF7828C3E29A08E29B08E29E08E29FD003507C
:2029A6001890F13E7828E0F2A3E008F2A3E008F2A3E008F290F97FEBF00B0229307828E286
:2029C600F58208E2F58308E2F5F008E222AF82AE83D20F90F959E0FD7C007B007A008C44FA
:2029E600EBC454F0C544C4C5446544C54454F0C5446544F545EDC4540F4544F544EDC4544B
:202A0600F0F543754200300C167832E542F2E54308F27401254408F2E4354508F280497829
:202A260013E2F582C007C0061226E085824685834785F048F549D006D00774162546F5460B
:202A4600E43547F547E43548F548E43549F5497832E5462542F2E547354308F2E548354424
:202A660008F2E549354508F290FABA7405F090FA96E4F090F97A04F0782CEFF208EEF2743B
:202A860006C0E0E4C0E0C0E090F95B12404F15811581158190FABAE0FB14F0EB7003022E6E
:202AA60015100F03022B64782CE2FA08E2FB8A828B83789E7463F2E408F212598CAA829059
:202AC600FAB7EAF0782CE2FB08E2FF8B828F8378BF7463F2E408F2C002125CCFE582858390
:202AE600F0D00245F0600690FAB7EA04F090FAB7E024EA500690FAB77415F090FA96E0FB1A
:202B06007A0090FAB7E0FFC3EA9F50528B067F0078C67408F2E408F28E828F83C007C006DE
:202B2600C003C002125E0CAC82AD83D002D003D006D007EC245BFCED34F9FD5306078EF082
:202B460005F07401800225E0D5F0FBFE8C828D83E0FF42068C828D83EEF00B0A80A4122410
:202B6600E4AA82AB83AFF0EA4B7003F582220ABA00010B8A828B838FF0125ED1FEA3125E76
:202B8600D1FF4E60428E048F05C3EC9423ED9400501A78B3EEF2EF08F2E408F208F290009C
:202BA60019E4F5F0125B83124499801BEC24F6FCED34FFFD7F007E008C828D838FF0EE12FA
:202BC600198BD217124B4F900122E4F5F012230F78367401F290FA96E0FF7E0090FAB7E043
:202BE600FDC3EE9D505E8F047D0078C67408F2E408F28C828D83C007C006C005C004125E98
:202C06000CAA82AB83D004D005D006D007EA245BF582EB34F9F5835304078CF005F07C0136
:202C26007D008006EC2CFCED33FDD5F0F7E0FB7A005204EA5205EC4D60067836E4F280040B
:202C46000F0E80987836E27003022DDA90FAB7E078B1F2E408F2900063125B63AE82AF83EE
:202C66007830EEF2EF08F290FABB742DF074F1A3F0E4A3F090FA96E0704B90F12DE0FCA3B0
:202C8600E0FD782CECF208EDF290F12FE0FCA3E0FD782EECF208EDF290FAB8E4F0A3F07850
:202CA60030E2FC08E2FDEC24FCFCED34FFFD7830ECF2ED08F290FABB7404242DF0E434F180
:202CC600A3F0E4A3F0782CE2FC08E2FD7830C3E2F5F0EC95F008E2F5F0ED95F0500A782C99
:202CE6007930E2F308E209F3782CE2FC08E2FD7830D3E29CF4B3FCB308E29DF4FD782CECAA
:202D0600F208EDF275820412194690FABBE0F546A3E0F547A3E0F548AA46AF477830E2C059
:202D2600E008E2C0E0C002C0077832E2F58208E2F58308E2F5F008E21208BEE58124FCF529
:202D46008175820412197F7830E2FA08E2FD7E007F007832E22AF208E23DF208E23EF208FC
:202D6600E23FF2AD46AE47AF487830E2F54608E2F547AA46AC47154674FFB546021547EA7C
:202D86004C60368D828E838FF0125ED1FCA3AD82AE838C4275430090FAB8E0FAA3E0FC8AC1
:202DA6004A8C4BAB42AC43EB254AFBEC354BFC90FAB8EBF0ECA3F080B990FAB7E0FF90FAD4
:202DC60096E02FF0782CE2FE08E2FF4E60067836E4F2D20F90F97AE4F07836E27003022ACC
:202DE6009A782EE2FE08E2FF90FAB8E0FCA3E0FDEEB50406EFB5050280117478C0E07467D6
:202E0600C0E01255DE1581158180047582012275820022AFF0AE83E58290FAC2F0EEA3F0F0
:202E2600EFA3F090FAC2E0FDA3E0FEA3E00DBD00010E8D828E837408C0E0746AC0E074F9DD
:202E4600C0E012407B1581158115819210501490F972E0FCA3E0FDA3E0FEA3E0FFEC4D4E56
:202E66004F707590F959E4F090FAC2E0FDA3E0FEA3E0FF74012DFAE43EFBC002C00390F96F
:202E860051123F7D15811581740D2DFAE43EFB8F048A828B838CF0125ED1FA90F95AF07471
:202EA60011C0E0C005C00690F9691240E71581158115817408C0E0E4C0E090000075F0014D
:202EC600E41209CE1581158190F972E0FEA3E0FF90FAC0EEF0EFA3F090F972E0FCA3E0FD97
:202EE600A3E0FEA3E0FFEC4D4E4F7003022F73C3E49C74109DE49EE49F500B90FABEE4F0FC
:202F06007410A3F0800890FABEECF0EDA3F0D20C90FABEE0FEA3E0FF8E828F831229D3E5CD
:202F260082604690F959E0FF0F90F959EFF090F972E0FCA3E0FDA3E0FEA3E0FF90FABEE050
:202F4600FAA3E0FB8A008B01E4FAFBECC398FCED99FDEE9AFEEF9BFF90F972ECF0EDA3F0D8
:202F6600EEA3F0EFA3F0022EDE7582002275820122AFF0AE83E58290FAC7F0EEA3F0EFA37C
:202F8600F090FAC7E0FDA3E0FEA3E0FF74012DFAE43EFB8F048A828B837408C0E0746AC0EA
:202FA600E074F9C0E012407B1581158115819211504090F977E0FC740E2DFDE43EFE8D82A5
:202FC6008E838FF0125ED1FDECB5052690F972E0FCA3E0FDA3E0FEA3E0FFEC4D4E4F6012AF
:202FE6007490C0E07467C0E01255DE1581158102318175820412194690F97F7837E0F29002
:20300600FAC7E0FCA3E0FDA3E0FE740E2CFAE43DFB8E078A828B838FF0125ED1FA54FC602F
:20302600317837E2FB7F00C003C00774A3C0E07467C0E01255DEE58124FCF58190FAA874AB
:2030460011F0E4A3F08C828D838EF0121C937837E4F290F97FE02401F0FFBF0A0040059076
:20306600F97FE4F090F97FE0FF7837E2B5071975820412197F74C7C0E07467C0E01255DE71
:2030860015811581758201228F821226E0AC82AD83AEF0FF7416C0E0E4C0E0742DC0E0745D
:2030A600F1C0E08C828D838EF0EF120783E58124FCF581749AC0E074FCC0E090F13512438D
:2030C600BA158115819211500890F142E054F8708190F97FE0FF7813F28F821226E0AC826E
:2030E600AD83AEF0FF7417C0E0E4C0E08C828D838EF0EF1209CE1581158175820412197F09
:203106007813E2FE7F00C006C00774D1C0E07467C0E01255DEE58124FCF58190F959E4F0DB
:2031260090FAC7E0FDA3E0FEA3E0FF74012DFAE43EFBC002C00390F951123F7D1581158146
:20314600740D2DFAE43EFB8F048A828B838CF0125ED1FA90F95AF07411C0E0C005C006902D
:20316600F9691240E715811581158190F972E0FEA3E0FF90FAC5EEF0EFA3F090F972E0FC0B
:20318600A3E0FDA3E0FEA3E0FFEC4D4E4F7003023218C3E49C74109DE49EE49F500B90FAC3
:2031A600BEE4F07410A3F0800890FABEECF0EDA3F090FABEE0FEA3E0FF8E828F831229D35C
:2031C600E582604A90F959E0FF0F90F959EFF090F972E0F54CA3E0F54DA3E0F54EA3E0F528
:2031E6004F90FABEE0FAA3E0FBE4FEFFE54CC39AFAE54D9BFBE54E9EFEE54F9FFF90F9720D
:20320600EAF0EBA3F0EEA3F0EFA3F002318175820022758204121946746AC0E074F9C0E089
:2032260090F12D123F7D1581158190F1357421F07447A3F0744DA3F07447A3F090F97BE0D1
:203246002401F0A3E03400F0A3E03400F0A3E03400F090F97BE0FCA3E0FDA3E0FEA3E0FFFB
:2032660090F13EECF0EDA3F0EEA3F0EFA3F090FAC5E0FEA3E0FF7D007C0090F139EEF0EFFB
:20328600A3F0EDA3F0ECA3F090F976E090F13DF090F977E090F142F07813E2F5821226E07A
:2032A600AC82AD83AEF0FF7416C0E0E4C0E0742DC0E074F1C0E08C828D838EF0EF1208BEB6
:2032C600E58124FCF58175820412197F75820122AFF0AE83E58290FACBF0EEA3F0EFA3F0AE
:2032E600C20C90FACBE0F553A3E0F554A3E0F555740D2553FAE43554FBAC558A828B838CE2
:20330600F0125ED1FCBC02028024BC030302365EBC10028019BC20028014BC2102800FBCBB
:20332600A803023551BCAF0302363E0236CE90FACBE0FFA3E0FEA3E0FD7550CA7551FA7571
:203346005200740E2FF553E43EF5548D558553828554838555F0125ED1FB85508285518363
:203366008552F0125B4890FACAE020E203023435758204C007C006C005121946D005D006BE
:20338600D00790FACAE0C423541FFB603CBB0F02806C8553828554838555F0125ED1F5823B
:2033A600C007C006C0051227A2AB82D005D006D007BBFF0280488B82C007C006C00512280E
:2033C600CDD005D006D007803574012FF553E43EF5548D558553828554838555F0C007C0A3
:2033E60006C00512270FAB82D005D006D007BBFF02800B12266778387401F202354B75828F
:2034060004C007C006C00512197FD005D006D0078F828E838DF0122F77E582600B1226675C
:2034260078387401F202354B7838E4F202354B74012FF553E43EF5548D558553508554515A
:203446008555528550828551837408C0E07461C0E074F9C0E012407B1581158115819212B9
:20346600500B12266778387401F202354B758204C007C006C00512194685538285548385BA
:2034860055F012270FAC82758204C00412197FD004D005D006D007BCFF028051C007C00691
:2034A600C005C004122667D004D005D006D0078F538E548D55AA53AB547411C0E0C002C03F
:2034C6000390F9691240E715811581158190F972E4F0A3F0A3F0A3F090FC99ECF090FACA19
:2034E600E054037827F28C82122901803D74DFC0E07467C0E01255DE158115818F828E83F6
:203506008DF0122F77E582601B1226677813E2FB90FC99F090FACAE054037827F28B821237
:20352600290180067838E4F2801B90F96AE0FAA3E0FBC002C00390F961123F7D1581158100
:2035460078387401F27838E2F5822290F972E0FAA3E0FBA3E0FEA3E0FFEA4B4E4F702F74E8
:20356600012553FDE43554FEAF558D828E837408C0E0746AC0E074F9C0E012407B15811521
:20358600811581921250071226677582012290F959E4F090FACBE0F550A3E0F551A3E0F5E9
:2035A6005274012550FAE43551FBC002C00390F951123F7D15811581740D2550FDE43551B4
:2035C600FEAF528D828E838FF0125ED190F95AF0AD50AE517411C0E0C005C00690F9691283
:2035E60040E715811581158174092550FDE43551FEAF528D828E838FF0125ED1FDA3125E94
:20360600D1FE8D828E831229D3E582602790F972E4F0A3F0A3F0A3F075820412194690F144
:203626003175F00012156975820412197F1226677582012275820022122667740E2553FD51
:20364600E43554FEAF558D828E838FF0125ED1F58212050B7582012275820412194685531E
:20366600828554838555F0122E19E58260561226677582041219461236E9300C0F900019F6
:2036860075F001E41207631251AE805374E7C0E07467C0E01255DE1581158175820412196D
:2036A6007F90FA957401F090F11D74E0F07408C0E0E4C0E0C0E090F96112404F1581158128
:2036C6001581801B758200227F00C004C0077404C0E07468C0E01255DEE58124FCF5817546
:2036E600820022783DE4F208F208F208F2C20C7419C0E0E4C0E074A2C0E074FDC0E09000D1
:203706000075F001E4120783E58124FCF58178397419F2E408F20408F2E408F2905EFF9357
:20372600FD740193FE7402937406C0E0C005C00690FDAB12407B158115811581921350070F
:2037460090F0CB7405F022905EFFE493FD740193FE7402937409C0E0C005C00690FDAB122B
:20376600407B1581158115819213500790F0CB7402F02290FDAAE0FFBF0102800790F0CB4D
:203786007401F02290FDA8E0FEA3E0FFC3E49E74809F500790F0CB7403F02290FDA8E0FEF1
:2037A600A3E0FF4E700302385D90FDA8E0FEA3E0FFC374239E74089F50047E237F08C0063F
:2037C600C007742DC0E074F1C0E07839E2F58208E2F58308E2F5F008E2120783E58124FC8F
:2037E600F58190FACE742DF074F1A3F0E4A3F090FAD1EEF0EFA3F0783DE2F58208E2F583CA
:2038060008E2F5F008E2C007C006123936783DC0E0E582F2E58308F2E5F008F2D0E008F252
:20382600D006D0078E028F037C007D007839E22AF208E23BF208E23CF208E23DF290FDA88E
:20384600E0FCA3E0FDECC39EFEED9FFF90FDA8EEF0EFA3F00237A190FDA2E0FCA3E0FDA393
:20386600E0FEA3E0FF783DE2B5041108E2B5050C08E2B5060708E2B50702800790F0CB7437
:2038860004F02290FDA6E0FEA3E0FF90F0C9EEF0EFA3F0C006C0077424C0E07468C0E0127D
:2038A60055DEE58124FCF581D20C22122924AC82AD83AEF0FF90F97BECF0EDA3F0EEA3F098
:2038C600EFA3F0227408C0E0748AC0E074F9C0E090FAA01240E715811581158190FA97E051
:2038E60054F84421F090FA98E054F344C8F090FA9A7437F07413A3F090FA9C74FFF0A3F0E7
:2039060090FA9E7437F07413A3F0227411C0E07497C0E074FAC0E090FA161240E715811540
:2039260081158190F992E0FF04F090FA18EFF022AC82AD83AEF0FF7841ECF4F2EDF408F278
:20394600EEF408F2EFF408F290FACEE0F55AA3E0F55BA3E0F55C90FAD1E0F556A3E0F55725
:20396600855658855759155674FFB556021557E55845597003023A34855A82855B83855C1F
:20398600F0125ED1FEA385825A85835B8E047D007E007B007841E26CF208E26DF208E26EE9
:2039A600F208E26BF27849E4F208F27849C3E2940808E26480948050A77841E25401FA086A
:2039C600E25400FB08E25400FC08E25400FE7845C3E49AF2E49B08F2E49C08F2E49E08F2DB
:2039E6007844E2C313F56018E213F55F18E213F55E18E213F55D7845E25420FC08E2548308
:203A0600FD08E254B8FE08E254EDFA7841EC655DF2ED655E08F2EE655F08F2EA656008F232
:203A26007849E22401F208E23400F20239B17841E2F4FB08E2F4FC08E2F4FD08E2F48B82A0
:053A46008C838DF022CD
:20671D000A002530327820004150206F6E2025640A004E6F204150206F6E2025640A002EA6
:20673D0000636865636B435243206661696C65640A005245512025642070617274202564C6
:20675D000044726177696E6720696D61676520696E20736C6F742025640A00626C6B2066E2
:20677D0061696C65642076616C69646174696F6E210A0072657374617274696E6720696D4E
:20679D006720646C0A004368616E67696E67207374617274696E67536C6F742066726F6D5A
:2067BD0020256420746F20300A004E6F20736C6F74730A006E657720646C20746F202564B4
:2067DD000A00646C20696D670A004F544120696D6167652076616C69646174696F6E206683
:2067FD0061696C65640A00646174615479706520307825782069676E6F7265640A00436815
:20681D00726F6D613734004F54412076616C6964617465642C207570646174696E67207453
:0F683D006F2076657273696F6E202530780A00C0
:056FAF00FF21474D47E2
:203A4B00C007C006C005C004C00390FAD8E06003023B3F90FAD9E0FF24FB5003023B3CEF45
:203A6B002F2F903A7173023A80023A9E023B1F023B36023B3C90FAD6744BF0E4A3F090FA41
:203A8B00D8740BF090FAD97401F090FADA7468F0023B3F90FAD3124367E582FF6045EF2429
:203AAB00E0FFBF600040027F1F90FADBE0FE0E90FADBEEF0C0078E82123E91AD82AE83155C
:203ACB008190FADAE0FC7B002DFDEB3EFE8D828E837467C0E0124362AE82158190FADAEEE4
:203AEB00F0800B90FAD97402F090FADAE0FFEF75F002A4244CF582746835F0F583E493FE65
:203B0B00A3E493FF90FAD6EEF0EFA3F090FAD8740BF0802090FAD97403F090FAD674E3F0DF
:203B2B00741AA3F090FAD803F0800990FAD97404F0C3802D90FAD6E0FEA3E0FFEE54012419
:203B4B00FFE433FDEFC313CE13CEFF90FAD6EEF0EFA3F090FAD8E0FF1F90FAD8EFF0ED2462
:0C3B6B00FFD003D004D005D006D0072204
:20684C009B01B3013303C90089019101990019013101930013012301CD01D90199039D012F
:20686C00B90139037302D30193033B017301B7039701A7012703370167016702DB001B0361
:20688C006303C500D10011038D00B10031028B00A3002302ED008D03B103DD001D03710376
:2068AC0077038B03A303BB003B02BB03D70017034703B7003702C702F70213028F02650070
:2068CC00850169000903A10121034D000D01590019026101610243025300EF024301F10297
:2068EC00E501E901C9033D01790179022F014F014F02DB037B036F03F500C503D103BD00D0
:0E690C003D02AF002F02DD03BD03D703AF0332
:203B7700C007C006C005C004C001C000AC82AD83AEF0FFBF20005031BF0A03023C168F820B
:203B9700C007C006C005C004C003C002C001C000C025123D5ED025D000D001D002D003D055
:203BB70004D005D006D00780567E00EF24E0FFEE34FFFEEF2FFFEE33FEEF24DAF582EE3441
:203BD7005FF583E493A3E493C4540FFE90F0EDEEF0300507EE2EFE90F0EDF090F0EDE0FFF7
:203BF7003395E0FE0FBF00010E90F0E9E0FCA3E0FDEF2CFFEE3DFE90F0E9EFF0EEA3F0D08A
:203C170000D001D004D005D006D00722C007C006C005C004C003C001C000E58124F6FFC0AB
:203C370007C006C005C004C003C002C001C000C025123D11D025D000D001D002D003D004BD
:203C5700D005D006D007E58124F6F886050886068D828E83E493FCBC0C7290F0E9E4F0A387
:203C7700F0C007C005C006C0E0C0E0903B7712528DE58124FBF58190F0E9E0FDA3E0FE3383
:203C970095E0FCFB7480C39DFD74029EFEE49CFCE49BFB78A07402F2E408F208F208F28D69
:203CB700828E838CF0EBC007C002C001C000C0251259D7AB82AC83ADF0FED025D000D00135
:203CD700D002D00790F0E9EBF0ECA3F0C007E58124F5F8E6C0E008E6C0E0E4C0E0C0E0905B
:203CF70011BD12528DE58124FBF581D000D001D003D004D005D006D0072230062530050671
:203D17007E147F0080047E0A7F0090F0EEEEF03005067E207F0080047E107F0090F0EDEE60
:203D3700F0223005067E207F0080047E107F0090F0EEEEF03005067E147F0080047E0A7F4E
:203D57000090F0EDEEF022AF82BF08028018BF0902804EBF0A028013BF0B028055BF0C01EA
:203D770022BF0D568038B205023D11123D1190F0EEE0FE3395E0FD90F0EBE0FBA3E0FCEE25
:203D97002BFEED3CFD90F0EBEEF0EDA3F090F0D1E0FDA3E0FE90F0E9EDF0EEA3F022B204A6
:203DB7002290F0E9E0FDA3E0FE90F0D1EDF0EEA3F02290F0D1E4F0A3F0227E00C007C0064D
:123DD700741AC0E07469C0E01255DEE58124FCF58122CC
:15691A00496E76616C69642063686172203078253032780A0012
:203DE900E58620E0FB225390FD00225380FB0022E58620E0FB004390020022E58620E0FB7D
:203E090000438004002275FB02228582F9E5F830E1FB53F8FDE5F820E0FB85F9822253F3AB
:203E2900C775FA3C75FC0F75F8C043F4C043F102D20A2253F1FD53F43F75FA0075FC3175E2
:083E4900F84043F338C20A22DD
:203E5100858283D0F0D0E0D082C082C0E0C0F022C00074FB2581F8E5828682088683088676
:203E7100F0D0002275F008C58213C58233D5F0F7C58222E583A2E713F583E58213F582225A
:203E9100D083D0E0D0F0C0F0C0E0C083E582A4F58285F08322C000E58124FDF8E6F88582FB
:203EB100F0A4F582E8A8F08583F0A428F583E5F03400F5F0E4D00022C000C001C0E0C0F095
:203ED10074FA2581F88600E58288F0A4F582A9F0E58388F0A429F583E5F03400F9D0E0884D
:203EF100F0A429C5F03400F9D0E0C0F088F0A429D0F0D001D00022C000C001C002E581241D
:203F1100FBF8E6F918E6F88582F0A4C0E0AAF0E58388F0A42AF8E5F03400FAE98582F0A4C6
:203F310028C0E0E5F03AFA74003400F8E98583F0A42AFAE5F0388AF0D083D082D002D00187
:203F5100D00022D0E0D0F0C000C001C002C0F0C0E074F82581F9E7F809E7F922D002D001C3
:203F7100D00022C9C583C9C8C582C822123F5475F008123F74E0A3123F74F0A3D5F0F302FF
:203F91003F6D123F5475F008123F74E493A3123F74F0A3D5F0F2023F6D123F54C375F008E1
:203FB100123F74E0A3F502123F74E03AF0A3D5F0EF023F6D123F5475F008123F74E0A3F58E
:203FD10002123F74E05AF0A3D5F0EF023F6D123F54C375F008123F74E0A3F502123F74E021
:203FF1009AF0A3D5F0EF023F6D123F54C375F008123F74E0A3F502123F74E0A39AD5F0F076
:20401100023F6D123F5475F008123F74E0A3F502123F74E0A36A7007D5F0EED3023F6DC370
:20403100023F6DC8C0E075F008E038F0A3D5F0F9D00022D3E4024034C374FF024034C000F8
:20405100C00174FA2581F8E6F5F0088601496015088600E8F0A374FF25F0F5F074FF39F553
:204071000145F070EED001D00022C000C001C00274F92581F9E7D3601CF5F009870009874E
:2040910001C3E0F502A3123F74E0A3123F746A7004D5F0EED3D002D001D00022C000C0014A
:2040B100C00274F82581F9E7F5F00987024A601F098700098701123F74E0A3123F74F0A33A
:2040D10074FF25F0F5F074FF3AF50245F070E7D002D001D00022C000C001C00274F9258147
:2040F100F9E76015F5F0098700098701123F74E0A3123F74F0A3D5F0F3D002D001D0002267
:20411100C083C082E06003A380FAC3E582D0F095F0F582E583D0F095F0F58322C003C002F7
:20413100C001C000C0E0C0F0C083C082A98174F62581F886F01886007502017503007582EB
:2041510011A2F74014C3E833F8E5F033F5F0C3EA33FAEB33FB058280E8E4C003C002C0E0A2
:20417100C0E0AA81C0F0C000C0E0C0E0A881C0E0C0E0C0E0C0E0AB81C000C001C37583049E
:2041910086F018E71995F0D583F6D001D000402BC000C001C375830486F018E795F0F71957
:2041B100D583F585020085030175830486F018E745F0F719D583F5D001D00074FC28F8C39A
:2041D10075830408E613F6D583F9C00074FC2AF8C375830408E613F6D583F9D000D5829872
:2041F10020D508D082D083D0F0D00074F42581F58130D508D082D083D0F0D000E8D000D02E
:2042110001D002D00322C2D502412DD2D502412DC003C002C001C000C0E0C0F0C083C082CC
:20423100A98174F62581F886F07401758219A2F7400A23C5F023C5F0058280F2C0E0E4C070
:20425100E0C0E0C0E0AA81C0F0C0E0C0E0C0E0A881C0E0C0E0C0E0C0E0AB81C000C001C359
:2042710075830486F018E71995F0D583F6D001D000402BC000C001C375830486F018E7957A
:20429100F0F719D583F585020085030175830486F018E745F0F719D583F5D001D00074FC9C
:2042B10028F8C375830408E613F6D583F9C00074FC2AF8C375830408E613F6D583F9D0009D
:2042D100D58298D082D083D0F0D00074F42581F581E8D000D001D002D00322C006C005C08A
:2042F10004C003C002C001C00074F72581F886F074017C09A2F7400923C5F023C5F00C800C
:20431100F3FBE4FAA9F0F88582F0FDFEC3E58298E583994011C3E58298F582E58399F58377
:20433100EA4DFDEB4EFEC3E913F9E813F8C3EB13FBEA13FADCD620D5048D828E83D000D038
:2043510001D002D003D004D005D00622C2D50242ECD2D50242ECE0C0E02401F0A3E0C0E0AF
:204371003400F0A3E0D083D0826014B4600AC000A882E2D000F582224009E493F58222E0E0
:20439100F58222C000A882E6D000F58222123F5475F004D3123F74E0FA3400F0EAA3123FB8
:2043B10074F0A3D5F0EE023F6D123F5475F004C3123F74E0FAA3123F74E0A36A7004D5F086
:2043D100EFD3023F6D123F54C3E0A398E0A399E0A39400E0A39400023F6D123F54C3E0A3F6
:2043F10038E0A339E0A33400E0A33400023F6D75F004E07004A3D5F0F9F58222A3A3A3E01C
:02441100332254
:0444130075C90B223A
:20441700C0E0C007C006C0D075D000AEDAAFDB74012EF5DAE43FF5DBD0D0D006D007D0E00F
:2044370032C007C006C005C004C000AEDAAFDB784DEEF208EFF2784BE5E2F2784CE5E3F2C3
:20445700EEB5DAE7EFB5DBE3784BE2FC08E2FD08E2FE08E28C828D838EF0D000D004D00510
:20447700D006D0072285E28222E4F5DAF5DBF5E4F5E5F5E6F5E7F5E275E40543D84043B8D3
:204497000222AF82AE83ADF0FC784FEFF2EE08F2ED08F2EC08F21244387853C0E0E582F237
:2044B700E58308F2E5F008F2D0E008F2124438AA82AB83AEF0FF7853D3E29AF4B3FAB3080F
:2044D700E29BF4B3FBB308E29EF4B3FEB308E29FF4FF784FC3E29A08E29B08E29E08E29FFB
:0344F70050CA2286
:2044FA0053C07F53A1FE53BEFC3243870122AF82AE83ADF0FC7857EFF2EE08F2ED08F2EC8C
:20451A0008F290FADCE4F090FADDF090FADE74DFF090FADF74BEF090FAE0E054E0F090FAC8
:20453A00E0E0541FF090FAE17407F090FAE2E054E0F090FAE2E0549F4420F090FAE2E054C5
:20455A007FF090FAE3E054FC4402F090FAE3E054FBF090FAE3E054F7F090FAE3E054CFF08B
:20457A0090FAE3E0543F4440F07857E2F5F008E242F008E242F008E245F0701B7B01750C58
:20459A00A5750DFC850D0E90FADCE50EF07AA590FADDEAF002463C7857C3E2943F08E2944C
:2045BA000008E2940008E29400500C7857743FF2E408F208F208F27857E225E0F50F08E29F
:2045DA0033F51008E233F51108E233F512E50F250FF50FE51033F510E51133F511E5123390
:2045FA00F512747DC0E0E4C0E0850F828510838511F0E5121242177857C0E0E582F2E5833F
:20461A0008F2E5F008F2D0E008F2158115817B007D9E7EFC8E0590FADCEDF07E9E90FADD78
:20463A00EEF053C07F53A1FE43A11075A8A0EB70147857E2F5F008E242F008E242F008E226
:20465A0045F070012253BEFBE5BE30E5FBE5C654384441F5C6E5C630E6FB43BE0453C67FE9
:20467A007857C3E2F5F074F095F008E2F5F074FF95F008E2F5F0E495F008E2F5F0E495F0A7
:20469A00501B7DF07EFF7857E22410F208E23400F208E234FFF208E234FFF280117857E264
:2046BA00FD08E2FE7857E4F208F208F208F2EB60067A007C0080047A107C008AA175C00037
:2046DA0043D6817ADC7CFA8AD48CD575D60175A204E5A570FC75A2028EA48DA3AEA5EEB5CD
:2046FA00A50280FA43C702EB60077B0075BE07800375BE06000000E5BE5403600875D70101
:20471A00004387010053C7FDE5BE30E5FB75BE00E5BE30E5FB75C679E5BE30E6FB7E007DA1
:1B473A0000000DBD80FB0EBE80F575C639E5C620E6FB75C63875BE0402464884
:0E6FB400060606060606040707070707070479
:20475500AF8275BB0074304FF5B575B473E5B420E6FBE5B430E7FBAEBA7F00ADBB7C00900A
:20477500FAE8EC4EF0ED4FA3F08FB522C21490FAE8E0FEA3E08E82C4C582C4540F6582C54C
:2047950082540FC5826582C582F58374E2C0E07404C0E0123F08AC82AD83AEF0FF15811525
:2047B5008190FAE6E0FAA3E0FB74FFC0E07407C0E08A828B83123F08A882A983AAF0FB15FA
:2047D500811581ECC398FCED99FDEE9AFEEF9BFF747DC0E08C828D838EF0EF123EC9AC8275
:2047F500AD83AEF0FF1581EFC40354F8CEC403CE6ECE54F8CE6EFFEDC40354074EFEEDC40D
:204815000354F8CCC403CC6CCC54F8CC6CFDEF30E70FD214C3E49CFCE49DFDE49EFEE49F61
:20483500FF90FAE4E0C0E0A3E0C0E08C828D838EF0EF124217AC82AD83AEF0FF1581158136
:2048550074FF2CFC74033DFDE43EFEE43FFF74FFC0E07407C0E08C828D838EF0EF12421791
:16487500AC821581158190FAEAECF030140790FAEAC3E49CF0226F
:20488B00E58620E0FB225390FD00225380FB0022E58620E0FB004390020022E58620E0FBD0
:2048AB00004380040022C007C006AF82BF64004027BF6A00502290DF097421F090DF0A7437
:2048CB003BF090DF0B7413F08F06EE249CFE90DF0675F003A4F0802F90DF097422F090DFE3
:2048EB000A74BBF090DF0B7413F0BFC8004013BFE100500EEF2438FF90DF0675F00CA4F0F7
:20490B00800590DF06E4F0D006D00722C00775E10490DF3BE0B401FCD007221249177F00A9
:20492B008F057EDFEFC390692F938D828E83F00FBF200040EB90DF237488F090DF2474312F
:20494B00F090DF257409F090DF2E748EF075911075ED00759D0075EF0322C007AF82C3EF0F
:20496B006480946250047FE2800EC3748A8FF063F08095F050027F0A741E2FC31390694FBD
:20498B009390DF2EF0D00722C007C006AE82AF838ED48FD575D601000000000000000000F2
:2049AB00D006D0072275D68100000000000000000022C007C006C005AE82AF831249B08FE1
:2049CB000590FCAEEDF090FCAFEEF07EAC7FFC8E828F83124993D005D006D00722C007C0B7
:2049EB0006C005AE82AF831249B08F0590FCB4EDF090FCB5EEF07EB47FFC8E828F8312497A
:204A0B0093D005D006D00722301504E5EF70012212491753C0FE43B801E5ED75F080A424A6
:204A2B00ECF58274FA35F0F5831249BD75E1022253B8FE1249B012491775D10053C0FE226C
:204A4B00AE82AF837CFF7DFF124A3B8E828F831249E875E90075E103E5E920E42375820F44
:204A6B00C005C004124755D004D00590FAE8E0FEA3E0FFC3EE9CEF9D50DE8E048F0580D8F4
:204A8B001249B0C005C004124A13D004D0057423C0E08C828D8312435D15817404C0E01298
:204AAB003EA6AC82AD83158190F121ECF0EDA3F022C025C0E0C0F0C082C083C007C006C0EC
:204ACB0005C004C003C002C001C000C0D075D000E5D130E040E5ED75F080A424ECFE74FA4A
:204AEB0035F0FF53D1FE8E828F83E0FD248240200D0DED2EF582E43FF583E0FF30E711E52D
:204B0B00ED04FF8FEDBF030375ED00E5EF14F5EF124A13800F7464C0E07469C0E01255DEF3
:204B2B001581158153C0FED0D0D000D001D002D003D004D005D006D007D083D082D0F0D0BC
:204B4B00E0D02532201706124A3BC21522201505D215024A1322E59D75F080A424ECFE7447
:204B6B00FA35F0FF8E828F83E0FD7403B5EF047582FF228D037C0074022BF9E43CFAE92EFF
:204B8B00F582EA3FF583E0FA747F5AD39494F4FABA7F0040047AFF8003EA2AFA90F0F9EAF8
:204BAB00F00BBB00010CEB2EF582EC3FF583E0A2E71324B390F0FAF00EBE00010FC005C0D6
:204BCB0006C00790F9951240E7158115811581E59D04FF8F9DBF0303759D00D21810AF02B1
:204BEB00C218E5EFFF04F5EFA21892AFEF7007C005124A13D0058D8222D21910AF02C219F3
:104C0B00AFEF75EF03A21992AFEF7003024A1322B5
:20692F00D3917D044522000F0022BB131D3B1373A7650700181E1CC700B0B610EA2A001F4A
:20694F00030506080B0E191C242527293855408D8A84CAC4C0646D612069727120756E656F
:09696F00787065637465640A0028
:106FC200DFD900008080131A0000DFD9207E13422F
:1700E10090FC7D7456F090FC7E7412F090FC7F03F090FC807485F0D2
:204C1B00E58620E0FB225390FD00225380FB0022E58620E0FB004390020022E58620E0FB3C
:204C3B00004380040022C007C006C005C004C003C002C001C000E582785EF27E00C21B7852
:204C5B005FE4F2C006785FE2C0E0901000123EA6AA82AB8315817860EAF2EB08F278627478
:204C7B0004F2E408F27860E2FA08E2FBE4FCFE7404C0E0E4C0E07481C0E074FCC0E08A8281
:204C9B008B838CF0EE120783E58124FCF5817404C0E0747DC0E074FCC0E090FC8112407B56
:204CBB00158115811581921CD006201C03024DA57862E2FB08E2FCC394104003024DA5C065
:204CDB000678607962E3C5F0E225F0FB09E3C5F008E235F0FAE4FCFE7402C0E0E4C0E074E0
:204CFB0081C0E074FCC0E08B828A838CF0EE120783E58124FCF58190FC81E0F51374FFB52F
:204D1B001305D006024DA5D006785EE2B5135D90FC82E0FCBC020040531C1C8C06785DC346
:204D3B00E29C5004785DE2FCC0067B00785BE2F51408E2F5157860E2FD08E2FF74022DFDA0
:204D5B00E43FFF7862E22DFD08E23FFA7E007F00C004C003C014C0158D828A838EF0EF1245
:204D7B000783E58124FCF581D21BD00690FC82E0FF7D007862E2FB08E2FCEF2BFBED3CFC8E
:204D9B007862EBF2EC08F2024CCB785FE22401F2785FE2B40A005003024C5E301B048E0718
:204DBB0080027FFF8F82D000D001D002D003D004D005D006D00722758204C007C006C005BC
:204DDB00C004C003C002C001C000121946124E6ED000D001D002D003D004D005D006D00713
:204DFB00301A477478C0E07469C0E01255DE15811581C007C006C005C004C003C002C00131
:204E1B00C000121887124E6ED000D001D002D003D004D005D006D007301A0F74A4C0E07417
:204E3B0069C0E01255DE15811581758204C007C006C005C004C003C002C001C00012197F1C
:204E5B00D000D001D002D003D004D005D006D007D2AF22D21A785B74A2F274FD08F2785DF1
:204E7B007407F275822A124C41E582FF30E72A785B74A2F274FD08F2785D7406F2758201C4
:204E9B00124C41E582FF30E71074D1C0E07469C0E01255DE15811581227404C0E0E4C0E03A
:204EBB00C0E090FDB212404F1581158115817404C0E074B2C0E074FDC0E090FDA412407BA8
:204EDB00158115811581921D503B74E3C0E07469C0E01255DE158115817404C0E074B2C0D8
:204EFB00E074FDC0E09066B412407B158115811581921D401074F2C0E07469C0E01255DEA6
:204F1B00158115812290F9917444F090F9907467F090FDA4E0FF90F98DF090FDA5E0FE90CC
:204F3B00F98CF090FDA6E090F98BF090FDA7E090F98AF090FDA4E4F07D007C00C006C0052A
:204F5B00C007C00474A2C0E074FDC0E0E4C0E0740AC0E0746AC0E01255DEE58124F7F58188
:204F7B0090F98AE0FF7E0090F98BE0FD7C00C007C006C005C0047418C0E0746AC0E0125512
:204F9B00DEE58124FAF58190FDA2E024BF90F98FF090FDA3E024BF90F98EF090F990E0FF32
:204FBB007E0090F991E0FD7C00C007C006C005C0047422C0E0746AC0E0746CC0E074FCC06B
:204FDB00E0125657E58124F8F58190F98EE0FF7E0090F98FE0FD7C00C007C006C005C00424
:204FFB007422C0E0746AC0E07470C0E074FCC0E0125657E58124F8F58190F98CE0FF7E0025
:20501B0090F98DE0FD7C00C007C006C005C0047422C0E0746AC0E07474C0E074FCC0E01292
:20503B005657E58124F8F58190F98AE0FF7E0090F98BE0FD7C00C007C006C005C004742227
:20505B00C0E0746AC0E07478C0E074FCC0E0125657E58124F8F581785B7497F274FC08F28A
:20507B00785D7401F2758223124C41E58230E710742BC0E0746AC0E01255DE158115812242
:20509B0090FC97E0FF7E00C007C006743FC0E0746AC0E01255DEE58124FCF581785B74E4AB
:2050BB00F274FA08F2785D7402F2758212124C41E58230E710744DC0E0746AC0E01255DEE4
:2050DB00158115812290FAE4E0C0E0A3E0C0E07466C0E0746AC0E01255DEE58124FCF5811D
:2050FB00785B74E6F274FA08F2785D7402F2758209124C41E58230E7107474C0E0746AC07E
:20511B00E01255DE158115812290FAE6E0C0E0A3E0C0E07491C0E0746AC0E01255DEE58120
:20513B0024FCF581C21A2290514D74AEC39582F5F02275F020C2ADC2AC43AE0100E5AE2088
:20515B00E7FB05AD05ADD5F0F09000008583AD8582ACA375AB2275F00275F900E5F830E199
:20517B00FB53F8FDE5F820E0FBC0F9D5F0EB43AE02E5AE20E6FBD0E0D0AFF5AFE5AE20E69D
:20519B00FB53AEFDE5AE20E7FBE583B440BE75C90B80FEC007C006C005C004C00312514207
:2051BB00AC82AD83AEF0FF8E03C003C004C00590FDA21240E715811581158175D6FF75A86B
:2051DB000075C70390FDA2E473D003D004D005D006D00722C007C00675A80075B800759ABE
:2051FB000075C70075BE00E5BE30E5FB75C679E5BE30E6FB7F007E00000EBE80FB0FBF8078
:20521B00F575C639E5C620E6FB75C63875BE04D006D0072243B404E5B4540C600280F8E532
:20523B00BC65BDF5822212522FC08212522FC08212522FC08212522FD083D0F0D0E022C025
:0C525B00008582BC7864E2F5BCD0002223
:2069780046697273742063616C6C20746F204C6F6164476C6F62616C7346726F6D45455066
:20699800524F4D206661696C65640A005365636F6E642063616C6C20746F204C6F61644760
:2069B8006C6F62616C7346726F6D454550524F4D206661696C65640A006661696C656420D2
:2069D800746F2067657420534E0A00534E2069732064656661756C740A0067446566617599
:2069F8006C74454550524F4D20757064617465640A00534E2025732530327825303278006F
:206A180025303278253032780A002530325825303258006661696C656420746F20676574D0
:206A38002056434F4D0A0056434F4D3A203078253032780A006661696C656420746F2067B0
:206A580065742041444320736C6F70650A0041444320736C6F70652025640A006661696CB6
:206A7800656420746F206765742041444320696E746572636570740A00414443206D4164F8
:0F6A980063496E746572636570742025640A002B
:20526700E58620E0FB225390FD00225380FB0022E58620E0FB004390020022E58620E0FBEA
:20528700004380040022C007C083C082858107C004C003C002C001C00074F42581F88683EC
:2052A70018868218860018E0A36013B4250B7C007A00E0A36008B4251612556F80E9D00058
:2052C700D001D002D003D004D082D083D00722B4630518E61880E2FB4420B46D3AEB542032
:2052E70003F9C083C08212550B7C0874FF2C93C083C082FAC47B02540F2990559E93125535
:205307006FEADBF3D082D083DC06D082D0838097743A12556F80D4EBB42A09BA009B7401A8
:205327004CFC808EB43007BA0004740680F2FB24D0501224F6400E240AFB740A8AF0A42BD2
:20534700FA740480DBBB6C0DEC54086004741080CF740880CBBB733CEC5408C083C0827058
:2053670005125512800312550BEC54047009E0A3609812556F80F7BA0002808EE0A3600A77
:2053870012556FDAF7808302545F742012556FDAF9025311EB4420B478EDC083C0821255B0
:2053A70028C083C082E5F023F90324FF2582F582E5833400F583E054F0701119E0700D19BC
:2053C7001582E582B4FF021583D5F0EAB9000109EC5420600B09EC54026005742D12556F17
:2053E700EC54046018EAC39940136011FAEC5402C4032420F582E58212556FDAF9EC5420B2
:20540700600B19EC54027005742D12556FEB542003FAD082D083E904C313FC142582F582E1
:20542700E5833400F583E954016005E079018005E07902FBC4540F2AC083C08290559E938D
:20544700D082D08312556FEBD9EB1582E582B4FF021583DCDB025311BB640674204CFC8032
:2054670008BB750280030252AEC083C082125528C0F07408C395F02485F9E434FCFBE0A3AA
:20548700125564F0A3125564D5F0F3125564F5F0EC54206028E5F054807006EC54DFFC80D2
:2054A7001CD0F0C0F07408C395F02485F582E434FCF583C3E0F9E499F0A3D5F0F775F00A12
:2054C700E4F0A3D5F0FBD0E0C403FB90FC8D75F00AE0F9540F24FBE950022403F954F02476
:2054E700B0E950022430F0A3D5F0E690FC85C375F012E033F0A3D5F0F9DBD090FC8D75F050
:205507000A0253A886831886821822E61860F5648060F164C0600585938380EA7583FF808D
:20552700E5EC5401701F88F07583FFEC5418600A5410600418181818181818888218E5F017
:20554700C398F5F022EC5418600E5410600575F00880B175F00480AC75F00280A7C583CB7F
:20556700C583C582C9C58222C083C082C001C0008F00868218868318181818860118860020
:20558700125593D000D001D082D08322C082C0838500828501832230313233343536373817
:2055A7003941424344454630313233343536373839616263646566C007C006C005C004FF9F
:2055C700BF0A0675820D123E138F82123E13D004D005D006D00722C007C001C000A20A921C
:2055E7001EE58124FAFF200A03123E27C007E58124F9F8E6C0E008E6C0E0E4C0E0C0E09055
:2056070055BE12528DE58124FBF581201E03123E3CD000D001D00722C007C006C005C00407
:20562700C003C001AC82FF8C018F0487060987071974012EFBE43FFDA70309A7058E828F99
:2056470083ECF0D001D003D004D005D006D00722C007C006C005C001C000E58124F6FFE591
:205667008124F8FE7D00C007E58124F5F8E6C0E008E6C0E0C006C00590561F12528DE581D2
:1956870024FBF58124F8F88682088683E4F0D000D001D005D006D007222F
:2000F800C21F78657420F2786674A7F208746AF2786874DFF208E4F2786A7429F2786B7416
:200118009BF208746EF2786D74CBF208E4F2786F7421F27870748DF208746CF278727407E2
:20013800F2087401F278747423F27875E4F208F278777404F2087401F278797424F2787ADF
:20015800E4F208F2787C7404F2087401F2787E7422F2787FE4F208F278817404F2087401C5
:20017800F278837425F27884E4F208F278867404F2087401F278887426F27889E4F208F2EF
:20019800788B7404F2087401F2788D7427F2788E7486F208746BF278907407F2087401F22A
:1B01B80078927428F278937494F208746DF278957407F2087401F27897E4F2E6
:2056A000E58620E0FB225390FD00225380FB0022E58620E0FB004390020022E58620E0FBAD
:2056C000004380040022C007AF82E58620E0FB53807F008F821258CB00E58620E0FB4380C2
:2056E00080D0072253BEFC32AE82AF838E828F83E493FD74012EFBE43FFCEDFA60525390C1
:20570000FD008B828C83E493FD0BBB00010CE58620E0FB53807F008D821258CB00E58620A2
:20572000E0FB438080EA14FDED6015E58620E0FB8B828C83E493F5C1A3AB82AC831D80E8BB
:205740008B068C07E58620E0FB0043900200809C22301F0122D21F4390025380BF43F42883
:2057600075C20075C5317586009000FDE4F5F01244994390049000FDE4F5F012449930906B
:20578000FD906F661256E83090FD906F741256E85390FD00E58620E0FB53807F00758282C6
:2057A0001258CB00E58620E0FB43808090FC97E0FFF5821258CBE58620E0FB004390020022
:2057C0005390FD00E58620E0FB53807F007582501258CB00E58620E0FB4380803020067E38
:2057E000F77F0080047E777F008E821258CBE58620E0FB00439002007F00EF75F005A4241B
:2058000065F9E3FE7001225390FD00E58620E0FB53807F008E821258CB00E58620E0FB4330
:205820008080EF75F005A42465FE2403F9789CE4F208F2C007E3FA09E3FB19789CE2FD0841
:20584000E2FFC3ED9AEF9BD0075034EE04F8E2FC08E2FD18EC4D7007F5821258CB8013780A
:205860009CE22CF58208E23DF583E493FDF5821258CB789CE22401F208E23400F280B4E512
:205880008620E0FB00439002000F0257FA201F0122906F851256E853F4D753807A5390D1FB
:2058A00000D28600C21F22A22192201257515390FD00E58620E0FB53807F00758210125855
:2058C000CB00E58620E0FB43808022C007AF82E58620E0FB8FC1D007227EFF7FFF748BC0D1
:2058E000E0746FC0E01255DE15811581E58620E0FB00439002005390FD00E58620E0FB5300
:20590000807F007582121258CB00E58620E0FB438080E58620E0FB004390020020902F90F7
:205920000032E4F5F0C007C0061245081251EF75820F124755D006D00790FAE8E0FCA3E0FC
:20594000FDC3EC9EED9F50D48C068D0780CE7423C0E08E828F8312435D15817404C0E0120E
:205960003EA6AC82AD83158190F123ECF0EDA3F075820112194612588D121B24749DC0E0ED
:0C598000746FC0E01255DE158115812205
:206AA70001094032321C4B34000000019000323200000000000001A5003232323200000023
:206AC700004B0000020202020000000003900064640000000000001E580003010400000083
:206AE70000000100004B4B0000000000000604002D0A0300000000000400002D140500006A
:206B07000000000200002D140100000000000500000303000000000000000000000000001F
:206B270000000000000000000000000000000000000000000000000000000000000000004E
:206B470000000000000000000000000000000000000000000000000000000000000000002E
:206B6700000000000000000000000000000000000000000000000000000000000105010106
:206B87000011100032321C4B340000000112000000323200000000000001111100003232D0
:206BA7003232000000004B1212000002020202000000000312000000646400000000000016
:206BC7001E22200000030104000000000001000000004B4B00000000000006001000002D6C
:206BE7000A03000000000004000000002D1405000000000002000000002D140100000000F3
:206C0700000520000000030300000000000000000000000000000000000000000000000042
:206C270000000000000000000000000000000000000000000000000000000000000000004D
:206C470000000000000000000000000000000000000000000000000000000000000000002D
:206C670000000000000000000000000000000000000000000000000000000000000000000D
:206C8700000000010501010022200032321C4B34000000011200000032320000000000002D
:206CA700011122000032323232000000004B121200000202020200000000031200000064E1
:206CC700640000000000001E11100000030104000000000001000000004B4B00000000006B
:206CE7000006001000002D0A03000000000004000000002D140500000000000200000000F1
:206D07002D140100000000000501000000030300000000000000000000000000000000001E
:206D270000000000000000000000000000000000000000000000000000000000000000004C
:206D470000000000000000000000000000000000000000000000000000000000000000002C
:206D670000000000000000000000000000000000000000000000000000000000000000000C
:206D870000000000000000000000010501010021200032321C4B340000000112000000325F
:206DA70032000000000000011122000032323232000000004B121200000202020200000027
:206DC70000031200000064640000000000001E102000000301040000000000013300000045
:206DE7004B4B00000000000006302000002D0A03000000000004302000002D1405000000CC
:206E0700000002302000002D140100000000000500000000030300000000000000000000CC
:206E270000000000000000000000000000000000000000000000000000000000000000004B
:206E470000000000000000000000000000000000000000000000000000000000000000002B
