:040000000200833245
:01000B0032C2
:0100130032BA
:01001B0032B2
:0100230032AA
:03002B000243AEDF
:01003300329A
:01003B003292
:03004300024970FF
:03004B000242CBA3
:01005300327A
:01005B003272
:01006300326A
:01006B003262
:01007300325A
:03007B00025553D8
:0300FA0002007E83
:03007E000204DB9E
:2000FD00E58620E0FB225390FD00225380FB0022E58620E0FB004390020022E58620E0FBA6
:20011D00004380040022AF8290F091E4F090F092F08F061FEE60767E0090F95DE0FDBD0249
:20013D000BEE905CE593FDBDC800405990F95DE0FDBD010BEE905CE593FDBDC8005046EE46
:20015D0024E5FCE4345CFD8C828D83E493F582C007C006C005C004121C95E582D004D00517
:20017D00D006D007601F90F091E0FB90F0C2E0FAC3EB9A501090F091EAF08C828D83E49306
:20019D00FC90F092F00EBE0C005086808C90F092E0FFE06013BFC800400890F95D7402F02B
:2001BD00800690F95D7401F090F092E0F5822290F0F0E0FEA3E0FFC3742C9E74019F400998
:2001DD0090F0E6E07003300159300A0920020690F0C9E0700930031990F0CAE0601390FC3D
:2001FD0062E0FFBFFF0280097825E4F28F821227B5121E61AD82AE83AFF090F093EDF0EE78
:20021D00A3F0EFA3F0ED4E602D90F0F0E4F0A3F010010090F0E6E06002D20190F0E6E4F047
:20023D008014121F4CAD82AE83AFF090F093EDF0EEA3F0EFA3F01218F590F093E0FDA3E00C
:20025D00FEA3E0FFED4E700990F0E4E4F0A3F08059740F2DFAE43EFB8F048A828B838CF0B9
:20027D00125CC5FAA3125CC5FB90F0E4EAF0EBA3F0740D2DFAE43EFB8F048A828B838CF0B9
:20029D00125CC560168D828E838FF012318AE582701890F0E4E4F0A3F0800F74F6C0E07465
:2002BD005CC0E012544D15811581121940AE82AF8390F0F0E0FCA3E0FD90F0F0EE2CF0EF44
:2002DD003DA3F0BE580CBF020990F0C8E06003C2002290FA5EE0600E90FA5EE4F0900064F0
:2002FD00E4F5F002184090F0E4E0FEA3E0FF4E603BEF30E71F8E048F0553057F7878ECF221
:20031D00ED08F2E408F208F29003E8E4F5F01259770218407878EEF2EF08F2E408F208F2F0
:20033D0090EA60E4F5F0125977021840121940AE82AF837878EEF2EF08F2E408F208F290D3
:20035D0003E8E4F5F012597702184090F0D1E0FF600D8F82121C95E58290F95CF0800C75E2
:20037D008202120123E58290F95CF090F95CE0700920030690F0CAE07014300A09200206EA
:20039D0090F0C9E0700890F0E7E0FFBF231390FC62E0FFBFFF0280097825E4F28F82122791
:2003BD00B590F95CE0604890F0E7E4F090F0D1E0700F7582041217FB1214FE7582041218AB
:2003DD003490F0E674FDF09000281217D8121940AE82AF837878EEF2EF08F2E408F208F2EE
:2003FD009003E8E4F5F0125977121840D200227582011218BBAC82AD83AEF0FF7878ECF2B6
:20041D00ED08F2EE08F2EF08F29003E8E4F5F0125977021840E582FF24FA50030204C3EFF8
:20043D002F2F900443730242C702045502046C02049C0204C30204A57401C0E0745DC0E083
:20045D0012544D15811581C20090F95CE4F02290F95CE0FE740EC0E0745DC0E012544D15E5
:20047D00811581758204C0061217FB1213B81214FE758204121834D00690F95CEEF02290BE
:20049D000000E4F5F0021840741EC0E0745DC0E012544D158115817582041217FB1227A1A1
:2004BD007582040218347E00C007C006742EC0E0745DC0E012544DE58124FCF58122758250
:2004DD00011217FB75820F12460990FAB1E0FEA3E0FF7423C0E08E828F8312421115817410
:2004FD0004C0E0123D5AAC82AD83158190F0E8ECF0EDA3F0905CF1E493C0E0740193C0E03E
:20051D00905CF3E493C0E0740193C0E0740293C0E07440C0E0745DC0E012544DE58124F97C
:20053D00F581124C861219D912199190F0E674FCF0AEBE5306187F00BE1009BF000690F046
:20055D00E674FEF0301B09900000E4F5F01218407435C0E074FCC0E0E4C0E0746FC0E0744B
:20057D005DC0E012544DE58124FBF58112377E900190E4F5F01218407582041217FB121453
:20059D002A12376590F0C5E060117477C0E0745DC0E012544D1581158180187488C0E0744D
:2005BD005DC0E012544D15811581902710E4F5F012184090F95CE0FFE0601F8F82121C9551
:2005DD00E58270257495C0E0745DC0E012544D1581158190F95CE4F0800F74B3C0E0745D29
:2005FD00C0E012544D1581158190F95CE0700312036890F95CE06004D2008002C200758274
:20061D00041217FB1214FE3000067E287F0080047E587F028E828F831217D830000A7C88DA
:20063D007D137E007F0080087CC07DD47E017F008C828D838EF0EF1218403000051201CCF4
:07065D0080F812036880F32E
:205CE500C864C965CA66CB67CC68CD690900C55D804E6F207570646174650A00434D445F31
:205D0500444F5F5343414E0A0052657365742073657474696E67730A0045726173696E67F6
:205D250020696D616765730A00436D6420307825782069676E6F7265640A000A2573204F22
:205D450045504C2076253034782C20636F6D70696C65642041756720203320323032342075
:205D650031313A32313A35370A004D41432025730A00446F696E67206661737420626F6FBD
:205D8500740A004E6F726D616C20626F6F740A004E6F20415020666F756E64206F6E2073FF
:205DA50061766564206368616E6E656C0A004E6F207361766564206368616E6E656C0A0048
:095DC5004368726F6D6134320015
:0169970001FE
:20066400E58620E0FB225390FD00225380FB0022E58620E0FB004390020022E58620E0FB39
:20068400004380040022AC82AD83AEF0FF00C2A000758203123CC78E82123CC78D82123C7F
:2006A400C78C82023CC7C007C006C005C004C003C002C001C000AC82AD83AEF0FFE58124BB
:2006C400F5F8860208860300C2A000758203123CC78E82123CC78D82123CC78C82123CC733
:2006E4008A068B07E58124F3F886040886058C028D031CBCFF011DEA4B6015758200123C40
:20070400C7AB828E828F83EBF0A3AE82AF8380DE00D2A000D000D001D002D003D004D00520
:20072400D006D00722AF8200C2A0008F82123CC700D2A0002200C2A000758205123CC775B1
:200744008200123CC7E58220E0F500D2A00022AC82AD83AEF0FF7803E2FA08E2FBC007C050
:2007640006C005C004C003C002120739758206120729D002D003D004D005D006D00700C213
:20078400A000758202123CC78E82123CC78D82123CC78C82123CC78A068B077805E2FC08B6
:2007A400E2FD8C028D031CBCFF011DEA4B60128E828F83E0FBA3AE82AF838B82123CC780F8
:2007C400E100D2A000221207397582B9120729C20C227582AB12072975F034D5F0FDD20C4F
:2007E40022C007C006C005C004C003C002C001C000C082C083C0F0C0E005810581E581244C
:20080400EFF88605088604E58124EDF8E6084670030208DEC005C004E58124F9F88602083E
:200824007B00E58124FDF8E4C39AF674019B08F6E58124FDF8E58124EBF9C3E79609E70850
:2008440096D004D005500EE58124EDF8A98119E6F708E609F77803EDF2EC08F2A881187980
:2008640005E6F308E609F3E58124FBF886820886830886F008E6C007C006C005C004C003D1
:20088400C002C001C000C025120753D025D000D001D002D003D004D005D006D007A88118EE
:2008A4008602088603E4FEFFE58124FBF8EA26F6EB0836F6EE0836F6EF0836F6A88118E62C
:2008C4002DFD08E63CFCE58124EDF8A98119E6C397F608E60997F602080BE58124FAF58149
:2008E400D000D001D002D003D004D005D006D00722C007C006C005C004C003C002C001C01A
:2009040000C082C083C0F0C0E0E58124FDF88602088603EA7005EB540F6006758200020A50
:2009240029E58124F1F8E608467003020A26758206C007C006C005C004C003C002C001C025
:2009440000C025120729D025D000D001D002D003D004D005D006D00700C2A000E58124F1FE
:20096400F88602088603C3EA9410EB94004018E58124FDF88602088603EA4B700A7582D824
:20098400123CC77D108008758220123CC77D01E58124FDF808088682123CC7E58124FDF854
:2009A400088682123CC7E58124FDF88682123CC700D2A000C007C006C005C004C003C00265
:2009C400C001C000C025120739D025D000D001D002D003D004D005D006D007C00590100065
:2009E400123D5AAA82AB83AEF0FF1581E58124FDF8EA26F6EB0836F6EE0836F6EF0836F6D4
:200A04008D037F00E58124F1F88605088606EDC39BFDEE9FFEE58124F1F8A60508A606028A
:1C0A24000925758201E58124FCF581D000D001D002D003D004D005D006D00722D6
:200A4000E58620E0FB225390FD00225380FB0022E58620E0FB004390020022E58620E0FB59
:200A6000004380040022C007C006C005C004AF82AE83ADF0FC90F0BEEFF0EEA3F0EDA3F05E
:200A8000ECA3F0C202C203D209758204C007C006C005C004C003C002C001C000C02512174E
:200AA000FBD025D000D001D002D003D004D005D006D00790F0BEE0FCA3E0FDA3E0FEA3E00C
:200AC000FF7416C0E0E4C0E074F6C0E074F0C0E08C828D838EF0EF1206AAE58124FCF58112
:200AE00090F0BEE0FCA3E0FDA3E0FEA3E0FF90F0BE74162CF0E43DA3F0E43EA3F0E43FA346
:200B0000F090F106E0FFBF2004C207806A90F106E0FFBF2104D207805E90F106E0FF7E0004
:200B2000C007C00674B6C0E07463C0E012544DE58124FCF58190FA717416F0E4A3F090F0CC
:200B4000F675F000C007C006C005C004C003C002C001C000C025121B48D025758204C025EF
:200B6000121834D025D000D001D002D003D004D005D006D0078051C221C007C006C005C0C0
:200B800004C003C002C001C000C02512569DD025C025120BD1D025D221C02512569DD025D2
:200BA000C025120BD1D025758204C025121834D025C0251256EFD025D000D001D002D003C3
:200BC000D004D005D006D007D004D005D006D007227F807E0090F09CE4F0A3F090F0A8F02F
:200BE000A3F090F09EF0A3F05390FD007809E4F2200903020C8030211C20071974DCC0E033
:200C00007405C0E0E4C0E090F0F6123F03158115811581805090F0BEE0FAA3E0FBA3E0FCC6
:200C2000A3E0FD74DCC0E07405C0E074F6C0E074F0C0E08A828B838CF0ED1206AAE581244E
:200C4000FCF58190F0BEE0FAA3E0FBA3E0FCA3E0FD90F0BE74DC2AF074053BA3F0E43CA3DB
:200C6000F0E43DA3F07B1E7C0090F09EE02401F0A3E03400F01BBBFF011CEB4C70EB804CB1
:200C800074DCC0E07405C0E0E4C0E090F0F6123F031581158115817B1E7C00C007C006C0D9
:200CA00004C0037807E2F58208E2F583120081D003D004D006D00790F09EE02401F0A3E0B6
:200CC0003400F01BBBFF011CEB4C70CF7B007C00EF7003020D723021238E02EA2AFEEB2489
:200CE000F6F582EC34F0F583E0FAEF5A7003430601EF30E02B8E821256E180248E02EA2A54
:200D000025E0FEEB24F6F582EC34F0F583E0FAEF5A6003430603EF541160058E821256E1E8
:200D2000EFC313FF90F09CE02401F0A3E03400F090F09CE0FAA3E0FDBAC814BD0011E586F2
:200D400020E0FB00439002005380FB00020CD0BA9005BD01028003020CD0E58620E0FB0041
:200D6000438004005390FD0090F09CE4F0A3F0020CD07F800BBB00010CC3EB94DCEC9405F6
:200D80005003020CD090F0A8E0FCA3E0FD741E2CFCE43DFD90F0A8ECF0EDA3F07809E224BB
:200DA00001F27809E2B40A005003020BF0E58620E0FB0043900200E58620E0FB0043800467
:200DC0000022AE82AF83C202C203C209D207C2217807EEF2EF08F212569D120BD1D221123F
:200DE000569D120BD10256EFC007C006C005C004C003C002C001C000AD82AE83AFF0780A2E
:200E0000125CC5F2A204202101B34003020F4F90F09AE0F508A3E0F50974012DFAE43EFB3E
:200E20008F048A828B838CF0125CC5FA780DF2E408F2850882850983C007C006C005C004D1
:200E4000C003C002C001C000120FDEE582D000D001D002D003D004D005D006D00760030225
:200E60000F4F90F098E0F508A3E0F509780AE2F50A750B00780BE50AF2E50B08F28508825E
:200E8000850983C007C006C005C004C003C002C001C000120FB6D000D001D002D003D00434
:200EA00090F0A4E0F508A3E0F50990F0ACE0FBA3E0FCEBC39508F582EC9509F5837876E593
:200EC0000AF2E50B08F2C002C001C000125957AB82AC83D000D001D002D005D006D007ECEA
:200EE000C423CBC423541F6BCB541FCB6BCBFC90F0BAEBF0ECA3F074022BFBE43CFCEB2DDC
:200F0000FDEC3EFE780AE2604690F0B8E0FBA3E0FC90F0B874012BF0E43CA3F0EB24F6FB95
:200F2000EC34F0FC8B828C83E0F50A8D828E838FF0125CC5FAA3AD82AE83E50A42028B829B
:200F40008C83EAF0780AE2FC780A24F8F280B5D000D001D002D003D004D005D006D00722C5
:200F600090F0AAE0FEA3E0C423CEC423541F6ECE541FCE6ECE30E40244E0FF90F0A8E0FCE1
:200F8000A3E0FD90F0ACE0FAA3E0FBEAC39CFCEB9DFD7876ECF2ED08F2900032C007C00681
:200FA000125957AC82AD83D006D00790F0B8EC2EF0ED3FA3F022AE82AF8390F0A0EEF0EFF2
:200FC000A3F090F0AAEEF0EFA3F0780B90F0A2E22EF008E23FA3F0120F6075820022AF83C7
:200FE000E582780FF2EF08F2780F790DE3C5F0E225F0FC09E3C5F008E235F0FD90F0A6ECD1
:20100000F0EDA3F090F09EE0FAA3E0FB8A068B07780FC3E2F5F0EE95F008E2F5F0EF95F001
:201020004025EA9CEB64808DF063F08095F05017780F90F0A4E2F008E2A3F090F0ACEAF0BA
:20104000EBA3F07582002275820122C007C006C005C004C003C002C001C000AC82AD83AEB7
:20106000F0FFE5812404F581BF2000502C8F82C007C006C005C004C003C002C001C000C035
:2010800025123C12D025D000D001D002D003D004D005D006D00702137B7E00EF24E0FFEE4C
:2010A00034FFFEEF2FFFEE33FEEF24CEF582EE345DF583E493FEA3E493FF90F0BAEEF0EFDF
:2010C000A3F0EFC4540FFE90F0B2F0300507EE2EFE90F0B2F090F0B0E0FEA3E0FF90F0B30C
:2010E000E0FD780DF2ED3395E008F28E828F83C007C006C005C004C003C002C001C000C00F
:2011000025120FDEE582D025D000D001D002D003D004D005D006D007602790F0B2E0FF33E8
:2011200095E0FE0FBF00010E90F0AEE0FCA3E0FDEF2CFFEE3DFE90F0AEEFF0EEA3F00213EF
:201140007BA204202101B3400302137B90F0AEE0FEA3E0FF90F0B2E0FD780BF2ED3395E0FF
:2011600008F28E828F83C007C006C005C004C003C002C001C000C025120FB6D025D000D0E6
:2011800001D002D003D004D005D006D00790F0BAE0FEA3E0FF53070F90F0BAEEF0EFA3F0B6
:2011A00090F0AEE0FEA3E0FF8E055305078DF005F07D80E4FC3392D28008A2D2EC13FCEDE5
:2011C00013FDD5F0F590F0B2E0FC3395E0FB0CBC00010BEC2EFCEB3FFB90F0AEECF0EBA3ED
:2011E000F030055A90F0A4E0FEA3E0FF90F09EE0FBA3E0FCEBC39EFEEC9FFF8E828F837806
:201200008B7402F2E408F2C005C004C003C002C001C000C025125C00AE82D025D000D00155
:20122000D002D003D004D0058EF005F07E007F808007C3EF13FFEE13FED5F0F6802FC005F7
:2012400090F0A4E0FBA3E0FC90F09EE0FAA3E0EAC39BFA8AF005F07A007D808007C3ED1323
:20126000FDEA13FAD5F0F68A068D07D005C006C00790F0A4E0FBA3E0FC90F0B0E0FAA3E02E
:20128000FFEAC39BFBEF9CFC90F0BAE0FEA3E0FF90F0BAEB2EF0EC3FA3F090F0BCE4F0A337
:2012A000F0D007D006C006C00790F0BCE0FBA3E0FC90F0B2E0FA3395E0FFC3EB9AEC9FD018
:2012C00007D006400302137BC006C00790F0BAE58124FBF8E0F6A3E008F6E58124FBF8E660
:2012E00026FA08E633FFEA248EF582EF345EF583E58124FDF8E493F6A3E49308F6D007D0F7
:2013000006300517EB30E024E58124FDF890F0BA740126F0E40836A3F08011E58124FDF853
:2013200090F0BA740126F0E40836A3F0A88118EE56FBEF0856FC4B601F90F0B8E0FBA3E00A
:20134000FCEB24F6FBEC34F0FC8B828C83E0FAED42028B828C83EAF0EDC313FD700E90F0AA
:20136000B8E02401F0A3E03400F07D8090F0BCE02401F0A3E03400F00212A5E58124FCF510
:1213800081D000D001D002D003D004D005D006D007221C
:205DCE000070071008500D9016601CA026A03010316037603D7044904D204F6055205780F0
:205DEE005F7066706D6073507880805085708C7093709A70A120A320A570AC80B470BB7086
:205E0E00C2A0CCA0D670DD80E570EC70F370FA8002710971105115811D7124812C7133810D
:205E2E003B7142814A7151715891617168A172A17CA186A1908198519D81A551AA81B2A1C1
:205E4E00BC21BE71C571CC71D371DA71E181E971F071F741FB51007207420B9214721B721A
:205E6E0022722972306236623C724362499252A25C8264A26E8276627C127D6283A28D725C
:205E8E000000000000000000000000000000D87F0078000000000000007880009804E005AC
:205EAE00801E9864E005801E80648004183808640842FCFF8841F040083810442044C04459
:205ECE0000397002880C881088207040E0001001083A08468845C84C3838180068008001B2
:205EEE000078E00718180C300420024002400240024004200C301818E00700100018000FEF
:205F0E000072000F001800104000400040004000F807400040004000400019001E00800014
:205F2E00800080008000800080001800180002000C003000C0000003000C00300040C00F57
:205F4E0030300840084008403030C00F082008200820F87F0800080008001860284048405D
:205F6E0088400843083C0840084208420842F03DC0004003400440184020F87F4000400073
:205F8E00087C084408441042E041E00F10320844084408441042E00100401840E040004321
:205FAE00004C00500060F038084508420842084590456038001E0821884088408840302124
:205FCE00C01F1806180619061E06C000C000200120011002100208042001200120012001DF
:205FEE00200120012001200108041002100220012001C000C00000700040D84000410042D2
:20600E0000640038C00F30181820C84728486850D851E03F2000200008007000C001400E41
:20602E004018400C4003C00030000800F81F08110811081108118812700CC003300C1008CB
:20604E0008100810081008100818F81F08100810081008101008E007F81F8810881088105D
:20606E00881088100810F81F801080108010801080100010C003300C1008081008108810F4
:20608E008810F818F81F80008000800080008000F81F081008100810F81F081008100810F5
:2060AE000800081008100810F01FF81F0001800140022004200810100800F81F08000800FD
:2060CE000800080008000800F81F001C8007E00060008003001CF81FF81F0008000680013C
:2060EE0060001000F81FE007100808100810081008101008E007F81F801080108010801056
:20610E000011000EE00710080810081008100C101208E207F81F80108010C0102011100E96
:20612E000800180E0812081108118810901070180010001000100010F81F00100010001090
:20614E000010E01F18000800080008001000E01F0010000C8003600018001800E0000003D1
:20616E00000C00100018C0073800F0000007800370003800C0070018081010082004400247
:20618E008001800140022004100808100010000800060001F8000001000200040008001023
:2061AE0018102810481088100811081208140818FE7F024002400240024000400030000C11
:2061CE000003C00030000C0002000240024002400240FE7F2000C0000007001C0070000EAA
:2061EE00C0012000040004000400040004000400040004000400040000800040300048044C
:20620E00880488049004F8030800F87F10020804080408041006E001E00110020804080412
:20622E00080408040804E00118020804080408041002F87FE00190028804880488048804E1
:20624E00880300040004F83F00240044004400440044E00119020904090409041202FC07F8
:20626E00F87F00010002000400040004F803000400040064F8670100010401040164FE67EF
:20628E00F87F8000C0002001200210020804004000400040F87FF807000200040004F8039D
:2062AE00000200040004F803F80700030002000400040004F803E0011002080408040804A9
:2062CE001002E001FF0710020804080408041006E001E00118020804080408041002FF0753
:2062EE00F8070001000200040004000718038804880448044804300400040004F01F08045D
:20630E00080408040804F0070800080008001000F807000480036000180008003000C00036
:20632E00000300040006E001180070008003800170001800E0010006080410022001C00067
:20634E00C00020011002080401040103C10062001C001800600080000003000408041804C1
:20636E00280448048804080508060804800080007C3F024002400240FE7F02400240024020
:20638E007C3F80008000C000000100010001800080004000400040008001F8010803080420
:2063AE00080808040803F80164617461547970652030782578206E6F7420737570706F72D4
:0563CE007465640A0083
:20139200E58620E0FB225390FD00225380FB0022E58620E0FB004390020022E58620E0FBFE
:2013B20000438004002290F0C47401F090F0C5E4F090F0C6F090F0C7F090F0C8F090F0C982
:2013D20004F090F0CAF090F0CCE4F090F0CBF090F0CF7428F0E4A3F090F0D1F090F0CD741E
:2013F20028F0740AA3F090F95CE4F090F95DF022AD82AE83125CC5FCBC011C7BC47CF08B63
:20141200828C83740EC0E0C005C006123F9B1581158115810214FE227480C0E0E4C0E0740C
:20143200A2C0E074FDC0E090C000E4F5F01206AAE58124FCF581740EC0E07414C0E074FEB4
:20145200C0E090F0C4123F9B15811581158190FDA2E0FCA3E0FDA3E0FEA3E0FFBCA513BD29
:201472005A10BEBA0DBFAB0A90FDA6E0FFBF0102803590FDA2E0FCA3E0FDA3E0FEA3E0FFE0
:2014920090FDA6E0FB7A00C004C005C006C007C003C00274D3C0E07463C0E012544DE581A0
:2014B20024F8F5810213B890FDA7E090F95CF090FDA8E090F95DF07401C0E07464C0E01248
:2014D200544D1581158112165090FDA2E4F004C0E0E4C0E074A2C0E074FDC0E090C000E48F
:2014F200F5F01207E5E58124FCF581227480C0E0E4C0E074A2C0E074FDC0E090C000E4F5D1
:20151200F01206AAE58124FCF58190FDA2E0FCA3E0FDA3E0FEA3E0FFBCA53EBD5A3BBEBA14
:2015320038BFAB35788674C4F274F008F2E408F27889740EF2E408F290FE1475F000125B97
:2015520046E5828583F045F0700F90FDA7E0FF90F95CE0FEEFB506012290FE21E0FF90F06F
:20157200D1E0FEEFB50602803EEE603BBE6400502390FE21E0FF7D00C007C0057413C0E064
:201592007464C0E012544DE58124FCF58190F0D1E4F08013BEC800400890F95D7402F080C0
:2015B2000690F95D7401F07480C0E0E4C0E0C0E090FDA2123F03158115811581740EC0E0A9
:2015D20074C4C0E074F0C0E090FE14123F9B15811581158190FDA274A5F0F4A3F074BAA33D
:2015F200F0C4A3F090FDA67401F090F95CE090FDA7F090F95DE090FDA8F07401C0E0E4C06D
:20161200E090C000E4F5F01208F5158115817480C0E0E4C0E074A2C0E074FDC0E090C00055
:20163200E4F5F01207E5E58124FCF581742CC0E07464C0E012544D1581158102165090F056
:20165200C8E0FF7E00C007C006743DC0E07464C0E012544DE58124FCF58190F0D1E0FF7EA0
:2016720000C007C0067456C0E07464C0E012544DE58124FCF58190F0CDE0FEA3E0FFC006C7
:20169200C0077469C0E07464C0E012544DE58124FCF58190F0C5E0FF7E00C007C006747DAD
:2016B200C0E07464C0E012544DE58124FCF58190F95CE0FF7E00C007C0067492C0E0746404
:0C16D200C0E012544DE58124FCF581229B
:2063D3004C6F616465642064656661756C74732073657474696E67735665722030782578C6
:2063F300204D61676963203078256C780A004C6F616465642073657474696E67733A0A0090
:2064130049676E6F7265642066697865644368616E6E656C2025640A00536176656420737F
:20643300657474696E67733A0A0020205363616E2041667465722054696D656F75742025E4
:20645300640A00202066697865644368616E6E656C2025640A0020206261744C6F77566F91
:206473006C746167652025640A002020656E61626C6546617374426F6F742025640A0020AD
:0D649300204C6173742063682025640A00AA
:2016DE00E58620E0FB225390FD00225380FB0022E58620E0FB004390020022E58620E0FBAF
:2016FE0000438004002275F10175805875FDDD75F33875904075FE6E75F4E875A00175FF3F
:20171E0001227401C0E0E4C0E0900000E4F5F01208F5158115817417C0E0E4C0E074A0C0D8
:20173E00E07464C0E090F0F6123F61E58124FCF5817417C0E0E4C0E074F6C0E074F0C0E052
:20175E00900000E4F5F01207E5E58124FCF58122C00775E40075FC0075F70075FE0290F9FB
:20177E0056E0FF54F06002800DD291758F0075F60075FD008012758F8575F62F75FD85757E
:14179E00FE2F53807A5390D075F30075F40075F500D00722D6
:1764A0005612098501084A43000000002303080904EC0212045A0AB6
:027FFE00A66477
:2017B200E58620E0FB225390FD00225380FB0022E58620E0FB004390020022E58620E0FBDA
:2017D200004380040022AE82AF837D00BD08005017ED75F002A424D2F58274F035F0F5839D
:2017F200EEF0EFA3F00D80E422E582FF30E02512505EC007124334D2AF121704123CC31268
:2018120047DAD00775820A12481990F95CE0FEF582124765EF30E209123CF0200C030207D2
:20183200D622E58230E206300C030207CA22AF82AE83ADF0FC90F0F2EFF0EEA3F0EDA3F09E
:20185200ECA3F090F0F2E0FCA3E0FDA3E0FEA3E0FFC004C005C006C00774B7C0E07464C0AD
:20187200E012544DE58124FAF581300C16758204C007C006C005C004121834D004D005D08F
:2018920006D007C007C006C005C004125683D004D005D006D00712176E8C828D838EF0EFE0
:2018B2001243BC7582010217FBE582FF601090F0E7E0FFBFFF00500690F0E7EF04F090F0FF
:2018D200E7E0FFBF18005007900E10E4F5F022BF24005007901C20E4F5F02290518075F0B2
:2018F20001E42290F0E3E07876F2E408F29002301259577863740EF2E408F2125780AE8204
:20191200AF8374282EFEE43FFF90F0E2E054077D0025E0FCED33FDEC24D2F582ED34F0F502
:2019320083EEF0EFA3F090F0E2E02401F0227E007F007D00BD0800501DED75F002A424D29F
:20195200F58274F035F0F583E0FBA3E0FCEB2EFEEC3FFF0D80DEEFC423CEC423541F6ECEBD
:20197200541FCE6ECEFF90F0CFE0FCA3E0FDC3EE9CEF9D50058C828D83228E828F832290EC
:20199200FAB3E0FF3395E0FEC007C00674CCC0E07464C0E012544DE58124FCF58190F0C22D
:2019B200E0FF7E0090F0C3E0FD3395E0FCC007C006C005C00474D7C0E07464C0E012544DC8
:2019D200E58124FAF5812275820E12460912463575820F12460990FAB1E0FEA3E0FF74234D
:2019F200C0E08E828F8312421115817404C0E0123D5AAC82AD83158190F0EEECF0EDA3F099
:201A1200C20A90F0CDE0FEA3E0FFC3EC9EED9F5004D20A803A90F0EAE0FCA3E0FD4C6013F3
:201A3200C3EC9EED9F500C90F0EEECF0EDA3F0D20A801C90F0ECE0FCA3E0FD4C6011C3ECE9
:201A52009EED9F500A90F0EEECF0EDA3F0D20A90F0ECE0C0E0A3E0C0E090F0EAE0C0E0A3AE
:201A7200E0C0E090F0EEE0C0E0A3E0C0E090F0E8E0C0E0A3E0C0E074E8C0E07464C0E01232
:091A9200544DE58124F6F5812292
:2064B700536C656570696E6720666F7220256C64206D730A0054656D7020256420430A005C
:2064D700525353492025642C204C51492025640A00426174745620426F6F742025642C204C
:1A64F7006E6F772025642C2054782025642C207570646174652025640A004B
:0500DC00781174FFF231
:201A9B00E58620E0FB225390FD00225380FB0022E58620E0FB004390020022E58620E0FBEE
:201ABB00004380040022121B17E582600790F96FE0F58222121AE1E582600790F973E0F5F3
:201ADB0082227582002290F95EE05407FFBF012890F95FE003035403FFBF031C90F95FE05B
:201AFB0023235403FFBF031090F95EE023235401FFBF0104758201227582002290F95EE03E
:201B1B005407FFBF012390F95FE003035403FFBF021790F95FE023235403FFBF030B90F9B7
:201B3B005EE020E6047582012275820022AFF0AE83E58290FA73F0EEA3F0EFA3F090FA73EB
:201B5B00E0FDA3E0FEA3E0FF90FA71E0FBA3E0FC79007A00C3E99BEA9C5052E94A6016E941
:201B7B00540F6002800F7411C0E07465C0E012544D15811581C003C004E92DF8EA3EFB8F32
:201B9B000488828B838CF0125CC5F87C00C000C0047413C0E07465C0E012544DE58124FC8E
:201BBB00F58109B900010AD004D00380A77411C0E07465C0E012544D1581158122AFF0AE0D
:201BDB0083E5827813F2EE08F2EF08F27816E4F27B017812C3E2F5F0EB95F050227813E26F
:201BFB00FA08E2FC08E2FFEB2AFAE43CFC8A828C838FF0125CC5FA7816E22AF20B80D378AD
:201C1B0013E2FD08E2FE08E2FF8D828E838FF0125CC5FD7816E2B50503D38001C3E433F5C7
:201C3B008222AFF0AE83E5827818F2EE08F2EF08F2781BE4F27B017817C3E2F5F0EB95F0ED
:201C5B0050227818E2FA08E2FC08E2FFEB2AFAE43CFC8A828C838FF0125CC5FA781BE22A2B
:201C7B00F20B80D37818E2FD08E2FE08E2FF8D828E838FF0781BE202593CE5812404F5810A
:201C9B00AF82C218C007124A03D0078F82124765C007124AB8D218124A03D0077E01EE24C6
:201CBB00FC5003021DBF90F9DE7414F0C007C0061237C590F9F074EDF090F9DE1248FFD008
:201CDB0006D0071242ECAA82AB83ACF0FD90FA7674A62AF0740E3BA3F0E43CA3F0E43DA3DE
:201CFB00F0C0061242ECAA82AB83ACF0FD90FA76E58124FCF8E0F6A3E008F6A3E008F6A3E7
:201D1B00E008F6E58124FCF8C3EA96EB0896EC0896ED0896D0064003021DBBC007C00612D9
:201D3B004A15AD82D006D007C374818DF063F08095F050AD90F974E0FDB507A5C007C006FB
:201D5B00121AC1AD82D006D007BDEE95C007C006121AE1E582D006D00760867408C0E0743B
:201D7B006BC0E074F9C0E090F949123F9B15811581158190F961E0FCA3E0FD90F951ECF0B4
:201D9B00EDA3F08F047D00C004C0057419C0E07465C0E012544DE58124FCF5818F82802009
:201DBB000E021CB98F057E00C005C0067423C0E07465C0E012544DE58124FCF58175820030
:201DDB00E58124FCF5812290F9DE742AF01237C590F9F074E5F090F9F77483F090F0E6E058
:201DFB0090F9F8F090F0C3E090F9F3F090F0C2E090F9F2F090FAB3E090F9F4F090F0EEE063
:201E1B00FEA3E0FF90F9F5EEF0EFA3F090F9F9E4F0905CF193FE740193FF90F9FAEEF0EF2E
:201E3B00A3F090F95CE090F9FCF090F0CCE090F9FDF078177415F290F9F175F000121C3DC4
:201E5B0090F9DE0248FFD218124A031219D91219917F00781CE4F2781CE2B40E0040030248
:201E7B001F3FC007121DE2D0071242ECAA82AB83ACF0FD74882AF52674133BF527E43CF5D3
:201E9B0028E43DF529C0071242ECAC82AD83AEF0FFC3EC9526ED9527EE9528EF9529D0077C
:201EBB004003021F32C007124A15AE82D007C374818EF063F08095F050CBC007121AC1AE27
:201EDB0082D007BEE6BF78127411F290F97475F000C007121BD8E582D00760A97408C0E099
:201EFB00746BC0E074F9C0E090F949123F9B15811581158190F96175F000125CC5FDA31287
:201F1B005CC5FE90F951EDF0EEA3F090F0E3EFF090F97475F00022781CE22401F2781CE286
:201F3B00FF021E7290F0E3740EF090000075F00022D218124A037F00781DE4F2781DE2B4AB
:201F5B000E00400302203390F9DE7414F090F9F074E3F0C0071237C590F9DE1248FFD007B5
:201F7B001242ECAA82AB83ACF0FD74882AF52A74133BF52BE43CF52CE43DF52DC00712424D
:201F9B00ECAC82AD83AEF0FFC3EC952AED952BEE952CEF952DD0075072C007124A15AE82C3
:201FBB00D007C374818EF063F08095F050CEC007121AC1AE82D007BEE6C278127411F290D1
:201FDB00F97475F000C007121BD8E582D00760AC7408C0E0746BC0E074F9C0E090F9491272
:201FFB003F9B15811581158190F96175F000125CC5FDA3125CC5FE90F951EDF0EEA3F0900F
:20201B00F0E3EFF090F97475F00022781DE22401F2781DE2FF021F5790F0E3740EF090008E
:20203B000075F00022AFF0AE83E582781EF2EE08F2EF08F2781EE22402FA08E23400FB08B5
:20205B00E2FC8A828B838CF0125CC5F52E852E2F75300090FA5FE0F531AE317F00E52FC3F0
:20207B009EFEE5309FFF7876EEF2EF08F2900063C004C003C002125957AE82AF83D002D03D
:20209B0003D0048E2F8F3090FA7AE52FF0E530A3F0781EE22401FD08E23400FE08E2FF8DF6
:2020BB00828E838FF0125CC5FD90F922E0FFEDB50702800122E52E24D5500122C3E52E9501
:2020DB00315001227463252FFEE43530FFC374239E74089F500122781EE2FD08E2FE08E203
:2020FB00FF78127466F28D828E838FF0C004C003C002121BD8E582D002D003D0047003022E
:20211B0021B4781EE22403FD08E23400FE08E28D2F8E3090FA7AE0FEA3E0FFEE24F6FEEF5A
:20213B0034F0FF8E828F837463C0E0E4C0E0C02FC030123F61E58124FCF5818A828B838C11
:20215B00F0125CC5FA7F00788B7408F2E408F28A828F83C007C002125C00AD82AE83D00232
:20217B00D007ED2424FDEE34F9FE5302078AF005F07401800225E0D5F0FBF4FA8D828E838D
:20219B00E052028D828E83EAF07430C0E07465C0E012544D15811581227432C0E07465C059
:2021BB00E012544D1581158122AF82AE83ADF0FC7821EFF2EE08F2ED08F2EC08F290FA5F10
:2021DB00E0FB7A0090F922E0FF7E00C003C002C007C0067443C0E07465C0E012544DE5818C
:2021FB0024FAF581D218124A031242EC85823285833385F034F53578217978E22414F308C1
:20221B00E2340009F308E2340009F308E2340009F3900019E4F5F0125977AA82AB83AEF011
:20223B00FFEA2532F532EB3533F533EE3534F534EF3535F5351242ECAA82AB83AEF0FFC3A4
:20225B00EA9532EB9533EE9534EF9535503C124A15AF82C374818FF063F08095F050D6129A
:20227B001AC1AF82BFE8CE90F97475F0001220407F00EF2424FDE434F9FE8D828E83E070BC
:20229B00060FBF060040EBBF06AB7411C0E07465C0E012544D15811581C218124A03024AAC
:2022BB00B890F975E4F0A3F090F97475F00022742AC0E0E4C0E0C0E090F9DE123F031581AF
:2022DB001581158190F9DE742AF090F943E0600890F9F474E4F0800690F9F474E7F074081F
:2022FB00C0E07453C0E074F9C0E090F9EC123F9B1581158115817408C0E07449C0E074F9A6
:20231B00C0E090F9E4123F9B15811581158190F9DFE054F84401F090F9DFE054C74440F047
:20233B0090F9E0E0440C54CF44C0F090F95BE0FF04F090F9E1EFF090F951E0FEA3E0FF9008
:20235B00F9E2EEF0EFA3F07DF57EF98D828E837411C0E07419C0E074F9C0E0123F9B15813D
:20237B00158115817DF57EF97F0078177411F28D828E838FF0121C3D90F9DE0248FFE58188
:20239B002404F581D218124A03124AB87F00BF1E00400302247CC0071222CAD0071242EC0A
:2023BB00AB82AC83ADF0FE90FA7C74642BF0749F3CA3F0740B3DA3F0E43EA3F0C007124A09
:2023DB0015AE82D007C374818EF063F08095F05051C007121AC1AE82D007BEE8028028BECE
:2023FB00E9028005BEEC33802978127403F290F97475F000C007121BD8E582D0076023905A
:20241B00F97475F00080631222BCAC82AD83AEF0805890000075F000805090000075F0006E
:20243B008048C0071242ECC8E58124FCC8A68208A68308A6F008F690FA7CE0FAA3E0FDA3A4
:20245B00E0FEA3E0FFE58124FCF8C3E69A08E69D08E69E08E69FD00750030223D70F022342
:20247B00A91222BCAD82AE83AFF0E58124FCF58122741BC0E0E4C0E0C0E090F9DE123F037D
:20249B0015811581158190F9DE7419F090F9F474EAF07408C0E07453C0E074F9C0E090F997
:2024BB00EC123F9B1581158115817408C0E07449C0E074F9C0E090F9E4123F9B158115815C
:2024DB00158190F9DFE054F84401F090F9DFE054C74440F090F9E0E0440C54CF44C0F0906B
:2024FB00F951E0FEA3E0FF90F9E2EEF0EFA3F090F95BE0FF04F090F9E1EFF090F9DE02489B
:20251B00FFD218124A037F00BF1000506CC00712248CD0071242EC85823A85833B85F03C79
:20253B00F53D1242EC85823685833785F038F539E536C3953AFAE537953BFCE538953CFD3D
:20255B00E539953DFEC3EA94A6EC940EED9400EE94005022C007124A15AE82D007C3748191
:20257B008EF063F08095F050B9C007121AC1AE82D007BEEBAD220F808F22AF827878EFF2EC
:20259B00E408F208F208F290B000E4F5F0125977AC82AD83AEF0FF74902DFD74013EFEE4A5
:2025BB003F8C828D838EF022AD82AE83AFF07C007B00BB15004003022652C0048B82C007E8
:2025DB00C006C005C003122595A882A983AAF0FCD003D005D006D0077416C0E0E4C0E07463
:2025FB00F6C0E074F0C0E0888289838AF0EC1206AAE58124FCF5817463C0E074FCC0E090D5
:20261B00F0FE12426E15811581920ED004300E218D008E018F027408C0E0C000C00190F026
:20263B00F6123F2F158115811581920E50038C82220B8B040225CD7582FF22AF825307F8FB
:20265B007E007D00BD150040030226DEC0068D82C007C005122595AA82AB83ACF0FED00553
:20267B00D0077416C0E0E4C0E074F6C0E074F0C0E08A828B838CF0EE1206AAE58124FCF5EB
:20269B00817463C0E074FCC0E090F0FE12426E158115819228D006302823C00690F10BE06E
:2026BB00FC5304F87B008F027E00ECB50206EBB506028004D0068005D0068E82220D8D0652
:2026DB0002265F7582FF22122595AC82AD83AEF0FF7416C0E0E4C0E074F6C0E074F0C0E0BD
:2026FB008C828D838EF0EF1206AAE58124FCF58190F10BE0F58222AF828F060EEE24EA5051
:20271B00027E00EEB507038E82228E82C007C006122595AA82AB83ACF0FDD006D0077416AC
:20273B00C0E0E4C0E074F6C0E074F0C0E08A828B838CF0ED1206AAE58124FCF5817463C074
:20275B00E074FCC0E090F0FE12426E15811581922850A890F10BE0FD5305F87C00BD789B4B
:20277B00BC00988E8222122595AC82AD83AEF0FF740BC0E0E4C0E08C828D838EF0EF1208A9
:20279B00F515811581227F00BF1500500C8F82C007122781D0070F80EF22AF828F057E00E0
:2027BB00C005C0067452C0E07465C0E012544DE58124FCF5818F82122595020A667826E414
:2027DB00F208F208F208F27B00BB150040030228778B82C00312259585823E85833F85F032
:2027FB0040F541D0037416C0E0E4C0E074F6C0E074F0C0E0853E82853F838540F0E5411240
:20281B0006AAE58124FCF5817463C0E074FCC0E090F0FE12426E15811581920F503AC00310
:20283B0090F107E0FAA3E0FBA3E0FEA3E0FF7826C3E29A08E29B08E29E08E29FD0035018EC
:20285B0090F1077826E0F2A3E008F2A3E008F2A3E008F290F948EBF00B0227E47826E2F5B5
:20287B008208E2F58308E2F5F008E222AF82AE83D21090F922E0FD7C007B007A008C44EB86
:20289B00C454F0C544C4C5446544C54454F0C5446544F545EDC4540F4544F544EDC454F092
:2028BB00F543754200300D167830E542F2E54308F27401254408F2E4354508F28049781156
:2028DB00E2F582C007C00612259585824685834785F048F549D006D00774162546F546E4D3
:2028FB003547F547E43548F548E43549F5497830E5462542F2E547354308F2E5483544084F
:20291B00F2E549354508F290FA837405F090FA5FE4F090F94304F0782AEFF208EEF2740630
:20293B00C0E0E4C0E0C0E090F924123F0315811581158190FA83E0FB14F0EB7003022CC9B4
:20295B00101003022A18782AE2FA08E2FB8A828B8378637463F2E408F2125780AA8290FA57
:20297B0080EAF0782AE2FB08E2FF8B828F8378847463F2E408F2C002125AC3E5828583F068
:20299B00D00245F0600690FA80EA04F090FA80E024EA500690FA807415F090FA5FE0FB7AB8
:2029BB000090FA80E0FFC3EA9F50528B067F00788B7408F2E408F28E828F83C007C006C057
:2029DB0003C002125C00AC82AD83D002D003D006D007EC2424FCED34F9FD5306078EF005CF
:2029FB00F07401800225E0D5F0FBFE8C828D83E0FF42068C828D83EEF00B0A80A4122399CA
:202A1B00AA82AB83AFF0EA4B7003F582220ABA00010B8A828B838FF0125CC5FEA3125CC5F1
:202A3B00FF4E60428E048F05C3EC9423ED9400501A7878EEF2EF08F2E408F208F2900019DB
:202A5B00E4F5F012597712434D801BEC24F6FCED34FFFD7F007E008C828D838FF0EE1218A2
:202A7B0040D218124A03900122E4F5F01221C478347401F290FA5FE0FF7E0090FA80E0FDFF
:202A9B00C3EE9D505E8F047D00788B7408F2E408F28C828D83C007C006C005C004125C001E
:202ABB00AA82AB83D004D005D006D007EA2424F582EB34F9F5835304078CF005F07C017D49
:202ADB00008006EC2CFCED33FDD5F0F7E0FB7A005204EA5205EC4D60067834E4F280040FC8
:202AFB000E80987834E27003022C8E90FA80E07876F2E408F2900063125957AE82AF8378A1
:202B1B002EEEF2EF08F290FA8474F6F074F0A3F0E4A3F090FA5FE0704B90F0F6E0FCA3E074
:202B3B00FD782AECF208EDF290F0F8E0FCA3E0FD782CECF208EDF290FA81E4F0A3F0782EC1
:202B5B00E2FC08E2FDEC24FCFCED34FFFD782EECF2ED08F290FA84740424F6F0E434F0A3CA
:202B7B00F0E4A3F0782AE2FC08E2FD782EC3E2F5F0EC95F008E2F5F0ED95F0500A782A7915
:202B9B002EE2F308E209F3782AE2FC08E2FD782ED3E29CF4B3FCB308E29DF4FD782AECF285
:202BBB0008EDF27582041217FB90FA84E0F546A3E0F547A3E0F548AA46AF47782EE2C0E03E
:202BDB0008E2C0E0C002C0077830E2F58208E2F58308E2F5F008E21207E5E58124FCF581B1
:202BFB00758204121834782EE2FA08E2FD7E007F007830E22AF208E23DF208E23EF208E238
:202C1B003FF2AD46AE47AF48782EE2F54608E2F547AA46AC47154674FFB546021547EA4C60
:202C3B0060368D828E838FF0125CC5FCA3AD82AE838C4275430090FA81E0FAA3E0FC8A4A54
:202C5B008C4BAB42AC43EB254AFBEC354BFC90FA81EBF0ECA3F080B990FA80E0FF90FA5F79
:202C7B00E02FF0782AE2FE08E2FF4E60067834E4F2D21090F943E4F07834E2700302294E9D
:202C9B00782CE2FE08E2FF90FA81E0FCA3E0FDEEB50406EFB505028011746CC0E07465C043
:202CBB00E012544D1581158180047582012275820022AFF0AE83E58290FA8BF0EEA3F0EFD7
:202CDB00A3F090FA8BE0FDA3E0FEA3E00DBD00010E8D828E837408C0E07433C0E074F9C0C7
:202CFB00E0123F2F1581158115819211501490F93BE0FCA3E0FDA3E0FEA3E0FFEC4D4E4F97
:202D1B00707590F922E4F090FA8BE0FDA3E0FEA3E0FF74012DFAE43EFBC002C00390F91A5E
:202D3B00123E3115811581740D2DFAE43EFB8F048A828B838CF0125CC5FA90F923F074118F
:202D5B00C0E0C005C00690F932123F9B1581158115817408C0E0E4C0E090000075F001E44A
:202D7B001208F51581158190F93BE0FEA3E0FF90FA89EEF0EFA3F090F93BE0FCA3E0FDA3A3
:202D9B00E0FEA3E0FFEC4D4E4F7003022E27C3E49C74109DE49EE49F500B90FA87E4F074FB
:202DBB0010A3F0800890FA87ECF0EDA3F0D20D90FA87E0FEA3E0FF8E828F83122887E582C6
:202DDB00604690F922E0FF0F90F922EFF090F93BE0FCA3E0FDA3E0FEA3E0FF90FA87E0FA01
:202DFB00A3E0FB8A008B01E4FAFBECC398FCED99FDEE9AFEEF9BFF90F93BECF0EDA3F0EE68
:202E1B00A3F0EFA3F0022D927582002275820122AFF0AE83E58290FA90F0EEA3F0EFA3F04A
:202E3B0090FA90E0FDA3E0FEA3E0FF74012DFAE43EFB8F048A828B837408C0E07433C0E0B4
:202E5B0074F9C0E0123F2F1581158115819212504090F940E0FC740E2DFDE43EFE8D828EC6
:202E7B00838FF0125CC5FDECB5052690F93BE0FCA3E0FDA3E0FEA3E0FFEC4D4E4F6012745A
:202E9B0084C0E07465C0E012544D158115810230357582041217FB90F9487835E0F290FA3B
:202EBB0090E0FCA3E0FDA3E0FE740E2CFAE43DFB8E078A828B838FF0125CC5FA54FC60318A
:202EDB007835E2FB7F00C003C0077497C0E07465C0E012544DE58124FCF58190FA717411F1
:202EFB00F0E4A3F08C828D838EF0121B487835E4F290F948E02401F0FFBF1500400590F955
:202F1B0048E4F090F948E0FF7835E2B5071975820412183474BBC0E07465C0E012544D15FD
:202F3B00811581758201228F82122595AC82AD83AEF0FF7416C0E0E4C0E074F6C0E074F051
:202F5B00C0E08C828D838EF0EF1206AAE58124FCF5817463C0E074FCC0E090F0FE12426EA6
:202F7B00158115819212500890F10BE054F8708190F948E0FF7811F28F82122595AC82AD82
:202F9B0083AEF0FF740BC0E0E4C0E08C828D838EF0EF1208F51581158175820412183478BC
:202FBB0011E2FE7F00C006C00774C5C0E07465C0E012544DE58124FCF58190F922E4F090E9
:202FDB00FA90E0FDA3E0FEA3E0FF74012DFAE43EFBC002C00390F91A123E3115811581746A
:202FFB000D2DFAE43EFB8F048A828B838CF0125CC5FA90F923F07411C0E0C005C00690F93A
:20301B0032123F9B15811581158190F93BE0FEA3E0FF90FA8EEEF0EFA3F090F93BE0FCA3D6
:20303B00E0FDA3E0FEA3E0FFEC4D4E4F70030230CCC3E49C74109DE49EE49F500B90FA8779
:20305B00E4F07410A3F0800890FA87ECF0EDA3F090FA87E0FEA3E0FF8E828F83122887E53C
:20307B0082604A90F922E0FF0F90F922EFF090F93BE0F54CA3E0F54DA3E0F54EA3E0F54FAF
:20309B0090FA87E0FAA3E0FBE4FEFFE54CC39AFAE54D9BFBE54E9EFEE54F9FFF90F93BEA2C
:2030BB00F0EBA3F0EEA3F0EFA3F0023035758200227582041217FB7433C0E074F9C0E09001
:2030DB00F0F6123E311581158190F0FE7421F07447A3F0744DA3F07447A3F090F944E0247E
:2030FB0001F0A3E03400F0A3E03400F0A3E03400F090F944E0FCA3E0FDA3E0FEA3E0FF9013
:20311B00F107ECF0EDA3F0EEA3F0EFA3F090FA8EE0FEA3E0FF7D007C0090F102EEF0EFA3D9
:20313B00F0EDA3F0ECA3F090F93FE090F106F090F940E090F10BF07811E2F582122595ACE7
:20315B0082AD83AEF0FF7416C0E0E4C0E074F6C0E074F0C0E08C828D838EF0EF1207E5E5DB
:20317B008124FCF58175820412183475820122AFF0AE83E58290FA94F0EEA3F0EFA3F0C2A0
:20319B000D90FA94E0F553A3E0F554A3E0F555740D2553FAE43554FBAC558A828B838CF036
:2031BB00125CC5FCBC02028024BC0303023512BC10028019BC20028014BC2102800FBCA8AB
:2031DB0003023405BCAF030234F202358290FA94E0FFA3E0FEA3E0FD7550937551FA75526A
:2031FB0000740E2FF553E43EF5548D558553828554838555F0125CC5FB855082855183858B
:20321B0052F012593C90FA93E020E2030232E9758204C007C006C0051217FBD005D006D09F
:20323B000790FA93E0C423541FFB603CBB0F02806C8553828554838555F0125CC5F582C0DC
:20325B0007C006C005122656AB82D005D006D007BBFF0280488B82C007C006C005122781E7
:20327B00D005D006D007803574012FF553E43EF5548D558553828554838555F0C007C006B6
:20329B00C0051225C3AB82D005D006D007BBFF02800B12251C78367401F20233FF758204C7
:2032BB00C007C006C005121834D005D006D0078F828E838DF0122E2BE582600B12251C781A
:2032DB00367401F20233FF7836E4F20233FF74012FF553E43EF5548D55855350855451853A
:2032FB0055528550828551837408C0E0742AC0E074F9C0E0123F2F158115811581921350BE
:20331B000B12251C78367401F20233FF758204C007C006C0051217FB8553828554838555EA
:20333B00F01225C3AC82758204C004121834D004D005D006D007BCFF028051C007C006C00C
:20335B0005C00412251CD004D005D006D0078F538E548D55AA53AB547411C0E0C002C00394
:20337B0090F932123F9B15811581158190F93BE4F0A3F0A3F0A3F090FC62ECF090FA93E0B1
:20339B0054037825F28C821227B5803D74D3C0E07465C0E012544D158115818F828E838D85
:2033BB00F0122E2BE582601B12251C7811E2FB90FC62F090FA93E054037825F28B821227F5
:2033DB00B580067836E4F2801B90F933E0FAA3E0FBC002C00390F92A123E31158115817807
:2033FB00367401F27836E2F5822290F93BE0FAA3E0FBA3E0FEA3E0FFEA4B4E4F702F7401E7
:20341B002553FDE43554FEAF558D828E837408C0E07433C0E074F9C0E0123F2F1581158171
:20343B0015819213500712251C7582012290F922E4F090FA94E0F550A3E0F551A3E0F5521D
:20345B0074012550FAE43551FBC002C00390F91A123E3115811581740D2550FDE43551FED8
:20347B00AF528D828E838FF0125CC590F923F0AD50AE517411C0E0C005C00690F932123F0A
:20349B009B15811581158174092550FDE43551FEAF528D828E838FF0125CC5FDA3125CC5B7
:2034BB00FE8D828E83122887E582602790F93BE4F0A3F0A3F0A3F07582041217FB90F0FA3A
:2034DB0075F00012140275820412183412251C758201227582002212251C740E2553FDE437
:2034FB003554FEAF558D828E838FF0125CC5F582120432758201227582041217FB85538202
:20351B008554838555F0122CCDE582605612251C7582041217FB12359D300D0F9000197582
:20353B00F001E412068A12501D805374DBC0E07465C0E012544D1581158175820412183407
:20355B0090FA5E7401F090F0E674E0F07408C0E0E4C0E0C0E090F92A123F031581158115D1
:20357B0081801B758200227F00C004C00774F8C0E07465C0E012544DE58124FCF5817582C6
:20359B000022783BE4F208F208F208F2C20D7419C0E0E4C0E074A2C0E074FDC0E0900000A0
:2035BB0075F001E41206AAE58124FCF58178377419F2E408F20408F2E408F2905CF393FD91
:2035DB00740193FE7402937406C0E0C005C00690FDAB123F2F158115811581921450079015
:2035FB00F0907405F022905CF3E493FD740193FE7402937409C0E0C005C00690FDAB123F12
:20361B002F1581158115819214500790F0907402F02290FDAAE0FFBF0102800790F0907426
:20363B0001F02290FDA8E0FEA3E0FFC3E49E74809F500790F0907403F02290FDA8E0FEA349
:20365B00E0FF4E700302371190FDA8E0FEA3E0FFC374239E74089F50047E237F08C006C0BB
:20367B000774F6C0E074F0C0E07837E2F58208E2F58308E2F5F008E21206AAE58124FCF5BA
:20369B008190FA9774F6F074F0A3F0E4A3F090FA9AEEF0EFA3F0783BE2F58208E2F58308AB
:2036BB00E2F5F008E2C007C0061237EA783BC0E0E582F2E58308F2E5F008F2D0E008F2D027
:2036DB0006D0078E028F037C007D007837E22AF208E23BF208E23CF208E23DF290FDA8E0CD
:2036FB00FCA3E0FDECC39EFEED9FFF90FDA8EEF0EFA3F002365590FDA2E0FCA3E0FDA3E02D
:20371B00FEA3E0FF783BE2B5041108E2B5050C08E2B5060708E2B50702800790F09074049C
:20373B00F02290FDA6E0FEA3E0FF90F08EEEF0EFA3F0C006C0077418C0E07466C0E01254C2
:20375B004DE58124FCF581D20D221227D8AC82AD83AEF0FF90F944ECF0EDA3F0EEA3F0EF5F
:20377B00A3F0227408C0E07453C0E074F9C0E090FA69123F9B15811581158190FA60E0542A
:20379B00F84421F090FA61E054F344C8F090FA637437F07413A3F090FA6574FFF0A3F0909C
:2037BB00FA677437F07413A3F0227411C0E07460C0E074FAC0E090F9DF123F9B158115818F
:2037DB00158190F95BE0FF04F090F9E1EFF022AC82AD83AEF0FF783FECF4F2EDF408F2EEC9
:2037FB00F408F2EFF408F290FA97E0F55AA3E0F55BA3E0F55C90FA9AE0F556A3E0F5578549
:20381B005658855759155674FFB556021557E558455970030238E8855A82855B83855CF04E
:20383B00125CC5FEA385825A85835B8E047D007E007B00783FE26CF208E26DF208E26EF243
:20385B0008E26BF27847E4F208F27847C3E2940808E26480948050A7783FE25401FA08E2CC
:20387B005400FB08E25400FC08E25400FE7843C3E49AF2E49B08F2E49C08F2E49E08F27893
:20389B0042E2C313F56018E213F55F18E213F55E18E213F55D7843E25420FC08E25483FDD3
:2038BB0008E254B8FE08E254EDFA783FEC655DF2ED655E08F2EE655F08F2EA656008F27806
:2038DB0047E22401F208E23400F2023865783FE2F4FB08E2F4FC08E2F4FD08E2F48B828C2A
:0438FB00838DF022A7
:206511000A002530327820004150206F6E2025640A004E6F204150206F6E2025640A002EB4
:2065310000636865636B435243206661696C65640A005245512025642070617274202564D4
:206551000044726177696E6720696D61676520696E20736C6F742025640A00626C6B2066F0
:2065710061696C65642076616C69646174696F6E210A0072657374617274696E6720696D5C
:206591006720646C0A004368616E67696E67207374617274696E67536C6F742066726F6D68
:2065B10020256420746F20300A004E6F20736C6F74730A006E657720646C20746F202564C2
:2065D1000A00646C20696D670A004F544120696D6167652076616C69646174696F6E206691
:2065F10061696C65640A00646174615479706520307825782069676E6F7265640A00436823
:20661100726F6D613432004F54412076616C6964617465642C207570646174696E67207466
:0F6631006F2076657273696F6E202530780A00CE
:05699800FF21474D47FF
:2038FF00C007C006C005C004C00390FAA1E060030239F390FAA2E0FF24FB50030239F0EF9D
:20391F002F2F903925730239340239520239D30239EA0239F090FA9F744BF0E4A3F090FA96
:20393F00A1740BF090FAA27401F090FAA37468F00239F390FA9C12421BE582FF6045EF24ED
:20395F00E0FFBF600040027F1F90FAA4E0FE0E90FAA4EEF0C0078E82123D45AD82AE831564
:20397F008190FAA3E0FC7B002DFDEB3EFE8D828E837467C0E0124216AE82158190FAA3EEEC
:20399F00F0800B90FAA27402F090FAA3E0FFEF75F002A42440F582746635F0F583E493FE2E
:2039BF00A3E493FF90FA9FEEF0EFA3F090FAA1740BF0802090FAA27403F090FA9F74E3F009
:2039DF00741AA3F090FAA103F0800990FAA27404F0C3802D90FA9FE0FEA3E0FFEE5401240C
:2039FF00FFE433FDEFC313CE13CEFF90FA9FEEF0EFA3F090FAA1E0FF1F90FAA1EFF0ED2455
:0C3A1F00FFD003D004D005D006D0072251
:206640009B01B3013303C90089019101990019013101930013012301CD01D90199039D013D
:20666000B90139037302D30193033B017301B7039701A7012703370167016702DB001B036F
:206680006303C500D10011038D00B10031028B00A3002302ED008D03B103DD001D03710384
:2066A00077038B03A303BB003B02BB03D70017034703B7003702C702F70213028F0265007E
:2066C000850169000903A10121034D000D01590019026101610243025300EF024301F102A5
:2066E000E501E901C9033D01790179022F014F014F02DB037B036F03F500C503D103BD00DE
:0E6700003D02AF002F02DD03BD03D703AF0340
:203A2B00C007C006C005C004C001C000AC82AD83AEF0FFBF20005031BF0A03023ACA8F82A6
:203A4B00C007C006C005C004C003C002C001C000C025123C12D025D000D001D002D003D0EF
:203A6B0004D005D006D00780567E00EF24E0FFEE34FFFEEF2FFFEE33FEEF24CEF582EE349A
:203A8B005DF583E493A3E493C4540FFE90F0B2EEF0300507EE2EFE90F0B2F090F0B2E0FFF7
:203AAB003395E0FE0FBF00010E90F0AEE0FCA3E0FDEF2CFFEE3DFE90F0AEEFF0EEA3F0D04D
:203ACB0000D001D004D005D006D00722C007C006C005C004C003C001C000E58124F6FFC0F9
:203AEB0007C006C005C004C003C002C001C000C025123BC5D025D000D001D002D003D00459
:203B0B00D005D006D007E58124F6F886050886068D828E83E493FCBC0C7290F0AEE4F0A30F
:203B2B00F0C007C005C006C0E0C0E0903A2B1250FCE58124FBF58190F0AEE0FDA3E0FE33EB
:203B4B0095E0FCFB7490C39DFD74019EFEE49CFCE49BFB78657402F2E408F208F208F28DE2
:203B6B00828E838CF0EBC007C002C001C000C0251257CBAB82AC83ADF0FED025D000D00190
:203B8B00D002D00790F0AEEBF0ECA3F0C007E58124F5F8E6C0E008E6C0E0E4C0E0C0E090E3
:203BAB00104B1250FCE58124FBF581D000D001D003D004D005D006D00722300625300506C4
:203BCB007E147F0080047E0A7F0090F0B3EEF03005067E207F0080047E107F0090F0B2EE24
:203BEB00F0223005067E207F0080047E107F0090F0B3EEF03005067E147F0080047E0A7FD7
:203C0B000090F0B2EEF022AF82BF08028018BF0902804EBF0A028013BF0B028055BF0C0172
:203C2B0022BF0D568038B205023BC5123BC590F0B3E0FE3395E0FD90F0B0E0FBA3E0FCEE84
:203C4B002BFEED3CFD90F0B0EEF0EDA3F090F096E0FDA3E0FE90F0AEEDF0EEA3F022B204A4
:203C6B002290F0AEE0FDA3E0FE90F096EDF0EEA3F02290F096E4F0A3F0227E00C007C0064B
:123C8B00740EC0E07467C0E012544DE58124FCF58122B9
:15670E00496E76616C69642063686172203078253032780A0020
:203C9D00E58620E0FB225390FD00225380FB0022E58620E0FB004390020022E58620E0FBCA
:203CBD0000438004002275FB02228582F9E5F830E1FB53F8FDE5F820E0FB85F9822253F3F9
:203CDD00C775FA3C75FC0F75F8C043F4C043F102D20B2253F1FD53F43F75FA0075FC31752F
:083CFD00F84043F338C20B222A
:203D0500858283D0F0D0E0D082C082C0E0C0F022C00074FB2581F8E58286820886830886C3
:203D2500F0D0002275F008C58213C58233D5F0F7C58222E583A2E713F583E58213F58222A7
:203D4500D083D0E0D0F0C0F0C0E0C083E582A4F58285F08322C000E58124FDF8E6F8858248
:203D6500F0A4F582E8A8F08583F0A428F583E5F03400F5F0E4D00022C000C001C0E0C0F0E2
:203D850074FA2581F88600E58288F0A4F582A9F0E58388F0A429F583E5F03400F9D0E0889A
:203DA500F0A429C5F03400F9D0E0C0F088F0A429D0F0D001D00022C000C001C002E581246A
:203DC500FBF8E6F918E6F88582F0A4C0E0AAF0E58388F0A42AF8E5F03400FAE98582F0A414
:203DE50028C0E0E5F03AFA74003400F8E98583F0A42AFAE5F0388AF0D083D082D002D001D5
:203E0500D00022D0E0D0F0C000C001C002C0F0C0E074F82581F9E7F809E7F922D002D00110
:203E2500D00022C9C583C9C8C582C822123E0875F008123E28E0A3123E28F0A3D5F0F30233
:203E45003E21123E0875F008123E28E493A3123E28F0A3D5F0F2023E21123E08C375F008FC
:203E6500123E28E0A3F502123E28E03AF0A3D5F0EF023E21123E0875F008123E28E0A3F55C
:203E850002123E28E05AF0A3D5F0EF023E21123E08C375F008123E28E0A3F502123E28E0EF
:203EA5009AF0A3D5F0EF023E21123E08C375F008123E28E0A3F502123E28E0A39AD5F0F0F7
:203EC500023E21123E0875F008123E28E0A3F502123E28E0A36A7007D5F0EED3023E21C33F
:203EE500023E21C8C0E075F008E038F0A3D5F0F9D00022D3E4023EE8C374FF023EE8C0002F
:203F0500C00174FA2581F8E6F5F0088601496015088600E8F0A374FF25F0F5F074FF39F5A0
:203F25000145F070EED001D00022C000C001C00274F92581F9E7D3601CF5F009870009879B
:203F450001C3E0F502A3123E28E0A3123E286A7004D5F0EED3D002D001D00022C000C00131
:203F6500C00274F82581F9E7F5F00987024A601F098700098701123E28E0A3123E28F0A321
:203F850074FF25F0F5F074FF3AF50245F070E7D002D001D00022C000C001C00274F9258194
:203FA500F9E76015F5F0098700098701123E28E0A3123E28F0A3D5F0F3D002D001D000224E
:203FC500C083C082E06003A380FAC3E582D0F095F0F582E583D0F095F0F58322C003C00245
:203FE500C001C000C0E0C0F0C083C082A98174F62581F886F0188600750201750300758239
:2040050011A2F74014C3E833F8E5F033F5F0C3EA33FAEB33FB058280E8E4C003C002C0E0EF
:20402500C0E0AA81C0F0C000C0E0C0E0A881C0E0C0E0C0E0C0E0AB81C000C001C3758304EB
:2040450086F018E71995F0D583F6D001D000402BC000C001C375830486F018E795F0F719A4
:20406500D583F585020085030175830486F018E745F0F719D583F5D001D00074FC28F8C3E7
:2040850075830408E613F6D583F9C00074FC2AF8C375830408E613F6D583F9D000D58298BF
:2040A50020D508D082D083D0F0D00074F42581F58130D508D082D083D0F0D000E8D000D07B
:2040C50001D002D00322C2D5023FE1D2D5023FE1C003C002C001C000C0E0C0F0C083C082B6
:2040E500A98174F62581F886F07401758219A2F7400A23C5F023C5F0058280F2C0E0E4C0BE
:20410500E0C0E0C0E0AA81C0F0C0E0C0E0C0E0A881C0E0C0E0C0E0C0E0AB81C000C001C3A6
:2041250075830486F018E71995F0D583F6D001D000402BC000C001C375830486F018E795C7
:20414500F0F719D583F585020085030175830486F018E745F0F719D583F5D001D00074FCE9
:2041650028F8C375830408E613F6D583F9C00074FC2AF8C375830408E613F6D583F9D000EA
:20418500D58298D082D083D0F0D00074F42581F581E8D000D001D002D00322C006C005C0D7
:2041A50004C003C002C001C00074F72581F886F074017C09A2F7400923C5F023C5F00C8059
:2041C500F3FBE4FAA9F0F88582F0FDFEC3E58298E583994011C3E58298F582E58399F583C5
:2041E500EA4DFDEB4EFEC3E913F9E813F8C3EB13FBEA13FADCD620D5048D828E83D000D086
:2042050001D002D003D004D005D00622C2D50241A0D2D50241A0E0C0E02401F0A3E0C0E096
:204225003400F0A3E0D083D0826014B4600AC000A882E2D000F582224009E493F58222E02D
:20424500F58222C000A882E6D000F58222123E0875F004D3123E28E0FA3400F0EAA3123EA0
:2042650028F0A3D5F0EE023E21123E0875F004C3123E28E0FAA3123E28E0A36A7004D5F053
:20428500EFD3023E21123E08C3E0A398E0A399E0A39400E0A39400023E21123E08C3E0A377
:2042A50038E0A339E0A33400E0A33400023E2175F004E07004A3D5F0F9F58222A3A3A3E0B6
:0242C5003322A2
:0442C70075C90B2288
:2042CB00C0E0C007C006C0D075D000AEDAAFDB74012EF5DAE43FF5DBD0D0D006D007D0E05D
:2042EB0032C007C006C005C004C000AEDAAFDB784BEEF208EFF27849E5E2F2784AE5E3F217
:20430B00EEB5DAE7EFB5DBE37849E2FC08E2FD08E2FE08E28C828D838EF0D000D004D0055F
:20432B00D006D0072285E28222E4F5DAF5DBF5E4F5E5F5E6F5E7F5E275E40543D84043B820
:20434B000222AF82AE83ADF0FC784DEFF2EE08F2ED08F2EC08F21242EC7851C0E0E582F2D6
:20436B00E58308F2E5F008F2D0E008F21242ECAA82AB83AEF0FF7851D3E29AF4B3FAB308AC
:20438B00E29BF4B3FBB308E29EF4B3FEB308E29FF4FF784DC3E29A08E29B08E29E08E29F4A
:0343AB0050CA22D3
:2043AE0053C07F53A1FE53BEFC3243870122AF82AE83ADF0FC7855EFF2EE08F2ED08F2ECDB
:2043CE0008F290FAA5E4F090FAA6F090FAA774DFF090FAA874BEF090FAA9E054E0F090FA29
:2043EE00A9E0541FF090FAAA7407F090FAABE054E0F090FAABE0549F4420F090FAABE05426
:20440E007FF090FAACE054FC4402F090FAACE054FBF090FAACE054F7F090FAACE054CFF0B4
:20442E0090FAACE0543F4440F07855E2F5F008E242F008E242F008E245F0701B7B01750CDE
:20444E006E750DFC850D0E90FAA5E50EF07A6E90FAA6EAF00244F07855C3E2943F08E294C5
:20446E000008E2940008E29400500C7855743FF2E408F208F208F27855E225E0F50F08E2F0
:20448E0033F51008E233F51108E233F512E50F250FF50FE51033F510E51133F511E51233DD
:2044AE00F512747DC0E0E4C0E0850F828510838511F0E5121240CB7855C0E0E582F2E583DC
:2044CE0008F2E5F008F2D0E008F2158115817B007D677EFC8E0590FAA5EDF07E6790FAA6A2
:2044EE00EEF053C07F53A1FE43A11075A8A0EB70147855E2F5F008E242F008E242F008E276
:20450E0045F070012253BEFBE5BE30E5FBE5C654384441F5C6E5C630E6FB43BE0453C67F36
:20452E007855C3E2F5F074F095F008E2F5F074FF95F008E2F5F0E495F008E2F5F0E495F0F6
:20454E00501B7DF07EFF7855E22410F208E23400F208E234FFF208E234FFF280117855E2B5
:20456E00FD08E2FE7855E4F208F208F208F2EB60067A007C0080047A107C008AA175C00086
:20458E0043D6817AA57CFA8AD48CD575D60175A204E5A570FC75A2028EA48DA3AEA5EEB551
:2045AE00A50280FA43C702EB60077B0075BE07800375BE06000000E5BE5403600875D7014E
:2045CE00004387010053C7FDE5BE30E5FB75BE00E5BE30E5FB75C679E5BE30E6FB7E007DEF
:1B45EE0000000DBD80FB0EBE80F575C639E5C620E6FB75C63875BE040244FC20
:0E699D00060606060606040707070707070496
:20460900AF8275BB0074304FF5B575B473E5B420E6FBE5B430E7FBAEBA7F00ADBB7C009057
:20462900FAB1EC4EF0ED4FA3F08FB522C21590FAB1E0FEA3E08E82C4C582C4540F6582C506
:2046490082540FC5826582C582F58374E2C0E07404C0E0123DBCAC82AD83AEF0FF158115C0
:204669008190FAAFE0FAA3E0FB74FFC0E07407C0E08A828B83123DBCA882A983AAF0FB15CC
:20468900811581ECC398FCED99FDEE9AFEEF9BFF747DC0E08C828D838EF0EF123D7DAC820F
:2046A900AD83AEF0FF1581EFC40354F8CEC403CE6ECE54F8CE6EFFEDC40354074EFEEDC45A
:2046C9000354F8CCC403CC6CCC54F8CC6CFDEF30E70FD215C3E49CFCE49DFDE49EFEE49FAE
:2046E900FF90FAADE0C0E0A3E0C0E08C828D838EF0EF1240CBAC82AD83AEF0FF1581158109
:2047090074FF2CFC74033DFDE43EFEE43FFF74FFC0E07407C0E08C828D838EF0EF1240CB2C
:16472900AC821581158190FAB3ECF030150790FAB3C3E49CF02229
:20473F00E58620E0FB225390FD00225380FB0022E58620E0FB004390020022E58620E0FB1D
:20475F00004380040022C007C006AF82BF64004027BF6A00502290DF097421F090DF0A7484
:20477F003BF090DF0B7413F08F06EE249CFE90DF0675F003A4F0802F90DF097422F090DF30
:20479F000A74BBF090DF0B7413F0BFC8004013BFE100500EEF2438FF90DF0675F00CA4F044
:2047BF00800590DF06E4F0D006D00722C00775E10490DF3BE0B401FCD007221247CB7F0045
:2047DF008F057EDFEFC3906723938D828E83F00FBF200040EB90DF237488F090DF2474318B
:2047FF00F090DF257409F090DF2E748EF075911075ED00759D0075EF0322C007AF82C3EF5D
:20481F006480946250047FE2800EC3748A8FF063F08095F050027F0A741E2FC31390674318
:20483F009390DF2EF0D00722C007C006AE82AF838ED48FD575D6010000000000000000003F
:20485F00D006D0072275D68100000000000000000022C007C006C005AE82AF831248648F7B
:20487F000590FC77EDF090FC78EEF07E757FFC8E828F83124847D005D006D00722C007C0F6
:20489F0006C005AE82AF831248648F0590FC7DEDF090FC7EEEF07E7D7FFC8E828F831248BA
:2048BF0047D005D006D00722301604E5EF7001221247CB53C0FE43B801E5ED75F080A4248D
:2048DF00B5F58274FA35F0F58312487175E1022253B8FE1248641247CB75D10053C0FE22D9
:2048FF00AE82AF837CFF7DFF1248EF8E828F8312489C75E90075E103E5E920E42375820F2D
:20491F00C005C004124609D004D00590FAB1E0FEA3E0FFC3EE9CEF9D50DE8E048F0580D8C5
:20493F00124864C005C0041248C7D004D0057423C0E08C828D8312421115817404C0E012CD
:20495F003D5AAC82AD83158190F0EAECF0EDA3F022C025C0E0C0F0C082C083C007C006C0BE
:20497F0005C004C003C002C001C000C0D075D000E5D130E040E5ED75F080A424B5FE74FACE
:20499F0035F0FF53D1FE8E828F83E0FD248240200D0DED2EF582E43FF583E0FF30E711E57A
:2049BF00ED04FF8FEDBF030375ED00E5EF14F5EF1248C7800F7458C0E07467C0E012544D2F
:2049DF001581158153C0FED0D0D000D001D002D003D004D005D006D007D083D082D0F0D00A
:2049FF00E0D025322018061248EFC21622201605D2160248C722E59D75F080A424B5FE7464
:204A1F00FA35F0FF8E828F83E0FD7403B5EF047582FF228D037C0074022BF9E43CFAE92E4C
:204A3F00F582EA3FF583E0FA747F5AD39494F4FABA7F0040047AFF8003EA2AFA90F0C2EA7C
:204A5F00F00BBB00010CEB2EF582EC3FF583E0A2E71324B390F0C3F00EBE00010FC005C05A
:204A7F0006C00790F95E123F9B158115811581E59D04FF8F9DBF0303759D00D21910AF0281
:204A9F00C219E5EFFF04F5EFA21992AFEF7007C0051248C7D0058D8222D21A10AF02C21A8A
:104ABF00AFEF75EF03A21A92AFEF70030248C72250
:20672300D3917D044522000F0022BB131D3B1373A7650700181E1CC700B0B610EA2A001F58
:20674300030506080B0E191C242527293855408D8A84CAC4C0646D612069727120756E657D
:09676300787065637465640A0036
:1069AB00DFD900008080131A0000DFD9207E13424C
:1700E10090FC467456F090FC477412F090FC4803F090FC497485F0AE
:204ACF00E58620E0FB225390FD00225380FB0022E58620E0FB004390020022E58620E0FB8A
:204AEF00004380040022C007C006C005C004C003C002C001C000E582785CF27E00C21C78A1
:204B0F005DE4F2C006785DE2C0E0901000123D5AAA82AB831581785EEAF2EB08F27860741A
:204B2F0004F2E408F2785EE2FA08E2FBE4FCFE7404C0E0E4C0E0744AC0E074FCC0E08A8207
:204B4F008B838CF0EE1206AAE58124FCF5817404C0E07446C0E074FCC0E090FC4A123F2F38
:204B6F00158115811581921DD006201D03024C597860E2FB08E2FCC394104003024C59C04C
:204B8F0006785E7960E3C5F0E225F0FB09E3C5F008E235F0FAE4FCFE7402C0E0E4C0E07431
:204BAF004AC0E074FCC0E08B828A838CF0EE1206AAE58124FCF58190FC4AE0F51374FFB5C4
:204BCF001305D006024C59D006785CE2B5135D90FC4BE0FCBC020040531C1C8C06785BC31C
:204BEF00E29C5004785BE2FCC0067B007859E2F51408E2F515785EE2FD08E2FF74022DFDF4
:204C0F00E43FFF7860E22DFD08E23FFA7E007F00C004C003C014C0158D828A838EF0EF1294
:204C2F0006AAE58124FCF581D21CD00690FC4BE0FF7D007860E2FB08E2FCEF2BFBED3CFCED
:204C4F007860EBF2EC08F2024B7F785DE22401F2785DE2B40A005003024B12301C048E0704
:204C6F0080027FFF8F82D000D001D002D003D004D005D006D00722758204C007C006C00509
:204C8F00C004C003C002C001C0001217FB124D22D000D001D002D003D004D005D006D007FA
:204CAF00301B47746CC0E07467C0E012544D15811581C007C006C005C004C003C002C0011D
:204CCF00C000121720124D22D000D001D002D003D004D005D006D007301B0F7498C0E07425
:204CEF0067C0E012544D15811581758204C007C006C005C004C003C002C001C0001218344A
:204D0F00D000D001D002D003D004D005D006D007D2AF22D21B785974A2F274FD08F2785B41
:204D2F007407F275822A124AF5E582FF30E72A785974A2F274FD08F2785B7406F275820163
:204D4F00124AF5E582FF30E71074C5C0E07467C0E012544D15811581227404C0E0E4C0E075
:204D6F00C0E090FDB2123F031581158115817404C0E074B2C0E074FDC0E090FDA4123F2F8F
:204D8F00158115811581921E503B74D7C0E07467C0E012544D158115817404C0E074B2C0C4
:204DAF00E074FDC0E09064A8123F2F158115811581921E401074E6C0E07467C0E012544DED
:204DCF00158115812290F95A7444F090F9597467F090FDA4E0FF90F956F090FDA5E0FE90BF
:204DEF00F955F090FDA6E090F954F090FDA7E090F953F090FDA4E4F07D007C00C006C0051D
:204E0F00C007C00474A2C0E074FDC0E0E4C0E074FEC0E07467C0E012544DE58124F7F58176
:204E2F0090F953E0FF7E0090F954E0FD7C00C007C006C005C004740CC0E07468C0E01254DC
:204E4F004DE58124FAF58190FDA2E024BF90F958F090FDA3E024BF90F957F090F959E0FFB5
:204E6F007E0090F95AE0FD7C00C007C006C005C0047416C0E07468C0E07435C0E074FCC034
:204E8F00E01254C6E58124F8F58190F957E0FF7E0090F958E0FD7C00C007C006C005C00472
:204EAF007416C0E07468C0E07439C0E074FCC0E01254C6E58124F8F58190F955E0FF7E0081
:204ECF0090F956E0FD7C00C007C006C005C0047416C0E07468C0E0743DC0E074FCC0E0125C
:204EEF0054C6E58124F8F58190F953E0FF7E0090F954E0FD7C00C007C006C005C004741682
:204F0F00C0E07468C0E07441C0E074FCC0E01254C6E58124F8F581785974ADF274FA08F291
:204F2F00785B7402F2758212124AF5E58230E710741FC0E07468C0E012544D15811581228F
:204F4F0090FAADE0C0E0A3E0C0E07438C0E07468C0E012544DE58124FCF581785974AFF20B
:204F6F0074FA08F2785B7402F2758209124AF5E58230E7107446C0E07468C0E012544D1502
:204F8F008115812290FAAFE0C0E0A3E0C0E07463C0E07468C0E012544DE58124FCF581C289
:204FAF001B22904FBC741DC39582F5F02275F020C2ADC2AC43AE0100E5AE20E7FB05AD05F8
:204FCF00ADD5F0F09000008583AD8582ACA375AB2275F00275F900E5F830E1FB53F8FDE598
:204FEF00F820E0FBC0F9D5F0EB43AE02E5AE20E6FBD0E0D0AFF5AFE5AE20E6FB53AEFDE575
:20500F00AE20E7FBE583B440BE75C90B80FEC007C006C005C004C003124FB1AC82AD83AEF9
:20502F00F0FF8E03C003C004C00590FDA2123F9B15811581158175D6FF75A80075C7039082
:20504F00FDA2E473D003D004D005D006D00722C007C00675A80075B800759A0075C7007569
:20506F00BE00E5BE30E5FB75C679E5BE30E6FB7F007E00000EBE80FB0FBF80F575C639E568
:20508F00C620E6FB75C63875BE04D006D0072243B404E5B4540C600280F8E5BC65BDF582B9
:2050AF002212509EC08212509EC08212509EC08212509ED083D0F0D0E022C0008582BC7819
:0750CF0062E2F5BCD00022F3
:20676C0046697273742063616C6C20746F204C6F6164476C6F62616C7346726F6D45455074
:20678C00524F4D206661696C65640A005365636F6E642063616C6C20746F204C6F6164476E
:2067AC006C6F62616C7346726F6D454550524F4D206661696C65640A006661696C656420E0
:2067CC00746F2067657420534E0A00534E2069732064656661756C740A00674465666175A7
:2067EC006C74454550524F4D20757064617465640A00534E2025732530327825303278007D
:20680C0025303278253032780A002530325825303258006661696C656420746F20676574DE
:20682C002041444320736C6F70650A0041444320736C6F70652025640A006661696C6564F4
:20684C0020746F206765742041444320696E746572636570740A00414443206D4164634943
:0D686C006E746572636570742025640A0007
:2050D600E58620E0FB225390FD00225380FB0022E58620E0FB004390020022E58620E0FB7D
:2050F600004380040022C007C083C082858107C004C003C002C001C00074F42581F886837F
:2051160018868218860018E0A36013B4250B7C007A00E0A36008B425161253DE80E9D0007D
:20513600D001D002D003D004D082D083D00722B4630518E61880E2FB4420B46D3AEB5420C4
:2051560003F9C083C08212537A7C0874FF2C93C083C082FAC47B02540F2990540D931253EE
:20517600DEEADBF3D082D083DC06D082D0838097743A1253DE80D4EBB42A09BA009B74015F
:205196004CFC808EB43007BA0004740680F2FB24D0501224F6400E240AFB740A8AF0A42B65
:2051B600FA740480DBBB6C0DEC54086004741080CF740880CBBB733CEC5408C083C08270EB
:2051D60005125381800312537AEC54047009E0A360981253DE80F7BA0002808EE0A3600AC3
:2051F6001253DEDAF780830252CE74201253DEDAF9025180EB4420B478EDC083C082125391
:2052160097C083C082E5F023F90324FF2582F582E5833400F583E054F0701119E0700D19DF
:205236001582E582B4FF021583D5F0EAB9000109EC5420600B09EC54026005742D1253DE3C
:20525600EC54046018EAC39940136011FAEC5402C4032420F582E5821253DEDAF9EC5420D7
:20527600600B19EC54027005742D1253DEEB542003FAD082D083E904C313FC142582F58207
:20529600E5833400F583E954016005E079018005E07902FBC4540F2AC083C08290540D93B2
:2052B600D082D0831253DEEBD9EB1582E582B4FF021583DCDB025180BB640674204CFC80EB
:2052D60008BB7502800302511DC083C082125397C0F07408C395F0244EF9E434FCFBE0A399
:2052F6001253D3F0A31253D3D5F0F31253D3F5F0EC54206028E5F054807006EC54DFFC801E
:205316001CD0F0C0F07408C395F0244EF582E434FCF583C3E0F9E499F0A3D5F0F775F00ADB
:20533600E4F0A3D5F0FBD0E0C403FB90FC5675F00AE0F9540F24FBE950022403F954F0243F
:20535600B0E950022430F0A3D5F0E690FC4EC375F012E033F0A3D5F0F9DBD090FC5675F050
:205376000A02521786831886821822E61860F5648060F164C0600585938380EA7583FF80B2
:20539600E5EC5401701F88F07583FFEC5418600A5410600418181818181818888218E5F0AA
:2053B600C398F5F022EC5418600E5410600575F00880B175F00480AC75F00280A7C583CB12
:2053D600C583C582C9C58222C083C082C001C0008F008682188683181818188601188600B3
:2053F600125402D000D001D082D08322C082C083850082850183223031323334353637383C
:205416003941424344454630313233343536373839616263646566C007C006C005C004FF31
:20543600BF0A0675820D123CC78F82123CC7D004D005D006D00722C007C001C000A20B9249
:205456001FE58124FAFF200B03123CDBC007E58124F9F8E6C0E008E6C0E0E4C0E0C0E09033
:20547600542D1250FCE58124FBF581201F03123CF0D000D001D00722C007C006C005C0040C
:20549600C003C001AC82FF8C018F0487060987071974012EFBE43FFDA70309A7058E828F2C
:2054B60083ECF0D001D003D004D005D006D00722C007C006C005C001C000E58124F6FFE524
:2054D6008124F8FE7D00C007E58124F5F8E6C0E008E6C0E0C006C00590548E1250FCE5818B
:1954F60024FBF58124F8F88682088683E4F0D000D001D005D006D00722C2
:0200F800C22024
:20550F00E58620E0FB225390FD00225380FB0022E58620E0FB004390020022E58620E0FB3F
:20552F00004380040022C007AF82E58620E0FB53807F008F821256E100E58620E0FB438040
:20554F0080D0072253BEFC32AE82AF838E828F83E493FD74012EFBE43FFCEDFA6060539045
:20556F00FD005380FB008B828C83E493FD0BBB00010CE58620E0FB53807F008D821256E1DE
:20558F0000E58620E0FB438080EA14FDED6015E58620E0FB8B828C83E493F5C1A3AB82ACCB
:2055AF00831D80E88B068C07E58620E0FB0043900200E58620E0FB0043800400808E2230E8
:2055CF00200122D2204390024380045380BF43F42875C20075C5317586009000FDE4F5F007
:2055EF0012434D4390049000FDE4F5F012434D2090FD9068791255575390FD005380FB00A1
:20560F00E58620E0FB53807F007582041256E100E58620E0FB4380803090FDE58620E0FBB3
:20562F000043900200E58620E0FB00438004009068851255575390FD005380FB00E58620E5
:20564F00E0FB53807F007582821256E100E58620E0FB43808090FC60E0FFF5821256E1E533
:20566F008620E0FB0043900200E58620E0FB0043800400222020012290691112555753F404
:20568F00D753807A5390D100D28600C220221255CE5390FD005380FB003021067E137F007D
:2056AF0080047E107F00E58620E0FB53807F008E821256E100E58620E0FB438080E5862005
:2056CF00E0FB0043900200E58620E0FB004380040022C007AF82E58620E0FB8FC1D0072215
:2056EF007EFF7FFF7474C0E07469C0E012544D1581158190696EC007C006125557D006D064
:20570F000720902F900032E4F5F0C007C0061243BC12505E75820F124609D006D00790FA0D
:20572F00B1E0FCA3E0FDC3EC9EED9F50D48C068D0780CE7423C0E08E828F83124211158188
:20574F007404C0E0123D5AAC82AD83158190F0ECECF0EDA3F07582011217FB12568312198B
:11576F00D97486C0E07469C0E012544D158115812238
:20687900050107000900040607070F0002008F0461C8012C023039025017028208026022F3
:20689900102003020102040F0A0A1902040F000000102103020102840F8A4A1902440F0044
:2068B9000000102203020142040F8A4A1982040F00000010250A0A0102140814140300001D
:2068D9000000000010264A4A0182540854540300000000000010270A0A01021408141403B6
:2068F900000000000000102483820182840F8A4A1902040F000000001020000000000000FE
:206919000000000000000000001021000000000000000000000000000000102200000000FB
:206939000000000000000000000000102400000000000000000000000000000002008F0475
:2069590061C8012C050102000000023029011205010200000002E001011200557064617456
:1E697900696E6720646973706C61790A0055706461746520636F6D706C6574650A00BC
:20578000AE82AF837C007D007B10EF235401FAEE2EFEEF33FFEC2CFCED33FDEA60034304C2
:2057A000017863C3E2F5F0EC95F008E2F5F0ED95F040117863D3E29CF4B3FCB308E29DF483
:0B57C000FD430601DBC48E828F8322B4
:2057CB00AC82AD83AEF0FF33E433FB6013C3E49CF516E49DF517E49EF518E49FF519800888
:2057EB008C168D178E188F19AC16AD17AE18AF197868E233E433FA60207865E2D3F43400B6
:20580B00F51608E2F43400F51708E2F43400F51808E2F43400F51980117865E2F51608E2D0
:20582B00F51708E2F51808E2F519786DE516F2E51708F2E51808F2E51908F28C828D838EFF
:20584B00F0EFC003C00212589F7869C0E0E582F2E58308F2E5F008F2D0E008F2D002D00376
:20586B00EA6B60207869E2D3F43400FA08E2F43400FB08E2F43400FE08E2F434008A828BCA
:14588B00838EF0227869E2F58208E2F58308E2F5F008E2226F
:20589F00AF82AE83ADF0FC7871EFF2EE08F2ED08F2EC08F27A007B007E007F007D207874F4
:2058BF00E2235401FC7871E225E0F208E233F208E233F208E233F2EA2AFAEB33FBEE33FE3E
:2058DF00EF33FFEC6003430201786DC3E2F5F0EA95F008E2F5F0EB95F008E2F5F0EE95F094
:2058FF0008E2F5F0EF95F04022786DD3E29AF4B3FAB308E29BF4B3FBB308E29EF4B3FEB3A2
:1D591F0008E29FF4FF7871E24401F2DD917871E2F58208E2F58308E2F5F008E22200
:0600B200E478FFF6D8FD22
:200090007924E94400601B7A0190699778617593FCE493F2A308B800020593D9F4DAF275AF
:0200B00093FFBC
:1B593C0020F71130F6138883A88220F509F6A8837583002280FEF280F5F0226A
:20595700AA83AB828BF090F076E0A4F8A9F08AF0E0A429F98BF0A3E0A429F583888222229F
:20597700AF82AE83ADF0FC787CEFF2EE08F2ED08F2EC08F2787CE2FF787AE28FF0A4FFAD13
:20599700F07882EFF208EDF2787CE2FF7878E28FF0A4FFADF07880EFF208EDF27883E2FF3C
:2059B700787FE2FE7878E28EF0A42FFF7883F2787EE2FE7879E28EF0A42F7883F27882E227
:2059D700FE08E2FF787EE2FD7878E28DF0A4ABF02EFEEB3FFF7882EEF208EFF2787DE2FD7A
:2059F7007879E28DF0A4ABF02EFEEB3FFF7882EEF208EFF2787DE2FF787AE28FF0A4787F25
:205A1700F2787DE2FF7878E28FF0A4FFADF0787DEFF208EDF2787CE2FF787BE28FF0A47814
:205A37007BF2787CE2FF7879E28FF0A4FFADF07879EFF208EDF27878E4F2787CF27880E23C
:205A5700F55608E2F55708E2F55808E2F559787CE2FA08E2FB08E2FE08E2FFEA2556F55609
:205A7700EB3557F557EE3558F558EF3559F5597880E556F208E557F208E558F208E559F2EF
:205A97007880E208E208E208E27878E2FC08E2FD08E2FE08E2FFEC2556FCED3557FDEE35D5
:0C5AB70058FEEF35598C828D838EF02252
:205AC300AE82AF837D007C007885E2235401FB70357884E225E0F208E233F27884C3E2F5F7
:205AE300F0EE95F008E2F5F0EF95F050147884E2F5F008E2C313C5F01318F2C5F008F28015
:205B0300050C8C0580C27884C3E2F5F0EE95F008E2F5F0EF95F0400E7884D3E29EF4B3FE20
:205B2300B308E29FF4FF7884E2F5F008E2C313C5F01318F2C5F008F28D041DEC70C88E824D
:035B43008F83222B
:205B4600AD82AE83AFF07889E2F5F008E245F07004900000227889E2FB08E2FC1BBBFF0199
:205B66001CEB4C6069C003C0048D568E578F588556828557838558F0125CC5FA7886E2F542
:205B86005908E2F55A08E2F55B855982855A83855BF0125CC5FCEAB504028006D004D003A0
:205BA600802C74012556FAE43557FBAC588A058B068C0774012559FAE4355AFBAC5B7886C7
:205BC600EAF2EB08F2EC08F2D004D003808E8D828E838FF0125CC5FD7F007886E2FB08E250
:1A5BE600FC08E2FE8B828C838EF0125CC5FB7E00EDC39BF582EF9EF5832292
:205C0000AE82E583FF33E433FD6009C3E49EFBE49FFC80048E038F04788CE233E433FF6047
