:040000000200833245
:01000B0032C2
:0100130032BA
:01001B0032B2
:0100230032AA
:03002B00024C96EE
:01003300329A
:01003B003292
:030043000252580E
:03004B00024BB3B2
:01005300327A
:01005B003272
:01006300326A
:01006B003262
:01007300325A
:03007B00025DD84B
:0300FA0002007E83
:03007E0002050672
:2000FD00E58620E0FB225390FD00225380FB0022E58620E0FB004390020022E58620E0FBA6
:20011D00004380040022AF8290F094E4F090F095F08F061FEE60767E0090F960E0FDBD0240
:20013D000BEE90654E93FDBDC800405990F960E0FDBD010BEE90654E93FDBDC8005046EE5F
:20015D00244EFCE43465FD8C828D83E493F582C007C006C005C004121D8BE582D004D005AE
:20017D00D006D007601F90F094E0FB90F0C5E0FAC3EB9A501090F094EAF08C828D83E493FD
:20019D00FC90F095F00EBE0C005086808C90F095E0FFE06013BFC800400890F9607402F022
:2001BD00800690F9607401F090F095E0F5822290F0F3E0FEA3E0FFC3742C9E74019F40098F
:2001DD0090F0E9E0700330015E300A0920020690F0CCE0700930031E90F0CDE0601890FC25
:2001FD006AE0FFBFFF02800B7828E4F28F821228AF8003123F09121F57AD82AE83AFF090EA
:20021D00F096EDF0EEA3F0EFA3F0ED4E602D90F0F3E4F0A3F010010090F0E9E06002D2012A
:20023D0090F0E9E4F08014122042AD82AE83AFF090F096EDF0EEA3F0EFA3F01219EB90F0D1
:20025D0096E0FDA3E0FEA3E0FFED4E700990F0E7E4F0A3F08059740F2DFAE43EFB8F048ACC
:20027D00828B838CF012652EFAA312652EFB90F0E7EAF0EBA3F0740D2DFAE43EFB8F048AD2
:20029D00828B838CF012652E60168D828E838FF0123284E582701890F0E7E4F0A3F0800F67
:2002BD00745FC0E07465C0E0125CCC15811581121A36AE82AF8390F0F3E0FCA3E0FD90F0BC
:2002DD00F3EE2CF0EF3DA3F0BE580CBF020990F0CBE06003C2002290FA61E0600E90FA61C3
:2002FD00E4F0900064E4F5F002193690F0E7E0FEA3E0FF4E603BEF30E71F8E048F055305AC
:20031D007F787BECF208EDF208E4F208F29003E8E4F5F01261E0021936787BEEF208EFF20D
:20033D0008E4F208F290EA60E4F5F01261E0021936121A36AE82AF83787BEEF208EFF208F9
:20035D00E4F208F29003E8E4F5F01261E002193690F0D4E0FF600D8F82121D8BE58290F96D
:20037D005FF0800C758202120123E58290F95FF090F95FE0700920030690F0CDE0701430CC
:20039D000A0920020690F0CCE0700890F0EAE0FFBF233690FC6AE0FFBFFF02801A758202D8
:2003BD00124095E582702290FC6AE0FF7828E4F28F821228AF801290F0EAE0FFBF230040FE
:2003DD00051240348003123FF190F95FE0604890F0EAE4F090F0D4E0700F7582041218F139
:2003FD001215F475820412192A90F0E974FDF09000281218CE121A36AE82AF83787BEEF264
:20041D0008EFF208E4F208F29003E8E4F5F01261E0121936D200227582011219B1AC82AD63
:20043D0083AEF0FF787BECF208EDF208EEF208EFF29003E8E4F5F01261E0021936E582FFA8
:20045D0024FA50030204EEEF2F2F90046B73024BAF02047D0204940204C40204EE0204D0AE
:20047D00746AC0E07465C0E0125CCC15811581C20090F95FE4F02290F95FE0FE7477C0E011
:20049D007465C0E0125CCC15811581758204C0061218F11214AE1215F475820412192AD075
:2004BD000690F95FEEF022123B7B900000E4F5F00219367487C0E07465C0E0125CCC1581DB
:2004DD0015817582041218F112289B75820402192A7E00C007C0067497C0E07465C0E012FD
:2004FD005CCCE58124FCF581227582011218F175820F124EF190FAB8E0FEA3E0FF7423C036
:20051D00E08E828F83124AF915817404C0E0124642AC82AD83158190F0EBECF0EDA3F090D4
:20053D00655AE493C0E0740193C0E090655CE493C0E0740193C0E0740293C0E074A9C0E0AA
:20055D007465C0E0125CCCE58124F9F58112556E121ACF121A8790F0E974FCF0AEBE5306C1
:20057D00187F00BE1009BF000690F0E974FEF0301B0C12408F900000E4F5F0121936743CBE
:20059D00C0E074FCC0E0E4C0E074D8C0E07465C0E0125CCCE58124FBF58112387E90019087
:2005BD00E4F5F01219367582041218F112152012386590F0C8E0601174E0C0E07465C0E0E2
:2005DD00125CCC15811581801B74F1C0E07465C0E0125CCC15811581123C5D902710E4F5CE
:2005FD00F012193690F95FE0FFE0601F8F82121D8BE582702574FEC0E07465C0E0125CCCDB
:20061D001581158190F95FE4F0800F741CC0E07466C0E0125CCC1581158190F95FE07003FB
:20063D0012036D90F95FE06007123F09D2008005123FF1C2007582041218F11215F43000D6
:20065D00067E287F0080047E587F028E828F831218CE30000A7C887D137E007F0080087C8E
:1E067D00C07DD47E017F008C828D838EF0EF1219363000051201CC80F812036D80F3E3
:20654E00C864C965CA66CB67CC68CD6909002E66804E6F207570646174650A00434D445F4D
:20656E00444F5F5343414E0A0052657365742073657474696E67730A0045726173696E6785
:20658E0020696D616765730A00436D6420307825782069676E6F7265640A000A2573204FB1
:2065AE0045504C2076253034782C20636F6D70696C65642041756720203220323032342005
:2065CE0030383A30333A34390A004D41432025730A00446F696E67206661737420626F6F45
:2065EE00740A004E6F726D616C20626F6F740A004E6F20415020666F756E64206F6E20738E
:20660E0061766564206368616E6E656C0A004E6F207361766564206368616E6E656C0A00D6
:0E662E004368726F6D6134325F383137360069
:0179CC0001B9
:20069B00E58620E0FB225390FD00225380FB0022E58620E0FB004390020022E58620E0FB02
:2006BB00004380040022AC82AD83AEF0FF00C2A0007582031245AF8E821245AF8D8212455D
:2006DB00AF8C820245AFC007C006C005C004C003C002C001C000AC82AD83AEF0FFE58124AB
:2006FB00F5F8860208860300C2A0007582031245AF8E821245AF8D821245AF8C821245AF38
:20071B008A068B07E58124F3F886040886058C028D031CBCFF011DEA4B60157582001245FF
:20073B00AFAB828E828F83EBF0A3AE82AF8380DE00D2A000D000D001D002D003D004D00501
:20075B00D006D00722AF8200C2A0008F821245AF00D2A0002200C2A0007582051245AF7598
:20077B0082001245AFE58220E0F500D2A00022AC82AD83AEF0FF7803E2FA08E2FBC007C028
:20079B0006C005C004C003C002120770758206120760D002D003D004D005D006D00700C26E
:2007BB00A0007582021245AF8E821245AF8D821245AF8C821245AF8A068B077805E2FC08BB
:2007DB00E2FD8C028D031CBCFF011DEA4B60128E828F83E0FBA3AE82AF838B821245AF80D0
:2007FB00E100D2A000221207707582B9120760C20C227582AB12076075F034D5F0FDD20C73
:20081B0022C007C006C005C004C003C002C001C000C082C083C0F0C0E005810581E5812414
:20083B00EFF88605088604E58124EDF8E608467003020915C005C004E58124F9F8860208CF
:20085B007B00E58124FDF8E4C39AF674019B08F6E58124FDF8E58124EBF9C3E79609E70819
:20087B0096D004D005500EE58124EDF8A98119E6F70809E6F77803EDF208ECF2A881187949
:20089B0005E6F30809E6F3E58124FBF886820886830886F008E6C007C006C005C004C0039A
:2008BB00C002C001C000C02512078AD025D000D001D002D003D004D005D006D007A8811880
:2008DB008602088603E4FEFFE58124FBF8EA26F6EB0836F6EE0836F6EF0836F6A88118E6F5
:2008FB002DFD08E63CFCE58124EDF8A98119E6C397F608E60997F6020842E58124FAF581DB
:20091B00D000D001D002D003D004D005D006D00722C007C006C005C004C003C002C001C0E2
:20093B0000C082C083C0F0C0E0E58124FDF88602088603EA7005EB540F6006758200020A19
:20095B0060E58124F1F8E608467003020A5D758206C007C006C005C004C003C002C001C080
:20097B0000C025120760D025D000D001D002D003D004D005D006D00700C2A000E58124F190
:20099B00F88602088603C3EA9410EB94004018E58124FDF88602088603EA4B700A7582D8ED
:2009BB001245AF7D1080087582201245AF7D01E58124FDF8080886821245AFE58124FDF84A
:2009DB000886821245AFE58124FDF886821245AF00D2A000C007C006C005C004C003C0024C
:2009FB00C001C000C025120770D025D000D001D002D003D004D005D006D007C005901000F7
:200A1B00124642AA82AB83AEF0FF1581E58124FDF8EA26F6EB0836F6EE0836F6EF0836F6AB
:200A3B008D037F00E58124F1F88605088606EDC39BFDEE9FFEE58124F1F8A60508A6060253
:1C0A5B00095C758201E58124FCF581D000D001D002D003D004D005D006D0072268
:200A7700E58620E0FB225390FD00225380FB0022E58620E0FB004390020022E58620E0FB22
:200A9700004380040022C007C006C005C004AF82AE83ADF0FC90F0C1EFF0EEA3F0EDA3F024
:200AB700ECA3F0C202C203D209758204C007C006C005C004C003C002C001C000C025121816
:200AD700F1D025D000D001D002D003D004D005D006D00790F0C1E0FCA3E0FDA3E0FEA3E0DC
:200AF700FF7416C0E0E4C0E074F9C0E074F0C0E08C828D838EF0EF1206E1E58124FCF581A1
:200B170090F0C1E0FCA3E0FDA3E0FEA3E0FF90F0C174162CF0E43DA3F0E43EA3F0E43FA308
:200B3700F090F109E0FFBF2004C207806A90F109E0FFBF2104D207805E90F109E0FF7E00C4
:200B5700C007C0067424C0E0746CC0E0125CCCE58124FCF58190FA747416F0E4A3F090F094
:200B7700F975F000C007C006C005C004C003C002C001C000C025121C3ED025758204C025BE
:200B970012192AD025D000D001D002D003D004D005D006D0078051C221C007C006C005C092
:200BB70004C003C002C001C000C025125EDED025C025120C08D025D221C025125EDED025D1
:200BD700C025120C08D025758204C02512192AD025C025125F2FD025D000D001D002D00314
:200BF700D004D005D006D007D004D005D006D007227F807E0090F09FE4F0A3F090F0ABF0F2
:200C1700A3F090F0A1F0A3F05390FD007D00200903020CD030211C20071974DCC0E0740509
:200C3700C0E0E4C0E090F0F91247EB1581158115818054C00590F0C1E0FAA3E0FBA3E0FC49
:200C5700A3E0FD74DCC0E07405C0E074F9C0E074F0C0E08A828B838CF0ED1206E1E58124DD
:200C7700FCF58190F0C1E0FAA3E0FBA3E0FCA3E0FD90F0C174DC2AF074053BA3F0E43CA39E
:200C9700F0E43DA3F0D0057B1E7C00C007C006C005C004C003123A3BD003D004D005D006FD
:200CB700D00790F0A1E02401F0A3E03400F01BBBFF011CEB4C70D4805074DCC0E07405C023
:200CD700E0E4C0E090F0F91247EB1581158115817B1E7C00C007C006C005C004C0037807AD
:200CF700E2F58208E2F583120081D003D004D005D006D00790F0A1E02401F0A3E03400F0A9
:200D17001BBBFF011CEB4C70CB7B007C00EF60528E02EA2AFEEB24F9F582EC34F0F583E037
:200D3700FAEF5A6003430601EF30E0058E82125F1AC005EFC313FF90F09FE02401F0A3E0ED
:200D57003400F090F09FE0FAA3E0FDBA9005BD01028004D00580B6D00590F09FE4F0A3F0E6
:200D770080AB7F800BBB00010CC3EB94DCEC9405409B90F0ABE0FBA3E0FC741E2BFBE43C84
:200D9700FC90F0ABEBF0ECA3F00DBD0A005003020C25E58620E0FB004390020022AE82AF25
:200DB70083C202C203C209D207C2217807EEF208EFF2125EDE120C08D221125EDE120C0866
:200DD700025F2FC007C006C005C004C003C002C001C000AD82AE83AFF0780912652EF2A297
:200DF70004202101B34003020F4190F09DE0F508A3E0F50974012DFAE43EFB8F048A828BF0
:200E1700838CF012652EFA780CF208E4F2850882850983C007C006C005C004C003C002C04E
:200E370001C000120FD0E582D000D001D002D003D004D005D006D0076003020F4190F09B16
:200E5700E0F508A3E0F5097809E2F50A750B00780AE50AF208E50BF2850882850983C00707
:200E7700C006C005C004C003C002C001C000120FA8D000D001D002D003D00490F0A7E0F527
:200E970008A3E0F50990F0AFE0FBA3E0FCEBC39508F582EC9509F5837879E50AF208E50B9B
:200EB700F2C002C001C0001261C0AB82AC83D000D001D002D005D006D007ECC423CBC423DD
:200ED700541F6BCB541FCB6BCBFC90F0BDEBF0ECA3F074022BFBE43CFCEB2DFDEC3EFE78DE
:200EF70009E2604690F0BBE0FBA3E0FC90F0BB74012BF0E43CA3F0EB24F9FBEC34F0FC8B9D
:200F1700828C83E0F50A8D828E838FF012652EFAA3AD82AE83E50A42028B828C83EAF07868
:200F370009E2FC780924F8F280B5D000D001D002D003D004D005D006D0072290F0ADE0FE26
:200F5700A3E0C423CEC423541F6ECE541FCE6ECE30E40244E0FF90F0ABE0FCA3E0FD90F0EF
:200F7700AFE0FAA3E0FBEAC39CFCEB9DFD7879ECF208EDF2900032C007C0061261C0AC8223
:200F9700AD83D006D00790F0BBEC2EF0ED3FA3F022AE82AF8390F0A3EEF0EFA3F090F0AD25
:200FB700EEF0EFA3F0780A90F0A5E22EF008E23FA3F0120F5275820022AF83E582780EF2BA
:200FD70008EFF2780E790CE3C5F0E225F0FC09E3C5F008E235F0FD90F0A9ECF0EDA3F090B9
:200FF700F0A1E0FAA3E0FB8A068B07780EC3E2F5F0EE95F008E2F5F0EF95F04025EA9CEB33
:2010170064808DF063F08095F05017780E90F0A7E2F008E2A3F090F0AFEAF0EBA3F075821F
:20103700002275820122C007C006C005C004C003C002C001C000AC82AD83AEF0FFE58124BC
:2010570004F581BF2000502C8F82C007C006C005C004C003C002C001C000C0251244FAD072
:2010770025D000D001D002D003D004D005D006D00702136D7E00EF24E0FFEE34FFFEEF2F69
:20109700FFEE33FEEF243CF582EE3466F583E493FEA3E493FF90F0BDEEF0EFA3F0EFC45423
:2010B7000FFE90F0B5F0300507EE2EFE90F0B5F090F0B3E0FEA3E0FF90F0B6E0FD780CF250
:2010D700ED3395E008F28E828F83C007C006C005C004C003C002C001C000C025120FD0E571
:2010F70082D025D000D001D002D003D004D005D006D007602790F0B5E0FF3395E0FE0FBFB7
:2011170000010E90F0B1E0FCA3E0FDEF2CFFEE3DFE90F0B1EFF0EEA3F002136DA2042021DF
:2011370001B3400302136D90F0B1E0FEA3E0FF90F0B5E0FD780AF2ED3395E008F28E828FDA
:2011570083C007C006C005C004C003C002C001C000C025120FA8D025D000D001D002D003F0
:20117700D004D005D006D00790F0BDE0FEA3E0FF53070F90F0BDEEF0EFA3F090F0B1E0FE50
:20119700A3E0FF8E055305078DF005F07D80E4FC3392D28008A2D2EC13FCED13FDD5F0F530
:2011B70090F0B5E0FC3395E0FB0CBC00010BEC2EFCEB3FFB90F0B1ECF0EBA3F030055A90AB
:2011D700F0A7E0FEA3E0FF90F0A1E0FBA3E0FCEBC39EFEEC9FFF8E828F83788E7402F2081A
:2011F700E4F2C005C004C003C002C001C000C025126469AE82D025D000D001D002D003D074
:2012170004D0058EF005F07E007F808007C3EF13FFEE13FED5F0F6802FC00590F0A7E0FB73
:20123700A3E0FC90F0A1E0FAA3E0EAC39BFA8AF005F07A007D808007C3ED13FDEA13FAD55F
:20125700F0F68A068D07D005C006C00790F0A7E0FBA3E0FC90F0B3E0FAA3E0FFEAC39BFBB8
:20127700EF9CFC90F0BDE0FEA3E0FF90F0BDEB2EF0EC3FA3F090F0BFE4F0A3F0D007D006DC
:20129700C006C00790F0BFE0FBA3E0FC90F0B5E0FA3395E0FFC3EB9AEC9FD007D006400398
:2012B70002136DC006C00790F0BDE58124FBF8E0F6A3E008F6E58124FBF8E626FA08E63353
:2012D700FFEA24FCF582EF3466F583E58124FDF8E493F6A3E49308F6D007D006300517EB8E
:2012F70030E024E58124FDF890F0BD740126F0E40836A3F08011E58124FDF890F0BD7401E5
:2013170026F0E40836A3F0A88118EE56FBEF0856FC4B601F90F0BBE0FBA3E0FCEB24F9FBC0
:20133700EC34F0FC8B828C83E0FAED42028B828C83EAF0EDC313FD700E90F0BBE02401F0FF
:20135700A3E03400F07D8090F0BFE02401F0A3E03400F0021297E58124FCF581D000D001AF
:20137700D002D003D004D005D006D00722AE82AF83A204202101B34001227409C0E0E4C018
:20139700E0C0E090FAA31247EB1581158115818E038F047D0090FAA3EBF0ECA3F0EDA3F0DB
:2013B7008E828F831248AD780C7428F208E4F27812E2F58208E2F583C007C006120FD0E555
:2013D70082D006D0076001228E828F831248ADAE82AF837879EEF208EFF290000B1261C031
:2013F700E5828583F02423FEE435F0FF7810E2FC08E2FDEE2CFEEF3DFF780AEEF208EFF24F
:201417007810E2F58208E2F583120FA890F0ADE0FEA3E05306078EF005F07E80E4FF3392A2
:20143700D28008A2D2EF13FFEE13FED5F0F590FAA9E0FFBF0401221241E7501F90F0BBE051
:20145700FDA3E0FFED24F9FDEF34F0FF8D828F83E0FCEE42048D828F83ECF0EEC313FE707D
:11147700CD90F0BBE02401F0A3E03400F07E8080BD85
:20663C000070071008500D9016601CA026A03010316037603D7044904D204F605520578079
:20665C005F7066706D6073507880805085708C7093709A70A120A320A570AC80B470BB700F
:20667C00C2A0CCA0D670DD80E570EC70F370FA8002710971105115811D7124812C71338197
:20669C003B7142814A7151715891617168A172A17CA186A1908198519D81A551AA81B2A14B
:2066BC00BC21BE71C571CC71D371DA71E181E971F071F741FB51007207420B9214721B72A4
:2066DC0022722972306236623C724362499252A25C8264A26E8276627C127D6283A28D72E6
:2066FC000000000000000000000000000000D87F0078000000000000007880009804E00536
:20671C00801E9864E005801E80648004183808640842FCFF8841F040083810442044C044E2
:20673C0000397002880C881088207040E0001001083A08468845C84C38381800680080013B
:20675C000078E00718180C300420024002400240024004200C301818E00700100018000F78
:20677C000072000F001800104000400040004000F807400040004000400019001E0080009E
:20679C00800080008000800080001800180002000C003000C0000003000C00300040C00FE1
:2067BC0030300840084008403030C00F082008200820F87F080008000800186028404840E7
:2067DC0088400843083C0840084208420842F03DC0004003400440184020F87F40004000FD
:2067FC00087C084408441042E041E00F10320844084408441042E00100401840E0400043AB
:20681C00004C00500060F038084508420842084590456038001E08218840884088403021AD
:20683C00C01F1806180619061E06C000C00020012001100210020804200120012001200168
:20685C00200120012001200108041002100220012001C000C00000700040D840004100425B
:20687C0000640038C00F30181820C84728486850D851E03F2000200008007000C001400ECB
:20689C004018400C4003C00030000800F81F08110811081108118812700CC003300C100855
:2068BC0008100810081008100818F81F08100810081008101008E007F81F881088108810E7
:2068DC00881088100810F81F801080108010801080100010C003300C10080810081088107E
:2068FC008810F818F81F80008000800080008000F81F081008100810F81F0810081008107F
:20691C000800081008100810F01FF81F0001800140022004200810100800F81F0800080086
:20693C000800080008000800F81F001C8007E00060008003001CF81FF81F000800068001C5
:20695C0060001000F81FE007100808100810081008101008E007F81F8010801080108010DF
:20697C000011000EE00710080810081008100C101208E207F81F80108010C0102011100E20
:20699C000800180E0812081108118810901070180010001000100010F81F0010001000101A
:2069BC000010E01F18000800080008001000E01F0010000C8003600018001800E00000035B
:2069DC00000C00100018C0073800F0000007800370003800C00700180810100820044002D1
:2069FC008001800140022004100808100010000800060001F80000010002000400080010AD
:206A1C0018102810481088100811081208140818FE7F024002400240024000400030000C9A
:206A3C000003C00030000C0002000240024002400240FE7F2000C0000007001C0070000E33
:206A5C00C001200004000400040004000400040004000400040004000080004030004804D5
:206A7C00880488049004F8030800F87F10020804080408041006E001E0011002080408049C
:206A9C00080408040804E00118020804080408041002F87FE001900288048804880488046B
:206ABC00880300040004F83F00240044004400440044E00119020904090409041202FC0782
:206ADC00F87F00010002000400040004F803000400040064F8670100010401040164FE6779
:206AFC00F87F8000C0002001200210020804004000400040F87FF807000200040004F80327
:206B1C00000200040004F803F80700030002000400040004F803E001100208040804080432
:206B3C001002E001FF0710020804080408041006E001E00118020804080408041002FF07DC
:206B5C00F8070001000200040004000718038804880448044804300400040004F01F0804E6
:206B7C00080408040804F0070800080008001000F807000480036000180008003000C000C0
:206B9C00000300040006E001180070008003800170001800E0010006080410022001C000F1
:206BBC00C00020011002080401040103C10062001C0018006000800000030004080418044B
:206BDC00280448048804080508060804800080007C3F024002400240FE7F024002400240AA
:206BFC007C3F80008000C000000100010001800080004000400040008001F80108030804AA
:206C1C00080808040803F80164617461547970652030782578206E6F7420737570706F725D
:056C3C007465640A000C
:20148800E58620E0FB225390FD00225380FB0022E58620E0FB004390020022E58620E0FB07
:2014A80000438004002290F0C77401F090F0C8E4F090F0C9F090F0CAF090F0CBF090F0CC79
:2014C80004F090F0CDF090F0CFE4F090F0CEF090F0D27428F0E4A3F090F0D4F090F0D07415
:2014E80028F0740AA3F090F95FE4F090F960F022AD82AE8312652EFCBC011C7BC77CF08BF1
:20150800828C83740EC0E0C005C0061248831581158115810215F4227480C0E0E4C0E0742D
:20152800A2C0E074FDC0E090C000E4F5F01206E1E58124FCF581740EC0E07414C0E074FE86
:20154800C0E090F0C712488315811581158190FDA2E0FCA3E0FDA3E0FEA3E0FFBCA513BD3E
:201568005A10BEBA0DBFAB0A90FDA6E0FFBF0102803590FDA2E0FCA3E0FDA3E0FEA3E0FFE9
:2015880090FDA6E0FB7A00C004C005C006C007C003C0027441C0E0746CC0E0125CCCE581AB
:2015A80024F8F5810214AE90FDA7E090F95FF090FDA8E090F960F0746FC0E0746CC0E012DE
:2015C8005CCC1581158112174690FDA2E4F004C0E0E4C0E074A2C0E074FDC0E090C000E41A
:2015E800F5F012081CE58124FCF581227480C0E0E4C0E074A2C0E074FDC0E090C000E4F5A2
:20160800F01206E1E58124FCF58190FDA2E0FCA3E0FDA3E0FEA3E0FFBCA53EBD5A3BBEBAE6
:2016280038BFAB35788974C7F20874F0F208E4F2788C740EF208E4F290FE1475F00012638F
:20164800AFE5828583F045F0700F90FDA7E0FF90F95FE0FEEFB506012290FE21E0FF90F00C
:20166800D4E0FEEFB50602803EEE603BBE6400502390FE21E0FF7D00C007C0057481C0E0FC
:20168800746CC0E0125CCCE58124FCF58190F0D4E4F08013BEC800400890F9607402F08034
:2016A8000690F9607401F07480C0E0E4C0E0C0E090FDA21247EB158115811581740EC0E0BF
:2016C80074C7C0E074F0C0E090FE1412488315811581158190FDA274A5F0F4A3F074BAA352
:2016E800F0C4A3F090FDA67401F090F95FE090FDA7F090F960E090FDA8F07401C0E0E4C070
:20170800E090C000E4F5F012092C158115817480C0E0E4C0E074A2C0E074FDC0E090C00026
:20172800E4F5F012081CE58124FCF581749AC0E0746CC0E0125CCC1581158102174690F033
:20174800CBE0FF7E00C007C00674ABC0E0746CC0E0125CCCE58124FCF58190F0D4E0FF7EA6
:2017680000C007C00674C4C0E0746CC0E0125CCCE58124FCF58190F0D0E0FEA3E0FFC006D0
:20178800C00774D7C0E0746CC0E0125CCCE58124FCF58190F0C8E0FF7E00C007C00674EB48
:2017A800C0E0746CC0E0125CCCE58124FCF58190F95FE0FF7E00C007C0067400C0E0746D04
:0C17C800C0E0125CCCE58124FCF581221D
:206C41004C6F616465642064656661756C74732073657474696E677356657220307825784F
:206C6100204D61676963203078256C780A004C6F616465642073657474696E67733A0A0019
:206C810049676E6F7265642066697865644368616E6E656C2025640A005361766564207309
:206CA100657474696E67733A0A0020205363616E2041667465722054696D656F757420256E
:206CC100640A00202066697865644368616E6E656C2025640A0020206261744C6F77566F1B
:206CE1006C746167652025640A002020656E61626C6546617374426F6F742025640A002037
:0D6D0100204C6173742063682025640A0033
:2017D400E58620E0FB225390FD00225380FB0022E58620E0FB004390020022E58620E0FBB8
:2017F40000438004002275F10175805875FDDD75F33875904075FE6E75F4E875A00175FF48
:2018140001227401C0E0E4C0E0900000E4F5F012092C158115817417C0E0E4C0E0740EC03B
:20183400E0746DC0E090F0F9124849E58124FCF5817417C0E0E4C0E074F9C0E074F0C0E05B
:20185400900000E4F5F012081CE58124FCF58122C00775E40075FC0075F70075FE0290F9CC
:2018740059E0FF54F06002800DD291758F0075F60075FD008012758F8575F62F75FD857584
:14189400FE2F53807A5390D075F30075F40075F500D00722DF
:176D0E005612098501084A43000000002303080904EC0212045A0A3F
:027FFE00146D00
:2018A800E58620E0FB225390FD00225380FB0022E58620E0FB004390020022E58620E0FBE3
:2018C800004380040022AE82AF837D00BD08005017ED75F002A424D5F58274F035F0F583A3
:2018E800EEF0EFA3F00D80E422E582FF30E0251258DDC007124C1CD2AF1217FA1245AB1212
:2019080050C2D00775820A12510190F95FE0FEF58212504DEF30E2091245D8200C03020813
:201928000D22E58230E206300C0302080122AF82AE83ADF0FC90F0F5EFF0EEA3F0EDA3F035
:20194800ECA3F090F0F5E0FCA3E0FDA3E0FEA3E0FFC004C005C006C0077425C0E0746DC03C
:20196800E0125CCCE58124FAF581300C16758204C007C006C005C00412192AD004D005D01A
:2019880006D007C007C006C005C004125EBBD004D005D006D0071218648C828D838EF0EFB2
:2019A800124CA47582010218F1E582FF601090F0EAE0FFBFFF00500690F0EAEF04F090F01A
:2019C800EAE0FFBF18005007900E10E4F5F022BF24005007901C20E4F5F02290518075F0B8
:2019E80001E42290F0E6E07879F208E4F29002301261C07866740EF208E4F2125FE9AE8222
:201A0800AF8374282EFEE43FFF90F0E5E054077D0025E0FCED33FDEC24D5F582ED34F0F505
:201A280083EEF0EFA3F090F0E5E02401F0227E007F007D00BD0800501DED75F002A424D5A2
:201A4800F58274F035F0F583E0FBA3E0FCEB2EFEEC3FFF0D80DEEFC423CEC423541F6ECEC6
:201A6800541FCE6ECEFF90F0D2E0FCA3E0FDC3EE9CEF9D50058C828D83228E828F832290F2
:201A8800FABAE0FF3395E0FEC007C006743AC0E0746DC0E0125CCCE58124FCF58190F0C52E
:201AA800E0FF7E0090F0C6E0FD3395E0FCC007C006C005C0047445C0E0746DC0E0125CCCD0
:201AC800E58124FAF5812275820E124EF1124F1D75820F124EF190FAB8E0FEA3E0FF74237E
:201AE800C0E08E828F83124AF915817404C0E0124642AC82AD83158190F0F1ECF0EDA3F0BE
:201B0800C20A90F0D0E0FEA3E0FFC3EC9EED9F5004D20A803A90F0EDE0FCA3E0FD4C6013F6
:201B2800C3EC9EED9F500C90F0F1ECF0EDA3F0D20A801C90F0EFE0FCA3E0FD4C6011C3ECEC
:201B48009EED9F500A90F0F1ECF0EDA3F0D20A90F0EFE0C0E0A3E0C0E090F0EDE0C0E0A3AE
:201B6800E0C0E090F0F1E0C0E0A3E0C0E090F0EBE0C0E0A3E0C0E07456C0E0746DC0E012BE
:091B88005CCCE58124F6F5812214
:206D2500536C656570696E6720666F7220256C64206D730A0054656D7020256420430A00E5
:206D4500525353492025642C204C51492025640A00426174745620426F6F742025642C20D5
:1A6D65006E6F772025642C2054782025642C207570646174652025640A00D4
:0500DC00781474FFF22E
:201B9100E58620E0FB225390FD00225380FB0022E58620E0FB004390020022E58620E0FBF7
:201BB100004380040022121C0DE582600790F972E0F58222121BD7E582600790F976E0F508
:201BD10082227582002290F961E05407FFBF012890F962E003035403FFBF031C90F962E05B
:201BF10023235403FFBF031090F961E023235401FFBF0104758201227582002290F961E041
:201C11005407FFBF012390F962E003035403FFBF021790F962E023235403FFBF030B90F9BA
:201C310061E020E6047582012275820022AFF0AE83E58290FA76F0EEA3F0EFA3F090FA76EB
:201C5100E0FDA3E0FEA3E0FF90FA74E0FBA3E0FC79007A00C3E99BEA9C5052E94A6016E947
:201C7100540F6002800F747FC0E0746DC0E0125CCC15811581C003C004E92DF8EA3EFB8F3E
:201C91000488828B838CF012652EF87C00C000C0047481C0E0746DC0E0125CCCE58124FC28
:201CB100F58109B900010AD004D00380A7747FC0E0746DC0E0125CCC1581158122AFF0AE19
:201CD10083E5827816F208EEF208EFF27819E4F27B017815C3E2F5F0EB95F050227816E26C
:201CF100FA08E2FC08E2FFEB2AFAE43CFC8A828C838FF012652EFA7819E22AF20B80D37841
:201D110016E2FD08E2FE08E2FF8D828E838FF012652EFD7819E2B50503D38001C3E433F558
:201D31008222AFF0AE83E582781BF208EEF208EFF2781EE4F27B01781AC3E2F5F0EB95F0ED
:201D51005022781BE2FA08E2FC08E2FFEB2AFAE43CFC8A828C838FF012652EFA781EE22ABC
:201D7100F20B80D3781BE2FD08E2FE08E2FF8D828E838FF0781EE20261A5E5812404F5819C
:201D9100AF82C218C0071252EBD0078F8212504DC0071253A0D2181252EBD0077E01EE240D
:201DB100FC5003021EB590F9E17414F0C007C0061238C590F9F374EDF090F9E11251E7D01F
:201DD10006D007124BD4AA82AB83ACF0FD90FA7974A62AF0740E3BA3F0E43CA3F0E43DA3F3
:201DF100F0C006124BD4AA82AB83ACF0FD90FA79E58124FCF8E0F6A3E008F6A3E008F6A3FC
:201E1100E008F6E58124FCF8C3EA96EB0896EC0896ED0896D0064003021EB1C007C00612EB
:201E310052FDAD82D006D007C374818DF063F08095F050AD90F977E0FDB507A5C007C00611
:201E5100121BB7AD82D006D007BDEE95C007C006121BD7E582D006D00760867408C0E07456
:201E71006EC0E074F9C0E090F94C12488315811581158190F964E0FCA3E0FD90F954ECF0C0
:201E9100EDA3F08F047D00C004C0057487C0E0746DC0E0125CCCE58124FCF5818F82802015
:201EB1000E021DAF8F057E00C005C0067491C0E0746DC0E0125CCCE58124FCF58175820045
:201ED100E58124FCF5812290F9E1742AF01238C590F9F374E5F090F9FA7483F090F0E9E054
:201EF10090F9FBF090F0C6E090F9F6F090F0C5E090F9F5F090FABAE090F9F7F090F0F1E050
:201F1100FEA3E0FF90F9F8EEF0EFA3F090F9FCE4F090655A93FE740193FF90F9FDEEF0EFBC
:201F3100A3F090F95FE090F9FFF090F0CFE090FA00F0781A7415F290F9F475F000121D33C3
:201F510090F9E10251E7D2181252EB121ACF121A877F00781FE4F2781FE2B40E0040030279
:201F71002035C007121ED8D007124BD4AA82AB83ACF0FD74882AF52674133BF527E43CF5FD
:201F910028E43DF529C007124BD4AC82AD83AEF0FFC3EC9526ED9527EE9528EF9529D00794
:201FB1004003022028C0071252FDAE82D007C374818EF063F08095F050CBC007121BB7AE52
:201FD10082D007BEE6BF78157411F290F97775F000C007121CCEE582D00760A97408C0E0A5
:201FF100746EC0E074F9C0E090F94C12488315811581158190F96475F00012652EFDA31224
:20201100652EFE90F954EDF0EEA3F090F0E6EFF090F97775F00022781FE22401F2781FE20E
:20203100FF021F6890F0E6740EF090000075F00022D2181252EB7F007820E4F27820E2B4C4
:202051000E00400302212990F9E17414F090F9F374E3F0C0071238C590F9E11251E7D007CC
:20207100124BD4AA82AB83ACF0FD74882AF52A74133BF52BE43CF52CE43DF52DC007124B5C
:20209100D4AC82AD83AEF0FFC3EC952AED952BEE952CEF952DD0075072C0071252FDAE82F4
:2020B100D007C374818EF063F08095F050CEC007121BB7AE82D007BEE6C278157411F290E0
:2020D100F97775F000C007121CCEE582D00760AC7408C0E0746EC0E074F9C0E090F94C127B
:2020F100488315811581158190F96475F00012652EFDA312652EFE90F954EDF0EEA3F0903D
:20211100F0E6EFF090F97775F000227820E22401F27820E2FF02204D90F0E6740EF0900091
:202131000075F00022AFF0AE83E5827821F208EEF208EFF27821E22402FA08E23400FB08B8
:20215100E2FC8A828B838CF012652EF52E852E2F75300090FA62E0F531AE317F00E52FC384
:202171009EFEE5309FFF7879EEF208EFF2900063C004C003C0021261C0AE82AF83D002D0D2
:2021910003D0048E2F8F3090FA7DE52FF0E530A3F07821E22401FD08E23400FE08E2FF8DF9
:2021B100828E838FF012652EFD90F925E0FFEDB50702800122E52E24D5500122C3E52E9595
:2021D100315001227463252FFEE43530FFC374239E74089F5001227821E2FD08E2FE08E209
:2021F100FF78157466F28D828E838FF0C004C003C002121CCEE582D002D003D0047003023D
:2022110022AA7821E22403FD08E23400FE08E28D2F8E3090FA7DE0FEA3E0FFEE24F9FEEF63
:2022310034F0FF8E828F837463C0E0E4C0E0C02FC030124849E58124FCF5818A828B838C29
:20225100F012652EFA7F00788E7408F208E4F28A828F83C007C002126469AD82AE83D00255
:20227100D007ED2427FDEE34F9FE5302078AF005F07401800225E0D5F0FBF4FA8D828E8393
:20229100E052028D828E83EAF0749EC0E0746DC0E0125CCC158115812274A0C0E0746DC0EF
:2022B100E0125CCC1581158122AF82AE83ADF0FC7824EFF208EEF208EDF208ECF290FA628C
:2022D100E0FB7A0090F925E0FF7E00C003C002C007C00674B1C0E0746DC0E0125CCCE58195
:2022F10024FAF581D2181252EB124BD485823285833385F034F5357824797BE22414F308E3
:20231100E2340009F308E2340009F308E2340009F3900019E4F5F01261E0AA82AB83AEF0A9
:20233100FFEA2532F532EB3533F533EE3534F534EF3535F535124BD4AA82AB83AEF0FFC3BC
:20235100EA9532EB9533EE9534EF9535503C1252FDAF82C374818FF063F08095F050D612B3
:202371001BB7AF82BFE8CE90F97775F0001221367F00EF2427FDE434F9FE8D828E83E070D1
:20239100060FBF060040EBBF06AB747FC0E0746DC0E0125CCC15811581C2181252EB0253BF
:2023B100A090F978E4F0A3F090F97775F00022742AC0E0E4C0E0C0E090F9E11247EB1581D7
:2023D1001581158190F9E1742AF090F946E0600890F9F774E4F0800690F9F774E7F074081C
:2023F100C0E07456C0E074F9C0E090F9EF1248831581158115817408C0E0744CC0E074F9B5
:20241100C0E090F9E712488315811581158190F9E2E054F84401F090F9E2E054C74440F056
:2024310090F9E3E0440C54CF44C0F090F95EE0FF04F090F9E4EFF090F954E0FEA3E0FF9005
:20245100F9E5EEF0EFA3F07DF87EF98D828E837411C0E0741CC0E074F9C0E012488315814C
:20247100158115817DF87EF97F00781A7411F28D828E838FF0121D3390F9E10251E7E581A0
:202491002404F581D2181252EB1253A07F00BF1E004003022572C0071223C0D007124BD453
:2024B100AB82AC83ADF0FE90FA7F74642BF0749F3CA3F0740B3DA3F0E43EA3F0C007125207
:2024D100FDAE82D007C374818EF063F08095F05051C007121BB7AE82D007BEE8028028BEF8
:2024F100E9028005BEEC33802978157403F290F97775F000C007121CCEE582D00760239066
:20251100F97775F00080631223B2AC82AD83AEF0805890000075F000805090000075F0007D
:202531008048C007124BD4C8E58124FCC8A68208A68308A6F008F690FA7FE0FAA3E0FDA3B9
:20255100E0FEA3E0FFE58124FCF8C3E69A08E69D08E69E08E69FD00750030224CD0F022453
:202571009F1223B2AD82AE83AFF0E58124FCF58122741BC0E0E4C0E0C0E090F9E11247EBA6
:2025910015811581158190F9E17419F090F9F774EAF07408C0E07456C0E074F9C0E090F997
:2025B100EF1248831581158115817408C0E0744CC0E074F9C0E090F9E7124883158115817A
:2025D100158190F9E2E054F84401F090F9E2E054C74440F090F9E3E0440C54CF44C0F0906B
:2025F100F954E0FEA3E0FF90F9E5EEF0EFA3F090F95EE0FF04F090F9E4EFF090F9E102518C
:20261100E7D2181252EB7F00BF10005070C007122582D007124BD485823A85833B85F03CBE
:20263100F53DC007124BD485823685833785F038F539E536C3953AFAE537953BFCE53895C7
:202651003CFDE539953DFEC3EA94A6EC940EED9400EE9400D0075022C0071252FDAE82D059
:2026710007C374818EF063F08095F050B5C007121BB7AE82D007BEEBA9220F808B22AF821C
:20269100787BEFF208E4F208F208F290B000E4F5F01261E0AC82AD83AEF0FF74902DFD748A
:2026B100013EFEE43F8C828D838EF022AD82AE83AFF07C007B00BB1500400302274CC004A9
:2026D1008B82C007C006C005C00312268FA882A983AAF0FCD003D005D006D0077416C0E095
:2026F100E4C0E074F9C0E074F0C0E0888289838AF0EC1206E1E58124FCF581746BC0E074D0
:20271100FCC0E090F101124B5615811581920ED004300E218D008E018F027408C0E0C0004F
:20273100C00190F0F9124817158115811581920E50038C82220B8B040226C77582FF22AFA8
:20275100825307F87E007D00BD150040030227D8C0068D82C007C00512268FAA82AB83AC55
:20277100F0FED005D0077416C0E0E4C0E074F9C0E074F0C0E08A828B838CF0EE1206E1E58D
:202791008124FCF581746BC0E074FCC0E090F101124B56158115819228D006302823C00650
:2027B10090F10EE0FC5304F87B008F027E00ECB50206EBB506028004D0068005D0068E82AE
:2027D100220D8D060227597582FF2212268FAC82AD83AEF0FF7416C0E0E4C0E074F9C0E00F
:2027F10074F0C0E08C828D838EF0EF1206E1E58124FCF58190F10EE0F58222AF828F060E68
:20281100EE24EA50027E00EEB507038E82228E82C007C00612268FAA82AB83ACF0FDD006CF
:20283100D0077416C0E0E4C0E074F9C0E074F0C0E08A828B838CF0ED1206E1E58124FCF5FA
:2028510081746BC0E074FCC0E090F101124B5615811581922850A890F10EE0FD5305F87C0C
:2028710000BD789BBC00988E822212268FAC82AD83AEF0FF740BC0E0E4C0E08C828D838EE0
:20289100F0EF12092C15811581227F00BF1500500C8F82C00712287BD0070F80EF22AF82CF
:2028B1008F057E00C005C00674C0C0E0746DC0E0125CCCE58124FCF5818F8212268F020AFB
:2028D1009D7829E4F208F208F208F27B00BB150040030229718B82C00312268F85823E855A
:2028F100833F85F040F541D0037416C0E0E4C0E074F9C0E074F0C0E0853E82853F83854037
:20291100F0E5411206E1E58124FCF581746BC0E074FCC0E090F101124B5615811581920F0A
:20293100503AC00390F10AE0FAA3E0FBA3E0FEA3E0FF7829C3E29A08E29B08E29E08E29FDD
:20295100D003501890F10A7829E0F2A3E008F2A3E008F2A3E008F290F94BEBF00B0228DEF4
:202971007829E2F58208E2F58308E2F5F008E222AF82AE83D21090F925E0FD7C007B007ACF
:20299100008C44EBC454F0C544C4C5446544C54454F0C5446544F545EDC4540F4544F544D5
:2029B100EDC454F0F543754200300D167833E542F208E543F27401254408F2E4354508F2B9
:2029D10080497814E2F582C007C00612268F85824685834785F048F549D006D007741625F1
:2029F10046F546E43547F547E43548F548E43549F5497833E5462542F2E547354308F2E5B9
:202A110048354408F2E549354508F290FA867405F090FA62E4F090F94604F0782DEFF208BE
:202A3100EEF27406C0E0E4C0E0C0E090F9271247EB15811581158190FA86E0FB14F0EB7067
:202A510003022DC3101003022B12782DE2FA08E2FB8A828B8378667463F208E4F2125FE9AF
:202A7100AA8290FA83EAF0782DE2FB08E2FF8B828F8378877463F208E4F2C00212632CE5BA
:202A9100828583F0D00245F0600690FA83EA04F090FA83E024EA500690FA837415F090FAF2
:202AB10062E0FB7A0090FA83E0FFC3EA9F50528B067F00788E7408F208E4F28E828F83C030
:202AD10007C006C003C002126469AC82AD83D002D003D006D007EC2427FCED34F9FD530661
:202AF100078EF005F07401800225E0D5F0FBFE8C828D83E0FF42068C828D83EEF00B0A80BB
:202B1100A412248FAA82AB83AFF0EA4B7003F582220ABA00010B8A828B838FF012652EFEF5
:202B3100A312652EFF4E60428E048F05C3EC9423ED9400501A787BEEF208EFF208E4F20834
:202B5100F2900019E4F5F01261E0124C35801BEC24F6FCED34FFFD7F007E008C828D838FB6
:202B7100F0EE121936D2181252EB900122E4F5F01222BA78377401F290FA62E0FF7E009073
:202B9100FA83E0FDC3EE9D505E8F047D00788E7408F208E4F28C828D83C007C006C005C03C
:202BB10004126469AA82AB83D004D005D006D007EA2427F582EB34F9F5835304078CF00556
:202BD100F07C017D008006EC2CFCED33FDD5F0F7E0FB7A005204EA5205EC4D60067837E469
:202BF100F280040F0E80987837E27003022D8890FA83E07879F208E4F29000631261C0AEDC
:202C110082AF837831EEF208EFF290FA8774F9F074F0A3F0E4A3F090FA62E0704B90F0F9A1
:202C3100E0FCA3E0FD782DECF208EDF290F0FBE0FCA3E0FD782FECF208EDF290FA84E4F098
:202C5100A3F07831E2FC08E2FDEC24FCFCED34FFFD7831ECF208EDF290FA87740424F9F039
:202C7100E434F0A3F0E4A3F0782DE2FC08E2FD7831C3E2F5F0EC95F008E2F5F0ED95F05092
:202C91000A782D7931E2F308E209F3782DE2FC08E2FD7831D3E29CF4B3FCB308E29DF4FDDD
:202CB100782DECF208EDF27582041218F190FA87E0F546A3E0F547A3E0F548AA46AF47787A
:202CD10031E2C0E008E2C0E0C002C0077833E2F58208E2F58308E2F5F008E212081CE58162
:202CF10024FCF58175820412192A7831E2FA08E2FD7E007F007833E22AF208E23DF208E2C8
:202D11003EF208E23FF2AD46AE47AF487831E2F54608E2F547AA46AC47154674FFB54602DE
:202D31001547EA4C60368D828E838FF012652EFCA3AD82AE838C4275430090FA84E0FAA306
:202D5100E0FC8A4A8C4BAB42AC43EB254AFBEC354BFC90FA84EBF0ECA3F080B990FA83E0B4
:202D7100FF90FA62E02FF0782DE2FE08E2FF4E60067837E4F2D21090F946E4F07837E2702B
:202D910003022A48782FE2FE08E2FF90FA84E0FCA3E0FDEEB50406EFB50502801174DAC0DA
:202DB100E0746DC0E0125CCC1581158180047582012275820022AFF0AE83E58290FA8EF045
:202DD100EEA3F0EFA3F090FA8EE0FDA3E0FEA3E00DBD00010E8D828E837408C0E07436C067
:202DF100E074F9C0E01248171581158115819211501490F93EE0FCA3E0FDA3E0FEA3E0FF75
:202E1100EC4D4E4F707590F925E4F090FA8EE0FDA3E0FEA3E0FF74012DFAE43EFBC002C031
:202E31000390F91D12471915811581740D2DFAE43EFB8F048A828B838CF012652EFA90F924
:202E510026F07411C0E0C005C00690F9351248831581158115817408C0E0E4C0E09000000E
:202E710075F001E412092C1581158190F93EE0FEA3E0FF90FA8CEEF0EFA3F090F93EE0FC44
:202E9100A3E0FDA3E0FEA3E0FFEC4D4E4F7003022F21C3E49C74109DE49EE49F500B90FAB5
:202EB1008AE4F07410A3F0800890FA8AECF0EDA3F0D20D90FA8AE0FEA3E0FF8E828F83120D
:202ED1002981E582604690F925E0FF0F90F925EFF090F93EE0FCA3E0FDA3E0FEA3E0FF904B
:202EF100FA8AE0FAA3E0FB8A008B01E4FAFBECC398FCED99FDEE9AFEEF9BFF90F93EECF07E
:202F1100EDA3F0EEA3F0EFA3F0022E8C7582002275820122AFF0AE83E58290FA93F0EEA359
:202F3100F0EFA3F090FA93E0FDA3E0FEA3E0FF74012DFAE43EFB8F048A828B837408C0E08F
:202F51007436C0E074F9C0E01248171581158115819212504090F943E0FC740E2DFDE43E2C
:202F7100FE8D828E838FF012652EFDECB5052690F93EE0FCA3E0FDA3E0FEA3E0FFEC4D4E88
:202F91004F601274F2C0E0746DC0E0125CCC1581158102312F7582041218F190F94B783876
:202FB100E0F290FA93E0FCA3E0FDA3E0FE740E2CFAE43DFB8E078A828B838FF012652EFAA3
:202FD10054FC60317838E2FB7F00C003C0077405C0E0746EC0E0125CCCE58124FCF5819008
:202FF100FA747411F0E4A3F08C828D838EF0121C3E7838E4F290F94BE02401F0FFBF15003C
:20301100400590F94BE4F090F94BE0FF7838E2B5071975820412192A7429C0E0746EC0E089
:20303100125CCC15811581758201228F8212268FAC82AD83AEF0FF7416C0E0E4C0E074F911
:20305100C0E074F0C0E08C828D838EF0EF1206E1E58124FCF581746BC0E074FCC0E090F12B
:2030710001124B56158115819212500890F10EE054F8708190F94BE0FF7814F28F8212263D
:203091008FAC82AD83AEF0FF740BC0E0E4C0E08C828D838EF0EF12092C15811581758204F9
:2030B10012192A7814E2FE7F00C006C0077433C0E0746EC0E0125CCCE58124FCF58190F9AA
:2030D10025E4F090FA93E0FDA3E0FEA3E0FF74012DFAE43EFBC002C00390F91D124719157E
:2030F100811581740D2DFAE43EFB8F048A828B838CF012652EFA90F926F07411C0E0C00592
:20311100C00690F93512488315811581158190F93EE0FEA3E0FF90FA91EEF0EFA3F090F950
:203131003EE0FCA3E0FDA3E0FEA3E0FFEC4D4E4F70030231C6C3E49C74109DE49EE49F50E6
:203151000B90FA8AE4F07410A3F0800890FA8AECF0EDA3F090FA8AE0FEA3E0FF8E828F83C6
:20317100122981E582604A90F925E0FF0F90F925EFF090F93EE0F54CA3E0F54DA3E0F54ED5
:20319100A3E0F54F90FA8AE0FAA3E0FBE4FEFFE54CC39AFAE54D9BFBE54E9EFEE54F9FFF19
:2031B10090F93EEAF0EBA3F0EEA3F0EFA3F002312F758200227582041218F17436C0E0748D
:2031D100F9C0E090F0F91247191581158190F1017421F07447A3F0744DA3F07447A3F090A7
:2031F100F947E02401F0A3E03400F0A3E03400F0A3E03400F090F947E0FCA3E0FDA3E0FEE7
:20321100A3E0FF90F10AECF0EDA3F0EEA3F0EFA3F090FA91E0FEA3E0FF7D007C0090F10537
:20323100EEF0EFA3F0EDA3F0ECA3F090F942E090F109F090F943E090F10EF07814E2F582E9
:2032510012268FAC82AD83AEF0FF7416C0E0E4C0E074F9C0E074F0C0E08C828D838EF0EF51
:2032710012081CE58124FCF58175820412192A75820122AFF0AE83E58290FA97F0EEA3F0D8
:20329100EFA3F0C20D90FA97E0F553A3E0F554A3E0F555740D2553FAE43554FBAC558A8282
:2032B1008B838CF012652EFCBC02028024BC030302360CBC10028019BC20028014BC2102B0
:2032D100800FBCA8030234FFBCAF030235EC02368290FA97E0FFA3E0FEA3E0FD7550967596
:2032F10051FA755200740E2FF553E43EF5548D558553828554838555F012652EFB855082EE
:203311008551838552F01261A590FA96E020E2030233E3758204C007C006C0051218F1D00F
:2033310005D006D00790FA96E0C423541FFB603CBB0F02806C8553828554838555F012652A
:203351002EF582C007C006C005122750AB82D005D006D007BBFF0280488B82C007C006C04F
:203371000512287BD005D006D007803574012FF553E43EF5548D558553828554838555F092
:20339100C007C006C0051226BDAB82D005D006D007BBFF02800B12261278397401F2023447
:2033B100F9758204C007C006C00512192AD005D006D0078F828E838DF0122F25E582600B08
:2033D10012261278397401F20234F97839E4F20234F974012FF553E43EF5548D5585535034
:2033F1008554518555528550828551837408C0E0742DC0E074F9C0E012481715811581159A
:20341100819213500B12261278397401F20234F9758204C007C006C0051218F18553828542
:2034310054838555F01226BDAC82758204C00412192AD004D005D006D007BCFF028051C0FF
:2034510007C006C005C004122612D004D005D006D0078F538E548D55AA53AB547411C0E09E
:20347100C002C00390F93512488315811581158190F93EE4F0A3F0A3F0A3F090FC6AECF033
:2034910090FA96E054037828F28C821228AF803D7441C0E0746EC0E0125CCC158115818FB2
:2034B100828E838DF0122F25E582601B1226127814E2FB90FC6AF090FA96E054037828F221
:2034D1008B821228AF80067839E4F2801B90F936E0FAA3E0FBC002C00390F92D1247191564
:2034F10081158178397401F27839E2F5822290F93EE0FAA3E0FBA3E0FEA3E0FFEA4B4E4F6C
:20351100702F74012553FDE43554FEAF558D828E837408C0E07436C0E074F9C0E01248179E
:20353100158115811581921350071226127582012290F925E4F090FA97E0F550A3E0F551C7
:20355100A3E0F55274012550FAE43551FBC002C00390F91D12471915811581740D2550FD8B
:20357100E43551FEAF528D828E838FF012652E90F926F0AD50AE517411C0E0C005C00690B2
:20359100F93512488315811581158174092550FDE43551FEAF528D828E838FF012652EFDB4
:2035B100A312652EFE8D828E83122981E582602790F93EE4F0A3F0A3F0A3F0758204121871
:2035D100F190F0FD75F0001214F875820412192A1226127582012275820022122612740E50
:2035F1002553FDE43554FEAF558D828E838FF012652EF58212045A7582012275820412186C
:20361100F18553828554838555F0122DC7E582605C1226127582041218F112369D300D126B
:20363100123C9890001975F001E41206C112589C80567449C0E0746EC0E0125CCC15811527
:203651008175820412192A90FA617401F090F0E974E0F0123D117408C0E0E4C0E0C0E0905B
:20367100F92D1247EB158115811581801B758200227F00C004C0077466C0E0746EC0E01241
:203691005CCCE58124FCF58175820022783EE4F208F208F208F2C20D7419C0E0E4C0E0746E
:2036B100A2C0E074FDC0E090000075F001E41206E1E58124FCF581783A7419F208E4F208C0
:2036D10004F208E4F290655C93FD740193FE7402937406C0E0C005C00690FDAB12481715B2
:2036F10081158115819214500790F0937405F02290655CE493FD740193FE740293740EC05B
:20371100E0C005C00690FDAB1248171581158115819214500790F0937402F02290FDAAE013
:20373100FFBF0102800790F0937401F02290FDA8E0FEA3E0FFC3E49E74809F500790F093BF
:203751007403F02290FDA8E0FEA3E0FF4E700302381190FDA8E0FEA3E0FFC374239E740825
:203771009F50047E237F08C006C00774F9C0E074F0C0E0783AE2F58208E2F58308E2F5F043
:2037910008E21206E1E58124FCF58190FA9A74F9F074F0A3F0E4A3F090FA9DEEF0EFA3F0C3
:2037B100783EE2F58208E2F58308E2F5F008E2C007C0061238EA783EC0E0E582F208E583EE
:2037D100F208E5F0F2D0E008F2D006D0078E028F037C007D00783AE22AF208E23BF208E2F4
:2037F1003CF208E23DF290FDA8E0FCA3E0FDECC39EFEED9FFF90FDA8EEF0EFA3F0023755E7
:2038110090FDA2E0FCA3E0FDA3E0FEA3E0FF783EE2B5041108E2B5050C08E2B5060708E261
:20383100B50702800790F0937404F02290FDA6E0FEA3E0FF90F091EEF0EFA3F0C006C00704
:20385100748BC0E0746EC0E0125CCCE58124FCF581D20D221228D2AC82AD83AEF0FF90F96F
:2038710047ECF0EDA3F0EEA3F0EFA3F0227408C0E07456C0E074F9C0E090FA6C12488315F4
:20389100811581158190FA63E054F84421F090FA64E054F344C8F090FA667437F07413A336
:2038B100F090FA6874FFF0A3F090FA6A7437F07413A3F0227411C0E07463C0E074FAC0E0AA
:2038D10090F9E212488315811581158190F95EE0FF04F090F9E4EFF022AC82AD83AEF0FFAA
:2038F1007842ECF4F2EDF408F2EEF408F2EFF408F290FA9AE0F55AA3E0F55BA3E0F55C900D
:20391100FA9DE0F556A3E0F557855658855759155674FFB556021557E558455970030239BD
:20393100E8855A82855B83855CF012652EFEA385825A85835B8E047D007E007B007842E24B
:203951006CF208E26DF208E26EF208E26BF2784AE4F208F2784AC3E2940808E264809480A7
:2039710050A77842E25401FA08E25400FB08E25400FC08E25400FE7846C3E49AF2E49B082D
:20399100F2E49C08F2E49E08F27845E2C313F56018E213F55F18E213F55E18E213F55D78CC
:2039B10046E25420FC08E25483FD08E254B8FE08E254EDFA7842EC655DF2ED655E08F2EE95
:2039D100655F08F2EA656008F2784AE22401F208E23400F20239657842E2F4FB08E2F4FC9F
:0E39F10008E2F4FD08E2F48B828C838DF02254
:206D7F000A002530327820004150206F6E2025640A004E6F204150206F6E2025640A002E3E
:206D9F0000636865636B435243206661696C65640A0052455120256420706172742025645E
:206DBF000044726177696E6720696D61676520696E20736C6F742025640A00626C6B20667A
:206DDF0061696C65642076616C69646174696F6E210A0072657374617274696E6720696DE6
:206DFF006720646C0A004368616E67696E67207374617274696E67536C6F742066726F6DF2
:206E1F0020256420746F20300A004E6F20736C6F74730A006E657720646C20746F2025644B
:206E3F000A00646C20696D670A004F544120696D6167652076616C69646174696F6E20661A
:206E5F0061696C65640A00646174615479706520307825782069676E6F7265640A004368AC
:206E7F00726F6D6134325F38313736004F54412076616C6964617465642C2075706461748D
:146E9F00696E6720746F2076657273696F6E202530780A0081
:0579CD00FF21474D47BA
:2039FF00E58620E0FB225390FD00225380FB0022E58620E0FB004390020022E58620E0FB6B
:203A1F0000438004002290F0B3748EF0E4A3F030050990F0B37486F0E4A3F02290F95FE046
:203A3F00704590F0CDE0603FC20490F09B7478F07401A3F090F09D7406F0E4A3F09074859A
:203A5F0075F080120DDAD20490F09B7480F023A3F090F09D740DF0E4A3F09074A775F08049
:203A7F00120DDAD2038002C203300A2890F0CCE06022C20490F09B7478F07401A3F090F0BD
:203A9F009D741CF07401A3F09074B175F080120DDAD20222C202221240B81240D474C9C046
:203ABF00E07474C0E01243BF1581158174CCC0E07474C0E01243BF1581158190F0B1E0FE88
:203ADF00A3E0FF90FA9FEEF0EFA3F074EAC0E07474C0E01243BF1581158174F8C0E0747402
:203AFF00C0E01243BF158115817410C0E07475C0E01243BF15811581742AC0E07475C0E013
:203B1F001243BF158115817441C0E07475C0E01243BF1581158190FA9FE0FEA3E0FF90F01F
:203B3F00B1EEF0EFA3F0123B9B74C9C0E07474C0E01243BF1581158190FA9FE0FEA3E0FF3F
:203B5F0090F0B3E0FCA3E0FD7810EEF208EFF27812ECF208EDF290FC3C02138475820512A8
:203B7F004095E5826001227456C0E07475C0E0125CCC15811581903AB6020DB4743CC0E07B
:203B9F0074FCC0E0E4C0E07462C0E07475C0E01243BFE58124FBF5812290655AE493C0E0DC
:203BBF00740193C0E0746EC0E07475C0E01243BFE58124FCF581221240B81240D47482C01B
:203BDF00E07475C0E01243BF15811581123BB890F0EBE0C0E0A3E0C0E07497C0E07475C0B6
:203BFF00E01243BFE58124FCF58190FABAE0FF3395E0FEC007C00674A5C0E07475C0E0120C
:203C1F0043BFE58124FCF581123B9B74C9C0E07474C0E01243BF1581158190F099E0FEA360
:203C3F00E0FF90F0B3E0FCA3E0FD7810EEF208EFF27812ECF208EDF290FC3C0213847582FF
:203C5F0001124095E582600122121ACF903BD6020DB41240B81240D4C205123A2590F0919B
:203C7F00E0C0E0A3E0C0E074B8C0E07475C0E01243BFE58124FCF58122903C71020DB412E9
:203C9F0040B81240D4D20574CEC0E07475C0E01243BF15811581D20490F093E0FFBF0202DA
:203CBF008018BF04028023BF053074DFC0E07475C0E01243BF158115812274EEC0E0747528
:203CDF00C0E01243BF158115812274FFC0E07475C0E01243BF15811581227E00C007C006BA
:203CFF00740AC0E07476C0E01243BFE58124FCF58122903C9E020DB41240B81240D47419E1
:203D1F00C0E07476C0E01243BF158115817435C0E07476C0E01243BF1581158190F0B3E0F4
:203D3F00FEA3E0FF90F09DEEF0EFA3F090F952E0FF7E0090F953E0FD7C00C007C006C005A8
:203D5F00C004744EC0E07476C0E01243BFE58124FAF58190F950E0FF7E0090F951E0FD7C1D
:203D7F0000C007C006C005C0047460C0E07476C0E01243BFE58124FAF58190F94EE0FF7ECE
:203D9F000090F94FE0FD7C00C007C006C005C0047460C0E07476C0E01243BFE58124FAF532
:203DBF008190F94CE0FF7E0090F94DE0FD7C00C007C006C005C0047460C0E07476C0E012DC
:203DDF0043BFE58124FAF58190F0B1E0FEA3E0FF8E02EFFB3395E0FCFD7490C39AF50C7446
:203DFF00019BF50DE49CF50EE49DF50F9071D9E493FDE4FC3395E0FBFAE50CC39DFDE50DF3
:203E1F009CFCE50E9BFBE50F9AFA78687402F208E4F208F208F28D828C838BF0EAC007C0B6
:203E3F0006126034AA82AB83D006D00790F09BEA2EF0EB3FA3F090F0C5E0FF7E0090F0C6E8
:203E5F00E0FD3395E0FC90F95FE0FB7A00C007C006C005C004C003C0027469C0E07476C0C3
:203E7F00E01243BFE58124F8F58190F0EFE0C0E0A3E0C0E090F0EDE0C0E0A3E0C0E090F095
:203E9F00F1E0C0E0A3E0C0E07483C0E07476C0E01243BFE58124F8F581123BB874C9C0E060
:203EBF007474C0E01243BF15811581123B9B74B2C0E07476C0E01243BF1581158190F0B172
:203EDF00E0FEA3E0FF90F0B3E0FCA3E0FD7810EEF208EFF27812ECF208EDF290FC3C121347
:203EFF00849071D975F080020DDA758203124095E582600122121ACF903D17020DB41240B8
:203F1F00B81240D474B4C0E07476C0E01243BF1581158174C8C0E07476C0E01243BF158102
:203F3F00158190F0B1E0FEA3E0FF90FA9FEEF0EFA3F090F0B3E0FCA3E0FD90F09DECF0ED3D
:203F5F00A3F08E02EFFB3395E0FCFD7458C39AFA74019BFBE49CFCE49DFD78687402F2081C
:203F7F00E4F208F208F28A828B838CF0EDC007C006126034AA82AB83D006D007EA2EFEEB9A
:203F9F003FFF90F09BEEF0EFA3F0EE5407601574075EFC7D00EEC39CFEEF9DFF90F09BEE5A
:203FBF00F0EFA3F09071D975F080120DDA90F09DE0FEA3E0FF74082EFEE43FFF90F09DEE66
:203FDF00F0EFA3F0D20490736375F080120DDA023A3B758204124095E582600122903F1D07
:203FFF00020DB41240B81240D490F0B3E0FEA3E0FF74102EFEE43FFF90F0B3EEF0EFA3F0B7
:20401F0074F3C0E07476C0E01243BF158115811241AD023A3B758205124095E5826001226C
:20403F00904002020DB41240B81240D4D2057405C0E07477C0E01243BF158115817419C094
:20405F00E07477C0E01243BF1581158190F09B74B0F0E4A3F090F0B3E0FEA3E0FF90F09D40
:20407F00EEF0EFA3F0D20490736375F080020DDA904045020DB4E582C40354F8F5821227B5
:20409F0050AF82BFFF02800D7828E4F28F821228AF7582012275820022C206C204C20590AB
:2040BF00F0B1E4F0A3F090F099F0A3F090F0B3F0A3F0C20822D20490F09DE4F0A3F0907041
:2040DF005593FFE4FE3395E0FDFC7490C39FFF74019EFEE49DFDE49CFC78687402F208E4B3
:2040FF00F208F208F28F828E838DF0EC126034AC82AD8390F09BECF0EDA3F090705575F0FB
:20411F0080120DDAC204907056E493FF7E0090F09DE0FCA3E0FDEF2CFFEE3DFE90F09DEF2F
:20413F00F0EEA3F0906EB375F080120DDA906EB4E493FF7E0090F09DE0FCA3E0FDEF2CFF27
:20415F00EE3DFE90F09DEFF0EEA3F0D20490711775F080120DDA90F09BE0FEA3E0FF90F0D3
:20417F00B1EEF0EFA3F0907118E493FF7E0090F09DE0FCA3E0FDEF2CFFEE3DFE74202FFF84
:20419F00E43EFE90F0B3EFF0EEA3F0C2042290F0EFE0FEA3E0FF4E601190F0EDE0FCA3E00B
:2041BF00FDC3EE9CEF9D5002800890F0EDE0FEA3E0FFC006C0077433C0E07477C0E01243AF
:0841DF00BFE58124FCF58122FB
:206EB300801AFFFFFFFFFFFFFFFFFFFFFFFFFFFFFFFF000000000000000000000000000035
:206ED30000000000000000000000000000000000000000000000000000000000000000009F
:206EF3000000000000000000000000000000000000001C000000001F9F800000000038707D
:206F130001C07F000000001F9FC000000000387001C07F000000001F9FE000000000387072
:206F330001C0F7800000001C1CE000000000380001C0E3800000001C1CE000000000380042
:206F530001C0E39DC1C7701F9CE773B871D03873B9C7E39FE3E7F81F9FEFF3FCF9F0387338
:206F7300FDCEE39FE777F81F9FCFF3FDDDF03873FDDCE39CE7F7381C1F8E739DFDC03873B7
:206F93009DF8E39CE7F7381C1C0E739DFDC038739DF8F79CE707381C1C0E739DC1C0387326
:206FB3009DDC7F1FE7F7381F9C0FF3FDFDC03F739DDC7F1FE3E7381F9C0FF3FCF9C03F732B
:206FD3009DCE1E1DC1C7381F9C0773B871C03F739DC7001C00000000000003800000000065
:206FF3000000001C0000000000000380000000000000001C00000000000003800000000040
:207013000000001C00000000000003800000000000000000000000000000000000000000BE
:20703300000000000000000000000000000000000000FFFFFFFFFFFFFFFFFFFFFFFFFFFF4B
:20705300FFFF800C000882A2AB55BFFFFFFF7DB4622800000010101176FF7BFFFF7FB7A9F2
:2070730055505100002922966FF7BFFFFFFFEAE622AA08000002542ABF3F7FFFFFFFFD5910
:20709300B4102000002423B5B5DFFFFFFFFFF6AE48551000008890546AEFFFFFFFFFFBF56B
:2070B300A382000000012DA3B3FFFFFFFFFFF6BE4E5209000490020D55DFFFFFFFFFFDDD0F
:2070D30068A9001000490CFBAB6FFFFFFFFFFEEB955A002000129122BFDFFFFFFFFFFFF5CB
:2070F300658140400028127DEFFFFFFFFFFFFFEFAB28000000420A9775FFFFFFFFFFFFF76C
:207113004AC20400800C0008029CDFFFFFFFFFFFFF6A6A8D002000044D72AAFFFFFFFFFF58
:20713300FFD5D57480000240128EDFFDFFFFFFFFFFAEAA0A11200020525FF57FFFFFFFFF12
:20715300FF7294AA240000010AAB6F77FFFFFFFFFDAF545488000004804D95EBFFFFFFFF88
:207173005B58B5514000000808A6B3F77FFFFFFFFFAD4AA0100000029641DCAEFFFFFFFF22
:20719300FDBFEA4802000000093EAB75EFFFFFFFFFD4B121080000000AC35DFF7FFFFFFF47
:2071B300EFEF444A64800000A152A6EFEFFFFFFFD6CAF5101800000002154BD5DFFFFFF730
:2071D300EBD4D8850000383800000000000000000000000000000000000000000000000010
:2071F3000000000000000000000000000000000007C00000000001FFF0000000000FFFF0C7
:20721300000000007FFFF000000001FFFFF000000007FFFFC00000001FFF80000000007F1C
:20723300F80000000000FFE00000000001FF000000000007FE00000000000FF80000000058
:20725300001FE000000000003FC00003E000007F80007FF00000FE0003FFF00001FC000FD0
:20727300FFF00001F8003FFFF00003F800FFFF800007F001FFE000000FE003FF0000000F95
:20729300C00FF80000001F801FF00000001F803FC00000003F003F800000003F007F00000C
:2072B30000007E00FE0007E0007E01FC001FF000FC01F8007FF000FC03F001FFF000F80390
:2072D300F003FFF001F807E007FF0001F807E00FF00001F00FC01FE00001F00FC03F8000B6
:2072F30003F00F803F000003F01F807E000003E01F807E000003E01F00FC01E003E01F00C9
:20731300FC07F803E01F00F80FFC03E03F00F80FFC03E03F01F81FFE03E03F01F81FFE03C2
:20733300E03F01F81FFE03C03E01F01FFE01C01E00F00FFC00000000000FFC000000000011
:2073530007F8000000000001E000000000000000303000001FF800000000FFFF00000003C2
:20737300FFFFE000000FFFFFF000003FFFFFFC00007FF00FFE0000FF8001FF0001FE0000EC
:207393007F8003F800001FC007F000003FE00FE000007FF00FC00000FFF01F800001FFF838
:2073B3001F000003FFF83F000007FEFC3E00000FFC7C7E00001FF87E7C00003FF03E7C0024
:2073D300007FE03EFC0000FFC03FF80001FF801FF80003FF001FF80007FE001FF8000FFC34
:2073F300001FF8001FF8001FF8003FF0001FF8007FE0001FF800FFC0001FFC01FF80003FE0
:207413007C03FF00003E7C07FE00003E7E0FFC00007E3E1FF800007C3F3FF00000FC3F7FDE
:20743300E00000FC1FFFC00001F80FFF800003F00FFF000007F007FE00000FE003FC00000D
:207453001FC001FE00007F8000FF8001FF00007FF00FFE00003FFFFFFC00000FFFFFF0000B
:207473000003FFFFE0000000FFFF000000001FF800001010004002200120112011201220CC
:20749300284028002800440044004400440082008200FE0008080063773E1C3E7763100A99
:2074B30000007FFC4004580658065806580640047FFC00000A000A0A000C0949276D20662D
:2074D3006173742061736C656570202E202E202E205577550A0A00546F200977616B6520C4
:2074F3006D653A0A002D2052656D6F766520616C6C206261747465726965730A002D2053C2
:20751300686F7274206261747465727920636F6E74616374730A002D205265696E736572D2
:2075330074206261747465726965730A0A000C6F70656E6570617065726C696E6B2E6465ED
:207553000A0A004465657020736C6565700A00546167204D41433A202573004368726F6D4B
:207573006134325F38313736207625303458000C09085374617274696E67202E202E202E32
:207593000A080A000A564261743A202564206D560A0054656D70657261747572653A202568
:2075B30064430A0A000C466C617368696E67207625303478202E202E202E000C4F54412034
:2075D3004641494C4544203A280A0A000C4E6F74204F544120696D616765000C57726F6E47
:2075F30067204F544120696D616765000C435243206572726F72000C4572726F7220436FD4
:207613006465202564000C090857616974696E6720666F722064617461202E202E202E0AE0
:2076330008000A466F756E642074686520666F6C6C6F77696E672041503A000A4150204DE4
:2076530041433A202530325825303258002530325825303258000A43683A20256420525360
:2076730053493A202564204C51493A2025640A000A564261743A202564206D562C20547830
:20769300696E673A202564206D560A446973706C6179696E673A202564206D560A0A000AD1
:2076B300000C084E6F20415020666F756E64203A280A080A000C5765276C6C2074727920F5
:2076D300616761696E20696E2061206C6974746C65207768696C65202E202E202E0A0A003A
:2076F3000C09087A7A5A5A5A202E202E202E0A080A000C454550524F4D204641494C4544B9
:20771300203A280A0A000C536C656570696E6720666F7265766572202E202E202E0A0A0066
:0D773300564261743A202564206D560A000C
:2041E700C007C006C005C004C00390FAA8E060030242DB90FAA9E0FF24FB50030242D8EFBC
:204207002F2F90420D7302421C02423A0242BB0242D20242D890FAA6744BF0E4A3F090FAF8
:20422700A8740BF090FAA97401F090FAAA7468F00242DB90FAA3124B03E582FF6045EF24FE
:20424700E0FFBF600040027F1F90FAABE0FE0E90FAABEEF0C0078E8212462DAD82AE831574
:204267008190FAAAE0FC7B002DFDEB3EFE8D828E837467C0E0124AFEAE82158190FAAAEEFD
:20428700F0800B90FAA97402F090FAAAE0FFEF75F002A42440F582747735F0F583E493FE1E
:2042A700A3E493FF90FAA6EEF0EFA3F090FAA8740BF0802090FAA97403F090FAA674E3F0FC
:2042C700741AA3F090FAA803F0800990FAA97404F0C3802D90FAA6E0FEA3E0FFEE54012406
:2042E700FFE433FDEFC313CE13CEFF90FAA6EEF0EFA3F090FAA8E0FF1F90FAA8EFF0ED244F
:0C430700FFD003D004D005D006D0072260
:207740009B01B3013303C90089019101990019013101930013012301CD01D90199039D012C
:20776000B90139037302D30193033B017301B7039701A7012703370167016702DB001B035E
:207780006303C500D10011038D00B10031028B00A3002302ED008D03B103DD001D03710373
:2077A00077038B03A303BB003B02BB03D70017034703B7003702C702F70213028F0265006D
:2077C000850169000903A10121034D000D01590019026101610243025300EF024301F10294
:2077E000E501E901C9033D01790179022F014F014F02DB037B036F03F500C503D103BD00CD
:0E7800003D02AF002F02DD03BD03D703AF032F
:20431300C007C006C005C004C001C000AC82AD83AEF0FFBF20005031BF0A030243B28F82C4
:20433300C007C006C005C004C003C002C001C000C0251244FAD025D000D001D002D003D00E
:2043530004D005D006D00780567E00EF24E0FFEE34FFFEEF2FFFEE33FEEF243CF582EE343B
:2043730066F583E493A3E493C4540FFE90F0B5EEF0300507EE2EFE90F0B5F090F0B5E0FFF4
:204393003395E0FE0FBF00010E90F0B1E0FCA3E0FDEF2CFFEE3DFE90F0B1EFF0EEA3F0D056
:2043B30000D001D004D005D006D00722C007C006C005C004C003C001C000E58124F6FFC008
:2043D30007C006C005C004C003C002C001C000C0251244ADD025D000D001D002D003D00477
:2043F300D005D006D007E58124F6F886050886068D828E83E493FCBC0C7290F0B1E4F0A31C
:20441300F0C007C005C006C0E0C0E090431312597BE58124FBF58190F0B1E0FDA3E0FE337E
:2044330095E0FCFB7490C39DFD74019EFEE49CFCE49BFB78687402F208E4F208F208F28DEE
:20445300828E838CF0EBC007C002C001C000C025126034AB82AC83ADF0FED025D000D0012D
:20447300D002D00790F0B1EBF0ECA3F0C007E58124F5F8E6C0E008E6C0E0E4C0E0C0E090EF
:20449300103D12597BE58124FBF581D000D001D003D004D005D006D0072230062530050659
:2044B3007E147F0080047E0A7F0090F0B6EEF03005067E207F0080047E107F0090F0B5EE2D
:2044D300F0223005067E207F0080047E107F0090F0B6EEF03005067E147F0080047E0A7FE3
:2044F3000090F0B5EEF022AF82BF08028018BF0902804EBF0A028013BF0B028055BF0C017F
:2045130022BF0D568038B2050244AD1244AD90F0B6E0FE3395E0FD90F0B3E0FBA3E0FCEEAB
:204533002BFEED3CFD90F0B3EEF0EDA3F090F099E0FDA3E0FE90F0B1EDF0EEA3F022B204AA
:204553002290F0B1E0FDA3E0FE90F099EDF0EEA3F02290F099E4F0A3F0227E00C007C00651
:12457300740EC0E07478C0E0125CCCE58124FCF5812230
:15780E00496E76616C69642063686172203078253032780A000F
:20458500E58620E0FB225390FD00225380FB0022E58620E0FB004390020022E58620E0FBD9
:2045A50000438004002275FB02228582F9E5F830E1FB53F8FDE5F820E0FB85F9822253F308
:2045C500C775FA2275FC0C75F8C043F4C043F102D20B2253F1FD53F43F75FA0075FC31755B
:0845E500F84043F338C20B2239
:2045ED00858283D0F0D0E0D082C082C0E0C0F022C00074FB2581F8E58286820886830886D3
:20460D00F0D0002275F008C58213C58233D5F0F7C58222E583A2E713F583E58213F58222B6
:20462D00D083D0E0D0F0C0F0C0E0C083E582A4F58285F08322C000E58124FDF8E6F8858257
:20464D00F0A4F582E8A8F08583F0A428F583E5F03400F5F0E4D00022C000C001C0E0C0F0F1
:20466D0074FA2581F88600E58288F0A4F582A9F0E58388F0A429F583E5F03400F9D0E088A9
:20468D00F0A429C5F03400F9D0E0C0F088F0A429D0F0D001D00022C000C001C002E5812479
:2046AD00FBF8E6F918E6F88582F0A4C0E0AAF0E58388F0A42AF8E5F03400FAE98582F0A423
:2046CD0028C0E0E5F03AFA74003400F8E98583F0A42AFAE5F0388AF0D083D082D002D001E4
:2046ED00D00022D0E0D0F0C000C001C002C0F0C0E074F82581F9E7F809E7F922D002D00120
:20470D00D00022C9C583C9C8C582C8221246F075F008124710E0A3124710F0A3D5F0F30270
:20472D0047091246F075F008124710E493A3124710F0A3D5F0F20247091246F0C375F00867
:20474D00124710E0A3F502124710E03AF0A3D5F0EF0247091246F075F008124710E0A3F5B7
:20476D0002124710E05AF0A3D5F0EF0247091246F0C375F008124710E0A3F502124710E04A
:20478D009AF0A3D5F0EF0247091246F0C375F008124710E0A3F502124710E0A39AD5F0F043
:2047AD000247091246F075F008124710E0A3F502124710E0A36A7007D5F0EED3024709C39A
:2047CD00024709C8C0E075F008E038F0A3D5F0F9D00022D3E40247D0C374FF0247D0C0006B
:2047ED00C00174FA2581F8E6F5F0088601496015088600E8F0A374FF25F0F5F074FF39F5B0
:20480D000145F070EED001D00022C000C001C00274F92581F9E7D3601CF5F00987000987AA
:20482D0001C3E0F502A3124710E0A31247106A7004D5F0EED3D002D001D00022C000C0015E
:20484D00C00274F82581F9E7F5F00987024A601F098700098701124710E0A3124710F0A34E
:20486D0074FF25F0F5F074FF3AF50245F070E7D002D001D00022C000C001C00274F92581A3
:20488D00F9E76015F5F0098700098701124710E0A3124710F0A3D5F0F3D002D001D000227B
:2048AD00C083C082E06003A380FAC3E582D0F095F0F582E583D0F095F0F58322C003C00254
:2048CD00C001C000C0E0C0F0C083C082A98174F62581F886F0188600750201750300758248
:2048ED0011A2F74014C3E833F8E5F033F5F0C3EA33FAEB33FB058280E8E4C003C002C0E0FF
:20490D00C0E0AA81C0F0C000C0E0C0E0A881C0E0C0E0C0E0C0E0AB81C000C001C3758304FA
:20492D0086F018E71995F0D583F6D001D000402BC000C001C375830486F018E795F0F719B3
:20494D00D583F585020085030175830486F018E745F0F719D583F5D001D00074FC28F8C3F6
:20496D0075830408E613F6D583F9C00074FC2AF8C375830408E613F6D583F9D000D58298CE
:20498D0020D508D082D083D0F0D00074F42581F58130D508D082D083D0F0D000E8D000D08A
:2049AD0001D002D00322C2D50248C9D2D50248C9C003C002C001C000C0E0C0F0C083C082E3
:2049CD00A98174F62581F886F07401758219A2F7400A23C5F023C5F0058280F2C0E0E4C0CD
:2049ED00E0C0E0C0E0AA81C0F0C0E0C0E0C0E0A881C0E0C0E0C0E0C0E0AB81C000C001C3B6
:204A0D0075830486F018E71995F0D583F6D001D000402BC000C001C375830486F018E795D6
:204A2D00F0F719D583F585020085030175830486F018E745F0F719D583F5D001D00074FCF8
:204A4D0028F8C375830408E613F6D583F9C00074FC2AF8C375830408E613F6D583F9D000F9
:204A6D00D58298D082D083D0F0D00074F42581F581E8D000D001D002D00322C006C005C0E6
:204A8D0004C003C002C001C00074F72581F886F074017C09A2F7400923C5F023C5F00C8068
:204AAD00F3FBE4FAA9F0F88582F0FDFEC3E58298E583994011C3E58298F582E58399F583D4
:204ACD00EA4DFDEB4EFEC3E913F9E813F8C3EB13FBEA13FADCD620D5048D828E83D000D095
:204AED0001D002D003D004D005D00622C2D5024A88D2D5024A88E0C0E02401F0A3E0C0E0C4
:204B0D003400F0A3E0D083D0826014B4600AC000A882E2D000F582224009E493F58222E03C
:204B2D00F58222C000A882E6D000F582221246F075F004D3124710E0FA3400F0EAA31247C5
:204B4D0010F0A3D5F0EE0247091246F075F004C3124710E0FAA3124710E0A36A7004D5F0B7
:204B6D00EFD30247091246F0C3E0A398E0A399E0A39400E0A394000247091246F0C3E0A3C4
:204B8D0038E0A339E0A33400E0A3340002470975F004E07004A3D5F0F9F58222A3A3A3E0D4
:024BAD003322B1
:044BAF0075C90B2297
:204BB300C0E0C007C006C0D075D000AEDAAFDB74012EF5DAE43FF5DBD0D0D006D007D0E06C
:204BD30032C007C006C005C004C000AEDAAFDB784EEEF208EFF2784CE5E2F2784DE5E3F21D
:204BF300EEB5DAE7EFB5DBE3784CE2FC08E2FD08E2FE08E28C828D838EF0D000D004D0056C
:204C1300D006D0072285E28222E4F5DAF5DBF5E4F5E5F5E6F5E7F5E275E40543D84043B82F
:204C33000222AF82AE83ADF0FC7850EFF208EEF208EDF208ECF2124BD47854C0E0E582F2EE
:204C530008E583F208E5F0F2D0E008F2124BD4AA82AB83AEF0FF7854D3E29AF4B3FAB308C7
:204C7300E29BF4B3FBB308E29EF4B3FEB308E29FF4FF7850C3E29A08E29B08E29E08E29F56
:034C930050CA22E2
:204C960053C07F53A1FE53BEFC3243870122AF82AE83ADF0FC7858EFF208EEF208EDF208CB
:204CB600ECF290FAACE4F090FAADF090FAAE74DFF090FAAF74BEF090FAB0E054E0F090FA31
:204CD600B0E0541FF090FAB17407F090FAB2E054E0F090FAB2E0549F4420F090FAB2E05412
:204CF6007FF090FAB3E054FC4402F090FAB3E054FBF090FAB3E054F7F090FAB3E054CFF0A8
:204D160090FAB3E0543F4440F07858E2F5F008E242F008E242F008E245F0701B7B017510DF
:204D3600767511FC85111290FAACE512F07A7690FAADEAF0024DD87858C3E2943F08E294B2
:204D56000008E2940008E29400500C7858743FF208E4F208F208F27858E225E0F51308E2F5
:204D760033F51408E233F51508E233F516E5132513F513E51433F514E51533F515E51633C0
:204D9600F516747DC0E0E4C0E08513828514838515F0E5161249B37858C0E0E582F208E55E
:204DB60083F208E5F0F2D0E008F2158115817B007D6F7EFC8E0590FAACEDF07E6F90FAAD18
:204DD600EEF053C07F53A1FE43A11075A8A0EB70147858E2F5F008E242F008E242F008E282
:204DF60045F070012253BEFBE5BE30E5FBE5C654384441F5C6E5C630E6FB43BE0453C67F46
:204E16007858C3E2F5F074F095F008E2F5F074FF95F008E2F5F0E495F008E2F5F0E495F002
:204E3600501B7DF07EFF7858E22410F208E23400F208E234FFF208E234FFF280117858E2BE
:204E5600FD08E2FE7858E4F208F208F208F2EB60067A007C0080047A107C008AA175C00092
:204E760043D6817AAC7CFA8AD48CD575D60175A204E5A570FC75A2028EA48DA3AEA5EEB559
:204E9600A50280FA43C702EB60077B0075BE07800375BE06000000E5BE5403600875D7015D
:204EB600004387010053C7FDE5BE30E5FB75BE00E5BE30E5FB75C679E5BE30E6FB7E007DFE
:1B4ED60000000DBD80FB0EBE80F575C639E5C620E6FB75C63875BE04024DE43E
:0E79D200060606060606040707070707070451
:204EF100AF8275BB0074304FF5B575B473E5B420E6FBE5B430E7FBAEBA7F00ADBB7C009067
:204F1100FAB8EC4EF0ED4FA3F08FB522C21590FAB8E0FEA3E08E82C4C582C4540F6582C507
:204F310082540FC5826582C582F58374E2C0E07404C0E01246A4AC82AD83AEF0FF158115DE
:204F51008190FAB6E0FAA3E0FB74FFC0E07407C0E08A828B831246A4A882A983AAF0FB15E3
:204F7100811581ECC398FCED99FDEE9AFEEF9BFF747DC0E08C828D838EF0EF124665AC822D
:204F9100AD83AEF0FF1581EFC40354F8CEC403CE6ECE54F8CE6EFFEDC40354074EFEEDC469
:204FB1000354F8CCC403CC6CCC54F8CC6CFDEF30E70FD215C3E49CFCE49DFDE49EFEE49FBD
:204FD100FF90FAB4E0C0E0A3E0C0E08C828D838EF0EF1249B3AC82AD83AEF0FF1581158120
:204FF10074FF2CFC74033DFDE43EFEE43FFF74FFC0E07407C0E08C828D838EF0EF1249B34B
:16501100AC821581158190FABAECF030150790FABAC3E49CF0222A
:20502700E58620E0FB225390FD00225380FB0022E58620E0FB004390020022E58620E0FB2C
:20504700004380040022C007C006AF82BF64004027BF6A00502290DF097421F090DF0A7493
:205067003BF090DF0B7413F08F06EE249CFE90DF0675F003A4F0802F90DF097422F090DF3F
:205087000A74BBF090DF0B7413F0BFC8004013BFE100500EEF2438FF90DF0675F00CA4F053
:2050A700800590DF06E4F0D006D00722C00775E10490DF3BE0B401FCD007221250B37F0063
:2050C7008F057EDFEFC3907823938D828E83F00FBF200040EB90DF237488F090DF24743189
:2050E700F090DF257409F090DF2E748EF075911075ED00759D0075EF0322C007AF82C3EF6C
:205107006480946250047FE2800EC3748A8FF063F08095F050027F0A741E2FC31390784316
:205127009390DF2EF0D00722C007C006AE82AF838ED48FD575D6010000000000000000004E
:20514700D006D0072275D68100000000000000000022C007C006C005AE82AF8312514C8F99
:205167000590FC7FEDF090FC80EEF07E7D7FFC8E828F8312512FD005D006D00722C007C0FC
:2051870006C005AE82AF8312514C8F0590FC85EDF090FC86EEF07E857FFC8E828F831251B7
:2051A7002FD005D006D00722301604E5EF7001221250B353C0FE43B801E5ED75F080A424C3
:2051C700BCF58274FA35F0F58312515975E1022253B8FE12514C1250B375D10053C0FE220E
:2051E700AE82AF837CFF7DFF1251D78E828F8312518475E90075E103E5E920E42375820F5A
:20520700C005C004124EF1D004D00590FAB8E0FEA3E0FFC3EE9CEF9D50DE8E048F0580D8DD
:2052270012514CC005C0041251AFD004D0057423C0E08C828D83124AF915817404C0E0120A
:205247004642AC82AD83158190F0EDECF0EDA3F022C025C0E0C0F0C082C083C007C006C0D9
:2052670005C004C003C002C001C000C0D075D000E5D130E040E5ED75F080A424BCFE74FAD6
:2052870035F0FF53D1FE8E828F83E0FD248240200D0DED2EF582E43FF583E0FF30E711E589
:2052A700ED04FF8FEDBF030375ED00E5EF14F5EF1251AF800F7458C0E07478C0E0125CCCB5
:2052C7001581158153C0FED0D0D000D001D002D003D004D005D006D007D083D082D0F0D019
:2052E700E0D025322018061251D7C21622201605D2160251AF22E59D75F080A424BCFE748A
:20530700FA35F0FF8E828F83E0FD7403B5EF047582FF228D037C0074022BF9E43CFAE92E5B
:20532700F582EA3FF583E0FA747F5AD39494F4FABA7F0040047AFF8003EA2AFA90F0C5EA88
:20534700F00BBB00010CEB2EF582EC3FF583E0A2E71324B390F0C6F00EBE00010FC005C066
:2053670006C00790F961124883158115811581E59D04FF8F9DBF0303759D00D21910AF029C
:20538700C219E5EFFF04F5EFA21992AFEF7007C0051251AFD0058D8222D21A10AF02C21AA8
:1053A700AFEF75EF03A21A92AFEF70030251AF226E
:20782300D3917D044522000F0022BB131D3B1373A7650700181E1CC700B0B610EA2A001F47
:20784300030506080B0E191C242527293855408D8A84CAC4C0646D612069727120756E656C
:09786300787065637465640A0025
:1079E000DFD900008080131A0000DFD9207E134207
:1700E10090FC4D7456F090FC4E7412F090FC4F03F090FC507485F092
:2053B700E58620E0FB225390FD00225380FB0022E58620E0FB004390020022E58620E0FB99
:2053D700004380040022C007C006C005C004C003C002C001C000E582785FF27E00C21C78AD
:2053F70060E4F2C0067860E2C0E0901000124642AA82AB8315817861EAF208EBF27863742D
:2054170004F208E4F27861E2FA08E2FBE4FCFE7404C0E0E4C0E07451C0E074FCC0E08A820C
:205437008B838CF0EE1206E1E58124FCF5817404C0E0744DC0E074FCC0E090FC5112481711
:20545700158115811581921DD006201D030255417863E2FB08E2FCC394104003025541C076
:205477000678617963E3C5F0E225F0FB09E3C5F008E235F0FAE4FCFE7402C0E0E4C0E0743A
:2054970051C0E074FCC0E08B828A838CF0EE1206E1E58124FCF58190FC51E0F51774FFB58A
:2054B7001705D006025541D006785FE2B5175D90FC52E0FCBC020040531C1C8C06785EC325
:2054D700E29C5004785EE2FCC0067B00785CE2F51808E2F5197861E2FD08E2FF74022DFDF2
:2054F700E43FFF7863E22DFD08E23FFA7E007F00C004C003C018C0198D828A838EF0EF1299
:2055170006E1E58124FCF581D21CD00690FC52E0FF7D007863E2FB08E2FCEF2BFBED3CFCBB
:205537007863EBF208ECF20254677860E22401F27860E2B40A0050030253FA301C048E0729
:2055570080027FFF8F82D000D001D002D003D004D005D006D00722758204C007C006C00518
:20557700C004C003C002C001C0001218F11255E9D000D001D002D003D004D005D006D00743
:20559700301B26C007C006C005C004C003C002C001C0001218161255E9D000D001D002D094
:2055B70003D004D005D006D007758204C007C006C005C004C003C002C001C00012192AD03F
:2055D70000D001D002D003D004D005D006D007D2AF22D21B785C74A2F20874FDF2785E74C7
