:040000000200833245
:01000B0032C2
:0100130032BA
:01001B0032B2
:0100230032AA
:03002B00024E4939
:01003300329A
:01003B003292
:0300430002540B59
:03004B00024D66FD
:01005300327A
:01005B003272
:01006300326A
:01006B003262
:01007300325A
:03007B00025F66BB
:0301D30002007EA9
:03007E000205DF99
:2001D600E58620E0FB225390FD00225380FB0022E58620E0FB004390020022E58620E0FBCC
:2001F600004380040022AF8290F0D0E4F090F0D1F08F061FEE60767E0090F998E0FDBD02B7
:200216000BEE90677393FDBDC800405990F998E0FDBD010BEE90677393FDBDC8005046EEFF
:200236002473FCE43467FD8C828D83E493F582C007C006C005C004121F3BE582D004D005FB
:20025600D006D007601F90F0D0E0FB90F0FDE0FAC3EB9A501090F0D0EAF08C828D83E49373
:20027600FC90F0D1F00EBE0C005086808C90F0D1E0FFE06013BFC800400890F9987402F098
:20029600800690F9987401F090F0D1E0F5822290F12BE0FEA3E0FFC3742C9E74019F400908
:2002B60090F121E0700330015E30090920020690F104E0700930031E90F105E0601890FCA1
:2002D600A1E0FFBFFF02800B782BE4F28F82122A6080031240BB122107AD82AE83AFF090BE
:2002F600F0D2EDF0EEA3F0EFA3F0ED4E602D90F12BE4F0A3F010010090F121E06002D201A3
:2003160090F121E4F080141221F2AD82AE83AFF090F0D2EDF0EEA3F0EFA3F0121B9B90F01F
:20033600D2E0FDA3E0FEA3E0FFED4E700990F11FE4F0A3F08059740F2DFAE43EFB8F048A7D
:20035600828B838CF0126753FAA3126753FB90F11FEAF0EBA3F0740D2DFAE43EFB8F048A71
:20037600828B838CF012675360168D828E838FF0123435E582701890F11FE4F0A3F0800F7A
:200396007484C0E07467C0E0125E6015811581121BE6AE82AF8390F12BE0FCA3E0FD90F13A
:2003B6002BEE2CF0EF3DA3F0BE580CBF020990F103E06003C2002290FA99E0600E90FA9908
:2003D600E4F0900064E4F5F0021AE690F11FE0FEA3E0FF4E603BEF30E71F8E048F055305E8
:2003F6007F78B7ECF208EDF208E4F208F29003E8E4F5F0126405021AE678B7EEF208EFF2E3
:2004160008E4F208F290EA60E4F5F0126405021AE6121BE6AE82AF8378B7EEF208EFF20859
:20043600E4F208F29003E8E4F5F0126405021AE690F10CE0FF600D8F82121F3BE58290F9CF
:2004560097F0800C7582021201FCE58290F997F090F997E0700920030690F105E070143038
:20047600090920020690F104E0700890F122E0FFBF233690FCA1E0FFBFFF02801A75820256
:20049600124248E582702290FCA1E0FF782BE4F28F82122A60801290F122E0FFBF23004049
:2004B600051241E680031241A390F997E0604890F122E4F090F10CE0700F758204121AA19C
:2004D6001217C0758204121ADA90F12174FDF0900028121A7E121BE6AE82AF8378B7EEF233
:2004F60008EFF208E4F208F29003E8E4F5F0126405121AE6D20022758201121B61AC82ADFF
:2005160083AEF0FF78B7ECF208EDF208EEF208EFF29003E8E4F5F0126405021AE6E582FFB9
:2005360024FA50030205C7EF2F2F90054473024D6202055602056D02059D0205C70205A929
:20055600748FC0E07467C0E0125E6015811581C20090F997E4F02290F997E0FE749CC0E0E5
:200576007467C0E0125E6015811581758204C006121AA112167A1217C0758204121ADAD004
:200596000690F997EEF022123D2D900000E4F5F0021AE674ACC0E07467C0E0125E601581A7
:2005B6001581758204121AA1122A4C758204021ADA7E00C007C00674BCC0E07467C0E012E6
:2005D6005E60E58124FCF58122758201121AA175820F1250A490FAF0E0FEA3E0FF7423C027
:2005F600E08E828F83124CAC15817404C0E01247F5AC82AD83158190F123ECF0EDA3F09059
:20061600677FE493C0E0740193C0E0906781E493C0E0740193C0E0740293C0E074CEC0E05D
:200636007467C0E0125E60E58124F9F581125721121C7F121C3790F12174FCF0AEBE5306FD
:20065600187F00BE1009BF000690F12174FEF0301A0C124242900000E4F5F0121AE674740E
:20067600C0E074FCC0E0E4C0E074FDC0E07467C0E0125E60E58124FBF581123A2F9001903D
:20069600E4F5F0121AE6758204121AA11216EC123A1690F100E060117405C0E07468C0E0C4
:2006B600125E6015811581801B7416C0E07468C0E0125E6015811581123E0F902710E4F5EC
:2006D600F0121AE690F997E0FFE0601F8F82121F3BE58270257423C0E07468C0E0125E60A8
:2006F6001581158190F997E4F0800F7441C0E07468C0E0125E601581158190F997E07003F5
:2007160012044690F997E060071240BBD20080051241A3C200758204121AA11217C0300003
:20073600067E287F0080047E587F028E828F83121A7E30000A7C887D137E007F0080087C02
:1E075600C07DD47E017F008C828D838EF0EF121AE63000051202A580F812044680F3A4
:20677300C864C965CA66CB67CC68CD6909005368804E6F207570646174650A00434D445FFF
:20679300444F5F5343414E0A0052657365742073657474696E67730A0045726173696E675E
:2067B30020696D616765730A00436D6420307825782069676E6F7265640A000A2573204F8A
:2067D30045504C2076253034782C20636F6D70696C656420417567202032203230323420DE
:2067F30030383A30333A34350A004D41432025730A00446F696E67206661737420626F6F22
:20681300740A004E6F726D616C20626F6F740A004E6F20415020666F756E64206F6E207366
:2068330061766564206368616E6E656C0A004E6F207361766564206368616E6E656C0A00AF
:096853004368726F6D6137340077
:017FAB0001D4
:20077400E58620E0FB225390FD00225380FB0022E58620E0FB004390020022E58620E0FB28
:20079400004380040022AC82AD83AEF0FF00C2A0007582031247628E821247628D82124717
:2007B400628C82024762C007C006C005C004C003C002C001C000AC82AD83AEF0FFE5812469
:2007D400F5F8860208860300C2A0007582031247628E821247628D821247628C821247628A
:2007F4008A068B07E58124F3F886040886058C028D031CBCFF011DEA4B6015758200124724
:2008140062AB828E828F83EBF0A3AE82AF8380DE00D2A000D000D001D002D003D004D00574
:20083400D006D00722AF8200C2A0008F8212476200D2A0002200C2A0007582051247627554
:200854008200124762E58220E0F500D2A00022AC82AD83AEF0FF7803E2FA08E2FBC007C099
:2008740006C005C004C003C002120849758206120839D002D003D004D005D006D00700C2E0
:20089400A0007582021247628E821247628D821247628C821247628A068B077805E2FC080D
:2008B400E2FD8C028D031CBCFF011DEA4B60128E828F83E0FBA3AE82AF838B821247628041
:2008D400E100D2A000221208497582B9120839C20B227582AB12083975F034D5F0FDD20B0D
:2008F40022C007C006C005C004C003C002C001C000C082C083C0F0C0E005810581E581243B
:20091400EFF88605088604E58124EDF8E6084670030209EEC005C004E58124F9F88602081C
:200934007B00E58124FDF8E4C39AF674019B08F6E58124FDF8E58124EBF9C3E79609E7083F
:2009540096D004D005500EE58124EDF8A98119E6F70809E6F77803EDF208ECF2A88118796F
:2009740005E6F30809E6F3E58124FBF886820886830886F008E6C007C006C005C004C003C0
:20099400C002C001C000C025120863D025D000D001D002D003D004D005D006D007A88118CC
:2009B4008602088603E4FEFFE58124FBF8EA26F6EB0836F6EE0836F6EF0836F6A88118E61B
:2009D4002DFD08E63CFCE58124EDF8A98119E6C397F608E60997F602091BE58124FAF58127
:2009F400D000D001D002D003D004D005D006D00722C007C006C005C004C003C002C001C009
:200A140000C082C083C0F0C0E0E58124FDF88602088603EA7005EB540F6006758200020B3E
:200A340039E58124F1F8E608467003020B36758206C007C006C005C004C003C002C001C0F3
:200A540000C025120839D025D000D001D002D003D004D005D006D00700C2A000E58124F1DC
:200A7400F88602088603C3EA9410EB94004018E58124FDF88602088603EA4B700A7582D813
:200A94001247627D1080087582201247627D01E58124FDF808088682124762E58124FDF851
:200AB400088682124762E58124FDF8868212476200D2A000C007C006C005C004C003C00208
:200AD400C001C000C025120849D025D000D001D002D003D004D005D006D007C00590100043
:200AF4001247F5AA82AB83AEF0FF1581E58124FDF8EA26F6EB0836F6EE0836F6EF0836F61E
:200B14008D037F00E58124F1F88605088606EDC39BFDEE9FFEE58124F1F8A60508A6060279
:1C0B34000A35758201E58124FCF581D000D001D002D003D004D005D006D00722B4
:200B5000E58620E0FB225390FD00225380FB0022E58620E0FB004390020022E58620E0FB48
:200B7000004380040022C007C006C005C004C003C002C001C000AC82AD83AEF0FFE58124DB
:200B900006F581A88176807A00758204C007C006C005C004C003C002C001C000C025121A08
:200BB000A1D025D000D001D002D003D004D005D006D0077416C0E0E4C0E07431C0E074F19B
:200BD000C0E08C828D838EF0EF1207BAE58124FCF58174162CFCE43DFDE43EFEE43FFB906D
:200BF000F141E0FFBF2004C207806B90F141E0FFBF2104D207805F90F141E0FF7E00C0071A
:200C1000C0067444C0E0746EC0E0125E60E58124FCF58190FAAC7416F0E4A3F090F131750A
:200C3000F000C007C006C005C004C003C002C001C000C025121DEED025758204C025121A95
:200C5000DAD025D000D001D002D003D004D005D006D007020E59C221C007C006C005C004B7
:200C7000C003C002C001C000C025126129D025D000D001D002D003D004D005D006D00790BC
:200C9000F0E7E4F0A3F090F0DDF0A3F0E58124FBF8A60408A60508A60608A603A881187630
:200CB0000074E0C0E07401C0E07431C0E074F1C0E0E58124F7F886820886830886F008E6D3
:200CD0001207BAE58124FCF58130073AC002E58124FAF8860274780826FBE40836FEE408DD
:200CF00036FF74E0C0E07401C0E07411C0E074F3C0E08A828B838EF0EF1207BAE58124FC9A
:200D1000F581D002801774E0C0E07401C0E0E4C0E090F31112499E158115811581E581247E
:200D3000FBF874E026F674010836F6E40836F6E40836F67E067F00C007C006C005C004C08E
:200D500003C002C001C000C025123BECD025D000D001D002D003D004D005D006D00790F00E
:200D7000DDE02401F0A3E03400F01EBEFF011FEE4F70C47EE07F01FCFDA881E6605DEC24CB
:200D900031F582ED34F1F583E0FBA881E65B60047B0080027B06C003EE2431F582EF34F159
:200DB000F583E0FBA88118E65BD00360027B07C006C0078A07EFC454F04BFAA8811818E6FE
:200DD00054AA7006D007D0068009D007D0068A8212614DA881E6C313F6809EA88176800EBA
:200DF000BE00010F0CBC00010DC3EC94E0ED9401408790F0E7E0FEA3E0FF74062EFEE43F43
:200E1000FF90F0E7EEF0EFA3F0A8811806A88118B640005003020CB1758204C007C006C024
:200E300005C004C003C002C001C000C025121ADAD025C02512615BD025D000D001D002D008
:200E500003D004D005D006D007E58124FAF581D000D001D002D003D004D005D006D0072271
:200E7000AE82AF837D807C00C221C007C006C005C004126129D004D005D006D00790F0E735
:200E9000E4F0A3F090F0DDF0A3F07807F274C0C0E07403C0E0E4C0E090F13112499E1581DA
:200EB000158115817B067A00C007C006C005C004C003C0028E828F83120081D002D003D036
:200ED00004D005D006D00790F0DDE02401F0A3E03400F01BBBFF011AEB4A70CC780A74E04C
:200EF000F2087401F27808E4F208F2ED60587808E22431F58208E234F1F583E0FAED5A6056
:200F1000047A0080027A06C002780AE22431F58208E234F1F583E0FAED5AD00260027A07F2
:200F3000C006C0078C07EFC454F04AFCED54AA7006D007D0068009D007D0068C8212614D32
:200F5000EDC313FD80A57D80780AE22401F208E23400F27808E22401F208E23400F278080B
:200F7000C3E294E008E294015003020EFBC006C00790F0E7E0FAA3E0FF74062AFAE43FFF5B
:200F900090F0E7EAF0EFA3F07807E22401F27807E2B44000D007D0065003020E9D02615B46
:200FB000C007C006C005C004C003C002C001C000AD82AE83AFF0780C126753F290F0D9E08B
:200FD000F508A3E0F50974012DFAE43EFB8F048A828B838CF0126753FA780FF208E4F285FF
:200FF0000882850983C007C006C005C004C003C002C001C0001211AEE582D000D001D0027F
:20101000D003D004D005D006D007600302110C90F0D7E0F508A3E0F509780CE2F50A750B7B
:2010300000780DE50AF208E50BF2850882850983C007C006C005C004C003C002C001C00014
:20105000121186D000D001D002D003D00490F0E3E0F508A3E0F50990F0EBE0FAA3E0FCEA4E
:20107000C39508F582EC9509F58378B5E50AF208E50BF2C002C001C0001263E5AB82AC8396
:20109000D000D001D002D005D006D007ECC423CBC423541F6BCB541FCB6BCBFC90F0F9EB49
:2010B000F0ECA3F074022BFBE43CFCEB2DFDEC3EFE780CE2604690F0F7E0FBA3E0FC90F05F
:2010D000F774012BF0E43CA3F0EB2431FBEC34F1FC8B828C83E0F50A8D828E838FF012676B
:2010F00053FAA3AD82AE83E50A42028B828C83EAF0780CE2FC780C24F8F280B5D000D0019D
:20111000D002D003D004D005D006D0072290F0E9E0FEA3E0C423CEC423541F6ECE541FCE4C
:201130006ECE30E40244E0FF90F0E7E0FCA3E0FD90F0EBE0FAA3E0FBEAC39CFCEB9DFD7862
:20115000B5ECF208EDF2900050C007C0061263E5AC82AD83D006D007EC2EFEED3FFF90F070
:20117000F7EEF0EFA3F030040C90F0F774E02EF074013FA3F022AE82AF8390F0DFEEF0EFE8
:20119000A3F090F0E9EEF0EFA3F0780D90F0E1E22EF008E23FA3F012111D75820022AF83B6
:2011B000E5827811F208EFF27811790FE3C5F0E225F0FC09E3C5F008E235F0FD90F0E5ECBA
:2011D000F0EDA3F090F0DDE0FAA3E0FB8A068B077811C3E2F5F0EE95F008E2F5F0EF95F0EF
:2011F0004025EA9CEB64808DF063F08095F05017781190F0E3E2F008E2A3F090F0EBEAF069
:20121000EBA3F07582002275820122C007C006C005C004C003C002C001C000AC82AD83AEE5
:20123000F0FFE5812404F581BF2000502C8F82C007C006C005C004C003C002C001C000C063
:20125000251246ADD025D000D001D002D003D004D005D006D0070215407E00EF24E0FFEE0E
:2012700034FFFEEF2FFFEE33FEEF245CF582EE3468F583E493FEA3E493FF90F0F9EEF0EF35
:20129000A3F0EFC4540FFE90F0F1F0300507EE2EFE90F0F1F090F0EFE0FEA3E0FF90F0F23E
:2012B000E0FD780FF2ED3395E008F28E828F83C007C006C005C004C003C002C001C000C03B
:2012D000251211AEE582D025D000D001D002D003D004D005D006D007602790F0F1E0FF3306
:2012F00095E0FE0FBF00010E90F0EDE0FCA3E0FDEF2CFFEE3DFE90F0EDEFF0EEA3F002159E
:201310004090F0EDE0FEA3E0FF90F0F1E0FD780DF2ED3395E008F28E828F83C007C006C0ED
:2013300005C004C003C002C001C000C025121186D025D000D001D002D003D004D005D00686
:20135000D00790F0F9E0FEA3E0FF53070F90F0F9EEF0EFA3F090F0EDE0FEA3E0FF8E0553D8
:2013700005078DF005F07D80E4FC3392D28008A2D2EC13FCED13FDD5F0F590F0F1E0FC333D
:2013900095E0FB0CBC00010BEC2EFCEB3FFB90F0EDECF0EBA3F030055A90F0E3E0FEA3E0A4
:2013B000FF90F0DDE0FBA3E0FCEBC39EFEEC9FFF8E828F8378CA7402F208E4F2C005C00460
:2013D000C003C002C001C000C02512668EAE82D025D000D001D002D003D004D0058EF00575
:2013F000F07E007F808007C3EF13FFEE13FED5F0F6802FC00590F0E3E0FBA3E0FC90F0DDDD
:20141000E0FAA3E0EAC39BFA8AF005F07A007D808007C3ED13FDEA13FAD5F0F68A068D071A
:20143000D005C006C00790F0E3E0FBA3E0FC90F0EFE0FAA3E0FFEAC39BFBEF9CFC90F0F96F
:20145000E0FEA3E0FF90F0F9EB2EF0EC3FA3F090F0FBE4F0A3F0D007D006C006C00790F040
:20147000FBE0FBA3E0FC90F0F1E0FA3395E0FFC3EB9AEC9FD007D0064003021540C006C075
:201490000790F0F9E58124FBF8E0F6A3E008F6E58124FBF8E626FA08E633FFEA241CF582A4
:2014B000EF3469F583E58124FDF8E493F6A3E49308F6D007D006300517EB30E024E5812472
:2014D000FDF890F0F9740126F0E40836A3F08011E58124FDF890F0F9740126F0E40836A375
:2014F000F0A88118EE56FBEF0856FC4B601F90F0F7E0FBA3E0FCEB2431FBEC34F1FC8B8233
:201510008C83E0FAED42028B828C83EAF0EDC313FD700E90F0F7E02401F0A3E03400F07DDD
:201530008090F0FBE02401F0A3E03400F002146AE58124FCF581D000D001D002D003D0046E
:20155000D005D006D00722AE82AF837409C0E0E4C0E0C0E090FADB12499E15811581158114
:201570008E038F047D0090FADBEBF0ECA3F0EDA3F08E828F83124A60780F7428F208E4F2AA
:201590007815E2F58208E2F583C007C0061211AEE582D006D007600122C2048E828F831204
:2015B0004A60AE82AF8378B5EEF208EFF290000B1263E5E5828583F02423FEE435F0FF7800
:2015D00013E2FC08E2FDEE2CFEEF3DFF780DEEF208EFF27813E2F58208E2F5831211869013
:2015F000F0E9E0FEA3E05306078EF005F07E80E4FF3392D28008A2D2EF13FFEE13FED5F095
:20161000F590FAE1E0FFBF04012212439A501F90F0F7E0FDA3E0FFED2431FDEF34F1FF8D82
:20163000828F83E0FCEE42048D828F83ECF0EEC313FE70CD90F0F7E02401F0A3E03400F0E7
:041650007E8080BD5B
:20685C000070071008500D9016601CA026A03010316037603D7044904D204F605520578057
:20687C005F7066706D6073507880805085708C7093709A70A120A320A570AC80B470BB70ED
:20689C00C2A0CCA0D670DD80E570EC70F370FA8002710971105115811D7124812C71338175
:2068BC003B7142814A7151715891617168A172A17CA186A1908198519D81A551AA81B2A129
:2068DC00BC21BE71C571CC71D371DA71E181E971F071F741FB51007207420B9214721B7282
:2068FC0022722972306236623C724362499252A25C8264A26E8276627C127D6283A28D72C4
:20691C000000000000000000000000000000D87F0078000000000000007880009804E00513
:20693C00801E9864E005801E80648004183808640842FCFF8841F040083810442044C044C0
:20695C0000397002880C881088207040E0001001083A08468845C84C383818006800800119
:20697C000078E00718180C300420024002400240024004200C301818E00700100018000F56
:20699C000072000F001800104000400040004000F807400040004000400019001E0080007C
:2069BC00800080008000800080001800180002000C003000C0000003000C00300040C00FBF
:2069DC0030300840084008403030C00F082008200820F87F080008000800186028404840C5
:2069FC0088400843083C0840084208420842F03DC0004003400440184020F87F40004000DB
:206A1C00087C084408441042E041E00F10320844084408441042E00100401840E040004388
:206A3C00004C00500060F038084508420842084590456038001E082188408840884030218B
:206A5C00C01F1806180619061E06C000C00020012001100210020804200120012001200146
:206A7C00200120012001200108041002100220012001C000C00000700040D8400041004239
:206A9C0000640038C00F30181820C84728486850D851E03F2000200008007000C001400EA9
:206ABC004018400C4003C00030000800F81F08110811081108118812700CC003300C100833
:206ADC0008100810081008100818F81F08100810081008101008E007F81F881088108810C5
:206AFC00881088100810F81F801080108010801080100010C003300C10080810081088105C
:206B1C008810F818F81F80008000800080008000F81F081008100810F81F0810081008105C
:206B3C000800081008100810F01FF81F0001800140022004200810100800F81F0800080064
:206B5C000800080008000800F81F001C8007E00060008003001CF81FF81F000800068001A3
:206B7C0060001000F81FE007100808100810081008101008E007F81F8010801080108010BD
:206B9C000011000EE00710080810081008100C101208E207F81F80108010C0102011100EFE
:206BBC000800180E0812081108118810901070180010001000100010F81F001000100010F8
:206BDC000010E01F18000800080008001000E01F0010000C8003600018001800E000000339
:206BFC00000C00100018C0073800F0000007800370003800C00700180810100820044002AF
:206C1C008001800140022004100808100010000800060001F800000100020004000800108A
:206C3C0018102810481088100811081208140818FE7F024002400240024000400030000C78
:206C5C000003C00030000C0002000240024002400240FE7F2000C0000007001C0070000E11
:206C7C00C001200004000400040004000400040004000400040004000080004030004804B3
:206C9C00880488049004F8030800F87F10020804080408041006E001E0011002080408047A
:206CBC00080408040804E00118020804080408041002F87FE0019002880488048804880449
:206CDC00880300040004F83F00240044004400440044E00119020904090409041202FC0760
:206CFC00F87F00010002000400040004F803000400040064F8670100010401040164FE6757
:206D1C00F87F8000C0002001200210020804004000400040F87FF807000200040004F80304
:206D3C00000200040004F803F80700030002000400040004F803E001100208040804080410
:206D5C001002E001FF0710020804080408041006E001E00118020804080408041002FF07BA
:206D7C00F8070001000200040004000718038804880448044804300400040004F01F0804C4
:206D9C00080408040804F0070800080008001000F807000480036000180008003000C0009E
:206DBC00000300040006E001180070008003800170001800E0010006080410022001C000CF
:206DDC00C00020011002080401040103C10062001C00180060008000000300040804180429
:206DFC00280448048804080508060804800080007C3F024002400240FE7F02400240024088
:206E1C007C3F80008000C000000100010001800080004000400040008001F8010803080487
:206E3C00080808040803F80164617461547970652030782578206E6F7420737570706F723B
:056E5C007465640A00EA
:20165400E58620E0FB225390FD00225380FB0022E58620E0FB004390020022E58620E0FB39
:2016740000438004002290F0FF7401F090F100E4F090F101F090F102F090F103F090F10456
:2016940004F090F105F090F107E4F090F106F090F10A7428F0E4A3F090F10CF090F10874F1
:2016B40028F0740AA3F090F997E4F090F998F022AD82AE83126753FCBC011C7BFF7CF08B54
:2016D400828C83740EC0E0C005C006124A361581158115810217C0227480C0E0E4C0E074DD
:2016F400A2C0E074FDC0E090C000E4F5F01207BAE58124FCF581740EC0E07414C0E074FEDF
:20171400C0E090F0FF124A3615811581158190FDA2E0FCA3E0FDA3E0FEA3E0FFBCA513BD83
:201734005A10BEBA0DBFAB0A90FDA6E0FFBF0102803590FDA2E0FCA3E0FDA3E0FEA3E0FF1B
:2017540090FDA6E0FB7A00C004C005C006C007C003C0027461C0E0746EC0E0125E60E58125
:2017740024F8F58102167A90FDA7E090F997F090FDA8E090F998F0748FC0E0746EC0E012B0
:201794005E601581158112191290FDA2E4F004C0E0E4C0E074A2C0E074FDC0E090C000E4E8
:2017B400F5F01208F5E58124FCF581227480C0E0E4C0E074A2C0E074FDC0E090C000E4F5FB
:2017D400F01207BAE58124FCF58190FDA2E0FCA3E0FDA3E0FEA3E0FFBCA53EBD5A3BBEBA3F
:2017F40038BFAB3578C574FFF20874F0F208E4F278C8740EF208E4F290FE1475F000126510
:20181400D4E5828583F045F0700F90FDA7E0FF90F997E0FEEFB506012290FE21E0FF90F1E0
:201834000CE0FEEFB50602803EEE603BBE6400502390FE21E0FF7D00C007C00574A1C0E0D6
:20185400746EC0E0125E60E58124FCF58190F10CE4F08013BEC800400890F9987402F0805D
:201874000690F9987401F07480C0E0E4C0E0C0E090FDA212499E158115811581740EC0E004
:2018940074FFC0E074F0C0E090FE14124A3615811581158190FDA274A5F0F4A3F074BAA397
:2018B400F0C4A3F090FDA67401F090F997E090FDA7F090F998E090FDA8F07401C0E0E4C032
:2018D400E090C000E4F5F0120A05158115817480C0E0E4C0E074A2C0E074FDC0E090C0007F
:2018F400E4F5F01208F5E58124FCF58174BAC0E0746EC0E0125E601581158102191290F106
:2019140003E0FF7E00C007C00674CBC0E0746EC0E0125E60E58124FCF58190F10CE0FF7EAF
:2019340000C007C00674E4C0E0746EC0E0125E60E58124FCF58190F108E0FEA3E0FFC00611
:20195400C00774F7C0E0746EC0E0125E60E58124FCF58190F100E0FF7E00C007C006740B69
:20197400C0E0746FC0E0125E60E58124FCF58190F997E0FF7E00C007C0067420C0E0746F43
:0C199400C0E0125E60E58124FCF58122B9
:206E61004C6F616465642064656661756C74732073657474696E677356657220307825782D
:206E8100204D61676963203078256C780A004C6F616465642073657474696E67733A0A00F7
:206EA10049676E6F7265642066697865644368616E6E656C2025640A0053617665642073E7
:206EC100657474696E67733A0A0020205363616E2041667465722054696D656F757420254C
:206EE100640A00202066697865644368616E6E656C2025640A0020206261744C6F77566FF9
:206F01006C746167652025640A002020656E61626C6546617374426F6F742025640A002014
:0D6F2100204C6173742063682025640A0011
:2019A000E58620E0FB225390FD00225380FB0022E58620E0FB004390020022E58620E0FBEA
:2019C00000438004002275F10175805875FDDD75F33875904075FE6E75F4E875A00175FF7A
:2019E00001227401C0E0E4C0E0900000E4F5F0120A05158115817417C0E0E4C0E0742EC074
:201A0000E0746FC0E090F1311249FCE58124FCF5817417C0E0E4C0E07431C0E074F1C0E065
:201A2000900000E4F5F01208F5E58124FCF5812275E40075FC0075F70075FE02758F81757B
:181A4000F62F75FD8175FE2F53807E5390D075F30075F40075F5002273
:176F2E005612098501084A4D000000002303280904EC0212045A0AF3
:027FFE00346FDE
:201A5800E58620E0FB225390FD00225380FB0022E58620E0FB004390020022E58620E0FB31
:201A7800004380040022AE82AF837D00BD08005017ED75F002A4240DF58274F135F0F583B8
:201A9800EEF0EFA3F00D80E422E582FF30E025125A71C007124DCFD2AF1219C612475E1293
:201AB8005275D00775820A1252B490F997E0FEF582125200EF30E20912478B200B03020858
:201AD800E622E58230E206300B030208DA22AF82AE83ADF0FC90F12DEFF0EEA3F0EDA3F09A
:201AF800ECA3F090F12DE0FCA3E0FDA3E0FEA3E0FFC004C005C006C0077445C0E0746FC030
:201B1800E0125E60E58124FAF581300B16758204C007C006C005C004121ADAD004D005D022
:201B380006D007C007C006C005C00412610FD004D005D006D007121A308C828D838EF0EFDB
:201B5800124E57758201021AA1E582FF601090F122E0FFBFFF00500690F122EF04F090F18E
:201B780022E0FFBF18005007900E10E4F5F022BF24005007901C20E4F5F02290518075F0CE
:201B980001E42290F11EE078B5F208E4F29002301263E578A2740EF208E4F212620EAE8270
:201BB800AF8374282EFEE43FFF90F11DE054077D0025E0FCED33FDEC240DF582ED34F1F5E2
:201BD80083EEF0EFA3F090F11DE02401F0227E007F007D00BD0800501DED75F002A4240D80
:201BF800F58274F135F0F583E0FBA3E0FCEB2EFEEC3FFF0D80DEEFC423CEC423541F6ECE14
:201C1800541FCE6ECEFF90F10AE0FCA3E0FDC3EE9CEF9D50058C828D83228E828F83229007
:201C3800FAF2E0FF3395E0FEC007C006745AC0E0746FC0E0125E60E58124FCF58190F0FD54
:201C5800E0FF7E0090F0FEE0FD3395E0FCC007C006C005C0047465C0E0746FC0E0125E602E
:201C7800E58124FAF5812275820E1250A41250D075820F1250A490FAF0E0FEA3E0FF742376
:201C9800C0E08E828F83124CAC15817404C0E01247F5AC82AD83158190F129ECF0EDA3F06A
:201CB800C20990F108E0FEA3E0FFC3EC9EED9F5004D209803A90F125E0FCA3E0FD4C6013D5
:201CD800C3EC9EED9F500C90F129ECF0EDA3F0D209801C90F127E0FCA3E0FD4C6011C3ECCA
:201CF8009EED9F500A90F129ECF0EDA3F0D20990F127E0C0E0A3E0C0E090F125E0C0E0A353
:201D1800E0C0E090F129E0C0E0A3E0C0E090F123E0C0E0A3E0C0E07476C0E0746FC0E01278
:091D38005E60E58124F6F58122CC
:206F4500536C656570696E6720666F7220256C64206D730A0054656D7020256420430A00C3
:206F6500525353492025642C204C51492025640A00426174745620426F6F742025642C20B3
:1A6F85006E6F772025642C2054782025642C207570646174652025640A00B2
:0500DC00781774FFF22B
:201D4100E58620E0FB225390FD00225380FB0022E58620E0FB004390020022E58620E0FB45
:201D6100004380040022121DBDE582600790F9AAE0F58222121D87E582600790F9AEE0F583
:201D810082227582002290F999E05407FFBF012890F99AE003035403FFBF031C90F99AE001
:201DA10023235403FFBF031090F999E023235401FFBF0104758201227582002290F999E01F
:201DC1005407FFBF012390F99AE003035403FFBF021790F99AE023235403FFBF030B90F999
:201DE10099E020E6047582012275820022AFF0AE83E58290FAAEF0EEA3F0EFA3F090FAAE92
:201E0100E0FDA3E0FEA3E0FF90FAACE0FBA3E0FC79007A00C3E99BEA9C5052E94A6016E95D
:201E2100540F6002800F749FC0E0746FC0E0125E6015811581C003C004E92DF8EA3EFB8FD4
:201E41000488828B838CF0126753F87C00C000C00474A1C0E0746FC0E0125E60E58124FC97
:201E6100F58109B900010AD004D00380A7749FC0E0746FC0E0125E601581158122AFF0AEAF
:201E810083E5827819F208EEF208EFF2781CE4F27B017818C3E2F5F0EB95F050227819E2AE
:201EA100FA08E2FC08E2FFEB2AFAE43CFC8A828C838FF0126753FA781CE22AF20B80D37865
:201EC10019E2FD08E2FE08E2FF8D828E838FF0126753FD781CE2B50503D38001C3E433F57A
:201EE1008222AFF0AE83E582781EF208EEF208EFF27821E4F27B01781DC3E2F5F0EB95F033
:201F01005022781EE2FA08E2FC08E2FFEB2AFAE43CFC8A828C838FF0126753FA7821E22ADD
:201F2100F20B80D3781EE2FD08E2FE08E2FF8D828E838FF07821E20263CAE5812404F581BD
:201F4100AF82C217C00712549ED0078F82125200C007125553D21712549ED0077E01EE2489
:201F6100FC500302206590FA197414F0C007C006123A7690FA2B74EDF090FA1912539AD0A8
:201F810006D007124D87AA82AB83ACF0FD90FAB174A62AF0740E3BA3F0E43CA3F0E43DA354
:201FA100F0C006124D87AA82AB83ACF0FD90FAB1E58124FCF8E0F6A3E008F6A3E008F6A35D
:201FC100E008F6E58124FCF8C3EA96EB0896EC0896ED0896D0064003022061C007C0061288
:201FE10054B0AD82D006D007C374818DF063F08095F050AD90F9AFE0FDB507A5C007C00673
:20200100121D67AD82D006D007BDEE95C007C006121D87E582D006D00760867408C0E07440
:20202100A6C0E074F9C0E090F984124A3615811581158190F99CE0FCA3E0FD90F98CECF079
:20204100EDA3F08F047D00C004C00574A7C0E0746FC0E0125E60E58124FCF5818F828020AB
:202061000E021F5F8F057E00C005C00674B1C0E0746FC0E0125E60E58124FCF58175820029
:20208100E58124FCF5812290FA19742AF0123A7690FA2B74E5F090FA327480F090F121E00E
:2020A10090FA33F090F0FEE090FA2EF090F0FDE090FA2DF090FAF2E090FA2FF090F129E0D9
:2020C100FEA3E0FF90FA30EEF0EFA3F090FA34E4F090677F93FE740193FF90FA35EEF0EF39
:2020E100A3F090F997E090FA37F090F107E090FA38F0781D7415F290FA2C75F000121EE343
:2021010090FA1902539AD21712549E121C7F121C377F007822E4F27822E2B40E00400302BB
:2021210021E5C007122088D007124D87AA82AB83ACF0FD74882AF52674133BF527E43CF533
:2021410028E43DF529C007124D87AC82AD83AEF0FFC3EC9526ED9527EE9528EF9529D0072D
:2021610040030221D8C0071254B0AE82D007C374818EF063F08095F050CBC007121D67AE88
:2021810082D007BEE6BF78187411F290F9AF75F000C007121E7EE582D00760A97408C0E006
:2021A10074A6C0E074F9C0E090F984124A3615811581158190F99C75F000126753FDA312EE
:2021C1006753FE90F98CEDF0EEA3F090F11EEFF090F9AF75F000227822E22401F27822E287
:2021E100FF02211890F11E740EF090000075F00022D21712549E7F007823E4F27823E2B46E
:202201000E0040030222D990FA197414F090FA2B74E3F0C007123A7690FA1912539AD00756
:20222100124D87AA82AB83ACF0FD74882AF52A74133BF52BE43CF52CE43DF52DC007124DF3
:2022410087AC82AD83AEF0FFC3EC952AED952BEE952CEF952DD0075072C0071254B0AE82DA
:20226100D007C374818EF063F08095F050CEC007121D67AE82D007BEE6C278187411F29079
:20228100F9AF75F000C007121E7EE582D00760AC7408C0E074A6C0E074F9C0E090F984126F
:2022A1004A3615811581158190F99C75F000126753FDA3126753FE90F98CEDF0EEA3F09018
:2022C100F11EEFF090F9AF75F000227823E22401F27823E2FF0221FD90F11E740EF090007F
:2022E1000075F00022AFF0AE83E5827824F208EEF208EFF27824E22402FA08E23400FB0801
:20230100E2FC8A828B838CF0126753F52E852E2F75300090FA9AE0F531AE317F00E52FC373
:202321009EFEE5309FFF78B5EEF208EFF2900063C004C003C0021263E5AE82AF83D002D0BD
:2023410003D0048E2F8F3090FAB5E52FF0E530A3F07824E22401FD08E23400FE08E2FF8D0C
:20236100828E838FF0126753FD90F95DE0FFEDB50702800122E52E24D5500122C3E52E9584
:20238100315001227463252FFEE43530FFC374239E74089F5001227824E2FD08E2FE08E254
:2023A100FF78187466F28D828E838FF0C004C003C002121E7EE582D002D003D004700302D6
:2023C100245A7824E22403FD08E23400FE08E28D2F8E3090FAB5E0FEA3E0FFEE2431FEEF8D
:2023E10034F1FF8E828F837463C0E0E4C0E0C02FC0301249FCE58124FCF5818A828B838CC3
:20240100F0126753FA7F0078CA7408F208E4F28A828F83C007C00212668EAD82AE83D00219
:20242100D007ED245FFDEE34F9FE5302078AF005F07401800225E0D5F0FBF4FA8D828E83A9
:20244100E052028D828E83EAF074BEC0E0746FC0E0125E60158115812274C0C0E0746FC063
:20246100E0125E601581158122AF82AE83ADF0FC7827EFF208EEF208EDF208ECF290FA9A09
:20248100E0FB7A0090F95DE0FF7E00C003C002C007C00674D1C0E0746FC0E0125E60E581F3
:2024A10024FAF581D21712549E124D8785823285833385F034F535782779B7E22414F30889
:2024C100E2340009F308E2340009F308E2340009F3900019E4F5F0126405AA82AB83AEF0D0
:2024E100FFEA2532F532EB3533F533EE3534F534EF3535F535124D87AA82AB83AEF0FFC356
:20250100EA9532EB9533EE9534EF9535503C1254B0AF82C374818FF063F08095F050D6124C
:202521001D67AF82BFE8CE90F9AF75F0001222E67F00EF245FFDE434F9FE8D828E83E0704C
:20254100060FBF060040EBBF06AB749FC0E0746FC0E0125E6015811581C21712549E02559F
:202561005390F9B0E4F0A3F090F9AF75F00022742AC0E0E4C0E0C0E090FA1912499E158114
:202581001581158190FA19742AF090F97EE0600890FA2F74E4F0800690FA2F74E7F0740887
:2025A100C0E0748EC0E074F9C0E090FA27124A361581158115817408C0E07484C0E074F9A5
:2025C100C0E090FA1F124A3615811581158190FA1AE054F84401F090FA1AE054C74440F045
:2025E10090FA1BE0440C54CF44C0F090F996E0FF04F090FA1CEFF090F98CE0FEA3E0FF9072
:20260100FA1DEEF0EFA3F07D307EFA8D828E837411C0E07454C0E074F9C0E0124A3615813B
:20262100158115817D307EFA7F00781D7411F28D828E838FF0121EE390FA1902539AE58113
:202641002404F581D21712549E1255537F00BF1E004003022722C007122570D007124D871F
:20266100AB82AC83ADF0FE90FAB774642BF0749F3CA3F0740B3DA3F0E43EA3F0C00712541B
:20268100B0AE82D007C374818EF063F08095F05051C007121D67AE82D007BEE8028028BEE1
:2026A100E9028005BEEC33802978187403F290F9AF75F000C007121E7EE582D007602390C7
:2026C100F9AF75F0008063122562AC82AD83AEF0805890000075F000805090000075F000E2
:2026E1008048C007124D87C8E58124FCC8A68208A68308A6F008F690FAB7E0FAA3E0FDA31B
:20270100E0FEA3E0FFE58124FCF8C3E69A08E69D08E69E08E69FD007500302267D0F0226ED
:202721004F122562AD82AE83AFF0E58124FCF58122741BC0E0E4C0E0C0E090FA1912499EA4
:2027410015811581158190FA197419F090FA2F74EAF07408C0E0748EC0E074F9C0E090FA3A
:2027610027124A361581158115817408C0E07484C0E074F9C0E090FA1F124A3615811581B5
:20278100158190FA1AE054F84401F090FA1AE054C74440F090FA1BE0440C54CF44C0F0900E
:2027A100F98CE0FEA3E0FF90FA1DEEF0EFA3F090F996E0FF04F090FA1CEFF090FA190253BD
:2027C1009AD21712549E7F00BF10005070C007122732D007124D8785823A85833B85F03C3F
:2027E100F53DC007124D8785823685833785F038F539E536C3953AFAE537953BFCE5389561
:202801003CFDE539953DFEC3EA94A6EC940EED9400EE9400D0075022C0071254B0AE82D0F2
:2028210007C374818EF063F08095F050B5C007121D67AE82D007BEEBA9220F808B22AF82B8
:2028410078B7EFF208E4F208F208F290700075F001E4126405AC82AD83AEF0FF74902DFDA7
:2028610074013EFEE43F8C828D838EF022AD82AE83AFF07C007B00BB0A0040030228FDC0E0
:20288100048B82C007C006C005C00312283FA882A983AAF0FCD003D005D006D0077416C00D
:2028A100E0E4C0E07431C0E074F1C0E0888289838AF0EC1207BAE58124FCF58174A2C0E068
:2028C10074FCC0E090F139124D0915811581920DD004300D218D008E018F027408C0E0C03F
:2028E10000C00190F1311249CA158115811581920D50038C82220B8B040228787582FF2207
:20290100AF825307F87E007D00BD0A004003022989C0068D82C007C00512283FAA82AB8346
:20292100ACF0FED005D0077416C0E0E4C0E07431C0E074F1C0E08A828B838CF0EE1207BA01
:20294100E58124FCF58174A2C0E074FCC0E090F139124D09158115819228D006302823C09B
:202961000690F146E0FC5304F87B008F027E00ECB50206EBB506028004D0068005D0068E40
:2029810082220D8D0602290A7582FF2212283FAC82AD83AEF0FF7416C0E0E4C0E07431C01E
:2029A100E074F1C0E08C828D838EF0EF1207BAE58124FCF58190F146E0F58222AF828F06D1
:2029C1000EEE24F550027E00EEB507038E82228E82C007C00612283FAA82AB83ACF0FDD059
:2029E10006D0077416C0E0E4C0E07431C0E074F1C0E08A828B838CF0ED1207BAE58124FC25
:202A0100F58174A2C0E074FCC0E090F139124D0915811581922850A890F146E0FD5305F885
:202A21007C00BD789BBC00988E822212283FAC82AD83AEF0FF7417C0E0E4C0E08C828D8382
:202A41008EF0EF120A0515811581227F00BF0A00500C8F82C007122A2CD0070F80EF22AF8F
:202A6100828F057E00C005C00674E0C0E0746FC0E0125E60E58124FCF5818F8212283F0267
:202A81000B76782CE4F208F208F208F27B00BB0A004003022B228B82C00312283F85823EEC
:202AA10085833F85F040F541D0037416C0E0E4C0E07431C0E074F1C0E0853E82853F838507
:202AC10040F0E5411207BAE58124FCF58174A2C0E074FCC0E090F139124D0915811581922A
:202AE1000E503AC00390F142E0FAA3E0FBA3E0FEA3E0FF782CC3E29A08E29B08E29E08E282
:202B01009FD003501890F142782CE0F2A3E008F2A3E008F2A3E008F290F983EBF00B022A0C
:202B21008F782CE2F58208E2F58308E2F5F008E222AF82AE83D20F90F95DE0FD7C007B00CE
:202B41007A008C44EBC454F0C544C4C5446544C54454F0C5446544F545EDC4540F4544F5ED
:202B610044EDC454F0F543754200300C167836E542F208E543F27401254408F2E4354508B3
:202B8100F280497817E2F582C007C00612283F85824685834785F048F549D006D0077416BD
:202BA1002546F546E43547F547E43548F548E43549F5497836E5462542F2E547354308F2C4
:202BC100E548354408F2E549354508F290FABE7405F090FA9AE4F090F97E04F07830EFF285
:202BE10008EEF27406C0E0E4C0E0C0E090F95F12499E15811581158190FABEE0FB14F0EBF9
:202C01007003022F74100F03022CC37830E2FA08E2FB8A828B8378A27463F208E4F21262D0
:202C21000EAA8290FABBEAF07830E2FB08E2FF8B828F8378C37463F208E4F2C00212655141
:202C4100E5828583F0D00245F0600690FABBEA04F090FABBE024EA500690FABB7415F090AD
:202C6100FA9AE0FB7A0090FABBE0FFC3EA9F50528B067F0078CA7408F208E4F28E828F8398
:202C8100C007C006C003C00212668EAC82AD83D002D003D006D007EC245FFCED34F9FD5396
:202CA10006078EF005F07401800225E0D5F0FBFE8C828D83E0FF42068C828D83EEF00B0A83
:202CC10080A412263FAA82AB83AFF0EA4B7003F582220ABA00010B8A828B838FF0126753E9
:202CE100FEA3126753FF4E60428E048F05C3EC9423ED9400501A78B7EEF208EFF208E4F22A
:202D010008F2900019E4F5F0126405124DE8801BEC24F6FCED34FFFD7F007E008C828D83AF
:202D21008FF0EE121AE6D21712549E900122E4F5F012246A783A7401F290FA9AE0FF7E0070
:202D410090FABBE0FDC3EE9D505E8F047D0078CA7408F208E4F28C828D83C007C006C00546
:202D6100C00412668EAA82AB83D004D005D006D007EA245FF582EB34F9F5835304078CF08A
:202D810005F07C017D008006EC2CFCED33FDD5F0F7E0FB7A005204EA5205EC4D6006783A93
:202DA100E4F280040F0E8098783AE27003022F3990FABBE078B5F208E4F29000631263E5A3
:202DC100AE82AF837834EEF208EFF290FABF7431F074F1A3F0E4A3F090FA9AE0704B90F18E
:202DE10031E0FCA3E0FD7830ECF208EDF290F133E0FCA3E0FD7832ECF208EDF290FABCE42F
:202E0100F0A3F07834E2FC08E2FDEC24FCFCED34FFFD7834ECF208EDF290FABF7404243111
:202E2100F0E434F1A3F0E4A3F07830E2FC08E2FD7834C3E2F5F0EC95F008E2F5F0ED95F039
:202E4100500A78307934E2F308E209F37830E2FC08E2FD7834D3E29CF4B3FCB308E29DF4CC
:202E6100FD7830ECF208EDF2758204121AA190FABFE0F546A3E0F547A3E0F548AA46AF4756
:202E81007834E2C0E008E2C0E0C002C0077836E2F58208E2F58308E2F5F008E21208F5E5DA
:202EA1008124FCF581758204121ADA7834E2FA08E2FD7E007F007836E22AF208E23DF208C0
:202EC100E23EF208E23FF2AD46AE47AF487834E2F54608E2F547AA46AC47154674FFB5464A
:202EE100021547EA4C60368D828E838FF0126753FCA3AD82AE838C4275430090FABCE0FA97
:202F0100A3E0FC8A4A8C4BAB42AC43EB254AFBEC354BFC90FABCEBF0ECA3F080B990FABBCF
:202F2100E0FF90FA9AE02FF07830E2FE08E2FF4E6006783AE4F2D20F90F97EE4F0783AE291
:202F41007003022BF97832E2FE08E2FF90FABCE0FCA3E0FDEEB50406EFB50502801174FA6B
:202F6100C0E0746FC0E0125E601581158180047582012275820022AFF0AE83E58290FAC6F3
:202F8100F0EEA3F0EFA3F090FAC6E0FDA3E0FEA3E00DBD00010E8D828E837408C0E0746E15
:202FA100C0E074F9C0E01249CA1581158115819210501490F976E0FCA3E0FDA3E0FEA3E017
:202FC100FFEC4D4E4F707590F95DE4F090FAC6E0FDA3E0FEA3E0FF74012DFAE43EFBC002D1
:202FE100C00390F9551248CC15811581740D2DFAE43EFB8F048A828B838CF0126753FA9099
:20300100F95EF07411C0E0C005C00690F96D124A361581158115817408C0E0E4C0E090003E
:203021000075F001E4120A051581158190F976E0FEA3E0FF90FAC4EEF0EFA3F090F976E00C
:20304100FCA3E0FDA3E0FEA3E0FFEC4D4E4F70030230D2C3E49C74109DE49EE49F500B904F
:20306100FAC2E4F07410A3F0800890FAC2ECF0EDA3F0D20C90FAC2E0FEA3E0FF8E828F83CC
:20308100122B32E582604690F95DE0FF0F90F95DEFF090F976E0FCA3E0FDA3E0FEA3E0FFBC
:2030A10090FAC2E0FAA3E0FB8A008B01E4FAFBECC398FCED99FDEE9AFEEF9BFF90F976ECBC
:2030C100F0EDA3F0EEA3F0EFA3F002303D7582002275820122AFF0AE83E58290FACBF0EE70
:2030E100A3F0EFA3F090FACBE0FDA3E0FEA3E0FF74012DFAE43EFB8F048A828B837408C0E3
:20310100E0746EC0E074F9C0E01249CA1581158115819211504090F97BE0FC740E2DFDE4B5
:203121003EFE8D828E838FF0126753FDECB5052690F976E0FCA3E0FDA3E0FEA3E0FFEC4D87
:203141004E4F60127412C0E07470C0E0125E60158115810232E0758204121AA190F9837859
:203161003BE0F290FACBE0FCA3E0FDA3E0FE740E2CFAE43DFB8E078A828B838FF012675351
:20318100FA54FC6031783BE2FB7F00C003C0077425C0E07470C0E0125E60E58124FCF58131
:2031A10090FAAC7411F0E4A3F08C828D838EF0121DEE783BE4F290F983E02401F0FFBF0AE1
:2031C10000400590F983E4F090F983E0FF783BE2B50719758204121ADA7449C0E07470C072
:2031E100E0125E6015811581758201228F8212283FAC82AD83AEF0FF7416C0E0E4C0E07431
:2032010031C0E074F1C0E08C828D838EF0EF1207BAE58124FCF58174A2C0E074FCC0E09027
:20322100F139124D09158115819211500890F146E054F8708190F983E0FF7817F28F821261
:20324100283FAC82AD83AEF0FF7417C0E0E4C0E08C828D838EF0EF120A051581158175828D
:2032610004121ADA7817E2FE7F00C006C0077453C0E07470C0E0125E60E58124FCF5819081
:20328100F95DE4F090FACBE0FDA3E0FEA3E0FF74012DFAE43EFBC002C00390F9551248CC8C
:2032A10015811581740D2DFAE43EFB8F048A828B838CF0126753FA90F95EF07411C0E0C071
:2032C10005C00690F96D124A3615811581158190F976E0FEA3E0FF90FAC9EEF0EFA3F09036
:2032E100F976E0FCA3E0FDA3E0FEA3E0FFEC4D4E4F7003023377C3E49C74109DE49EE49FA1
:20330100500B90FAC2E4F07410A3F0800890FAC2ECF0EDA3F090FAC2E0FEA3E0FF8E828F9F
:2033210083122B32E582604A90F95DE0FF0F90F95DEFF090F976E0F54CA3E0F54DA3E0F593
:203341004EA3E0F54F90FAC2E0FAA3E0FBE4FEFFE54CC39AFAE54D9BFBE54E9EFEE54F9FE0
:20336100FF90F976EAF0EBA3F0EEA3F0EFA3F00232E075820022758204121AA1746EC0E07C
:2033810074F9C0E090F1311248CC1581158190F1397421F07447A3F0744DA3F07447A3F0EC
:2033A10090F97FE02401F0A3E03400F0A3E03400F0A3E03400F090F97FE0FCA3E0FDA3E033
:2033C100FEA3E0FF90F142ECF0EDA3F0EEA3F0EFA3F090FAC9E0FEA3E0FF7D007C0090F11D
:2033E1003DEEF0EFA3F0EDA3F0ECA3F090F97AE090F141F090F97BE090F146F07817E2F59A
:203401008212283FAC82AD83AEF0FF7416C0E0E4C0E07431C0E074F1C0E08C828D838EF021
:20342100EF1208F5E58124FCF581758204121ADA75820122AFF0AE83E58290FACFF0EEA365
:20344100F0EFA3F0C20C90FACFE0F553A3E0F554A3E0F555740D2553FAE43554FBAC558A2B
:20346100828B838CF0126753FCBC02028024BC03030237BDBC10028019BC20028014BC21A5
:2034810002800FBCA8030236B0BCAF0302379D02383390FACFE0FFA3E0FEA3E0FD7550CECE
:2034A1007551FA755200740E2FF553E43EF5548D558553828554838555F0126753FB855022
:2034C100828551838552F01263CA90FACEE020E203023594758204C007C006C005121AA1E8
:2034E100D005D006D00790FACEE0C423541FFB603CBB0F02806C8553828554838555F012D6
:203501006753F582C007C006C005122901AB82D005D006D007BBFF0280488B82C007C0061E
:20352100C005122A2CD005D006D007803574012FF553E43EF5548D5585538285548385555D
:20354100F0C007C006C00512286EAB82D005D006D007BBFF02800B1227C2783C7401F20272
:2035610036AA758204C007C006C005121ADAD005D006D0078F828E838DF01230D6E5826017
:203581000B1227C2783C7401F20236AA783CE4F20236AA74012FF553E43EF5548D558553AA
:2035A100508554518555528550828551837408C0E07465C0E074F9C0E01249CA15811581C1
:2035C10015819212500B1227C2783C7401F20236AA758204C007C006C005121AA1855382E9
:2035E1008554838555F012286EAC82758204C004121ADAD004D005D006D007BCFF02805125
:20360100C007C006C005C0041227C2D004D005D006D0078F538E548D55AA53AB547411C05B
:20362100E0C002C00390F96D124A3615811581158190F976E4F0A3F0A3F0A3F090FCA1EC35
:20364100F090FACEE05403782BF28C82122A60803D7461C0E07470C0E0125E6015811581F9
:203661008F828E838DF01230D6E582601B1227C27817E2FB90FCA1F090FACEE05403782BFA
:20368100F28B82122A608006783CE4F2801B90F96EE0FAA3E0FBC002C00390F9651248CCFB
:2036A10015811581783C7401F2783CE2F5822290F976E0FAA3E0FBA3E0FEA3E0FFEA4B4EB6
:2036C1004F702F74012553FDE43554FEAF558D828E837408C0E0746EC0E074F9C0E012497C
:2036E100CA158115811581921250071227C27582012290F95DE4F090FACFE0F550A3E0F57D
:2037010051A3E0F55274012550FAE43551FBC002C00390F9551248CC15811581740D255099
:20372100FDE43551FEAF528D828E838FF012675390F95EF0AD50AE517411C0E0C005C00634
:2037410090F96D124A3615811581158174092550FDE43551FEAF528D828E838FF01267535B
:20376100FDA3126753FE8D828E83122B32E582602790F976E4F0A3F0A3F0A3F075820412C8
:203781001AA190F13575F0001216C4758204121ADA1227C275820122758200221227C274C8
:2037A1000E2553FDE43554FEAF558D828E838FF0126753F5821205337582012275820412C3
:2037C1001AA18553828554838555F0122F78E582605C1227C2758204121AA112384E300C3A
:2037E10012123E4A90001975F001E412079A125A3080567469C0E07470C0E0125E6015819D
:203801001581758204121ADA90FA997401F090F12174E0F0123EC37408C0E0E4C0E0C0E04F
:2038210090F96512499E158115811581801B758200227F00C004C0077486C0E07470C0E002
:20384100125E60E58124FCF581758200227841E4F208F208F208F2C20C7419C0E0E4C0E086
:2038610074A2C0E074FDC0E090000075F001E41207BAE58124FCF581783D7419F208E4F2C5
:203881000804F208E4F290678193FD740193FE7402937406C0E0C005C00690FDAB1249CA32
:2038A1001581158115819213500790F0CF7405F022906781E493FD740193FE7402937409F7
:2038C100C0E0C005C00690FDAB1249CA1581158115819213500790F0CF7402F02290FDAA93
:2038E100E0FFBF0102800790F0CF7401F02290FDA8E0FEA3E0FFC3E49E74809F500790F085
:20390100CF7403F02290FDA8E0FEA3E0FF4E70030239C290FDA8E0FEA3E0FFC374239E74FA
:20392100089F50047E237F08C006C0077431C0E074F1C0E0783DE2F58208E2F58308E2F53D
:20394100F008E21207BAE58124FCF58190FAD27431F074F1A3F0E4A3F090FAD5EEF0EFA38E
:20396100F07841E2F58208E2F58308E2F5F008E2C007C006123A9B7841C0E0E582F208E516
:2039810083F208E5F0F2D0E008F2D006D0078E028F037C007D00783DE22AF208E23BF2089E
:2039A100E23CF208E23DF290FDA8E0FCA3E0FDECC39EFEED9FFF90FDA8EEF0EFA3F00239A6
:2039C1000690FDA2E0FCA3E0FDA3E0FEA3E0FF7841E2B5041108E2B5050C08E2B506070889
:2039E100E2B50702800790F0CF7404F02290FDA6E0FEA3E0FF90F0CDEEF0EFA3F0C006C000
:203A01000774A6C0E07470C0E0125E60E58124FCF581D20C22122A83AC82AD83AEF0FF904A
:203A2100F97FECF0EDA3F0EEA3F0EFA3F0227408C0E0748EC0E074F9C0E090FAA4124A3601
:203A410015811581158190FA9BE054F84421F090FA9CE054F344C8F090FA9E7437F074136A
:203A6100A3F090FAA074FFF0A3F090FAA27437F07413A3F0227411C0E0749BC0E074FAC08D
:203A8100E090FA1A124A3615811581158190F996E0FF04F090FA1CEFF022AC82AD83AEF0B8
:203AA100FF7845ECF4F2EDF408F2EEF408F2EFF408F290FAD2E0F55AA3E0F55BA3E0F55CB1
:203AC10090FAD5E0F556A3E0F557855658855759155674FFB556021557E55845597003027D
:203AE1003B99855A82855B83855CF0126753FEA385825A85835B8E047D007E007B00784566
:203B0100E26CF208E26DF208E26EF208E26BF2784DE4F208F2784DC3E2940808E26480948D
:203B21008050A77845E25401FA08E25400FB08E25400FC08E25400FE7849C3E49AF2E49BFD
:203B410008F2E49C08F2E49E08F27848E2C313F56018E213F55F18E213F55E18E213F55D87
:203B61007849E25420FC08E25483FD08E254B8FE08E254EDFA7845EC655DF2ED655E08F253
:203B8100EE655F08F2EA656008F2784DE22401F208E23400F2023B167845E2F4FB08E2F442
:0F3BA100FC08E2F4FD08E2F48B828C838DF022A5
:206F9F000A002530327820004150206F6E2025640A004E6F204150206F6E2025640A002E1C
:206FBF0000636865636B435243206661696C65640A0052455120256420706172742025643C
:206FDF000044726177696E6720696D61676520696E20736C6F742025640A00626C6B206658
:206FFF0061696C65642076616C69646174696F6E210A0072657374617274696E6720696DC4
:20701F006720646C0A004368616E67696E67207374617274696E67536C6F742066726F6DCF
:20703F0020256420746F20300A004E6F20736C6F74730A006E657720646C20746F20256429
:20705F000A00646C20696D670A004F544120696D6167652076616C69646174696F6E2066F8
:20707F0061696C65640A00646174615479706520307825782069676E6F7265640A0043688A
:20709F00726F6D613734004F54412076616C6964617465642C207570646174696E672074C9
:0F70BF006F2076657273696F6E202530780A0036
:057FAC00FF21474D47D5
:203BB000E58620E0FB225390FD00225380FB0022E58620E0FB004390020022E58620E0FBB8
:203BD00000438004002290F0EF74B8F0E4A3F030050990F0EF74B0F0E4A3F02290F997E090
:203BF000704690F105E06040C20490F0D77468F07402A3F090F0D97406F0E4A3F09076A027
:203C100075F080120FB0D20490F0D77470F07402A3F090F0D9740DF0E4A3F09076C275F066
:203C300080120FB0D2038002C20330092890F104E06022C20490F0D77468F07402A3F0903D
:203C5000F0D97470F07401A3F09076CC75F080120FB0D20222C2022212426B12428774E459
:203C7000C0E07476C0E01245721581158174E7C0E07476C0E01245721581158190F0EDE04E
:203C9000FEA3E0FF90FAD7EEF0EFA3F07405C0E07477C0E0124572158115817413C0E0749F
:203CB00077C0E012457215811581742BC0E07477C0E0124572158115817445C0E07477C025
:203CD000E012457215811581745CC0E07477C0E01245721581158190FAD7E0FEA3E0FF90BE
:203CF000F0EDEEF0EFA3F0123D4D74E4C0E07476C0E01245721581158190FAD7E0FEA3E0A2
:203D1000FF90F0EFE0FCA3E0FD7813EEF208EFF27815ECF208EDF290FC74021557758205B9
:203D3000124248E5826001227471C0E07477C0E0125E6015811581903C68020E707474C085
:203D5000E074FCC0E0E4C0E0747DC0E07477C0E0124572E58124FBF5812290677FE493C030
:203D7000E0740193C0E07489C0E07477C0E0124572E58124FCF5812212426B1242877498F6
:203D9000C0E07477C0E012457215811581123D6A90F123E0C0E0A3E0C0E074ADC0E0747747
:203DB000C0E0124572E58124FCF58190FAF2E0FF3395E0FEC007C00674BBC0E07477C0E0A6
:203DD000124572E58124FCF581123D4D74E4C0E07476C0E01245721581158190F0D5E0FEC8
:203DF000A3E0FF90F0EFE0FCA3E0FD7813EEF208EFF27815ECF208EDF290FC7402155775DD
:203E10008201124248E582600122121C7F903D88020E7012426B124287D205123BD690F0F3
:203E3000CDE0C0E0A3E0C0E074CEC0E07477C0E0124572E58124FCF58122903E23020E703D
:203E500012426B124287D20574E4C0E07477C0E012457215811581D20490F0CFE0FFBF02A4
:203E7000028018BF04028023BF053074F5C0E07477C0E012457215811581227404C0E07405
:203E900078C0E012457215811581227415C0E07478C0E012457215811581227E00C007C012
:203EB000067420C0E07478C0E0124572E58124FCF58122903E50020E7012426B1242877499
:203ED0002FC0E07478C0E012457215811581744BC0E07478C0E01245721581158190F0EF33
:203EF000E0FEA3E0FF90F0D9EEF0EFA3F090F98AE0FF7E0090F98BE0FD7C00C007C006C06F
:203F100005C0047464C0E07478C0E0124572E58124FAF58190F988E0FF7E0090F989E0FDA4
:203F30007C00C007C006C005C0047476C0E07478C0E0124572E58124FAF58190F986E0FF18
:203F50007E0090F987E0FD7C00C007C006C005C0047476C0E07478C0E0124572E58124FAF1
:203F7000F58190F984E0FF7E0090F985E0FD7C00C007C006C005C0047476C0E07478C0E0BE
:203F9000124572E58124FAF58190F0EDE0FEA3E0FF8E02EFFB3395E0FCFD7480C39AF50C14
:203FB00074029BF50DE49CF50EE49DF50F9073F4E493FDE4FC3395E0FBFAE50CC39DFDE5BB
:203FD0000D9CFCE50E9BFBE50F9AFA78A47402F208E4F208F208F28D828C838BF0EAC0077B
:203FF000C006126259AA82AB83D006D00790F0D7EA2EF0EB3FA3F090F0FDE0FF7E0090F0A1
:20401000FEE0FD3395E0FC90F997E0FB7A00C007C006C005C004C003C002747FC0E0747882
:20403000C0E0124572E58124F8F58190F127E0C0E0A3E0C0E090F125E0C0E0A3E0C0E090EB
:20405000F129E0C0E0A3E0C0E07499C0E07478C0E0124572E58124F8F581123D6A74E4C0C8
:20407000E07476C0E012457215811581123D4D74C9C0E07478C0E01245721581158190F057
:20409000EDE0FEA3E0FF90F0EFE0FCA3E0FD7813EEF208EFF27815ECF208EDF290FC741240
:2040B00015579073F475F080020FB0758203124248E582600122121C7F903EC9020E701291
:2040D000426B12428774CBC0E07478C0E01245721581158174DFC0E07478C0E0124572158B
:2040F00081158190F0EDE0FEA3E0FF90FAD7EEF0EFA3F090F0EFE0FCA3E0FD90F0D9ECF00B
:20411000EDA3F08E02EFFB3395E0FCFD7448C39AFA74029BFBE49CFCE49DFD78A47402F257
:2041300008E4F208F208F28A828B838CF0EDC007C006126259AA82AB83D006D007EA2EFEA3
:20415000EB3FFF90F0D7EEF0EFA3F0EE5407601574075EFC7D00EEC39CFEEF9DFF90F0D732
:20417000EEF0EFA3F09073F475F080120FB090F0D9E0FEA3E0FF74082EFEE43FFF90F0D946
:20419000EEF0EFA3F0D20490757E75F080120FB0023BEC758204124248E582600122904026
:2041B000CF020E7012426B12428790F0EFE0FEA3E0FF74102EFEE43FFF90F0EFEEF0EFA386
:2041D000F0740AC0E07479C0E012457215811581124360023BEC758205124248E582600101
:2041F000229041B4020E7012426B124287D205741CC0E07479C0E0124572158115817430C1
:20421000C0E07479C0E01245721581158190F0D77428F07401A3F090F0EFE0FEA3E0FF9022
:20423000F0D9EEF0EFA3F0D20490757E75F080020FB09041F7020E70E582C40354F8F5820D
:20425000122901AF82BFFF02800D782BE4F28F82122A607582012275820022C206C204C2EB
:204270000590F0EDE4F0A3F090F0D5F0A3F090F0EFF0A3F0C20822D20490F0D9E4F0A3F009
:2042900090727093FFE4FE3395E0FDFC7480C39FFF74029EFEE49DFDE49CFC78A47402F2A2
:2042B00008E4F208F208F28F828E838DF0EC126259AC82AD8390F0D7ECF0EDA3F090727041
:2042D00075F080120FB0C204907271E493FF7E0090F0D9E0FCA3E0FDEF2CFFEE3DFE90F073
:2042F000D9EFF0EEA3F09070CE75F080120FB09070CFE493FF7E0090F0D9E0FCA3E0FDEF8A
:204310002CFFEE3DFE90F0D9EFF0EEA3F0D20490733275F080120FB090F0D7E0FEA3E0FF08
:2043300090F0EDEEF0EFA3F0907333E493FF7E0090F0D9E0FCA3E0FDEF2CFFEE3DFE7420EA
:204350002FFFE43EFE90F0EFEFF0EEA3F0C2042290F127E0FEA3E0FF4E601190F125E0FCFF
:20437000A3E0FDC3EE9CEF9D5002800890F125E0FEA3E0FFC006C007744AC0E07479C0E07C
:0A439000124572E58124FCF581223C
:2070CE00801AFFFFFFFFFFFFFFFFFFFFFFFFFFFFFFFF000000000000000000000000000018
:2070EE00000000000000000000000000000000000000000000000000000000000000000082
:20710E000000000000000000000000000000000000001C000000001F9F800000000038705F
:20712E0001C07F000000001F9FC000000000387001C07F000000001F9FE000000000387055
:20714E0001C0F7800000001C1CE000000000380001C0E3800000001C1CE000000000380025
:20716E0001C0E39DC1C7701F9CE773B871D03873B9C7E39FE3E7F81F9FEFF3FCF9F038731B
:20718E00FDCEE39FE777F81F9FCFF3FDDDF03873FDDCE39CE7F7381C1F8E739DFDC038739A
:2071AE009DF8E39CE7F7381C1C0E739DFDC038739DF8F79CE707381C1C0E739DC1C0387309
:2071CE009DDC7F1FE7F7381F9C0FF3FDFDC03F739DDC7F1FE3E7381F9C0FF3FCF9C03F730E
:2071EE009DCE1E1DC1C7381F9C0773B871C03F739DC7001C00000000000003800000000048
:20720E000000001C0000000000000380000000000000001C00000000000003800000000022
:20722E000000001C00000000000003800000000000000000000000000000000000000000A1
:20724E00000000000000000000000000000000000000FFFFFFFFFFFFFFFFFFFFFFFFFFFF2E
:20726E00FFFF800C000882A2AB55BFFFFFFF7DB4622800000010101176FF7BFFFF7FB7A9D5
:20728E0055505100002922966FF7BFFFFFFFEAE622AA08000002542ABF3F7FFFFFFFFD59F3
:2072AE00B4102000002423B5B5DFFFFFFFFFF6AE48551000008890546AEFFFFFFFFFFBF54E
:2072CE00A382000000012DA3B3FFFFFFFFFFF6BE4E5209000490020D55DFFFFFFFFFFDDDF2
:2072EE0068A9001000490CFBAB6FFFFFFFFFFEEB955A002000129122BFDFFFFFFFFFFFF5AE
:20730E00658140400028127DEFFFFFFFFFFFFFEFAB28000000420A9775FFFFFFFFFFFFF74E
:20732E004AC20400800C0008029CDFFFFFFFFFFFFF6A6A8D002000044D72AAFFFFFFFFFF3B
:20734E00FFD5D57480000240128EDFFDFFFFFFFFFFAEAA0A11200020525FF57FFFFFFFFFF5
:20736E00FF7294AA240000010AAB6F77FFFFFFFFFDAF545488000004804D95EBFFFFFFFF6B
:20738E005B58B5514000000808A6B3F77FFFFFFFFFAD4AA0100000029641DCAEFFFFFFFF05
:2073AE00FDBFEA4802000000093EAB75EFFFFFFFFFD4B121080000000AC35DFF7FFFFFFF2A
:2073CE00EFEF444A64800000A152A6EFEFFFFFFFD6CAF5101800000002154BD5DFFFFFF713
:2073EE00EBD4D88500003838000000000000000000000000000000000000000000000000F3
:20740E000000000000000000000000000000000007C00000000001FFF0000000000FFFF0A9
:20742E00000000007FFFF000000001FFFFF000000007FFFFC00000001FFF80000000007FFF
:20744E00F80000000000FFE00000000001FF000000000007FE00000000000FF8000000003B
:20746E00001FE000000000003FC00003E000007F80007FF00000FE0003FFF00001FC000FB3
:20748E00FFF00001F8003FFFF00003F800FFFF800007F001FFE000000FE003FF0000000F78
:2074AE00C00FF80000001F801FF00000001F803FC00000003F003F800000003F007F0000EF
:2074CE0000007E00FE0007E0007E01FC001FF000FC01F8007FF000FC03F001FFF000F80373
:2074EE00F003FFF001F807E007FF0001F807E00FF00001F00FC01FE00001F00FC03F800099
:20750E0003F00F803F000003F01F807E000003E01F807E000003E01F00FC01E003E01F00AB
:20752E00FC07F803E01F00F80FFC03E03F00F80FFC03E03F01F81FFE03E03F01F81FFE03A5
:20754E00E03F01F81FFE03C03E01F01FFE01C01E00F00FFC00000000000FFC0000000000F4
:20756E0007F8000000000001E000000000000000303000001FF800000000FFFF00000003A5
:20758E00FFFFE000000FFFFFF000003FFFFFFC00007FF00FFE0000FF8001FF0001FE0000CF
:2075AE007F8003F800001FC007F000003FE00FE000007FF00FC00000FFF01F800001FFF81B
:2075CE001F000003FFF83F000007FEFC3E00000FFC7C7E00001FF87E7C00003FF03E7C0007
:2075EE00007FE03EFC0000FFC03FF80001FF801FF80003FF001FF80007FE001FF8000FFC17
:20760E00001FF8001FF8001FF8003FF0001FF8007FE0001FF800FFC0001FFC01FF80003FC2
:20762E007C03FF00003E7C07FE00003E7E0FFC00007E3E1FF800007C3F3FF00000FC3F7FC1
:20764E00E00000FC1FFFC00001F80FFF800003F00FFF000007F007FE00000FE003FC0000F0
:20766E001FC001FE00007F8000FF8001FF00007FF00FFE00003FFFFFFC00000FFFFFF000EE
:20768E000003FFFFE0000000FFFF000000001FF800001010004002200120112011201220AF
:2076AE00284028002800440044004400440082008200FE0008080063773E1C3E7763100A7C
:2076CE0000007FFC4004580658065806580640047FFC00000A000A0A000C0949276D206610
:2076EE006173742061736C656570202E202E202E205577550A0A00546F200977616B6520A7
:20770E006D653A0A002D2052656D6F766520616C6C206261747465726965730A002D2053A4
:20772E00686F7274206261747465727920636F6E74616374730A002D205265696E736572B5
:20774E0074206261747465726965730A0A000C6F70656E6570617065726C696E6B2E6465D0
:20776E000A0A004465657020736C6565700A00546167204D41433A202573004368726F6D2E
:20778E006137342076253034580009080A5374617274696E67202E202E202E0A0A08000A21
:2077AE00564261743A202564206D560A0054656D70657261747572653A202564430A0A00B6
:2077CE000C466C617368696E67207625303478202E202E202E000C4F5441204641494C4571
:2077EE0044203A280A0A000C4E6F74204F544120696D616765000C57726F6E67204F544120
:20780E0020696D616765000C435243206572726F72000C4572726F7220436F6465202564AF
:20782E00000C090857616974696E6720666F722064617461202E202E202E0A08000A466F6E
:20784E00756E642074686520666F6C6C6F77696E672041503A000A4150204D41433A20258B
:20786E0030325825303258002530325825303258000A43683A20256420525353493A20252B
:20788E0064204C51493A2025640A000A564261743A202564206D562C205478696E673A2096
:2078AE002564206D562C20446973706C6179696E673A202564206D560A0A000A000C084EA8
:2078CE006F20415020666F756E64203A280A080A000C5765276C6C207472792061676169A8
:2078EE006E20696E2061206C6974746C65207768696C65202E202E202E0A0A000C09087A18
:20790E007A5A5A5A202E202E202E0A080A000C454550524F4D204641494C4544203A280AA6
:20792E000A000C536C656570696E6720666F7265766572202E202E202E0A0A005642617468
:09794E003A202564206D560A0060
:20439A00C007C006C005C004C00390FAE0E0600302448E90FAE1E0FF24FB500302448BEF2D
:2043BA002F2F9043C0730243CF0243ED02446E02448502448B90FADE744BF0E4A3F090FAD1
:2043DA00E0740BF090FAE17401F090FAE27468F002448E90FADB124CB6E582FF6045EF2401
:2043FA00E0FFBF600040027F1F90FAE3E0FE0E90FAE3EEF0C0078E821247E0AD82AE83159C
:20441A008190FAE2E0FC7B002DFDEB3EFE8D828E837467C0E0124CB1AE82158190FAE2EE23
:20443A00F0800B90FAE17402F090FAE2E0FFEF75F002A42457F582747935F0F583E493FEE0
:20445A00A3E493FF90FADEEEF0EFA3F090FAE0740BF0802090FAE17403F090FADE74E3F067
:20447A00741AA3F090FAE003F0800990FAE17404F0C3802D90FADEE0FEA3E0FFEE540124A9
:20449A00FFE433FDEFC313CE13CEFF90FADEEEF0EFA3F090FAE0E0FF1F90FAE0EFF0ED24F2
:0C44BA00FFD003D004D005D006D00722AC
:207957009B01B3013303C90089019101990019013101930013012301CD01D90199039D0113
:20797700B90139037302D30193033B017301B7039701A7012703370167016702DB001B0345
:207997006303C500D10011038D00B10031028B00A3002302ED008D03B103DD001D0371035A
:2079B70077038B03A303BB003B02BB03D70017034703B7003702C702F70213028F02650054
:2079D700850169000903A10121034D000D01590019026101610243025300EF024301F1027B
:2079F700E501E901C9033D01790179022F014F014F02DB037B036F03F500C503D103BD00B4
:0E7A17003D02AF002F02DD03BD03D703AF0316
:2044C600C007C006C005C004C001C000AC82AD83AEF0FFBF20005031BF0A030245658F825B
:2044E600C007C006C005C004C003C002C001C000C0251246ADD025D000D001D002D003D0A5
:2045060004D005D006D00780567E00EF24E0FFEE34FFFEEF2FFFEE33FEEF245CF582EE3466
:2045260068F583E493A3E493C4540FFE90F0F1EEF0300507EE2EFE90F0F1F090F0F1E0FF89
:204546003395E0FE0FBF00010E90F0EDE0FCA3E0FDEF2CFFEE3DFE90F0EDEFF0EEA3F0D029
:2045660000D001D004D005D006D00722C007C006C005C004C003C001C000E58124F6FFC053
:2045860007C006C005C004C003C002C001C000C025124660D025D000D001D002D003D0040D
:2045A600D005D006D007E58124F6F886050886068D828E83E493FCBC0C7290F0EDE4F0A32B
:2045C600F0C007C005C006C0E0C0E09044C6125B0FE58124FBF58190F0EDE0FDA3E0FE3344
:2045E60095E0FCFB7480C39DFD74029EFEE49CFCE49BFB78A47402F208E4F208F208F28D0D
:20460600828E838CF0EBC007C002C001C000C025126259AB82AC83ADF0FED025D000D00151
:20462600D002D00790F0EDEBF0ECA3F0C007E58124F5F8E6C0E008E6C0E0E4C0E0C0E090FE
:20464600121B125B0FE58124FBF581D000D001D003D004D005D006D007223006253005062E
:204666007E147F0080047E0A7F0090F0F2EEF03005067E207F0080047E107F0090F0F1EE00
:20468600F0223005067E207F0080047E107F0090F0F2EEF03005067E147F0080047E0A7FF2
:2046A6000090F0F1EEF022AF82BF08028018BF0902804EBF0A028013BF0B028055BF0C018E
:2046C60022BF0D568038B20502466012466090F0F2E0FE3395E0FD90F0EFE0FBA3E0FCEE15
:2046E6002BFEED3CFD90F0EFEEF0EDA3F090F0D5E0FDA3E0FE90F0EDEDF0EEA3F022B20442
:204706002290F0EDE0FDA3E0FE90F0D5EDF0EEA3F02290F0D5E4F0A3F0227E00C007C006E8
:124726007425C0E0747AC0E0125E60E58124FCF58122CC
:157A2500496E76616C69642063686172203078253032780A00F6
:20473800E58620E0FB225390FD00225380FB0022E58620E0FB004390020022E58620E0FB24
:2047580000438004002275FB02228582F9E5F830E1FB53F8FDE5F820E0FB85F9822253F353
:20477800C775FA2275FC0C75F8C043F4C043F102D20A2253F1FD53F43F75FA0075FC3175A7
:08479800F84043F338C20A2285
:2047A000858283D0F0D0E0D082C082C0E0C0F022C00074FB2581F8E582868208868308861E
:2047C000F0D0002275F008C58213C58233D5F0F7C58222E583A2E713F583E58213F5822202
:2047E000D083D0E0D0F0C0F0C0E0C083E582A4F58285F08322C000E58124FDF8E6F88582A3
:20480000F0A4F582E8A8F08583F0A428F583E5F03400F5F0E4D00022C000C001C0E0C0F03C
:2048200074FA2581F88600E58288F0A4F582A9F0E58388F0A429F583E5F03400F9D0E088F4
:20484000F0A429C5F03400F9D0E0C0F088F0A429D0F0D001D00022C000C001C002E58124C4
:20486000FBF8E6F918E6F88582F0A4C0E0AAF0E58388F0A42AF8E5F03400FAE98582F0A46E
:2048800028C0E0E5F03AFA74003400F8E98583F0A42AFAE5F0388AF0D083D082D002D0012F
:2048A000D00022D0E0D0F0C000C001C002C0F0C0E074F82581F9E7F809E7F922D002D0016B
:2048C000D00022C9C583C9C8C582C8221248A375F0081248C3E0A31248C3F0A3D5F0F3029F
:2048E00048BC1248A375F0081248C3E493A31248C3F0A3D5F0F20248BC1248A3C375F00879
:204900001248C3E0A3F5021248C3E03AF0A3D5F0EF0248BC1248A375F0081248C3E0A3F57D
:20492000021248C3E05AF0A3D5F0EF0248BC1248A3C375F0081248C3E0A3F5021248C3E010
:204940009AF0A3D5F0EF0248BC1248A3C375F0081248C3E0A3F5021248C3E0A39AD5F0F0BD
:204960000248BC1248A375F0081248C3E0A3F5021248C3E0A36A7007D5F0EED30248BCC360
:204980000248BCC8C0E075F008E038F0A3D5F0F9D00022D3E4024983C374FF024983C00098
:2049A000C00174FA2581F8E6F5F0088601496015088600E8F0A374FF25F0F5F074FF39F5FB
:2049C0000145F070EED001D00022C000C001C00274F92581F9E7D3601CF5F00987000987F6
:2049E00001C3E0F502A31248C3E0A31248C36A7004D5F0EED3D002D001D00022C000C00142
:204A0000C00274F82581F9E7F5F00987024A601F0987000987011248C3E0A31248C3F0A331
:204A200074FF25F0F5F074FF3AF50245F070E7D002D001D00022C000C001C00274F92581EE
:204A4000F9E76015F5F00987000987011248C3E0A31248C3F0A3D5F0F3D002D001D000225E
:204A6000C083C082E06003A380FAC3E582D0F095F0F582E583D0F095F0F58322C003C0029F
:204A8000C001C000C0E0C0F0C083C082A98174F62581F886F0188600750201750300758293
:204AA00011A2F74014C3E833F8E5F033F5F0C3EA33FAEB33FB058280E8E4C003C002C0E04A
:204AC000C0E0AA81C0F0C000C0E0C0E0A881C0E0C0E0C0E0C0E0AB81C000C001C375830446
:204AE00086F018E71995F0D583F6D001D000402BC000C001C375830486F018E795F0F719FF
:204B0000D583F585020085030175830486F018E745F0F719D583F5D001D00074FC28F8C341
:204B200075830408E613F6D583F9C00074FC2AF8C375830408E613F6D583F9D000D5829819
:204B400020D508D082D083D0F0D00074F42581F58130D508D082D083D0F0D000E8D000D0D5
:204B600001D002D00322C2D5024A7CD2D5024A7CC003C002C001C000C0E0C0F0C083C082C4
:204B8000A98174F62581F886F07401758219A2F7400A23C5F023C5F0058280F2C0E0E4C018
:204BA000E0C0E0C0E0AA81C0F0C0E0C0E0C0E0A881C0E0C0E0C0E0C0E0AB81C000C001C301
:204BC00075830486F018E71995F0D583F6D001D000402BC000C001C375830486F018E79522
:204BE000F0F719D583F585020085030175830486F018E745F0F719D583F5D001D00074FC44
:204C000028F8C375830408E613F6D583F9C00074FC2AF8C375830408E613F6D583F9D00044
:204C2000D58298D082D083D0F0D00074F42581F581E8D000D001D002D00322C006C005C031
:204C400004C003C002C001C00074F72581F886F074017C09A2F7400923C5F023C5F00C80B3
:204C6000F3FBE4FAA9F0F88582F0FDFEC3E58298E583994011C3E58298F582E58399F5831F
:204C8000EA4DFDEB4EFEC3E913F9E813F8C3EB13FBEA13FADCD620D5048D828E83D000D0E0
:204CA00001D002D003D004D005D00622C2D5024C3BD2D5024C3BE0C0E02401F0A3E0C0E0A5
:204CC0003400F0A3E0D083D0826014B4600AC000A882E2D000F582224009E493F58222E088
:204CE000F58222C000A882E6D000F582221248A375F004D31248C3E0FA3400F0EAA31248A7
:204D0000C3F0A3D5F0EE0248BC1248A375F004C31248C3E0FAA31248C3E0A36A7004D5F07E
:204D2000EFD30248BC1248A3C3E0A398E0A399E0A39400E0A394000248BC1248A3C3E0A33D
:204D400038E0A339E0A33400E0A334000248BC75F004E07004A3D5F0F9F58222A3A3A3E06B
:024D60003322FC
:044D620075C90B22E2
:204D6600C0E0C007C006C0D075D000AEDAAFDB74012EF5DAE43FF5DBD0D0D006D007D0E0B7
:204D860032C007C006C005C004C000AEDAAFDB7851EEF208EFF2784FE5E2F27850E5E3F25F
:204DA600EEB5DAE7EFB5DBE3784FE2FC08E2FD08E2FE08E28C828D838EF0D000D004D005B4
:204DC600D006D0072285E28222E4F5DAF5DBF5E4F5E5F5E6F5E7F5E275E40543D84043B87B
:204DE6000222AF82AE83ADF0FC7853EFF208EEF208EDF208ECF2124D877857C0E0E582F27F
:204E060008E583F208E5F0F2D0E008F2124D87AA82AB83AEF0FF7857D3E29AF4B3FAB3085A
:204E2600E29BF4B3FBB308E29EF4B3FEB308E29FF4FF7853C3E29A08E29B08E29E08E29F9E
:034E460050CA222D
:204E490053C07F53A1FE53BEFC3243870122AF82AE83ADF0FC785BEFF208EEF208EDF20813
:204E6900ECF290FAE4E4F090FAE5F090FAE674DFF090FAE774BEF090FAE8E054E0F090FA64
:204E8900E8E0541FF090FAE97407F090FAEAE054E0F090FAEAE0549F4420F090FAEAE05445
:204EA9007FF090FAEBE054FC4402F090FAEBE054FBF090FAEBE054F7F090FAEBE054CFF013
:204EC90090FAEBE0543F4440F0785BE2F5F008E242F008E242F008E245F0701B7B017510F0
:204EE900AD7511FC85111290FAE4E512F07AAD90FAE5EAF0024F8B785BC3E2943F08E29468
:204F09000008E2940008E29400500C785B743FF208E4F208F208F2785BE225E0F51308E23A
:204F290033F51408E233F51508E233F516E5132513F513E51433F514E51533F515E516330B
:204F4900F516747DC0E0E4C0E08513828514838515F0E516124B66785BC0E0E582F208E5F1
:204F690083F208E5F0F2D0E008F2158115817B007DA67EFC8E0590FAE4EDF07EA690FAE585
:204F8900EEF053C07F53A1FE43A11075A8A0EB7014785BE2F5F008E242F008E242F008E2CA
:204FA90045F070012253BEFBE5BE30E5FBE5C654384441F5C6E5C630E6FB43BE0453C67F91
:204FC900785BC3E2F5F074F095F008E2F5F074FF95F008E2F5F0E495F008E2F5F0E495F04B
:204FE900501B7DF07EFF785BE22410F208E23400F208E234FFF208E234FFF28011785BE204
:20500900FD08E2FE785BE4F208F208F208F2EB60067A007C0080047A107C008AA175C000DA
:2050290043D6817AE47CFA8AD48CD575D60175A204E5A570FC75A2028EA48DA3AEA5EEB56C
:20504900A50280FA43C702EB60077B0075BE07800375BE06000000E5BE5403600875D701A8
:20506900004387010053C7FDE5BE30E5FB75BE00E5BE30E5FB75C679E5BE30E6FB7E007D49
:1B50890000000DBD80FB0EBE80F575C639E5C620E6FB75C63875BE04024F97D4
:0E7FB10006060606060604070707070707046C
:2050A400AF8275BB0074304FF5B575B473E5B420E6FBE5B430E7FBAEBA7F00ADBB7C0090B2
:2050C400FAF0EC4EF0ED4FA3F08FB522C21490FAF0E0FEA3E08E82C4C582C4540F6582C5E4
:2050E40082540FC5826582C582F58374E2C0E07404C0E0124857AC82AD83AEF0FF15811575
:205104008190FAEEE0FAA3E0FB74FFC0E07407C0E08A828B83124857A882A983AAF0FB1541
:20512400811581ECC398FCED99FDEE9AFEEF9BFF747DC0E08C828D838EF0EF124818AC82C3
:20514400AD83AEF0FF1581EFC40354F8CEC403CE6ECE54F8CE6EFFEDC40354074EFEEDC4B4
:205164000354F8CCC403CC6CCC54F8CC6CFDEF30E70FD214C3E49CFCE49DFDE49EFEE49F09
:20518400FF90FAECE0C0E0A3E0C0E08C828D838EF0EF124B66AC82AD83AEF0FF158115817E
:2051A40074FF2CFC74033DFDE43EFEE43FFF74FFC0E07407C0E08C828D838EF0EF124B66E1
:1651C400AC821581158190FAF2ECF030140790FAF2C3E49CF02207
:2051DA00E58620E0FB225390FD00225380FB0022E58620E0FB004390020022E58620E0FB78
:2051FA00004380040022C007C006AF82BF64004027BF6A00502290DF097421F090DF0A74DF
:20521A003BF090DF0B7413F08F06EE249CFE90DF0675F003A4F0802F90DF097422F090DF8A
:20523A000A74BBF090DF0B7413F0BFC8004013BFE100500EEF2438FF90DF0675F00CA4F09E
:20525A00800590DF06E4F0D006D00722C00775E10490DF3BE0B401FCD007221252667F00F9
:20527A008F057EDFEFC3907A3A938D828E83F00FBF200040EB90DF237488F090DF247431BB
:20529A00F090DF257409F090DF2E748EF075911075ED00759D0075EF0322C007AF82C3EFB7
:2052BA006480946250047FE2800EC3748A8FF063F08095F050027F0A741E2FC313907A5A49
:2052DA009390DF2EF0D00722C007C006AE82AF838ED48FD575D6010000000000000000009A
:2052FA00D006D0072275D68100000000000000000022C007C006C005AE82AF831252FF8F31
:20531A000590FCB6EDF090FCB7EEF07EB47FFC8E828F831252E2D005D006D00722C007C0EE
:20533A0006C005AE82AF831252FF8F0590FCBCEDF090FCBDEEF07EBC7FFC8E828F831252A8
:20535A00E2D005D006D00722301504E5EF70012212526653C0FE43B801E5ED75F080A424A7
:20537A00F4F58274FA35F0F58312530C75E1022253B8FE1252FF12526675D10053C0FE2203
:20539A00AE82AF837CFF7DFF12538A8E828F8312533775E90075E103E5E920E42375820F3B
:2053BA00C005C0041250A4D004D00590FAF0E0FEA3E0FFC3EE9CEF9D50DE8E048F0580D83C
:2053DA001252FFC005C004125362D004D0057423C0E08C828D83124CAC15817404C0E01238
:2053FA0047F5AC82AD83158190F125ECF0EDA3F022C025C0E0C0F0C082C083C007C006C038
:20541A0005C004C003C002C001C000C0D075D000E5D130E040E5ED75F080A424F4FE74FAE9
:20543A0035F0FF53D1FE8E828F83E0FD248240200D0DED2EF582E43FF583E0FF30E711E5D4
:20545A00ED04FF8FEDBF030375ED00E5EF14F5EF125362800F746FC0E0747AC0E0125E609C
:20547A001581158153C0FED0D0D000D001D002D003D004D005D006D007D083D082D0F0D064
:20549A00E0D0253220170612538AC21522201505D21502536222E59D75F080A424F4FE7437
:2054BA00FA35F0FF8E828F83E0FD7403B5EF047582FF228D037C0074022BF9E43CFAE92EA7
:2054DA00F582EA3FF583E0FA747F5AD39494F4FABA7F0040047AFF8003EA2AFA90F0FDEA9C
:2054FA00F00BBB00010CEB2EF582EC3FF583E0A2E71324B390F0FEF00EBE00010FC005C07A
:20551A0006C00790F999124A36158115811581E59D04FF8F9DBF0303759D00D21810AF02FB
:20553A00C218E5EFFF04F5EFA21892AFEF7007C005125362D0058D8222D21910AF02C21942
:10555A00AFEF75EF03A21992AFEF70030253622205
:207A3A00D3917D044522000F0022BB131D3B1373A7650700181E1CC700B0B610EA2A001F2E
:207A5A00030506080B0E191C242527293855408D8A84CAC4C0646D612069727120756E6553
:097A7A00787065637465640A000C
:107FBF00DFD900008080131A0000DFD9207E134222
:1700E10090FC857456F090FC867412F090FC8703F090FC887485F0B2
:20556A00E58620E0FB225390FD00225380FB0022E58620E0FB004390020022E58620E0FBE4
:20558A00004380040022C007C006C005C004C003C002C001C000E5827862F27E00C21B78F6
:2055AA0063E4F2C0067863E2C0E09010001247F5AA82AB8315817864EAF208EBF2786674B8
:2055CA0004F208E4F27864E2FA08E2FBE4FCFE7404C0E0E4C0E07489C0E074FCC0E08A821D
:2055EA008B838CF0EE1207BAE58124FCF5817404C0E07485C0E074FCC0E090FC891249CA5F
:20560A00158115811581921CD006201C030256F47866E2FB08E2FCC3941040030256F4C058
:20562A000678647966E3C5F0E225F0FB09E3C5F008E235F0FAE4FCFE7402C0E0E4C0E0747F
:20564A0089C0E074FCC0E08B828A838CF0EE1207BAE58124FCF58190FC89E0F51774FFB58B
:20566A001705D0060256F4D0067862E2B5175D90FC8AE0FCBC020040531C1C8C067861C37E
:20568A00E29C50047861E2FCC0067B00785FE2F51808E2F5197864E2FD08E2FF74022DFD34
:2056AA00E43FFF7866E22DFD08E23FFA7E007F00C004C003C018C0198D828A838EF0EF12E1
:2056CA0007BAE58124FCF581D21BD00690FC8AE0FF7D007866E2FB08E2FCEF2BFBED3CFCF3
