:040000000200833245
:01000B0032C2
:0100130032BA
:01001B0032B2
:0100230032AA
:03002B00024CEE96
:01003300329A
:01003B003292
:030043000252B0B6
:03004B00024C0B59
:01005300327A
:01005B003272
:01006300326A
:01006B003262
:01007300325A
:03007B00025E0B17
:0300FA0002007E83
:03007E0002050672
:2000FD00E58620E0FB225390FD00225380FB0022E58620E0FB004390020022E58620E0FBA6
:20011D00004380040022AF8290F095E4F090F096F08F061FEE60767E0090F961E0FDBD023D
:20013D000BEE90659D93FDBDC800405990F961E0FDBD010BEE90659D93FDBDC8005046EEC0
:20015D00249DFCE43465FD8C828D83E493F582C007C006C005C004121DE3E582D004D00507
:20017D00D006D007601F90F095E0FB90F0C6E0FAC3EB9A501090F095EAF08C828D83E493FA
:20019D00FC90F096F00EBE0C005086808C90F096E0FFE06013BFC800400890F9617402F01F
:2001BD00800690F9617401F090F096E0F5822290F0F4E0FEA3E0FFC3742C9E74019F40098C
:2001DD0090F0EAE0700330015E300A0920020690F0CDE0700930031E90F0CEE0601890FC22
:2001FD006AE0FFBFFF02800B7829E4F28F821229078003123F61121FAFAD82AE83AFF090E0
:20021D00F097EDF0EEA3F0EFA3F0ED4E602D90F0F4E4F0A3F010010090F0EAE06002D20127
:20023D0090F0EAE4F0801412209AAD82AE83AFF090F097EDF0EEA3F0EFA3F0121A4390F01E
:20025D0097E0FDA3E0FEA3E0FFED4E700990F0E8E4F0A3F08059740F2DFAE43EFB8F048ACA
:20027D00828B838CF012657DFAA312657DFB90F0E8EAF0EBA3F0740D2DFAE43EFB8F048A33
:20029D00828B838CF012657D60168D828E838FF01232DCE582701890F0E8E4F0A3F0800FBF
:2002BD0074AEC0E07465C0E0125D0515811581121A8EAE82AF8390F0F4E0FCA3E0FD90F0DA
:2002DD00F4EE2CF0EF3DA3F0BE580CBF020990F0CCE06003C2002290FA62E0600E90FA62BF
:2002FD00E4F0900064E4F5F002198E90F0E8E0FEA3E0FF4E603BEF30E71F8E048F05530553
:20031D007F787CECF208EDF208E4F208F29003E8E4F5F012622F02198E787CEEF208EFF263
:20033D0008E4F208F290EA60E4F5F012622F02198E121A8EAE82AF83787CEEF208EFF208F8
:20035D00E4F208F29003E8E4F5F012622F02198E90F0D5E0FF600D8F82121DE3E58290F96C
:20037D0060F0800C758202120123E58290F960F090F960E0700920030690F0CEE0701430C8
:20039D000A0920020690F0CDE0700890F0EBE0FFBF233690FC6AE0FFBFFF02801A758202D6
:2003BD001240EDE582702290FC6AE0FF7829E4F28F82122907801290F0EBE0FFBF2300404B
:2003DD000512408C800312404990F960E0604890F0EBE4F090F0D5E0700F7582041219492C
:2003FD0012164C75820412198290F0EA74FDF0900028121926121A8EAE82AF83787CEEF200
:20041D0008EFF208E4F208F29003E8E4F5F012622F12198ED20022758201121A09AC82AD62
:20043D0083AEF0FF787CECF208EDF208EEF208EFF29003E8E4F5F012622F02198EE582FFFF
:20045D0024FA50030204EEEF2F2F90046B73024C0702047D0204940204C40204EE0204D055
:20047D0074B9C0E07465C0E0125D0515811581C20090F960E4F02290F960E0FE74C6C0E037
:20049D007465C0E0125D0515811581758204C00612194912150612164C758204121982D0D8
:2004BD000690F960EEF022123BD3900000E4F5F002198E74D6C0E07465C0E0125D051581A1
:2004DD0015817582041219491228F37582040219827E00C007C00674E6C0E07465C0E012A5
:2004FD005D05E58124FCF5812275820112194975820F124F4990FAB9E0FEA3E0FF7423C049
:20051D00E08E828F83124B5115817404C0E012469AAC82AD83158190F0ECECF0EDA3F09022
:20053D0065A9E493C0E0740193C0E09065ABE493C0E0740193C0E0740293C0E074F8C0E0BD
:20055D007465C0E0125D05E58124F9F5811255C6121B27121ADF90F0EA74FCF0AEBE53067D
:20057D00187F00BE1009BF000690F0EA74FEF0301B0C1240E7900000E4F5F012198E743D0C
:20059D00C0E074FCC0E0E4C0E07427C0E07466C0E0125D05E58124FBF5811238D6900190A5
:2005BD00E4F5F012198E7582041219491215781238BD90F0C9E06011742FC0E07466C0E030
:2005DD00125D0515811581801B7440C0E07466C0E0125D0515811581123CB5902710E4F5B2
:2005FD00F012198E90F960E0FFE0601F8F82121DE3E5827025744DC0E07466C0E0125D05A0
:20061D001581158190F960E4F0800F746BC0E07466C0E0125D051581158190F960E0700370
:20063D0012036D90F960E06007123F61D2008005124049C20075820412194912164C300072
:20065D00067E287F0080047E587F028E828F8312192630000A7C887D137E007F0080087C35
:1E067D00C07DD47E017F008C828D838EF0EF12198E3000051201CC80F812036D80F38B
:20659D00C864C965CA66CB67CC68CD6909007D66804E6F207570646174650A00434D445FAF
:2065BD00444F5F5343414E0A0052657365742073657474696E67730A0045726173696E6736
:2065DD0020696D616765730A00436D6420307825782069676E6F7265640A000A2573204F62
:2065FD0045504C2076253034782C20636F6D70696C656420417567202032203230323420B6
:20661D0030383A30333A34370A004D41432025730A00446F696E67206661737420626F6FF7
:20663D00740A004E6F726D616C20626F6F740A004E6F20415020666F756E64206F6E20733E
:20665D0061766564206368616E6E656C0A004E6F207361766564206368616E6E656C0A0087
:09667D004368726F6D6134320054
:0179EB00019A
:20069B00E58620E0FB225390FD00225380FB0022E58620E0FB004390020022E58620E0FB02
:2006BB00004380040022AC82AD83AEF0FF00C2A0007582031246078E821246078D821246AA
:2006DB00078C82024607C007C006C005C004C003C002C001C000AC82AD83AEF0FFE58124FA
:2006FB00F5F8860208860300C2A0007582031246078E821246078D821246078C82124607D4
:20071B008A068B07E58124F3F886040886058C028D031CBCFF011DEA4B60157582001246FE
:20073B0007AB828E828F83EBF0A3AE82AF8380DE00D2A000D000D001D002D003D004D005A9
:20075B00D006D00722AF8200C2A0008F8212460700D2A0002200C2A00075820512460775E6
:20077B008200124607E58220E0F500D2A00022AC82AD83AEF0FF7803E2FA08E2FBC007C0CF
:20079B0006C005C004C003C002120770758206120760D002D003D004D005D006D00700C26E
:2007BB00A0007582021246078E821246078D821246078C821246078A068B077805E2FC0857
:2007DB00E2FD8C028D031CBCFF011DEA4B60128E828F83E0FBA3AE82AF838B821246078077
:2007FB00E100D2A000221207707582B9120760C20C227582AB12076075F034D5F0FDD20C73
:20081B0022C007C006C005C004C003C002C001C000C082C083C0F0C0E005810581E5812414
:20083B00EFF88605088604E58124EDF8E608467003020915C005C004E58124F9F8860208CF
:20085B007B00E58124FDF8E4C39AF674019B08F6E58124FDF8E58124EBF9C3E79609E70819
:20087B0096D004D005500EE58124EDF8A98119E6F70809E6F77803EDF208ECF2A881187949
:20089B0005E6F30809E6F3E58124FBF886820886830886F008E6C007C006C005C004C0039A
:2008BB00C002C001C000C02512078AD025D000D001D002D003D004D005D006D007A8811880
:2008DB008602088603E4FEFFE58124FBF8EA26F6EB0836F6EE0836F6EF0836F6A88118E6F5
:2008FB002DFD08E63CFCE58124EDF8A98119E6C397F608E60997F6020842E58124FAF581DB
:20091B00D000D001D002D003D004D005D006D00722C007C006C005C004C003C002C001C0E2
:20093B0000C082C083C0F0C0E0E58124FDF88602088603EA7005EB540F6006758200020A19
:20095B0060E58124F1F8E608467003020A5D758206C007C006C005C004C003C002C001C080
:20097B0000C025120760D025D000D001D002D003D004D005D006D00700C2A000E58124F190
:20099B00F88602088603C3EA9410EB94004018E58124FDF88602088603EA4B700A7582D8ED
:2009BB001246077D1080087582201246077D01E58124FDF808088682124607E58124FDF83F
:2009DB00088682124607E58124FDF8868212460700D2A000C007C006C005C004C003C0029A
:2009FB00C001C000C025120770D025D000D001D002D003D004D005D006D007C005901000F7
:200A1B0012469AAA82AB83AEF0FF1581E58124FDF8EA26F6EB0836F6EE0836F6EF0836F653
:200A3B008D037F00E58124F1F88605088606EDC39BFDEE9FFEE58124F1F8A60508A6060253
:1C0A5B00095C758201E58124FCF581D000D001D002D003D004D005D006D0072268
:200A7700E58620E0FB225390FD00225380FB0022E58620E0FB004390020022E58620E0FB22
:200A9700004380040022C007C006C005C004AF82AE83ADF0FC90F0C2EFF0EEA3F0EDA3F023
:200AB700ECA3F0C202C203D209758204C007C006C005C004C003C002C001C000C025121915
:200AD70049D025D000D001D002D003D004D005D006D00790F0C2E0FCA3E0FDA3E0FEA3E083
:200AF700FF7416C0E0E4C0E074FAC0E074F0C0E08C828D838EF0EF1206E1E58124FCF581A0
:200B170090F0C2E0FCA3E0FDA3E0FEA3E0FF90F0C274162CF0E43DA3F0E43EA3F0E43FA306
:200B3700F090F10AE0FFBF2004C207806A90F10AE0FFBF2104D207805E90F10AE0FF7E00C1
:200B5700C007C006746EC0E0746CC0E0125D05E58124FCF58190FA757416F0E4A3F090F00F
:200B7700FA75F000C007C006C005C004C003C002C001C000C025121C96D025758204C02565
:200B9700121982D025D000D001D002D003D004D005D006D0078051C221C007C006C005C03A
:200BB70004C003C002C001C000C025125F55D025C025120C08D025D221C025125F55D025E1
:200BD700C025120C08D025758204C025121982D025C025125FA7D025D000D001D002D00344
:200BF700D004D005D006D007D004D005D006D007227F807E0090F0A0E4F0A3F090F0ACF0F0
:200C1700A3F090F0A2F0A3F05390FD007809E4F2200903020CCA30211C20071974DCC0E0AD
:200C37007405C0E0E4C0E090F0FA124843158115811581805090F0C2E0FAA3E0FBA3E0FC3E
:200C5700A3E0FD74DCC0E07405C0E074FAC0E074F0C0E08A828B838CF0ED1206E1E58124DC
:200C7700FCF58190F0C2E0FAA3E0FBA3E0FCA3E0FD90F0C274DC2AF074053BA3F0E43CA39C
:200C9700F0E43DA3F07B1E7C00C007C006C004C003123A93D003D004D006D00790F0A2E03B
:200CB7002401F0A3E03400F01BBBFF011CEB4C70D8804C74DCC0E07405C0E0E4C0E090F017
:200CD700FA1248431581158115817B1E7C00C007C006C004C0037807E2F58208E2F583122F
:200CF7000081D003D004D006D00790F0A2E02401F0A3E03400F01BBBFF011CEB4C70CF7B67
:200D1700007C00EF7003020DBC3021238E02EA2AFEEB24FAF582EC34F0F583E0FAEF5A7062
:200D370003430601EF30E02B8E82125F9980248E02EA2A25E0FEEB24FAF582EC34F0F583B8
:200D5700E0FAEF5A6003430603EF541160058E82125F99EFC313FF90F0A0E02401F0A3E07B
:200D77003400F090F0A0E0FAA3E0FDBAC814BD0011E58620E0FB00439002005380FB00024F
:200D97000D1ABA9005BD01028003020D1AE58620E0FB00438004005390FD0090F0A0E4F059
:200DB700A3F0020D1A7F800BBB00010CC3EB94DCEC94055003020D1A90F0ACE0FCA3E0FDE7
:200DD700741E2CFCE43DFD90F0ACECF0EDA3F07809E22401F27809E2B40A005003020C2779
:200DF700E58620E0FB0043900200E58620E0FB004380040022AE82AF83C202C203C209D2CA
:200E170007C2217807EEF208EFF2125F55120C08D221125F55120C08025FA7C007C006C069
:200E370005C004C003C002C001C000AD82AE83AFF0780A12657DF2A204202101B340030285
:200E57000F9990F09EE0F508A3E0F50974012DFAE43EFB8F048A828B838CF012657DFA780F
:200E77000DF208E4F2850882850983C007C006C005C004C003C002C001C000121028E58291
:200E9700D000D001D002D003D004D005D006D0076003020F9990F09CE0F508A3E0F50978A0
:200EB7000AE2F50A750B00780BE50AF208E50BF2850882850983C007C006C005C004C00369
:200ED700C002C001C000121000D000D001D002D003D00490F0A8E0F508A3E0F50990F0B0C6
:200EF700E0FBA3E0FCEBC39508F582EC9509F583787AE50AF208E50BF2C002C001C00012AB
:200F1700620FAB82AC83D000D001D002D005D006D007ECC423CBC423541F6BCB541FCB6B21
:200F3700CBFC90F0BEEBF0ECA3F074022BFBE43CFCEB2DFDEC3EFE780AE2604690F0BCE020
:200F5700FBA3E0FC90F0BC74012BF0E43CA3F0EB24FAFBEC34F0FC8B828C83E0F50A8D8267
:200F77008E838FF012657DFAA3AD82AE83E50A42028B828C83EAF0780AE2FC780A24F8F2C0
:200F970080B5D000D001D002D003D004D005D006D0072290F0AEE0FEA3E0C423CEC42354C8
:200FB7001F6ECE541FCE6ECE30E40244E0FF90F0ACE0FCA3E0FD90F0B0E0FAA3E0FBEAC34C
:200FD7009CFCEB9DFD787AECF208EDF2900032C007C00612620FAC82AD83D006D00790F0C9
:200FF700BCEC2EF0ED3FA3F022AE82AF8390F0A4EEF0EFA3F090F0AEEEF0EFA3F0780B90AC
:20101700F0A6E22EF008E23FA3F0120FAA75820022AF83E582780FF208EFF2780F790DE398
:20103700C5F0E225F0FC09E3C5F008E235F0FD90F0AAECF0EDA3F090F0A2E0FAA3E0FB8ABA
:20105700068B07780FC3E2F5F0EE95F008E2F5F0EF95F04025EA9CEB64808DF063F080957B
:20107700F05017780F90F0A8E2F008E2A3F090F0B0EAF0EBA3F07582002275820122C00782
:20109700C006C005C004C003C002C001C000AC82AD83AEF0FFE5812404F581BF2000502C8A
:2010B7008F82C007C006C005C004C003C002C001C000C025124552D025D000D001D002D026
:2010D70003D004D005D006D0070213C57E00EF24E0FFEE34FFFEEF2FFFEE33FEEF2486F56D
:2010F70082EE3466F583E493FEA3E493FF90F0BEEEF0EFA3F0EFC4540FFE90F0B6F03005BC
:2011170007EE2EFE90F0B6F090F0B4E0FEA3E0FF90F0B7E0FD780DF2ED3395E008F28E82B3
:201137008F83C007C006C005C004C003C002C001C000C025121028E582D025D000D001D06E
:2011570002D003D004D005D006D007602790F0B6E0FF3395E0FE0FBF00010E90F0B2E0FC20
:20117700A3E0FDEF2CFFEE3DFE90F0B2EFF0EEA3F00213C5A204202101B340030213C590E1
:20119700F0B2E0FEA3E0FF90F0B6E0FD780BF2ED3395E008F28E828F83C007C006C005C0EB
:2011B70004C003C002C001C000C025121000D025D000D001D002D003D004D005D006D00776
:2011D70090F0BEE0FEA3E0FF53070F90F0BEEEF0EFA3F090F0B2E0FEA3E0FF8E05530507CF
:2011F7008DF005F07D80E4FC3392D28008A2D2EC13FCED13FDD5F0F590F0B6E0FC3395E08A
:20121700FB0CBC00010BEC2EFCEB3FFB90F0B2ECF0EBA3F030055A90F0A8E0FEA3E0FF907A
:20123700F0A2E0FBA3E0FCEBC39EFEEC9FFF8E828F83788F7402F208E4F2C005C004C0031C
:20125700C002C001C000C0251264B8AE82D025D000D001D002D003D004D0058EF005F07E1C
:20127700007F808007C3EF13FFEE13FED5F0F6802FC00590F0A8E0FBA3E0FC90F0A2E0FA61
:20129700A3E0EAC39BFA8AF005F07A007D808007C3ED13FDEA13FAD5F0F68A068D07D0059A
:2012B700C006C00790F0A8E0FBA3E0FC90F0B4E0FAA3E0FFEAC39BFBEF9CFC90F0BEE0FE92
:2012D700A3E0FF90F0BEEB2EF0EC3FA3F090F0C0E4F0A3F0D007D006C006C00790F0C0E06F
:2012F700FBA3E0FC90F0B6E0FA3395E0FFC3EB9AEC9FD007D00640030213C5C006C00790EC
:20131700F0BEE58124FBF8E0F6A3E008F6E58124FBF8E626FA08E633FFEA2446F582EF34A3
:2013370067F583E58124FDF8E493F6A3E49308F6D007D006300517EB30E024E58124FDF81C
:2013570090F0BE740126F0E40836A3F08011E58124FDF890F0BE740126F0E40836A3F0A8C2
:201377008118EE56FBEF0856FC4B601F90F0BCE0FBA3E0FCEB24FAFBEC34F0FC8B828C83A9
:20139700E0FAED42028B828C83EAF0EDC313FD700E90F0BCE02401F0A3E03400F07D809092
:2013B700F0C0E02401F0A3E03400F00212EFE58124FCF581D000D001D002D003D004D005DC
:2013D700D006D00722AE82AF83A204202101B34001227409C0E0E4C0E0C0E090FAA41248FE
:2013F700431581158115818E038F047D0090FAA4EBF0ECA3F0EDA3F08E828F83124905782E
:201417000D7428F208E4F27813E2F58208E2F583C007C006121028E582D006D00760012288
:201437008E828F83124905AE82AF83787AEEF208EFF290000B12620FE5828583F02423FE34
:20145700E435F0FF7811E2FC08E2FDEE2CFEEF3DFF780BEEF208EFF27811E2F58208E2F5CF
:201477008312100090F0AEE0FEA3E05306078EF005F07E80E4FF3392D28008A2D2EF13FFD9
:20149700EE13FED5F0F590FAAAE0FFBF04012212423F501F90F0BCE0FDA3E0FFED24FAFDDE
:2014B700EF34F0FF8D828F83E0FCEE42048D828F83ECF0EEC313FE70CD90F0BCE02401F0A5
:0914D700A3E03400F07E8080BD2A
:206686000070071008500D9016601CA026A03010316037603D7044904D204F60552057802F
:2066A6005F7066706D6073507880805085708C7093709A70A120A320A570AC80B470BB70C5
:2066C600C2A0CCA0D670DD80E570EC70F370FA8002710971105115811D7124812C7133814D
:2066E6003B7142814A7151715891617168A172A17CA186A1908198519D81A551AA81B2A101
:20670600BC21BE71C571CC71D371DA71E181E971F071F741FB51007207420B9214721B7259
:2067260022722972306236623C724362499252A25C8264A26E8276627C127D6283A28D729B
:206746000000000000000000000000000000D87F0078000000000000007880009804E005EB
:20676600801E9864E005801E80648004183808640842FCFF8841F040083810442044C04498
:2067860000397002880C881088207040E0001001083A08468845C84C3838180068008001F1
:2067A6000078E00718180C300420024002400240024004200C301818E00700100018000F2E
:2067C6000072000F001800104000400040004000F807400040004000400019001E00800054
:2067E600800080008000800080001800180002000C003000C0000003000C00300040C00F97
:2068060030300840084008403030C00F082008200820F87F0800080008001860284048409C
:2068260088400843083C0840084208420842F03DC0004003400440184020F87F40004000B2
:20684600087C084408441042E041E00F10320844084408441042E00100401840E040004360
:20686600004C00500060F038084508420842084590456038001E0821884088408840302163
:20688600C01F1806180619061E06C000C0002001200110021002080420012001200120011E
:2068A600200120012001200108041002100220012001C000C00000700040D8400041004211
:2068C60000640038C00F30181820C84728486850D851E03F2000200008007000C001400E81
:2068E6004018400C4003C00030000800F81F08110811081108118812700CC003300C10080B
:2069060008100810081008100818F81F08100810081008101008E007F81F8810881088109C
:20692600881088100810F81F801080108010801080100010C003300C100808100810881033
:206946008810F818F81F80008000800080008000F81F081008100810F81F08100810081034
:206966000800081008100810F01FF81F0001800140022004200810100800F81F080008003C
:206986000800080008000800F81F001C8007E00060008003001CF81FF81F0008000680017B
:2069A60060001000F81FE007100808100810081008101008E007F81F801080108010801095
:2069C6000011000EE00710080810081008100C101208E207F81F80108010C0102011100ED6
:2069E6000800180E0812081108118810901070180010001000100010F81F001000100010D0
:206A06000010E01F18000800080008001000E01F0010000C8003600018001800E000000310
:206A2600000C00100018C0073800F0000007800370003800C0070018081010082004400286
:206A46008001800140022004100808100010000800060001F8000001000200040008001062
:206A660018102810481088100811081208140818FE7F024002400240024000400030000C50
:206A86000003C00030000C0002000240024002400240FE7F2000C0000007001C0070000EE9
:206AA600C0012000040004000400040004000400040004000400040000800040300048048B
:206AC600880488049004F8030800F87F10020804080408041006E001E00110020804080452
:206AE600080408040804E00118020804080408041002F87FE0019002880488048804880421
:206B0600880300040004F83F00240044004400440044E00119020904090409041202FC0737
:206B2600F87F00010002000400040004F803000400040064F8670100010401040164FE672E
:206B4600F87F8000C0002001200210020804004000400040F87FF807000200040004F803DC
:206B6600000200040004F803F80700030002000400040004F803E0011002080408040804E8
:206B86001002E001FF0710020804080408041006E001E00118020804080408041002FF0792
:206BA600F8070001000200040004000718038804880448044804300400040004F01F08049C
:206BC600080408040804F0070800080008001000F807000480036000180008003000C00076
:206BE600000300040006E001180070008003800170001800E0010006080410022001C000A7
:206C0600C00020011002080401040103C10062001C00180060008000000300040804180400
:206C2600280448048804080508060804800080007C3F024002400240FE7F0240024002405F
:206C46007C3F80008000C000000100010001800080004000400040008001F801080308045F
:206C6600080808040803F80164617461547970652030782578206E6F7420737570706F7213
:056C86007465640A00C2
:2014E000E58620E0FB225390FD00225380FB0022E58620E0FB004390020022E58620E0FBAF
:2015000000438004002290F0C87401F090F0C9E4F090F0CAF090F0CBF090F0CCF090F0CD1A
:2015200004F090F0CEF090F0D0E4F090F0CFF090F0D37428F0E4A3F090F0D5F090F0D174B6
:2015400028F0740AA3F090F960E4F090F961F022AD82AE8312657DFCBC011C7BC87CF08B46
:20156000828C83740EC0E0C005C0061248DB15811581158102164C227480C0E0E4C0E07424
:20158000A2C0E074FDC0E090C000E4F5F01206E1E58124FCF581740EC0E07414C0E074FE2E
:2015A000C0E090F0C81248DB15811581158190FDA2E0FCA3E0FDA3E0FEA3E0FFBCA513BD8D
:2015C0005A10BEBA0DBFAB0A90FDA6E0FFBF0102803590FDA2E0FCA3E0FDA3E0FEA3E0FF91
:2015E00090FDA6E0FB7A00C004C005C006C007C003C002748BC0E0746CC0E0125D05E581CF
:2016000024F8F58102150690FDA7E090F960F090FDA8E090F961F074B9C0E0746CC0E012E0
:201620005D051581158112179E90FDA2E4F004C0E0E4C0E074A2C0E074FDC0E090C000E42F
:20164000F5F012081CE58124FCF581227480C0E0E4C0E074A2C0E074FDC0E090C000E4F549
:20166000F01206E1E58124FCF58190FDA2E0FCA3E0FDA3E0FEA3E0FFBCA53EBD5A3BBEBA8E
:2016800038BFAB35788A74C8F20874F0F208E4F2788D740EF208E4F290FE1475F000126334
:2016A000FEE5828583F045F0700F90FDA7E0FF90F960E0FEEFB506012290FE21E0FF90F064
:2016C000D5E0FEEFB50602803EEE603BBE6400502390FE21E0FF7D00C007C00574CBC0E059
:2016E000746CC0E0125D05E58124FCF58190F0D5E4F08013BEC800400890F9617402F080A0
:201700000690F9617401F07480C0E0E4C0E0C0E090FDA2124843158115811581740EC0E00C
:2017200074C8C0E074F0C0E090FE141248DB15811581158190FDA274A5F0F4A3F074BAA3A0
:20174000F0C4A3F090FDA67401F090F960E090FDA7F090F961E090FDA8F07401C0E0E4C015
:20176000E090C000E4F5F012092C158115817480C0E0E4C0E074A2C0E074FDC0E090C000CE
:20178000E4F5F012081CE58124FCF58174E4C0E0746CC0E0125D051581158102179E90F0FF
:2017A000CCE0FF7E00C007C00674F5C0E0746CC0E0125D05E58124FCF58190F0D5E0FF7EC8
:2017C00000C007C006740EC0E0746DC0E0125D05E58124FCF58190F0D1E0FEA3E0FFC006F2
:2017E000C0077421C0E0746DC0E0125D05E58124FCF58190F0C9E0FF7E00C007C006743520
:20180000C0E0746DC0E0125D05E58124FCF58190F960E0FF7E00C007C006744AC0E0746D25
:0C182000C0E0125D05E58124FCF581228A
:206C8B004C6F616465642064656661756C74732073657474696E6773566572203078257805
:206CAB00204D61676963203078256C780A004C6F616465642073657474696E67733A0A00CF
:206CCB0049676E6F7265642066697865644368616E6E656C2025640A0053617665642073BF
:206CEB00657474696E67733A0A0020205363616E2041667465722054696D656F7574202524
:206D0B00640A00202066697865644368616E6E656C2025640A0020206261744C6F77566FD0
:206D2B006C746167652025640A002020656E61626C6546617374426F6F742025640A0020EC
:0D6D4B00204C6173742063682025640A00E9
:20182C00E58620E0FB225390FD00225380FB0022E58620E0FB004390020022E58620E0FB5F
:20184C0000438004002275F10175805875FDDD75F33875904075FE6E75F4E875A00175FFEF
:20186C0001227401C0E0E4C0E0900000E4F5F012092C158115817417C0E0E4C0E07458C099
:20188C00E0746DC0E090F0FA1248A1E58124FCF5817417C0E0E4C0E074FAC0E074F0C0E0A9
:2018AC00900000E4F5F012081CE58124FCF58122C00775E40075FC0075F70075FE0290F974
:2018CC005AE0FF54F06002800DD291758F0075F60075FD008012758F8575F62F75FD85752B
:1418EC00FE2F53807A5390D075F30075F40075F500D0072287
:176D58005612098501084A43000000002303080904EC0212045A0AF5
:027FFE005E6DB6
:20190000E58620E0FB225390FD00225380FB0022E58620E0FB004390020022E58620E0FB8A
:20192000004380040022AE82AF837D00BD08005017ED75F002A424D6F58274F035F0F58349
:20194000EEF0EFA3F00D80E422E582FF30E025125916C007124C74D2AF1218521246031275
:20196000511AD00775820A12515990F960E0FEF5821250A5EF30E209124630200C03020858
:201980000D22E58230E206300C0302080122AF82AE83ADF0FC90F0F6EFF0EEA3F0EDA3F0DC
:2019A000ECA3F090F0F6E0FCA3E0FDA3E0FEA3E0FFC004C005C006C007746FC0E0746DC099
:2019C000E0125D05E58124FAF581300C16758204C007C006C005C004121982D004D005D030
:2019E00006D007C007C006C005C004125F3BD004D005D006D0071218BC8C828D838EF0EF81
:201A0000124CFC758201021949E582FF601090F0EBE0FFBFFF00500690F0EBEF04F090F00E
:201A2000EBE0FFBF18005007900E10E4F5F022BF24005007901C20E4F5F02290518075F05E
:201A400001E42290F0E7E0787AF208E4F290023012620F7867740EF208E4F2126038AE8226
:201A6000AF8374282EFEE43FFF90F0E6E054077D0025E0FCED33FDEC24D6F582ED34F0F5AB
:201A800083EEF0EFA3F090F0E6E02401F0227E007F007D00BD0800501DED75F002A424D648
:201AA000F58274F035F0F583E0FBA3E0FCEB2EFEEC3FFF0D80DEEFC423CEC423541F6ECE6E
:201AC000541FCE6ECEFF90F0D3E0FCA3E0FDC3EE9CEF9D50058C828D83228E828F83229099
:201AE000FABBE0FF3395E0FEC007C0067484C0E0746DC0E0125D05E58124FCF58190F0C650
:201B0000E0FF7E0090F0C7E0FD3395E0FCC007C006C005C004748FC0E0746DC0E0125D05F2
:201B2000E58124FAF5812275820E124F49124F7575820F124F4990FAB9E0FEA3E0FF74231A
:201B4000C0E08E828F83124B5115817404C0E012469AAC82AD83158190F0F2ECF0EDA3F0B3
:201B6000C20A90F0D1E0FEA3E0FFC3EC9EED9F5004D20A803A90F0EEE0FCA3E0FD4C60139C
:201B8000C3EC9EED9F500C90F0F2ECF0EDA3F0D20A801C90F0F0E0FCA3E0FD4C6011C3EC92
:201BA0009EED9F500A90F0F2ECF0EDA3F0D20A90F0F0E0C0E0A3E0C0E090F0EEE0C0E0A353
:201BC000E0C0E090F0F2E0C0E0A3E0C0E090F0ECE0C0E0A3E0C0E074A0C0E0746DC0E0121A
:091BE0005D05E58124F6F5812282
:206D6F00536C656570696E6720666F7220256C64206D730A0054656D7020256420430A009B
:206D8F00525353492025642C204C51492025640A00426174745620426F6F742025642C208B
:1A6DAF006E6F772025642C2054782025642C207570646174652025640A008A
:0500DC00781574FFF22D
:201BE900E58620E0FB225390FD00225380FB0022E58620E0FB004390020022E58620E0FB9F
:201C0900004380040022121C65E582600790F973E0F58222121C2FE582600790F977E0F5FC
:201C290082227582002290F962E05407FFBF012890F963E003035403FFBF031C90F963E0FF
:201C490023235403FFBF031090F962E023235401FFBF0104758201227582002290F962E0E6
:201C69005407FFBF012390F963E003035403FFBF021790F963E023235403FFBF030B90F960
:201C890062E020E6047582012275820022AFF0AE83E58290FA77F0EEA3F0EFA3F090FA7790
:201CA900E0FDA3E0FEA3E0FF90FA75E0FBA3E0FC79007A00C3E99BEA9C5052E94A6016E9EE
:201CC900540F6002800F74C9C0E0746DC0E0125D0515811581C003C004E92DF8EA3EFB8F62
:201CE9000488828B838CF012657DF87C00C000C00474CBC0E0746DC0E0125D05E58124FCFD
:201D0900F58109B900010AD004D00380A774C9C0E0746DC0E0125D051581158122AFF0AE3C
:201D290083E5827817F208EEF208EFF2781AE4F27B017816C3E2F5F0EB95F050227817E20F
:201D4900FA08E2FC08E2FFEB2AFAE43CFC8A828C838FF012657DFA781AE22AF20B80D37898
:201D690017E2FD08E2FE08E2FF8D828E838FF012657DFD781AE2B50503D38001C3E433F5AF
:201D89008222AFF0AE83E582781CF208EEF208EFF2781FE4F27B01781BC3E2F5F0EB95F092
:201DA9005022781CE2FA08E2FC08E2FFEB2AFAE43CFC8A828C838FF012657DFA781FE22A13
:201DC900F20B80D3781CE2FD08E2FE08E2FF8D828E838FF0781FE20261F4E5812404F581F3
:201DE900AF82C218C007125343D0078F821250A5C0071253F8D218125343D0077E01EE2453
:201E0900FC5003021F0D90F9E27414F0C007C00612391D90F9F474EDF090F9E212523FD0B8
:201E290006D007124C2CAA82AB83ACF0FD90FA7A74A62AF0740E3BA3F0E43CA3F0E43DA340
:201E4900F0C006124C2CAA82AB83ACF0FD90FA7AE58124FCF8E0F6A3E008F6A3E008F6A349
:201E6900E008F6E58124FCF8C3EA96EB0896EC0896ED0896D0064003021F09C007C006123A
:201E89005355AD82D006D007C374818DF063F08095F050AD90F978E0FDB507A5C007C0065F
:201EA900121C0FAD82D006D007BDEE95C007C006121C2FE582D006D00760867408C0E0744C
:201EC9006FC0E074F9C0E090F94D1248DB15811581158190F965E0FCA3E0FD90F955ECF00C
:201EE900EDA3F08F047D00C004C00574D1C0E0746DC0E0125D05E58124FCF5818F82802039
:201F09000E021E078F057E00C005C00674DBC0E0746DC0E0125D05E58124FCF5817582000F
:201F2900E58124FCF5812290F9E2742AF012391D90F9F474E5F090F9FB7483F090F0EAE09E
:201F490090F9FCF090F0C7E090F9F7F090F0C6E090F9F6F090FABBE090F9F8F090F0F2E0EF
:201F6900FEA3E0FF90F9F9EEF0EFA3F090F9FDE4F09065A993FE740193FF90F9FEEEF0EF12
:201F8900A3F090F960E090FA00F090F0D0E090FA01F0781B7415F290F9F575F000121D8B0C
:201FA90090F9E202523FD218125343121B27121ADF7F007820E4F27820E2B40E00400302BB
:201FC900208DC007121F30D007124C2CAA82AB83ACF0FD74882AF52674133BF527E43CF59B
:201FE90028E43DF529C007124C2CAC82AD83AEF0FFC3EC9526ED9527EE9528EF9529D007E3
:202009004003022080C007125355AE82D007C374818EF063F08095F050CBC007121C0FAEEF
:2020290082D007BEE6BF78167411F290F97875F000C007121D26E582D00760A97408C0E0F1
:20204900746FC0E074F9C0E090F94D1248DB15811581158190F96575F00012657DFDA31221
:20206900657DFE90F955EDF0EEA3F090F0E7EFF090F97875F000227820E22401F27820E262
:20208900FF021FC090F0E7740EF090000075F00022D2181253437F007821E4F27821E2B4B8
:2020A9000E00400302218190F9E27414F090F9F474E3F0C00712391D90F9E212523FD00767
:2020C900124C2CAA82AB83ACF0FD74882AF52A74133BF52BE43CF52CE43DF52DC007124CAA
:2020E9002CAC82AD83AEF0FFC3EC952AED952BEE952CEF952DD0075072C007125355AE82EB
:20210900D007C374818EF063F08095F050CEC007121C0FAE82D007BEE6C278167411F2902D
:20212900F97875F000C007121D26E582D00760AC7408C0E0746FC0E074F9C0E090F94D12C6
:2021490048DB15811581158190F96575F00012657DFDA312657DFE90F955EDF0EEA3F090EC
:20216900F0E7EFF090F97875F000227821E22401F27821E2FF0220A590F0E7740EF09000DC
:202189000075F00022AFF0AE83E5827822F208EEF208EFF27822E22402FA08E23400FB085E
:2021A900E2FC8A828B838CF012657DF52E852E2F75300090FA63E0F531AE317F00E52FC3DC
:2021C9009EFEE5309FFF787AEEF208EFF2900063C004C003C00212620FAE82AF83D002D029
:2021E90003D0048E2F8F3090FA7EE52FF0E530A3F07822E22401FD08E23400FE08E2FF8D9F
:20220900828E838FF012657DFD90F926E0FFEDB50702800122E52E24D5500122C3E52E95EC
:20222900315001227463252FFEE43530FFC374239E74089F5001227822E2FD08E2FE08E2AF
:20224900FF78167466F28D828E838FF0C004C003C002121D26E582D002D003D0047003028A
:2022690023027822E22403FD08E23400FE08E28D2F8E3090FA7EE0FEA3E0FFEE24FAFEEFAF
:2022890034F0FF8E828F837463C0E0E4C0E0C02FC0301248A1E58124FCF5818A828B838C79
:2022A900F012657DFA7F00788F7408F208E4F28A828F83C007C0021264B8AD82AE83D0025E
:2022C900D007ED2428FDEE34F9FE5302078AF005F07401800225E0D5F0FBF4FA8D828E833A
:2022E900E052028D828E83EAF074E8C0E0746DC0E0125D05158115812274EAC0E0746DC0C9
:20230900E0125D051581158122AF82AE83ADF0FC7825EFF208EEF208EDF208ECF290FA63F7
:20232900E0FB7A0090F926E0FF7E00C003C002C007C00674FBC0E0746DC0E0125D05E581B7
:2023490024FAF581D218125343124C2C85823285833385F034F5357825797CE22414F308D6
:20236900E2340009F308E2340009F308E2340009F3900019E4F5F012622FAA82AB83AEF001
:20238900FFEA2532F532EB3533F533EE3534F534EF3535F535124C2CAA82AB83AEF0FFC30B
:2023A900EA9532EB9533EE9534EF9535503C125355AF82C374818FF063F08095F050D61202
:2023C9001C0FAF82BFE8CE90F97875F00012218E7F00EF2428FDE434F9FE8D828E83E070C6
:2023E900060FBF060040EBBF06AB74C9C0E0746DC0E0125D0515811581C21812534302538A
:20240900F890F979E4F0A3F090F97875F00022742AC0E0E4C0E0C0E090F9E21248431581CA
:202429001581158190F9E2742AF090F947E0600890F9F874E4F0800690F9F874E7F07408BF
:20244900C0E07457C0E074F9C0E090F9F01248DB1581158115817408C0E0744DC0E074F901
:20246900C0E090F9E81248DB15811581158190F9E3E054F84401F090F9E3E054C74440F0A3
:2024890090F9E4E0440C54CF44C0F090F95FE0FF04F090F9E5EFF090F955E0FEA3E0FF90A9
:2024A900F9E6EEF0EFA3F07DF97EF98D828E837411C0E0741DC0E074F9C0E01248DB158199
:2024C900158115817DF97EF97F00781B7411F28D828E838FF0121D8B90F9E202523FE58194
:2024E9002404F581D2181253431253F87F00BF1E0040030225CAC007122418D007124C2C40
:20250900AB82AC83ADF0FE90FA8074642BF0749F3CA3F0740B3DA3F0E43EA3F0C0071253AC
:2025290055AE82D007C374818EF063F08095F05051C007121C0FAE82D007BEE8028028BEEE
:20254900E9028005BEEC33802978167403F290F97875F000C007121D26E582D007602390B2
:20256900F97875F000806312240AAC82AD83AEF0805890000075F000805090000075F000CB
:202589008048C007124C2CC8E58124FCC8A68208A68308A6F008F690FA80E0FAA3E0FDA307
:2025A900E0FEA3E0FFE58124FCF8C3E69A08E69D08E69E08E69FD00750030225250F0224A2
:2025C900F712240AAD82AE83AFF0E58124FCF58122741BC0E0E4C0E0C0E090F9E212484343
:2025E90015811581158190F9E27419F090F9F874EAF07408C0E07457C0E074F9C0E090F93C
:20260900F01248DB1581158115817408C0E0744DC0E074F9C0E090F9E81248DB158115816E
:20262900158190F9E3E054F84401F090F9E3E054C74440F090F9E4E0440C54CF44C0F0900F
:20264900F955E0FEA3E0FF90F9E6EEF0EFA3F090F95FE0FF04F090F9E5EFF090F9E202522D
:202669003FD2181253437F00BF10005070C0071225DAD007124C2C85823A85833B85F03C04
:20268900F53DC007124C2C85823685833785F038F539E536C3953AFAE537953BFCE5389516
:2026A9003CFDE539953DFEC3EA94A6EC940EED9400EE9400D0075022C007125355AE82D0A8
:2026C90007C374818EF063F08095F050B5C007121C0FAE82D007BEEBA9220F808B22AF826B
:2026E900787CEFF208E4F208F208F290B000E4F5F012622FAC82AD83AEF0FF74902DFD74E1
:20270900013EFEE43F8C828D838EF022AD82AE83AFF07C007B00BB150040030227A4C004F8
:202729008B82C007C006C005C0031226E7A882A983AAF0FCD003D005D006D0077416C0E0E4
:20274900E4C0E074FAC0E074F0C0E0888289838AF0EC1206E1E58124FCF581746BC0E07476
:20276900FCC0E090F102124BAE15811581920ED004300E218D008E018F027408C0E0C0009E
:20278900C00190F0FA12486F158115811581920E50038C82220B8B0402271F7582FF22AF9E
:2027A900825307F87E007D00BD15004003022830C0068D82C007C0051226E7AA82AB83AC4C
:2027C900F0FED005D0077416C0E0E4C0E074FAC0E074F0C0E08A828B838CF0EE1206E1E534
:2027E9008124FCF581746BC0E074FCC0E090F102124BAE158115819228D006302823C0069F
:2028090090F10FE0FC5304F87B008F027E00ECB50206EBB506028004D0068005D0068E8254
:20282900220D8D060227B17582FF221226E7AC82AD83AEF0FF7416C0E0E4C0E074FAC0E005
:2028490074F0C0E08C828D838EF0EF1206E1E58124FCF58190F10FE0F58222AF828F060E0E
:20286900EE24EA50027E00EEB507038E82228E82C007C0061226E7AA82AB83ACF0FDD0061F
:20288900D0077416C0E0E4C0E074FAC0E074F0C0E08A828B838CF0ED1206E1E58124FCF5A1
:2028A90081746BC0E074FCC0E090F102124BAE15811581922850A890F10FE0FD5305F87C5A
:2028C90000BD789BBC00988E82221226E7AC82AD83AEF0FF740BC0E0E4C0E08C828D838E30
:2028E900F0EF12092C15811581227F00BF1500500C8F82C0071228D3D0070F80EF22AF821F
:202909008F057E00C005C006740AC0E0746EC0E0125D05E58124FCF5818F821226E7020AC5
:202929009D782AE4F208F208F208F27B00BB150040030229C98B82C0031226E785823E8550
:20294900833F85F040F541D0037416C0E0E4C0E074FAC0E074F0C0E0853E82853F838540DD
:20296900F0E5411206E1E58124FCF581746BC0E074FCC0E090F102124BAE15811581920F59
:20298900503AC00390F10BE0FAA3E0FBA3E0FEA3E0FF782AC3E29A08E29B08E29E08E29F83
:2029A900D003501890F10B782AE0F2A3E008F2A3E008F2A3E008F290F94CEBF00B02293640
:2029C900782AE2F58208E2F58308E2F5F008E222AF82AE83D21090F926E0FD7C007B007A75
:2029E900008C44EBC454F0C544C4C5446544C54454F0C5446544F545EDC4540F4544F5447D
:202A0900EDC454F0F543754200300D167834E542F208E543F27401254408F2E4354508F25F
:202A290080497815E2F582C007C0061226E785824685834785F048F549D006D0077416253F
:202A490046F546E43547F547E43548F548E43549F5497834E5462542F2E547354308F2E55F
:202A690048354408F2E549354508F290FA877405F090FA63E4F090F94704F0782EEFF20862
:202A8900EEF27406C0E0E4C0E0C0E090F92812484315811581158190FA87E0FB14F0EB70B4
:202AA90003022E1B101003022B6A782EE2FA08E2FB8A828B8378677463F208E4F212603854
:202AC900AA8290FA84EAF0782EE2FB08E2FF8B828F8378887463F208E4F2C00212637BE510
:202AE900828583F0D00245F0600690FA84EA04F090FA84E024EA500690FA847415F090FA97
:202B090063E0FB7A0090FA84E0FFC3EA9F50528B067F00788F7408F208E4F28E828F83C0D4
:202B290007C006C003C0021264B8AC82AD83D002D003D006D007EC2428FCED34F9FD5306B8
:202B4900078EF005F07401800225E0D5F0FBFE8C828D83E0FF42068C828D83EEF00B0A8062
:202B6900A41224E7AA82AB83AFF0EA4B7003F582220ABA00010B8A828B838FF012657DFEF6
:202B8900A312657DFF4E60428E048F05C3EC9423ED9400501A787CEEF208EFF208E4F2088C
:202BA900F2900019E4F5F012622F124C8D801BEC24F6FCED34FFFD7F007E008C828D838FB6
:202BC900F0EE12198ED218125343900122E4F5F012231278387401F290FA63E0FF7E00900F
:202BE900FA84E0FDC3EE9D505E8F047D00788F7408F208E4F28C828D83C007C006C005C0E2
:202C0900041264B8AA82AB83D004D005D006D007EA2428F582EB34F9F5835304078CF005AD
:202C2900F07C017D008006EC2CFCED33FDD5F0F7E0FB7A005204EA5205EC4D60067838E40F
:202C4900F280040F0E80987838E27003022DE090FA84E0787AF208E4F290006312620FAED8
:202C690082AF837832EEF208EFF290FA8874FAF074F0A3F0E4A3F090FA63E0704B90F0FA44
:202C8900E0FCA3E0FD782EECF208EDF290F0FCE0FCA3E0FD7830ECF208EDF290FA85E4F03C
:202CA900A3F07832E2FC08E2FDEC24FCFCED34FFFD7832ECF208EDF290FA88740424FAF0DD
:202CC900E434F0A3F0E4A3F0782EE2FC08E2FD7832C3E2F5F0EC95F008E2F5F0ED95F05038
:202CE9000A782E7932E2F308E209F3782EE2FC08E2FD7832D3E29CF4B3FCB308E29DF4FD81
:202D0900782EECF208EDF275820412194990FA88E0F546A3E0F547A3E0F548AA46AF4778C6
:202D290032E2C0E008E2C0E0C002C0077834E2F58208E2F58308E2F5F008E212081CE58107
:202D490024FCF5817582041219827832E2FA08E2FD7E007F007834E22AF208E23DF208E215
:202D69003EF208E23FF2AD46AE47AF487832E2F54608E2F547AA46AC47154674FFB5460285
:202D89001547EA4C60368D828E838FF012657DFCA3AD82AE838C4275430090FA85E0FAA35E
:202DA900E0FC8A4A8C4BAB42AC43EB254AFBEC354BFC90FA85EBF0ECA3F080B990FA84E05A
:202DC900FF90FA63E02FF0782EE2FE08E2FF4E60067838E4F2D21090F947E4F07838E270CE
:202DE90003022AA07830E2FE08E2FF90FA85E0FCA3E0FDEEB50406EFB5050280117424C0DE
:202E0900E0746EC0E0125D051581158180047582012275820022AFF0AE83E58290FA8FF0B0
:202E2900EEA3F0EFA3F090FA8FE0FDA3E0FEA3E00DBD00010E8D828E837408C0E07437C00C
:202E4900E074F9C0E012486F1581158115819211501490F93FE0FCA3E0FDA3E0FEA3E0FFC3
:202E6900EC4D4E4F707590F926E4F090FA8FE0FDA3E0FEA3E0FF74012DFAE43EFBC002C0D7
:202E89000390F91E12477115811581740D2DFAE43EFB8F048A828B838CF012657DFA90F924
:202EA90027F07411C0E0C005C00690F9361248DB1581158115817408C0E0E4C0E09000005C
:202EC90075F001E412092C1581158190F93FE0FEA3E0FF90FA8DEEF0EFA3F090F93FE0FCE9
:202EE900A3E0FDA3E0FEA3E0FFEC4D4E4F7003022F79C3E49C74109DE49EE49F500B90FA05
:202F09008BE4F07410A3F0800890FA8BECF0EDA3F0D20D90FA8BE0FEA3E0FF8E828F8312B1
:202F290029D9E582604690F926E0FF0F90F926EFF090F93FE0FCA3E0FDA3E0FEA3E0FF9097
:202F4900FA8BE0FAA3E0FB8A008B01E4FAFBECC398FCED99FDEE9AFEEF9BFF90F93FECF023
:202F6900EDA3F0EEA3F0EFA3F0022EE47582002275820122AFF0AE83E58290FA94F0EEA3A8
:202F8900F0EFA3F090FA94E0FDA3E0FEA3E0FF74012DFAE43EFB8F048A828B837408C0E036
:202FA9007437C0E074F9C0E012486F1581158115819212504090F944E0FC740E2DFDE43E7A
:202FC900FE8D828E838FF012657DFDECB5052690F93FE0FCA3E0FDA3E0FEA3E0FFEC4D4EE0
:202FE9004F6012743CC0E0746EC0E0125D051581158102318775820412194990F94C7839E6
:20300900E0F290FA94E0FCA3E0FDA3E0FE740E2CFAE43DFB8E078A828B838FF012657DFAFA
:2030290054FC60317839E2FB7F00C003C007744FC0E0746EC0E0125D05E58124FCF581902A
:20304900FA757411F0E4A3F08C828D838EF0121C967839E4F290F94CE02401F0FFBF150088
:20306900400590F94CE4F090F94CE0FF7839E2B507197582041219827473C0E0746EC0E08C
:20308900125D0515811581758201228F821226E7AC82AD83AEF0FF7416C0E0E4C0E074FA26
:2030A900C0E074F0C0E08C828D838EF0EF1206E1E58124FCF581746BC0E074FCC0E090F1D3
:2030C90002124BAE158115819212500890F10FE054F8708190F94CE0FF7815F28F82122689
:2030E900E7AC82AD83AEF0FF740BC0E0E4C0E08C828D838EF0EF12092C1581158175820449
:203109001219827815E2FE7F00C006C007747DC0E0746EC0E0125D05E58124FCF58190F974
:2031290026E4F090FA94E0FDA3E0FEA3E0FF74012DFAE43EFBC002C00390F91E12477115CA
:20314900811581740D2DFAE43EFB8F048A828B838CF012657DFA90F927F07411C0E0C005E9
:20316900C00690F9361248DB15811581158190F93FE0FEA3E0FF90FA92EEF0EFA3F090F99D
:203189003FE0FCA3E0FDA3E0FEA3E0FFEC4D4E4F700302321EC3E49C74109DE49EE49F5034
:2031A9000B90FA8BE4F07410A3F0800890FA8BECF0EDA3F090FA8BE0FEA3E0FF8E828F836B
:2031C9001229D9E582604A90F926E0FF0F90F926EFF090F93FE0F54CA3E0F54DA3E0F54E22
:2031E900A3E0F54F90FA8BE0FAA3E0FBE4FEFFE54CC39AFAE54D9BFBE54E9EFEE54F9FFFC0
:2032090090F93FEAF0EBA3F0EEA3F0EFA3F0023187758200227582041219497437C0E07481
:20322900F9C0E090F0FA1247711581158190F1027421F07447A3F0744DA3F07447A3F090F4
:20324900F948E02401F0A3E03400F0A3E03400F0A3E03400F090F948E0FCA3E0FDA3E0FE8C
:20326900A3E0FF90F10BECF0EDA3F0EEA3F0EFA3F090FA92E0FEA3E0FF7D007C0090F106DC
:20328900EEF0EFA3F0EDA3F0ECA3F090F943E090F10AF090F944E090F10FF07815E2F5828C
:2032A9001226E7AC82AD83AEF0FF7416C0E0E4C0E074FAC0E074F0C0E08C828D838EF0EFA0
:2032C90012081CE58124FCF58175820412198275820122AFF0AE83E58290FA98F0EEA3F027
:2032E900EFA3F0C20D90FA98E0F553A3E0F554A3E0F555740D2553FAE43554FBAC558A8229
:203309008B838CF012657DFCBC02028024BC0303023664BC10028019BC20028014BC2102B0
:20332900800FBCA803023557BCAF030236440236DA90FA98E0FFA3E0FEA3E0FD7550977531
:2033490051FA755200740E2FF553E43EF5548D558553828554838555F012657DFB85508246
:203369008551838552F01261F490FA97E020E20302343B758204C007C006C005121949D0B5
:2033890005D006D00790FA97E0C423541FFB603CBB0F02806C8553828554838555F01265D1
:2033A9007DF582C007C006C0051227A8AB82D005D006D007BBFF0280488B82C007C006C050
:2033C900051228D3D005D006D007803574012FF553E43EF5548D558553828554838555F0E2
:2033E900C007C006C005122715AB82D005D006D007BBFF02800B12266A783A7401F202353C
:2034090051758204C007C006C005121982D005D006D0078F828E838DF0122F7DE582600BA7
:2034290012266A783A7401F2023551783AE4F202355174012FF553E43EF5548D55855350CF
:203449008554518555528550828551837408C0E0742EC0E074F9C0E012486F1581158115E8
:20346900819213500B12266A783A7401F2023551758204C007C006C00512194985538285DF
:2034890054838555F0122715AC82758204C004121982D004D005D006D007BCFF028051C0F6
:2034A90007C006C005C00412266AD004D005D006D0078F538E548D55AA53AB547411C0E0EE
:2034C900C002C00390F9361248DB15811581158190F93FE4F0A3F0A3F0A3F090FC6AECF081
:2034E90090FA97E054037829F28C82122907803D748BC0E0746EC0E0125D05158115818F7B
:20350900828E838DF0122F7DE582601B12266A7815E2FB90FC6AF090FA97E054037829F215
:203529008B821229078006783AE4F2801B90F937E0FAA3E0FBC002C00390F92E1247711557
:20354900811581783A7401F2783AE2F5822290F93FE0FAA3E0FBA3E0FEA3E0FFEA4B4E4F10
:20356900702F74012553FDE43554FEAF558D828E837408C0E07437C0E074F9C0E012486FED
:203589001581158115819213500712266A7582012290F926E4F090FA98E0F550A3E0F55115
:2035A900A3E0F55274012550FAE43551FBC002C00390F91E12477115811581740D2550FDDA
:2035C900E43551FEAF528D828E838FF012657D90F927F0AD50AE517411C0E0C005C006900A
:2035E900F9361248DB15811581158174092550FDE43551FEAF528D828E838FF012657DFDB4
:20360900A312657DFE8D828E831229D9E582602790F93FE4F0A3F0A3F0A3F075820412196F
:203629004990F0FE75F00012155075820412198212266A758201227582002212266A740E3D
:203649002553FDE43554FEAF558D828E838FF012657DF58212045A758201227582041219C3
:20366900498553828554838555F0122E1FE582605C12266A7582041219491236F5300D1259
:20368900123CF090001975F001E41206C11258D580567493C0E0746EC0E0125D05158115BA
:2036A9008175820412198290FA627401F090F0EA74E0F0123D697408C0E0E4C0E0C0E09051
:2036C900F92E124843158115811581801B758200227F00C004C00774B0C0E0746EC0E01245
:2036E9005D05E58124FCF58175820022783FE4F208F208F208F2C20D7419C0E0E4C0E074DB
:20370900A2C0E074FDC0E090000075F001E41206E1E58124FCF581783B7419F208E4F20866
:2037290004F208E4F29065AB93FD740193FE7402937406C0E0C005C00690FDAB12486F15B2
:2037490081158115819214500790F0947405F0229065ABE493FD740193FE7402937409C0B7
:20376900E0C005C00690FDAB12486F1581158115819214500790F0947402F02290FDAAE062
:20378900FFBF0102800790F0947401F02290FDA8E0FEA3E0FFC3E49E74809F500790F09465
:2037A9007403F02290FDA8E0FEA3E0FF4E700302386990FDA8E0FEA3E0FFC374239E740875
:2037C9009F50047E237F08C006C00774FAC0E074F0C0E0783BE2F58208E2F58308E2F5F0E9
:2037E90008E21206E1E58124FCF58190FA9B74FAF074F0A3F0E4A3F090FA9EEEF0EFA3F068
:20380900783FE2F58208E2F58308E2F5F008E2C007C006123942783FC0E0E582F208E5833A
:20382900F208E5F0F2D0E008F2D006D0078E028F037C007D00783BE22AF208E23BF208E29A
:203849003CF208E23DF290FDA8E0FCA3E0FDECC39EFEED9FFF90FDA8EEF0EFA3F00237AD36
:2038690090FDA2E0FCA3E0FDA3E0FEA3E0FF783FE2B5041108E2B5050C08E2B5060708E208
:20388900B50702800790F0947404F02290FDA6E0FEA3E0FF90F092EEF0EFA3F0C006C007AA
:2038A90074D0C0E0746EC0E0125D05E58124FCF581D20D2212292AAC82AD83AEF0FF90F93F
:2038C90048ECF0EDA3F0EEA3F0EFA3F0227408C0E07457C0E074F9C0E090FA6D1248DB1541
:2038E900811581158190FA64E054F84421F090FA65E054F344C8F090FA677437F07413A3DB
:20390900F090FA6974FFF0A3F090FA6B7437F07413A3F0227411C0E07464C0E074FAC0E04E
:2039290090F9E31248DB15811581158190F95FE0FF04F090F9E5EFF022AC82AD83AEF0FFF6
:203949007843ECF4F2EDF408F2EEF408F2EFF408F290FA9BE0F55AA3E0F55BA3E0F55C90B2
:20396900FA9EE0F556A3E0F557855658855759155674FFB556021557E55845597003023A63
:2039890040855A82855B83855CF012657DFEA385825A85835B8E047D007E007B007843E24B
:2039A9006CF208E26DF208E26EF208E26BF2784BE4F208F2784BC3E2940808E2648094804D
:2039C90050A77843E25401FA08E25400FB08E25400FC08E25400FE7847C3E49AF2E49B08D3
:2039E900F2E49C08F2E49E08F27846E2C313F56018E213F55F18E213F55E18E213F55D7873
:203A090047E25420FC08E25483FD08E254B8FE08E254EDFA7843EC655DF2ED655E08F2EE3A
:203A2900655F08F2EA656008F2784BE22401F208E23400F20239BD7843E2F4FB08E2F4FCEC
:0E3A490008E2F4FD08E2F48B828C838DF022FB
:206DC9000A002530327820004150206F6E2025640A004E6F204150206F6E2025640A002EF4
:206DE90000636865636B435243206661696C65640A00524551202564207061727420256414
:206E09000044726177696E6720696D61676520696E20736C6F742025640A00626C6B20662F
:206E290061696C65642076616C69646174696F6E210A0072657374617274696E6720696D9B
:206E49006720646C0A004368616E67696E67207374617274696E67536C6F742066726F6DA7
:206E690020256420746F20300A004E6F20736C6F74730A006E657720646C20746F20256401
:206E89000A00646C20696D670A004F544120696D6167652076616C69646174696F6E2066D0
:206EA90061696C65640A00646174615479706520307825782069676E6F7265640A00436862
:206EC900726F6D613432004F54412076616C6964617465642C207570646174696E672074A6
:0F6EE9006F2076657273696F6E202530780A000E
:0579EC00FF21474D479B
:203A5700E58620E0FB225390FD00225380FB0022E58620E0FB004390020022E58620E0FB12
:203A770000438004002290F0B4748EF0E4A3F030050990F0B47486F0E4A3F02290F960E0EB
:203A9700704590F0CEE0603FC20490F09C7478F07401A3F090F09E7406F0E4A3F09074CAFA
:203AB70075F080120E32D20490F09C7480F023A3F090F09E740DF0E4A3F09074EC75F08051
:203AD700120E32D2038002C203300A2890F0CDE06022C20490F09C7478F07401A3F090F00A
:203AF7009E741CF07401A3F09074F675F080120E32D20222C2022212411012412C740EC058
:203B1700E07475C0E0124417158115817411C0E07475C0E01244171581158190F0B2E0FE35
:203B3700A3E0FF90FAA0EEF0EFA3F0742FC0E07475C0E012441715811581743DC0E07475C3
:203B5700C0E0124417158115817455C0E07475C0E012441715811581746FC0E07475C0E07E
:203B7700124417158115817486C0E07475C0E01244171581158190FAA0E0FEA3E0FF90F0CF
:203B9700B2EEF0EFA3F0123BF3740EC0E07475C0E01244171581158190FAA0E0FEA3E0FFEE
:203BB70090F0B4E0FCA3E0FD7811EEF208EFF27813ECF208EDF290FC3D0213DC75820512F4
:203BD70040EDE582600122749BC0E07475C0E0125D0515811581903B0E020E0C743DC0E099
:203BF70074FCC0E0E4C0E074A7C0E07475C0E0124417E58124FBF581229065A9E493C0E097
:203C1700740193C0E074B3C0E07475C0E0124417E58124FCF5812212411012412C74C2C032
:203C3700E07475C0E012441715811581123C1090F0ECE0C0E0A3E0C0E074D7C0E07475C06A
:203C5700E0124417E58124FCF58190FABBE0FF3395E0FEC007C00674E5C0E07475C0E01219
:203C77004417E58124FCF581123BF3740EC0E07475C0E01244171581158190F09AE0FEA3B7
:203C9700E0FF90F0B4E0FCA3E0FD7811EEF208EFF27813ECF208EDF290FC3D0213DC75824B
:203CB700011240EDE582600122121B27903C2E020E0C12411012412CC205123A7D90F092D5
:203CD700E0C0E0A3E0C0E074F8C0E07475C0E0124417E58124FCF58122903CC9020E0C1247
:203CF700411012412CD205740EC0E07476C0E012441715811581D20490F094E0FFBF020235
:203D17008018BF04028023BF0530741FC0E07476C0E01244171581158122742EC0E07476F4
:203D3700C0E01244171581158122743FC0E07476C0E012441715811581227E00C007C0066E
:203D5700744AC0E07476C0E0124417E58124FCF58122903CF6020E0C12411012412C74594C
:203D7700C0E07476C0E0124417158115817475C0E07476C0E01244171581158190F0B4E0A9
:203D9700FEA3E0FF90F09EEEF0EFA3F090F953E0FF7E0090F954E0FD7C00C007C006C0054D
:203DB700C004748EC0E07476C0E0124417E58124FAF58190F951E0FF7E0090F952E0FD7C2A
:203DD70000C007C006C005C00474A0C0E07476C0E0124417E58124FAF58190F94FE0FF7EDC
:203DF7000090F950E0FD7C00C007C006C005C00474A0C0E07476C0E0124417E58124FAF540
:203E17008190F94DE0FF7E0090F94EE0FD7C00C007C006C005C00474A0C0E07476C0E01241
:203E37004417E58124FAF58190F0B2E0FEA3E0FF8E02EFFB3395E0FCFD7490C39AF50C7493
:203E5700019BF50DE49CF50EE49DF50F90721EE493FDE4FC3395E0FBFAE50CC39DFDE50D54
:203E77009CFCE50E9BFBE50F9AFA78697402F208E4F208F208F28D828C838BF0EAC007C05D
:203E970006126083AA82AB83D006D00790F09CEA2EF0EB3FA3F090F0C6E0FF7E0090F0C73E
:203EB700E0FD3395E0FC90F960E0FB7A00C007C006C005C004C003C00274A9C0E07476C02A
:203ED700E0124417E58124F8F58190F0F0E0C0E0A3E0C0E090F0EEE0C0E0A3E0C0E090F0E2
:203EF700F2E0C0E0A3E0C0E074C3C0E07476C0E0124417E58124F8F581123C10740EC0E0D0
:203F17007475C0E012441715811581123BF374F2C0E07476C0E01244171581158190F0B2CD
:203F3700E0FEA3E0FF90F0B4E0FCA3E0FD7811EEF208EFF27813ECF208EDF290FC3D1213EA
:203F5700DC90721E75F080020E327582031240EDE582600122121B27903D6F020E0C124105
:203F77001012412C74F4C0E07476C0E0124417158115817408C0E07477C0E01244171581C6
:203F9700158190F0B2E0FEA3E0FF90FAA0EEF0EFA3F090F0B4E0FCA3E0FD90F09EECF0EDE1
:203FB700A3F08E02EFFB3395E0FCFD7458C39AFA74019BFBE49CFCE49DFD78697402F208C3
:203FD700E4F208F208F28A828B838CF0EDC007C006126083AA82AB83D006D007EA2EFEEBF3
:203FF7003FFF90F09CEEF0EFA3F0EE5407601574075EFC7D00EEC39CFEEF9DFF90F09CEE00
:20401700F0EFA3F090721E75F080120E3290F09EE0FEA3E0FF74082EFEE43FFF90F09EEE6C
:20403700F0EFA3F0D2049073A875F080120E32023A937582041240EDE582600122903F7508
:20405700020E0C12411012412C90F0B4E0FEA3E0FF74102EFEE43FFF90F0B4EEF0EFA3F051
:204077007433C0E07477C0E012441715811581124205023A937582051240EDE58260012271
:2040970090405A020E0C12411012412CD2057445C0E07477C0E0124417158115817459C000
:2040B700E07477C0E01244171581158190F09C74B0F0E4A3F090F0B4E0FEA3E0FF90F09E8C
:2040D700EEF0EFA3F0D2049073A875F080020E3290409D020E0CE582C40354F8F58212270E
:2040F700A8AF82BFFF02800D7829E4F28F821229077582012275820022C206C204C20590A1
:20411700F0B2E4F0A3F090F09AF0A3F090F0B4F0A3F0C20822D20490F09EE4F0A3F09070E4
:204137009A93FFE4FE3395E0FDFC7490C39FFF74019EFEE49DFDE49CFC78697402F208E414
:20415700F208F208F28F828E838DF0EC126083AC82AD8390F09CECF0EDA3F090709A75F00D
:2041770080120E32C20490709BE493FF7E0090F09EE0FCA3E0FDEF2CFFEE3DFE90F09EEF37
:20419700F0EEA3F0906EF875F080120E32906EF9E493FF7E0090F09EE0FCA3E0FDEF2CFFEB
:2041B700EE3DFE90F09EEFF0EEA3F0D20490715C75F080120E3290F09CE0FEA3E0FF90F0DB
:2041D700B2EEF0EFA3F090715DE493FF7E0090F09EE0FCA3E0FDEF2CFFEE3DFE74202FFFE5
:2041F700E43EFE90F0B4EFF0EEA3F0C2042290F0F0E0FEA3E0FF4E601190F0EEE0FCA3E0B0
:20421700FDC3EE9CEF9D5002800890F0EEE0FEA3E0FFC006C0077473C0E07477C0E0124414
:0842370017E58124FCF581224A
:206EF800801AFFFFFFFFFFFFFFFFFFFFFFFFFFFFFFFF0000000000000000000000000000F0
:206F1800000000000000000000000000000000000000000000000000000000000000000059
:206F38000000000000000000000000000000000000001C000000001F9F8000000000387037
:206F580001C07F000000001F9FC000000000387001C07F000000001F9FE00000000038702D
:206F780001C0F7800000001C1CE000000000380001C0E3800000001C1CE0000000003800FD
:206F980001C0E39DC1C7701F9CE773B871D03873B9C7E39FE3E7F81F9FEFF3FCF9F03873F3
:206FB800FDCEE39FE777F81F9FCFF3FDDDF03873FDDCE39CE7F7381C1F8E739DFDC0387372
:206FD8009DF8E39CE7F7381C1C0E739DFDC038739DF8F79CE707381C1C0E739DC1C03873E1
:206FF8009DDC7F1FE7F7381F9C0FF3FDFDC03F739DDC7F1FE3E7381F9C0FF3FCF9C03F73E6
:207018009DCE1E1DC1C7381F9C0773B871C03F739DC7001C0000000000000380000000001F
:207038000000001C0000000000000380000000000000001C000000000000038000000000FA
:207058000000001C0000000000000380000000000000000000000000000000000000000079
:20707800000000000000000000000000000000000000FFFFFFFFFFFFFFFFFFFFFFFFFFFF06
:20709800FFFF800C000882A2AB55BFFFFFFF7DB4622800000010101176FF7BFFFF7FB7A9AD
:2070B80055505100002922966FF7BFFFFFFFEAE622AA08000002542ABF3F7FFFFFFFFD59CB
:2070D800B4102000002423B5B5DFFFFFFFFFF6AE48551000008890546AEFFFFFFFFFFBF526
:2070F800A382000000012DA3B3FFFFFFFFFFF6BE4E5209000490020D55DFFFFFFFFFFDDDCA
:2071180068A9001000490CFBAB6FFFFFFFFFFEEB955A002000129122BFDFFFFFFFFFFFF585
:20713800658140400028127DEFFFFFFFFFFFFFEFAB28000000420A9775FFFFFFFFFFFFF726
:207158004AC20400800C0008029CDFFFFFFFFFFFFF6A6A8D002000044D72AAFFFFFFFFFF13
:20717800FFD5D57480000240128EDFFDFFFFFFFFFFAEAA0A11200020525FF57FFFFFFFFFCD
:20719800FF7294AA240000010AAB6F77FFFFFFFFFDAF545488000004804D95EBFFFFFFFF43
:2071B8005B58B5514000000808A6B3F77FFFFFFFFFAD4AA0100000029641DCAEFFFFFFFFDD
:2071D800FDBFEA4802000000093EAB75EFFFFFFFFFD4B121080000000AC35DFF7FFFFFFF02
:2071F800EFEF444A64800000A152A6EFEFFFFFFFD6CAF5101800000002154BD5DFFFFFF7EB
:20721800EBD4D88500003838000000000000000000000000000000000000000000000000CA
:207238000000000000000000000000000000000007C00000000001FFF0000000000FFFF081
:20725800000000007FFFF000000001FFFFF000000007FFFFC00000001FFF80000000007FD7
:20727800F80000000000FFE00000000001FF000000000007FE00000000000FF80000000013
:20729800001FE000000000003FC00003E000007F80007FF00000FE0003FFF00001FC000F8B
:2072B800FFF00001F8003FFFF00003F800FFFF800007F001FFE000000FE003FF0000000F50
:2072D800C00FF80000001F801FF00000001F803FC00000003F003F800000003F007F0000C7
:2072F80000007E00FE0007E0007E01FC001FF000FC01F8007FF000FC03F001FFF000F8034B
:20731800F003FFF001F807E007FF0001F807E00FF00001F00FC01FE00001F00FC03F800070
:2073380003F00F803F000003F01F807E000003E01F807E000003E01F00FC01E003E01F0083
:20735800FC07F803E01F00F80FFC03E03F00F80FFC03E03F01F81FFE03E03F01F81FFE037D
:20737800E03F01F81FFE03C03E01F01FFE01C01E00F00FFC00000000000FFC0000000000CC
:2073980007F8000000000001E000000000000000303000001FF800000000FFFF000000037D
:2073B800FFFFE000000FFFFFF000003FFFFFFC00007FF00FFE0000FF8001FF0001FE0000A7
:2073D8007F8003F800001FC007F000003FE00FE000007FF00FC00000FFF01F800001FFF8F3
:2073F8001F000003FFF83F000007FEFC3E00000FFC7C7E00001FF87E7C00003FF03E7C00DF
:20741800007FE03EFC0000FFC03FF80001FF801FF80003FF001FF80007FE001FF8000FFCEE
:20743800001FF8001FF8001FF8003FF0001FF8007FE0001FF800FFC0001FFC01FF80003F9A
:207458007C03FF00003E7C07FE00003E7E0FFC00007E3E1FF800007C3F3FF00000FC3F7F99
:20747800E00000FC1FFFC00001F80FFF800003F00FFF000007F007FE00000FE003FC0000C8
:207498001FC001FE00007F8000FF8001FF00007FF00FFE00003FFFFFFC00000FFFFFF000C6
:2074B8000003FFFFE0000000FFFF000000001FF80000101000400220012011201120122087
:2074D800284028002800440044004400440082008200FE0008080063773E1C3E7763100A54
:2074F80000007FFC4004580658065806580640047FFC00000A000A0A000C0949276D2066E8
:207518006173742061736C656570202E202E202E205577550A0A00546F200977616B65207E
:207538006D653A0A002D2052656D6F766520616C6C206261747465726965730A002D20537C
:20755800686F7274206261747465727920636F6E74616374730A002D205265696E7365728D
:2075780074206261747465726965730A0A000C6F70656E6570617065726C696E6B2E6465A8
:207598000A0A004465657020736C6565700A00546167204D41433A202573004368726F6D06
:2075B800613432207625303458000C09085374617274696E67202E202E202E0A080A000AFC
:2075D800564261743A202564206D560A0054656D70657261747572653A202564430A0A008E
:2075F8000C466C617368696E67207625303478202E202E202E000C4F5441204641494C4549
:2076180044203A280A0A000C4E6F74204F544120696D616765000C57726F6E67204F5441F7
:2076380020696D616765000C435243206572726F72000C4572726F7220436F646520256487
:20765800000C090857616974696E6720666F722064617461202E202E202E0A08000A466F46
:20767800756E642074686520666F6C6C6F77696E672041503A000A4150204D41433A202563
:2076980030325825303258002530325825303258000A43683A20256420525353493A202503
:2076B80064204C51493A2025640A000A564261743A202564206D562C205478696E673A206E
:2076D8002564206D560A446973706C6179696E673A202564206D560A0A000A000C084E6F53
:2076F80020415020666F756E64203A280A080A000C5765276C6C2074727920616761696E81
:2077180020696E2061206C6974746C65207768696C65202E202E202E0A0A000C09087A7AE3
:207738005A5A5A202E202E202E0A080A000C454550524F4D204641494C4544203A280A0AEE
:20775800000C536C656570696E6720666F7265766572202E202E202E0A0A00564261743A10
:08777800202564206D560A0073
:20423F00C007C006C005C004C00390FAA9E0600302433390FAAAE0FF24FB5003024330EFAF
:20425F002F2F9042657302427402429202431302432A02433090FAA7744BF0E4A3F090FA8C
:20427F00A9740BF090FAAA7401F090FAAB7468F002433390FAA4124B5BE582FF6045EF24F1
:20429F00E0FFBF600040027F1F90FAACE0FE0E90FAACEEF0C0078E82124685AD82AE8315C2
:2042BF008190FAABE0FC7B002DFDEB3EFE8D828E837467C0E0124B56AE82158190FAABEE4A
:2042DF00F0800B90FAAA7402F090FAABE0FFEF75F002A42480F582747735F0F583E493FE84
:2042FF00A3E493FF90FAA7EEF0EFA3F090FAA9740BF0802090FAAA7403F090FAA774E3F0A0
:20431F00741AA3F090FAA903F0800990FAAA7404F0C3802D90FAA7E0FEA3E0FFEE540124AA
:20433F00FFE433FDEFC313CE13CEFF90FAA7EEF0EFA3F090FAA9E0FF1F90FAA9EFF0ED24F3
:0C435F00FFD003D004D005D006D0072208
:207780009B01B3013303C90089019101990019013101930013012301CD01D90199039D01EC
:2077A000B90139037302D30193033B017301B7039701A7012703370167016702DB001B031E
:2077C0006303C500D10011038D00B10031028B00A3002302ED008D03B103DD001D03710333
:2077E00077038B03A303BB003B02BB03D70017034703B7003702C702F70213028F0265002D
:20780000850169000903A10121034D000D01590019026101610243025300EF024301F10253
:20782000E501E901C9033D01790179022F014F014F02DB037B036F03F500C503D103BD008C
:0E7840003D02AF002F02DD03BD03D703AF03EF
:20436B00C007C006C005C004C001C000AC82AD83AEF0FFBF20005031BF0A0302440A8F8213
:20438B00C007C006C005C004C003C002C001C000C025124552D025D000D001D002D003D05D
:2043AB0004D005D006D00780567E00EF24E0FFEE34FFFEEF2FFFEE33FEEF2486F582EE3499
:2043CB0066F583E493A3E493C4540FFE90F0B6EEF0300507EE2EFE90F0B6F090F0B6E0FF99
:2043EB003395E0FE0FBF00010E90F0B2E0FCA3E0FDEF2CFFEE3DFE90F0B2EFF0EEA3F0D0FC
:20440B0000D001D004D005D006D00722C007C006C005C004C003C001C000E58124F6FFC0AF
:20442B0007C006C005C004C003C002C001C000C025124505D025D000D001D002D003D004C5
:20444B00D005D006D007E58124F6F886050886068D828E83E493FCBC0C7290F0B2E4F0A3C2
:20446B00F0C007C005C006C0E0C0E090436B1259B4E58124FBF58190F0B2E0FDA3E0FE3394
:20448B0095E0FCFB7490C39DFD74019EFEE49CFCE49BFB78697402F208E4F208F208F28D95
:2044AB00828E838CF0EBC007C002C001C000C025126083AB82AC83ADF0FED025D000D00186
:2044CB00D002D00790F0B2EBF0ECA3F0C007E58124F5F8E6C0E008E6C0E0E4C0E0C0E09096
:2044EB0010951259B4E58124FBF581D000D001D003D004D005D006D0072230062530050670
:20450B007E147F0080047E0A7F0090F0B7EEF03005067E207F0080047E107F0090F0B6EED2
:20452B00F0223005067E207F0080047E107F0090F0B7EEF03005067E147F0080047E0A7F89
:20454B000090F0B6EEF022AF82BF08028018BF0902804EBF0A028013BF0B028055BF0C0125
:20456B0022BF0D568038B20502450512450590F0B7E0FE3395E0FD90F0B4E0FBA3E0FCEE9F
:20458B002BFEED3CFD90F0B4EEF0EDA3F090F09AE0FDA3E0FE90F0B2EDF0EEA3F022B2044F
:2045AB002290F0B2E0FDA3E0FE90F09AEDF0EEA3F02290F09AE4F0A3F0227E00C007C006F6
:1245CB00744EC0E07478C0E0125D05E58124FCF581225E
:15784E00496E76616C69642063686172203078253032780A00CF
:2045DD00E58620E0FB225390FD00225380FB0022E58620E0FB004390020022E58620E0FB81
:2045FD0000438004002275FB02228582F9E5F830E1FB53F8FDE5F820E0FB85F9822253F3B0
:20461D00C775FA2275FC0C75F8C043F4C043F102D20B2253F1FD53F43F75FA0075FC317502
:08463D00F84043F338C20B22E0
:20464500858283D0F0D0E0D082C082C0E0C0F022C00074FB2581F8E582868208868308867A
:20466500F0D0002275F008C58213C58233D5F0F7C58222E583A2E713F583E58213F582225E
:20468500D083D0E0D0F0C0F0C0E0C083E582A4F58285F08322C000E58124FDF8E6F88582FF
:2046A500F0A4F582E8A8F08583F0A428F583E5F03400F5F0E4D00022C000C001C0E0C0F099
:2046C50074FA2581F88600E58288F0A4F582A9F0E58388F0A429F583E5F03400F9D0E08851
:2046E500F0A429C5F03400F9D0E0C0F088F0A429D0F0D001D00022C000C001C002E5812421
:20470500FBF8E6F918E6F88582F0A4C0E0AAF0E58388F0A42AF8E5F03400FAE98582F0A4CA
:2047250028C0E0E5F03AFA74003400F8E98583F0A42AFAE5F0388AF0D083D082D002D0018B
:20474500D00022D0E0D0F0C000C001C002C0F0C0E074F82581F9E7F809E7F922D002D001C7
:20476500D00022C9C583C9C8C582C82212474875F008124768E0A3124768F0A3D5F0F3020F
:20478500476112474875F008124768E493A3124768F0A3D5F0F2024761124748C375F008FD
:2047A500124768E0A3F502124768E03AF0A3D5F0EF02476112474875F008124768E0A3F5A6
:2047C50002124768E05AF0A3D5F0EF024761124748C375F008124768E0A3F502124768E039
:2047E5009AF0A3D5F0EF024761124748C375F008124768E0A3F502124768E0A39AD5F0F08A
:2048050002476112474875F008124768E0A3F502124768E0A36A7007D5F0EED3024761C388
:20482500024761C8C0E075F008E038F0A3D5F0F9D00022D3E4024828C374FF024828C00008
:20484500C00174FA2581F8E6F5F0088601496015088600E8F0A374FF25F0F5F074FF39F557
:204865000145F070EED001D00022C000C001C00274F92581F9E7D3601CF5F0098700098752
:2048850001C3E0F502A3124768E0A31247686A7004D5F0EED3D002D001D00022C000C00156
:2048A500C00274F82581F9E7F5F00987024A601F098700098701124768E0A3124768F0A346
:2048C50074FF25F0F5F074FF3AF50245F070E7D002D001D00022C000C001C00274F925814B
:2048E500F9E76015F5F0098700098701124768E0A3124768F0A3D5F0F3D002D001D0002273
:20490500C083C082E06003A380FAC3E582D0F095F0F582E583D0F095F0F58322C003C002FB
:20492500C001C000C0E0C0F0C083C082A98174F62581F886F01886007502017503007582EF
:2049450011A2F74014C3E833F8E5F033F5F0C3EA33FAEB33FB058280E8E4C003C002C0E0A6
:20496500C0E0AA81C0F0C000C0E0C0E0A881C0E0C0E0C0E0C0E0AB81C000C001C3758304A2
:2049850086F018E71995F0D583F6D001D000402BC000C001C375830486F018E795F0F7195B
:2049A500D583F585020085030175830486F018E745F0F719D583F5D001D00074FC28F8C39E
:2049C50075830408E613F6D583F9C00074FC2AF8C375830408E613F6D583F9D000D5829876
:2049E50020D508D082D083D0F0D00074F42581F58130D508D082D083D0F0D000E8D000D032
:204A050001D002D00322C2D5024921D2D5024921C003C002C001C000C0E0C0F0C083C082D8
:204A2500A98174F62581F886F07401758219A2F7400A23C5F023C5F0058280F2C0E0E4C074
:204A4500E0C0E0C0E0AA81C0F0C0E0C0E0C0E0A881C0E0C0E0C0E0C0E0AB81C000C001C35D
:204A650075830486F018E71995F0D583F6D001D000402BC000C001C375830486F018E7957E
:204A8500F0F719D583F585020085030175830486F018E745F0F719D583F5D001D00074FCA0
:204AA50028F8C375830408E613F6D583F9C00074FC2AF8C375830408E613F6D583F9D000A1
:204AC500D58298D082D083D0F0D00074F42581F581E8D000D001D002D00322C006C005C08E
:204AE50004C003C002C001C00074F72581F886F074017C09A2F7400923C5F023C5F00C8010
:204B0500F3FBE4FAA9F0F88582F0FDFEC3E58298E583994011C3E58298F582E58399F5837B
:204B2500EA4DFDEB4EFEC3E913F9E813F8C3EB13FBEA13FADCD620D5048D828E83D000D03C
:204B450001D002D003D004D005D00622C2D5024AE0D2D5024AE0E0C0E02401F0A3E0C0E0BB
:204B65003400F0A3E0D083D0826014B4600AC000A882E2D000F582224009E493F58222E0E4
:204B8500F58222C000A882E6D000F5822212474875F004D3124768E0FA3400F0EAA31247BC
:204BA50068F0A3D5F0EE02476112474875F004C3124768E0FAA3124768E0A36A7004D5F0A6
:204BC500EFD3024761124748C3E0A398E0A399E0A39400E0A39400024761124748C3E0A30A
:204BE50038E0A339E0A33400E0A3340002476175F004E07004A3D5F0F9F58222A3A3A3E024
:024C0500332258
:044C070075C90B223E
:204C0B00C0E0C007C006C0D075D000AEDAAFDB74012EF5DAE43FF5DBD0D0D006D007D0E013
:204C2B0032C007C006C005C004C000AEDAAFDB784FEEF208EFF2784DE5E2F2784EE5E3F2C1
:204C4B00EEB5DAE7EFB5DBE3784DE2FC08E2FD08E2FE08E28C828D838EF0D000D004D00512
:204C6B00D006D0072285E28222E4F5DAF5DBF5E4F5E5F5E6F5E7F5E275E40543D84043B8D7
:204C8B000222AF82AE83ADF0FC7851EFF208EEF208EDF208ECF2124C2C7855C0E0E582F23B
:204CAB0008E583F208E5F0F2D0E008F2124C2CAA82AB83AEF0FF7855D3E29AF4B3FAB30815
:204CCB00E29BF4B3FBB308E29EF4B3FEB308E29FF4FF7851C3E29A08E29B08E29E08E29FFD
:034CEB0050CA228A
:204CEE0053C07F53A1FE53BEFC3243870122AF82AE83ADF0FC7859EFF208EEF208EDF20872
:204D0E00ECF290FAADE4F090FAAEF090FAAF74DFF090FAB074BEF090FAB1E054E0F090FAD3
:204D2E00B1E0541FF090FAB27407F090FAB3E054E0F090FAB3E0549F4420F090FAB3E054B4
:204D4E007FF090FAB4E054FC4402F090FAB4E054FBF090FAB4E054F7F090FAB4E054CFF04B
:204D6E0090FAB4E0543F4440F07859E2F5F008E242F008E242F008E245F0701B7B01751085
:204D8E00767511FC85111290FAADE512F07A7690FAAEEAF0024E307859C3E2943F08E294FE
:204DAE000008E2940008E29400500C7859743FF208E4F208F208F27859E225E0F51308E29B
:204DCE0033F51408E233F51508E233F516E5132513F513E51433F514E51533F515E5163368
:204DEE00F516747DC0E0E4C0E08513828514838515F0E516124A0B7859C0E0E582F208E5AC
:204E0E0083F208E5F0F2D0E008F2158115817B007D6F7EFC8E0590FAADEDF07E6F90FAAEBD
:204E2E00EEF053C07F53A1FE43A11075A8A0EB70147859E2F5F008E242F008E242F008E228
:204E4E0045F070012253BEFBE5BE30E5FBE5C654384441F5C6E5C630E6FB43BE0453C67FED
:204E6E007859C3E2F5F074F095F008E2F5F074FF95F008E2F5F0E495F008E2F5F0E495F0A9
:204E8E00501B7DF07EFF7859E22410F208E23400F208E234FFF208E234FFF280117859E264
:204EAE00FD08E2FE7859E4F208F208F208F2EB60067A007C0080047A107C008AA175C00039
:204ECE0043D6817AAD7CFA8AD48CD575D60175A204E5A570FC75A2028EA48DA3AEA5EEB500
:204EEE00A50280FA43C702EB60077B0075BE07800375BE06000000E5BE5403600875D70105
:204F0E00004387010053C7FDE5BE30E5FB75BE00E5BE30E5FB75C679E5BE30E6FB7E007DA5
:1B4F2E0000000DBD80FB0EBE80F575C639E5C620E6FB75C63875BE04024E3C8C
:0E79F100060606060606040707070707070432
:204F4900AF8275BB0074304FF5B575B473E5B420E6FBE5B430E7FBAEBA7F00ADBB7C00900E
:204F6900FAB9EC4EF0ED4FA3F08FB522C21590FAB9E0FEA3E08E82C4C582C4540F6582C5AD
:204F890082540FC5826582C582F58374E2C0E07404C0E01246FCAC82AD83AEF0FF1581152E
:204FA9008190FAB7E0FAA3E0FB74FFC0E07407C0E08A828B831246FCA882A983AAF0FB1532
:204FC900811581ECC398FCED99FDEE9AFEEF9BFF747DC0E08C828D838EF0EF1246BDAC827D
:204FE900AD83AEF0FF1581EFC40354F8CEC403CE6ECE54F8CE6EFFEDC40354074EFEEDC411
:205009000354F8CCC403CC6CCC54F8CC6CFDEF30E70FD215C3E49CFCE49DFDE49EFEE49F64
:20502900FF90FAB5E0C0E0A3E0C0E08C828D838EF0EF124A0BAC82AD83AEF0FF158115816D
:2050490074FF2CFC74033DFDE43EFEE43FFF74FFC0E07407C0E08C828D838EF0EF124A0B99
:16506900AC821581158190FABBECF030150790FABBC3E49CF022D0
:20507F00E58620E0FB225390FD00225380FB0022E58620E0FB004390020022E58620E0FBD4
:20509F00004380040022C007C006AF82BF64004027BF6A00502290DF097421F090DF0A743B
:2050BF003BF090DF0B7413F08F06EE249CFE90DF0675F003A4F0802F90DF097422F090DFE7
:2050DF000A74BBF090DF0B7413F0BFC8004013BFE100500EEF2438FF90DF0675F00CA4F0FB
:2050FF00800590DF06E4F0D006D00722C00775E10490DF3BE0B401FCD0072212510B7F00B2
:20511F008F057EDFEFC3907863938D828E83F00FBF200040EB90DF237488F090DF247431F0
:20513F00F090DF257409F090DF2E748EF075911075ED00759D0075EF0322C007AF82C3EF13
:20515F006480946250047FE2800EC3748A8FF063F08095F050027F0A741E2FC3139078837E
:20517F009390DF2EF0D00722C007C006AE82AF838ED48FD575D601000000000000000000F6
:20519F00D006D0072275D68100000000000000000022C007C006C005AE82AF831251A48FE9
:2051BF000590FC7FEDF090FC80EEF07E7D7FFC8E828F83125187D005D006D00722C007C04C
:2051DF0006C005AE82AF831251A48F0590FC85EDF090FC86EEF07E857FFC8E828F83125107
:2051FF0087D005D006D00722301604E5EF70012212510B53C0FE43B801E5ED75F080A424BA
:20521F00BDF58274FA35F0F5831251B175E1022253B8FE1251A412510B75D10053C0FE22AB
:20523F00AE82AF837CFF7DFF12522F8E828F831251DC75E90075E103E5E920E42375820F50
:20525F00C005C004124F49D004D00590FAB9E0FEA3E0FFC3EE9CEF9D50DE8E048F0580D82B
:20527F001251A4C005C004125207D004D0057423C0E08C828D83124B5115817404C0E012A8
:20529F00469AAC82AD83158190F0EEECF0EDA3F022C025C0E0C0F0C082C083C007C006C028
:2052BF0005C004C003C002C001C000C0D075D000E5D130E040E5ED75F080A424BDFE74FA7D
:2052DF0035F0FF53D1FE8E828F83E0FD248240200D0DED2EF582E43FF583E0FF30E711E531
:2052FF00ED04FF8FEDBF030375ED00E5EF14F5EF125207800F7498C0E07478C0E0125D058A
:20531F001581158153C0FED0D0D000D001D002D003D004D005D006D007D083D082D0F0D0C0
:20533F00E0D0253220180612522FC21622201605D21602520722E59D75F080A424BDFE747E
:20535F00FA35F0FF8E828F83E0FD7403B5EF047582FF228D037C0074022BF9E43CFAE92E03
:20537F00F582EA3FF583E0FA747F5AD39494F4FABA7F0040047AFF8003EA2AFA90F0C6EA2F
:20539F00F00BBB00010CEB2EF582EC3FF583E0A2E71324B390F0C7F00EBE00010FC005C00D
:2053BF0006C00790F9621248DB158115811581E59D04FF8F9DBF0303759D00D21910AF02EB
:2053DF00C219E5EFFF04F5EFA21992AFEF7007C005125207D0058D8222D21A10AF02C21AF7
:1053FF00AFEF75EF03A21A92AFEF700302520722BD
:20786300D3917D044522000F0022BB131D3B1373A7650700181E1CC700B0B610EA2A001F07
:20788300030506080B0E191C242527293855408D8A84CAC4C0646D612069727120756E652C
:0978A300787065637465640A00E5
:1079FF00DFD900008080131A0000DFD9207E1342E8
:1700E10090FC4E7456F090FC4F7412F090FC5003F090FC517485F08E
:20540F00E58620E0FB225390FD00225380FB0022E58620E0FB004390020022E58620E0FB40
:20542F00004380040022C007C006C005C004C003C002C001C000E5827860F27E00C21C7853
:20544F0061E4F2C0067861E2C0E090100012469AAA82AB8315817862EAF208EBF278647478
:20546F0004F208E4F27862E2FA08E2FBE4FCFE7404C0E0E4C0E07452C0E074FCC0E08A82B2
:20548F008B838CF0EE1206E1E58124FCF5817404C0E0744EC0E074FCC0E090FC5212486F5F
:2054AF00158115811581921DD006201D030255997864E2FB08E2FCC394104003025599C06D
:2054CF000678627964E3C5F0E225F0FB09E3C5F008E235F0FAE4FCFE7402C0E0E4C0E074E0
:2054EF0052C0E074FCC0E08B828A838CF0EE1206E1E58124FCF58190FC52E0F51774FFB530
:20550F001705D006025599D0067860E2B5175D90FC53E0FCBC020040531C1C8C06785FC371
:20552F00E29C5004785FE2FCC0067B00785DE2F51808E2F5197862E2FD08E2FF74022DFD96
:20554F00E43FFF7864E22DFD08E23FFA7E007F00C004C003C018C0198D828A838EF0EF123F
:20556F0006E1E58124FCF581D21CD00690FC53E0FF7D007864E2FB08E2FCEF2BFBED3CFC61
:20558F007864EBF208ECF20254BF7861E22401F27861E2B40A005003025452301C048E071D
:2055AF0080027FFF8F82D000D001D002D003D004D005D006D00722758204C007C006C005C0
:2055CF00C004C003C002C001C000121949125641D000D001D002D003D004D005D006D00739
:2055EF00301B26C007C006C005C004C003C002C001C00012186E125641D000D001D002D08B
