:040000000200833245
:01000B0032C2
:0100130032BA
:01001B0032B2
:0100230032AA
:03002B000243414C
:01003300329A
:01003B003292
:030043000249036C
:03004B0002425E10
:01005300327A
:01005B003272
:01006300326A
:01006B003262
:01007300325A
:03007B000254EC40
:0300FA0002007E83
:03007E000204DB9E
:2000FD00E58620E0FB225390FD00225380FB0022E58620E0FB004390020022E58620E0FBA6
:20011D00004380040022AF8290F090E4F090F091F08F061FEE60767E0090F95AE0FDBD024E
:20013D000BEE905C4F93FDBDC800405990F95AE0FDBD010BEE905C4F93FDBDC8005046EE75
:20015D00244FFCE4345CFD8C828D83E493F582C007C006C005C004121C27E582D004D0051B
:20017D00D006D007601F90F090E0FB90F0BFE0FAC3EB9A501090F090EAF08C828D83E4930B
:20019D00FC90F091F00EBE0C005086808C90F091E0FFE06013BFC800400890F95A7402F030
:2001BD00800690F95A7401F090F091E0F5822290F0EDE0FEA3E0FFC3742C9E74019F40099F
:2001DD0090F0E3E07003300159300A0920020690F0C6E0700930031990F0C7E0601390FC46
:2001FD005FE0FFBFFF0280097824E4F28F8212274A121DF3AD82AE83AFF090F092EDF0EE57
:20021D00A3F0EFA3F0ED4E602D90F0EDE4F0A3F010010090F0E3E06002D20190F0E3E4F050
:20023D008014121EDEAD82AE83AFF090F092EDF0EEA3F0EFA3F012188790F092E0FDA3E0EB
:20025D00FEA3E0FFED4E700990F0E1E4F0A3F08059740F2DFAE43EFB8F048A828B838CF0BC
:20027D00125C2FFAA3125C2FFB90F0E1EAF0EBA3F0740D2DFAE43EFB8F048A828B838CF0E8
:20029D00125C2F60168D828E838FF012311FE582701890F0E1E4F0A3F0800F7460C0E074FF
:2002BD005CC0E01253E6158115811218D2AE82AF8390F0EDE0FCA3E0FD90F0EDEE2CF0EF21
:2002DD003DA3F0BE580CBF020990F0C5E06003C2002290FA5BE0600E90FA5BE4F0900064F9
:2002FD00E4F5F00217D290F0E1E0FEA3E0FF4E603BEF30E71F8E048F0553057F7877ECF294
:20031D00ED08F2E408F208F29003E8E4F5F01258E10217D27877EEF2EF08F2E408F208F2F7
:20033D0090EA60E4F5F01258E10217D21218D2AE82AF837877EEF2EF08F2E408F208F29049
:20035D0003E8E4F5F01258E10217D290F0CEE0FF600D8F82121C27E58290F959F0800C755C
:20037D008202120123E58290F959F090F959E0700920030690F0C7E07014300A09200206F3
:20039D0090F0C6E0700890F0E4E0FFBF231390FC5FE0FFBFFF0280097824E4F28F8212279B
:2003BD004A90F959E0604890F0E4E4F090F0CEE0700F75820412178D1214907582041217FC
:2003DD00C690F0E374FDF090002812176A1218D2AE82AF837877EEF2EF08F2E408F208F23D
:2003FD009003E8E4F5F01258E11217D2D2002275820112184DAC82AD83AEF0FF7877ECF22B
:20041D00ED08F2EE08F2EF08F29003E8E4F5F01258E10217D2E582FF24FA50030204C3EFFE
:20043D002F2F9004437302425A02045502046C02049C0204C30204A5746BC0E0745CC0E087
:20045D001253E615811581C20090F959E4F02290F959E0FE7478C0E0745CC0E01253E61552
:20047D00811581758204C00612178D12134A1214907582041217C6D00690F959EEF022907A
:20049D000000E4F5F00217D27488C0E0745CC0E01253E61581158175820412178D122736E8
:2004BD007582040217C67E00C007C0067498C0E0745CC0E01253E6E58124FCF581227582BE
:2004DD000112178D75820F12459C90FAAEE0FEA3E0FF7423C0E08E828F831241A41581745D
:2004FD0004C0E0123CEDAC82AD83158190F0E5ECF0EDA3F0905C5BE493C0E0740193C0E045
:20051D00905C5DE493C0E0740193C0E0740293C0E074AAC0E0745CC0E01253E6E58124F911
:20053D00F581124C1912196B12192390F0E374FCF0AEBE5306187F00BE1009BF000690F092
:20055D00E374FEF0301B09900000E4F5F01217D27432C0E074FCC0E0E4C0E074D9C0E07456
:20057D005CC0E01253E6E58124FBF581123711900190E4F5F01217D275820412178D121307
:20059D00BC1236F890F0C2E0601174E1C0E0745CC0E01253E615811581801874F2C0E074C1
:2005BD005CC0E01253E615811581902710E4F5F01217D290F959E0FFE0601F8F82121C279A
:2005DD00E582702574FFC0E0745CC0E01253E61581158190F959E4F0800F741DC0E0745DC1
:2005FD00C0E01253E61581158190F959E0700312036890F959E06004D2008002C2007582E2
:20061D000412178D1214903000067E287F0080047E587F028E828F8312176A30000A7C8824
:20063D007D137E007F0080087CC07DD47E017F008C828D838EF0EF1217D23000051201CC63
:07065D0080F812036880F32E
:205C4F00C864C965CA66CB67CC68CD6909002F5D804E6F207570646174650A00434D445F5D
:205C6F00444F5F5343414E0A0052657365742073657474696E67730A0045726173696E678D
:205C8F0020696D616765730A00436D6420307825782069676E6F7265640A000A2573204FB9
:205CAF0045504C2076253034782C20636F6D70696C6564204175672020332032303234200C
:205CCF0031313A32313A35350A004D41432025730A00446F696E67206661737420626F6F56
:205CEF00740A004E6F726D616C20626F6F740A004E6F20415020666F756E64206F6E207396
:205D0F0061766564206368616E6E656C0A004E6F207361766564206368616E6E656C0A00DE
:095D2F004368726F6D61323900A6
:0168A80001EE
:20066400E58620E0FB225390FD00225380FB0022E58620E0FB004390020022E58620E0FB39
:20068400004380040022AC82AD83AEF0FF00C2A000758203123C5A8E82123C5A8D82123C59
:2006A4005A8C82023C5AC007C006C005C004C003C002C001C000AC82AD83AEF0FFE5812495
:2006C400F5F8860208860300C2A000758203123C5A8E82123C5A8D82123C5A8C82123C5AE7
:2006E4008A068B07E58124F3F886040886058C028D031CBCFF011DEA4B6015758200123C40
:200704005AAB828E828F83EBF0A3AE82AF8380DE00D2A000D000D001D002D003D004D0058D
:20072400D006D00722AF8200C2A0008F82123C5A00D2A0002200C2A000758205123C5A758B
:200744008200123C5AE58220E0F500D2A00022AC82AD83AEF0FF7803E2FA08E2FBC007C0BD
:2007640006C005C004C003C002120739758206120729D002D003D004D005D006D00700C213
:20078400A000758202123C5A8E82123C5A8D82123C5A8C82123C5A8A068B077805E2FC086A
:2007A400E2FD8C028D031CBCFF011DEA4B60128E828F83E0FBA3AE82AF838B82123C5A8065
:2007C400E100D2A000221207397582B9120729C20C227582AB12072975F034D5F0FDD20C4F
:2007E40022C007C006C005C004C003C002C001C000C082C083C0F0C0E005810581E581244C
:20080400EFF88605088604E58124EDF8E6084670030208DEC005C004E58124F9F88602083E
:200824007B00E58124FDF8E4C39AF674019B08F6E58124FDF8E58124EBF9C3E79609E70850
:2008440096D004D005500EE58124EDF8A98119E6F708E609F77803EDF2EC08F2A881187980
:2008640005E6F308E609F3E58124FBF886820886830886F008E6C007C006C005C004C003D1
:20088400C002C001C000C025120753D025D000D001D002D003D004D005D006D007A88118EE
:2008A4008602088603E4FEFFE58124FBF8EA26F6EB0836F6EE0836F6EF0836F6A88118E62C
:2008C4002DFD08E63CFCE58124EDF8A98119E6C397F608E60997F602080BE58124FAF58149
:2008E400D000D001D002D003D004D005D006D00722C007C006C005C004C003C002C001C01A
:2009040000C082C083C0F0C0E0E58124FDF88602088603EA7005EB540F6006758200020951
:20092400F8E58124F1F8E6084670030209F5758206C007C006C005C004C003C002C001C088
:2009440000C025120729D025D000D001D002D003D004D005D006D00700C2A000E58124F1FE
:20096400F88602088603758220123C5AE58124FDF808088682123C5AE58124FDF8088682D5
:20098400123C5AE58124FDF88682123C5A00D2A000C007C006C005C004C003C002C001C0EE
:2009A40000C025120739D025D000D001D002D003D004D005D006D0077401C0E090100012A4
:2009C4003CEDAC82AD83AEF0FF1581E58124FDF8EC26F6ED0836F6EE0836F6EF0836F61A52
:2009E400BAFF011BE58124F1F8A60208A603020925758201E58124FCF581D000D001D002BB
:0B0A0400D003D004D005D006D007229C
:200A0F00E58620E0FB225390FD00225380FB0022E58620E0FB004390020022E58620E0FB8A
:200A2F00004380040022C007C006C005C004AF82AE83ADF0FC90F0BBEFF0EEA3F0EDA3F092
:200A4F00ECA3F0C202C203D208758204C007C006C005C004C003C002C001C000C025121780
:200A6F008DD025D000D001D002D003D004D005D006D00790F0BBE0FCA3E0FDA3E0FEA3E0AE
:200A8F00FF7416C0E0E4C0E074F3C0E074F0C0E08C828D838EF0EF1206AAE58124FCF58146
:200AAF0090F0BBE0FCA3E0FDA3E0FEA3E0FF90F0BB74162CF0E43DA3F0E43EA3F0E43FA37D
:200ACF00F090F103E0FFBF2004C207806A90F103E0FFBF2104D207805E90F103E0FF7E003F
:200AEF00C007C0067420C0E07463C0E01253E6E58124FCF58190FA6E7416F0E4A3F090F0FF
:200B0F00F375F000C007C006C005C004C003C002C001C000C025121ADAD025758204C02592
:200B2F001217C6D025D000D001D002D003D004D005D006D0078051C221C007C006C005C060
:200B4F0004C003C002C001C000C025125615D025C025120BA0D025D221C025125615D02544
:200B6F00C025120BA0D025758204C0251217C6D025C025125659D025D000D001D002D0032A
:200B8F00D004D005D006D007D004D005D006D007227F807E0090F0ABE4F0A3F090F0A5F054
:200BAF00A3F05390FD007D00200803020C3330211D20071A74A0C0E07404C0E0E4C0E0903B
:200BCF00F0F3123E96158115811581020C83C00590F0BBE0FAA3E0FBA3E0FCA3E0FD74A07F
:200BEF00C0E07404C0E074F3C0E074F0C0E08A828B838CF0ED1206AAE58124FCF58190F062
:200C0F00BBE0FAA3E0FBA3E0FCA3E0FD90F0BB74A02AF074043BA3F0E43CA3F0E43DA3F09D
:200C2F00D005805074A0C0E07404C0E0E4C0E090F0F3123E961581158115817B4A7C00C094
:200C4F0007C006C005C004C0037807E2F58208E2F583120081D003D004D005D006D00790E6
:200C6F00F0A5E02401F0A3E03400F01BBBFF011CEB4C70CB7B007C00EF60503021238E0236
:200C8F00EA2AFEEB24F3F582EC34F0F583E0FAEF5A7003430601EF30E02B8E8212564B80E5
:200CAF00248E02EA2A25E0FEEB24F3F582EC34F0F583E0FAEF5A6003430603EF54116005CE
:200CCF008E8212564BEFC313FF80AD7F800BBB00010CC3EB94A0EC9404409D90F0ABE0FB36
:200CEF00A3E0FC744A2BFBE43CFC90F0ABEBF0ECA3F00DBD04005003020BB7E58620E0FB96
:200D0F00004390020022AE82AF83C202C203C208D207C2217807EEF2EF08F2125615120B7A
:200D2F00A0D221125615120BA0025659C007C006C005C004C003C002C001C000AD82AE83AA
:200D4F00AFF0A204202101B3505090F09FE0F508A3E0F50974012DFAE43EFB8F048A828B4A
:200D6F00838CF0125C2FFA780CF2E408F2850882850983C007C006C005C004C003C002C0FF
:200D8F0001C000120FCCE582D000D001D002D003D004D005D006D0076003020F728D828E10
:200DAF00838FF07809125C2FF290F0A1E0F508A3E0F5097809E2F50A750B00780EE50AF24A
:200DCF00E50B08F2850882850983C007C006C005C004C003C002C001C000121043D000D0D9
:200DEF0001D002D003D00490F0ADE0F508A3E0F50990F0B1E0FBA3E0FCEBC39508F582ECA6
:200E0F009509F5837875E50AF2E50B08F2C002C001C0001258C1AB82AC83D000D001D002B8
:200E2F00D005D006D007ECC423CBC423541F6BCB541FCB6BCBFC90F0B7EBF0ECA3F074027C
:200E4F002BFBE43CFCEB2DFDEC3EFE90F0A7E0FBA3E0FCEB5407700A7809E2540770030290
:200E6F000F265303078BF005F07B80E4FC3392D28008A2D2EC13FCEB13FBD5F0F5780AEBD8
:200E8F00F2780B7480F28D828E838FF0125C2FFA74012DF50CE43EF50D8F0E7809E2F50AEC
:200EAF00AC0A150AEC7003020F72780BE25A6025C00290F0B5E0FAA3E0FCEA24F3FAEC34BD
:200ECF00F0FC8A828C83E0FB780AE242038A828C83EBF0D002780BE2C313F2780BE2701995
:200EEF00850C82850D83850EF0125C2FFAA385820C85830D780B7480F2780AE2C313F278C9
:200F0F000AE2709C780A7480F290F0B5E02401F0A3E03400F080897809E2604790F0B5E069
:200F2F00FBA3E0FCEB24F3FBEC34F0FC8B828C83E0F50C8D828E838FF0125C2FFAA3AD821A
:200F4F00AE83E50C42028B828C83EAF090F0B5E02401F0A3E03400F07809E2FC780924F859
:200F6F00F280B4D000D001D002D003D004D005D006D0072290F0A7E0FEA3E0C423CEC4235A
:200F8F00541F6ECE541FCE6ECE30E40244E0FF90F0ABE0FCA3E0FD90F0B1E0FAA3E0FBEAE3
:200FAF00C39CFCEB9DC454F0CCC4CC6CCC54F0CC6CFD90F0B5EC2EF0ED3FA3F022AE82AF2B
:200FCF008390F095EEF0EFA3F090F0AFEEF0EFA3F07427C39EFE74019FFF90F0A9EEF0EF78
:200FEF00A3F090F0A5E0FCA3E0FD90F0B1ECF0EDA3F0C3EE9CEF64808DF063F08095F0400C
:20100F002F780CE22CFC08E23DFDC3EE9CEF9D501F780CD3E29EF4B3FEB308E29FF4FF0EDF
:20102F00BE00010F90F0ADEEF0EFA3F07582002275820122AE82AF8390F0A7EEF0EFA3F02A
:20104F00780E90F097E22EF008E23FA3F0120F8375820022C007C006C005C004C003C002D0
:20106F00C001C000AC82AD83AEF0FF058105810581BF2000502C8F82C007C006C005C004D1
:20108F00C003C002C001C000C025123BA5D025D000D001D002D003D004D005D006D00702D1
:2010AF00130D7E00EF24E0FFEE34FFFEEF2FFFEE33FEEF2438F582EE345DF583E493FEA365
:2010CF00E493FF90F0B7EEF0EFA3F0EFC4540FFE90F0B3F0300507EE2EFE90F0B3F090F0C4
:2010EF0099E0FEA3E0FF90F0B9EEF0EFA3F090F0B3E0FDFB3395E0FC0BBB00010CEB2EFBB9
:20110F00EC3FFC90F099EBF0ECA3F0A204202101B3504190F0B9E0FEA3E0FF780CEDF2ED11
:20112F003395E008F28E828F83C007C006C005C004C003C002C001C000C025120FCCE58287
:20114F00D025D000D001D002D003D004D005D006D007600302130D90F09BE0FEA3E0FF905F
:20116F00F0B4E0FD780EF2ED3395E008F28E828F83C007C006C005C004C003C002C001C09A
:20118F0000C025121043D025D000D001D002D003D004D005D006D00790F0B7E0FEA3E0FFCE
:2011AF0053070F90F0B7EEF0EFA3F0A8811818760008768090F0A7E0FCA3E05304078CF0F3
:2011CF0005F07C80E4FD3392D28008A2D2ED13FDEC13FCD5F0F5A881A60490F0B3E0FD9076
:2011EF00F0ADE0FAA3E0FB90F0A5E0FCA3E0FFECC39AFAEF9BFBED3395E0FFEDC39AFAEFD9
:20120F009BFB1ABAFF011B90F0B9EAF0EBA3F030050FEBC313CA13CAFB90F0B9EAF0EBA361
:20122F00F090F0B9E0FEA3E0FF90F0B7E0FCA3E0FD90F0B7EE2CF0EF3DA3F090F0B7E0FE6E
:20124F00A3E0FFEE2EFEEF33FFEE24F8F582EF345DF583E493FEA3E493FF90F0B9E4F0A30B
:20126F00F090F0B9E0FCA3E0FD90F0B4E0FB3395E0FAC3EC9BED9A400302130DA88118189A
:20128F00E65EFC08E65FFD4C602190F0B5E0FCA3E0FDEC24F3FCED34F0FD8C828D83E0FB51
:2012AF00A881E642038C828D83EBF030051A90F0B9E0FCA3E0FDEC30E01AA88118E618C3D6
:2012CF0013C613C608F6800CA88118E618C313C613C608F6A881E6C313F6A881E670109017
:2012EF00F0B5E02401F0A3E03400F0A881768090F0B9E02401F0A3E03400F0021270158190
:15130F0015811581D000D001D002D003D004D005D006D00722DF
:205D38000070071008500D9016601CA026A03010316037603D7044904D204F605520578086
:205D58005F7066706D6073507880805085708C7093709A70A120A320A570AC80B470BB701C
:205D7800C2A0CCA0D670DD80E570EC70F370FA8002710971105115811D7124812C713381A4
:205D98003B7142814A7151715891617168A172A17CA186A1908198519D81A551AA81B2A158
:205DB800BC21BE71C571CC71D371DA71E181E971F071F741FB51007207420B9214721B72B1
:205DD80022722972306236623C724362499252A25C8264A26E8276627C127D6283A28D72F3
:205DF8000000000000000000000000000000D87F0078000000000000007880009804E00543
:205E1800801E9864E005801E80648004183808640842FCFF8841F040083810442044C044EF
:205E380000397002880C881088207040E0001001083A08468845C84C383818006800800148
:205E58000078E00718180C300420024002400240024004200C301818E00700100018000F85
:205E78000072000F001800104000400040004000F807400040004000400019001E008000AB
:205E9800800080008000800080001800180002000C003000C0000003000C00300040C00FEE
:205EB80030300840084008403030C00F082008200820F87F080008000800186028404840F4
:205ED80088400843083C0840084208420842F03DC0004003400440184020F87F400040000A
:205EF800087C084408441042E041E00F10320844084408441042E00100401840E0400043B8
:205F1800004C00500060F038084508420842084590456038001E08218840884088403021BA
:205F3800C01F1806180619061E06C000C00020012001100210020804200120012001200175
:205F5800200120012001200108041002100220012001C000C00000700040D8400041004268
:205F780000640038C00F30181820C84728486850D851E03F2000200008007000C001400ED8
:205F98004018400C4003C00030000800F81F08110811081108118812700CC003300C100862
:205FB80008100810081008100818F81F08100810081008101008E007F81F881088108810F4
:205FD800881088100810F81F801080108010801080100010C003300C10080810081088108B
:205FF8008810F818F81F80008000800080008000F81F081008100810F81F0810081008108C
:206018000800081008100810F01FF81F0001800140022004200810100800F81F0800080093
:206038000800080008000800F81F001C8007E00060008003001CF81FF81F000800068001D2
:2060580060001000F81FE007100808100810081008101008E007F81F8010801080108010EC
:206078000011000EE00710080810081008100C101208E207F81F80108010C0102011100E2D
:206098000800180E0812081108118810901070180010001000100010F81F00100010001027
:2060B8000010E01F18000800080008001000E01F0010000C8003600018001800E000000368
:2060D800000C00100018C0073800F0000007800370003800C00700180810100820044002DE
:2060F8008001800140022004100808100010000800060001F80000010002000400080010BA
:2061180018102810481088100811081208140818FE7F024002400240024000400030000CA7
:206138000003C00030000C0002000240024002400240FE7F2000C0000007001C0070000E40
:20615800C001200004000400040004000400040004000400040004000080004030004804E2
:20617800880488049004F8030800F87F10020804080408041006E001E001100208040804A9
:20619800080408040804E00118020804080408041002F87FE0019002880488048804880478
:2061B800880300040004F83F00240044004400440044E00119020904090409041202FC078F
:2061D800F87F00010002000400040004F803000400040064F8670100010401040164FE6786
:2061F800F87F8000C0002001200210020804004000400040F87FF807000200040004F80334
:20621800000200040004F803F80700030002000400040004F803E00110020804080408043F
:206238001002E001FF0710020804080408041006E001E00118020804080408041002FF07E9
:20625800F8070001000200040004000718038804880448044804300400040004F01F0804F3
:20627800080408040804F0070800080008001000F807000480036000180008003000C000CD
:20629800000300040006E001180070008003800170001800E0010006080410022001C000FE
:2062B800C00020011002080401040103C10062001C00180060008000000300040804180458
:2062D800280448048804080508060804800080007C3F024002400240FE7F024002400240B7
:2062F8007C3F80008000C000000100010001800080004000400040008001F80108030804B7
:20631800080808040803F80164617461547970652030782578206E6F7420737570706F726A
:056338007465640A0019
:20132400E58620E0FB225390FD00225380FB0022E58620E0FB004390020022E58620E0FB6C
:2013440000438004002290F0C17401F090F0C2E4F090F0C3F090F0C4F090F0C5F090F0C602
:2013640004F090F0C7F090F0C9E4F090F0C8F090F0CC7428F0E4A3F090F0CEF090F0CA749E
:2013840028F0740AA3F090F959E4F090F95AF022AD82AE83125C2FFCBC011C7BC17CF08B70
:2013A400828C83740EC0E0C005C006123F2E158115811581021490227480C0E0E4C0E07456
:2013C400A2C0E074FDC0E0906000E4F5F01206AAE58124FCF581740EC0E07414C0E074FE83
:2013E400C0E090F0C1123F2E15811581158190FDA2E0FCA3E0FDA3E0FEA3E0FFBCA513BD08
:201404005A10BEBA0DBFAB0A90FDA6E0FFBF0102803590FDA2E0FCA3E0FDA3E0FEA3E0FF4E
:2014240090FDA6E0FB7A00C004C005C006C007C003C002743DC0E07463C0E01253E6E5810C
:2014440024F8F58102134A90FDA7E090F959F090FDA8E090F95AF0746BC0E07463C0E012C1
:2014640053E6158115811215E290FDA2E4F004C0E0E4C0E074A2C0E074FDC0E0906000E434
:20148400F5F01207E5E58124FCF581227480C0E0E4C0E074A2C0E074FDC0E0906000E4F59F
:2014A400F01206AAE58124FCF58190FDA2E0FCA3E0FDA3E0FEA3E0FFBCA53EBD5A3BBEBA83
:2014C40038BFAB35788574C1F274F008F2E408F27888740EF2E408F290FE1475F000125A0C
:2014E400B0E5828583F045F0700F90FDA7E0FF90F959E0FEEFB506012290FE21E0FF90F077
:20150400CEE0FEEFB50602803EEE603BBE6400502390FE21E0FF7D00C007C005747DC0E06B
:201524007463C0E01253E6E58124FCF58190F0CEE4F08013BEC800400890F95A7402F0809D
:201544000690F95A7401F07480C0E0E4C0E0C0E090FDA2123E96158115811581740EC0E088
:2015640074C1C0E074F0C0E090FE14123F2E15811581158190FDA274A5F0F4A3F074BAA31B
:20158400F0C4A3F090FDA67401F090F959E090FDA7F090F95AE090FDA8F07401C0E0E4C0E1
:2015A400E0906000E4F5F01208F5158115817480C0E0E4C0E074A2C0E074FDC0E090600084
:2015C400E4F5F01207E5E58124FCF5817496C0E07463C0E01253E6158115810215E290F033
:2015E400C5E0FF7E00C007C00674A7C0E07463C0E01253E6E58124FCF58190F0CEE0FF7E14
:2016040000C007C00674C0C0E07463C0E01253E6E58124FCF58190F0CAE0FEA3E0FFC00637
:20162400C00774D3C0E07463C0E01253E6E58124FCF58190F0C2E0FF7E00C007C00674E7B3
:20164400C0E07463C0E01253E6E58124FCF58190F959E0FF7E00C007C00674FCC0E0746375
:0C166400C0E01253E6E58124FCF5812271
:20633D004C6F616465642064656661756C74732073657474696E677356657220307825785C
:20635D00204D61676963203078256C780A004C6F616465642073657474696E67733A0A0026
:20637D0049676E6F7265642066697865644368616E6E656C2025640A005361766564207316
:20639D00657474696E67733A0A0020205363616E2041667465722054696D656F757420257B
:2063BD00640A00202066697865644368616E6E656C2025640A0020206261744C6F77566F28
:2063DD006C746167652025640A002020656E61626C6546617374426F6F742025640A002044
:0D63FD00204C6173742063682025640A0041
:20167000E58620E0FB225390FD00225380FB0022E58620E0FB004390020022E58620E0FB1D
:2016900000438004002275F10175805875FDDD75F33875904075FE6E75F4E875A00175FFAD
:2016B00001227401C0E0E4C0E0900000E4F5F01208F5158115817414C0E0E4C0E0740AC0E0
:2016D000E07464C0E090F0F3123EF4E58124FCF5817414C0E0E4C0E074F3C0E074F0C0E038
:2016F000900000E4F5F01207E5E58124FCF58122C00775E40075FC0075F70075FE0290F96A
:2017100053E0FF54F06002800DD291758F0075F60075FD008012758F8175F62F75FD8175F7
:14173000FE2F53807E5390D075F30075F40075F500D0072240
:14640A005612098501084A41000000000904EC0212045A0A7F
:027FFE0010640D
:20174400E58620E0FB225390FD00225380FB0022E58620E0FB004390020022E58620E0FB48
:20176400004380040022AE82AF837D00BD08005017ED75F002A424CFF58274F035F0F5830E
:20178400EEF0EFA3F00D80E422E582FF30E025124FF7C0071242C7D2AF121696123C561288
:2017A400476DD00775820A1247AC90F959E0FEF5821246F8EF30E209123C83200C030207FA
:2017C400D622E58230E206300C030207CA22AF82AE83ADF0FC90F0EFEFF0EEA3F0EDA3F010
:2017E400ECA3F090F0EFE0FCA3E0FDA3E0FEA3E0FFC004C005C006C007741EC0E07464C0B8
:20180400E01253E6E58124FAF581300C16758204C007C006C005C0041217C6D004D005D0D4
:2018240006D007C007C006C005C004125602D004D005D006D0071217008C828D838EF0EF3D
:2018440012434F75820102178DE582FF601090F0E4E0FFBFFF00500690F0E4EF04F090F04E
:20186400E4E0FFBF18005007900E10E4F5F022BF24005007901C20E4F5F02290518075F023
:2018840001E42290F0E0E07875F2E408F29002301258C17862740EF2E408F21256EAAE82A5
:2018A400AF8374282EFEE43FFF90F0DFE054077D0025E0FCED33FDEC24CFF582ED34F0F577
:2018C40083EEF0EFA3F090F0DFE02401F0227E007F007D00BD0800501DED75F002A424CF14
:2018E400F58274F035F0F583E0FBA3E0FCEB2EFEEC3FFF0D80DEEFC423CEC423541F6ECE2C
:20190400541FCE6ECEFF90F0CCE0FCA3E0FDC3EE9CEF9D50058C828D83228E828F8322905D
:20192400FAB0E0FF3395E0FEC007C0067433C0E07464C0E01253E6E58124FCF58190F0BFA2
:20194400E0FF7E0090F0C0E0FD3395E0FCC007C006C005C004743EC0E07464C0E01253E63A
:20196400E58124FAF5812275820E12459C1245C875820F12459C90FAAEE0FEA3E0FF742308
:20198400C0E08E828F831241A415817404C0E0123CEDAC82AD83158190F0EBECF0EDA3F0E6
:2019A400C20A90F0CAE0FEA3E0FFC3EC9EED9F5004D20A803A90F0E7E0FCA3E0FD4C601368
:2019C400C3EC9EED9F500C90F0EBECF0EDA3F0D20A801C90F0E9E0FCA3E0FD4C6011C3EC5E
:2019E4009EED9F500A90F0EBECF0EDA3F0D20A90F0E9E0C0E0A3E0C0E090F0E7E0C0E0A326
:201A0400E0C0E090F0EBE0C0E0A3E0C0E090F0E5E0C0E0A3E0C0E0744FC0E07464C0E0123F
:091A240053E6E58124F6F5812268
:20641E00536C656570696E6720666F7220256C64206D730A0054656D7020256420430A00F5
:20643E00525353492025642C204C51492025640A00426174745620426F6F742025642C20E5
:1A645E006E6F772025642C2054782025642C207570646174652025640A00E4
:0500DC00781074FFF232
:201A2D00E58620E0FB225390FD00225380FB0022E58620E0FB004390020022E58620E0FB5C
:201A4D00004380040022121AA9E582600790F96CE0F58222121A73E582600790F970E0F544
:201A6D0082227582002290F95BE05407FFBF012890F95CE003035403FFBF031C90F95CE0D2
:201A8D0023235403FFBF031090F95BE023235401FFBF0104758201227582002290F95BE0B2
:201AAD005407FFBF012390F95CE003035403FFBF021790F95CE023235403FFBF030B90F92C
:201ACD005BE020E6047582012275820022AFF0AE83E58290FA70F0EEA3F0EFA3F090FA7063
:201AED00E0FDA3E0FEA3E0FF90FA6EE0FBA3E0FC79007A00C3E99BEA9C5052E94A6016E9B3
:201B0D00540F6002800F7478C0E07464C0E01253E615811581C003C004E92DF8EA3EFB8FA2
:201B2D000488828B838CF0125C2FF87C00C000C004747AC0E07464C0E01253E6E58124FC94
:201B4D00F58109B900010AD004D00380A77478C0E07464C0E01253E61581158122AFF0AE7D
:201B6D0083E5827812F2EE08F2EF08F27815E4F27B017811C3E2F5F0EB95F050227812E2E1
:201B8D00FA08E2FC08E2FFEB2AFAE43CFC8A828C838FF0125C2FFA7815E22AF20B80D378B2
:201BAD0012E2FD08E2FE08E2FF8D828E838FF0125C2FFD7815E2B50503D38001C3E433F5CE
:201BCD008222AFF0AE83E5827817F2EE08F2EF08F2781AE4F27B017816C3E2F5F0EB95F05F
:201BED0050227817E2FA08E2FC08E2FFEB2AFAE43CFC8A828C838FF0125C2FFA781AE22A32
:201C0D00F20B80D37817E2FD08E2FE08E2FF8D828E838FF0781AE20258A6E5812404F58111
:201C2D00AF82C218C007124996D0078F821246F8C007124A4BD218124996D0077E01EE24EB
:201C4D00FC5003021D5190F9DB7414F0C007C00612375890F9ED74EDF090F9DB124892D0C7
:201C6D0006D00712427FAA82AB83ACF0FD90FA7374A62AF0740E3BA3F0E43CA3F0E43DA3BC
:201C8D00F0C00612427FAA82AB83ACF0FD90FA73E58124FCF8E0F6A3E008F6A3E008F6A3C5
:201CAD00E008F6E58124FCF8C3EA96EB0896EC0896ED0896D0064003021D4DC007C00612B6
:201CCD0049A8AD82D006D007C374818DF063F08095F050AD90F971E0FDB507A5C007C006DB
:201CED00121A53AD82D006D007BDEE95C007C006121A73E582D006D00760867408C0E07486
:201D0D0068C0E074F9C0E090F946123F2E15811581158190F95EE0FCA3E0FD90F94EECF09B
:201D2D00EDA3F08F047D00C004C0057480C0E07464C0E01253E6E58124FCF5818F82802079
:201D4D000E021C4B8F057E00C005C006748AC0E07464C0E01253E6E58124FCF5817582000E
:201D6D00E58124FCF5812290F9DB742AF012375890F9ED74E5F090F9F47482F090F0E3E040
:201D8D0090F9F5F090F0C0E090F9F0F090F0BFE090F9EFF090FAB0E090F9F1F090F0EBE0E9
:201DAD00FEA3E0FF90F9F2EEF0EFA3F090F9F6E4F0905C5B93FE740193FF90F9F7EEF0EF3C
:201DCD00A3F090F959E090F9F9F090F0C9E090F9FAF078167415F290F9EE75F000121BCFB2
:201DED0090F9DB024892D21812499612196B1219237F00781BE4F2781BE2B40E0040030273
:201E0D001ED1C007121D74D00712427FAA82AB83ACF0FD74882AF52674133BF527E43CF58B
:201E2D0028E43DF529C00712427FAC82AD83AEF0FFC3EC9526ED9527EE9528EF9529D00757
:201E4D004003021EC4C0071249A8AE82D007C374818EF063F08095F050CBC007121A53AEE0
:201E6D0082D007BEE6BF78117411F290F97175F000C007121B6AE582D00760A97408C0E079
:201E8D007468C0E074F9C0E090F946123F2E15811581158190F95E75F000125C2FFDA31201
:201EAD005C2FFE90F94EEDF0EEA3F090F0E0EFF090F97175F00022781BE22401F2781BE296
:201ECD00FF021E0490F0E0740EF090000075F00022D2181249967F00781CE4F2781CE2B4FB
:201EED000E004003021FC590F9DB7414F090F9ED74E3F0C00712375890F9DB124892D00776
:201F0D0012427FAA82AB83ACF0FD74882AF52A74133BF52BE43CF52CE43DF52DC007124228
:201F2D007FAC82AD83AEF0FFC3EC952AED952BEE952CEF952DD0075072C0071249A8AE820C
:201F4D00D007C374818EF063F08095F050CEC007121A53AE82D007BEE6C278117411F290AE
:201F6D00F97175F000C007121B6AE582D00760AC7408C0E07468C0E074F9C0E090F9461257
:201F8D003F2E15811581158190F95E75F000125C2FFDA3125C2FFE90F94EEDF0EEA3F0901C
:201FAD00F0E0EFF090F97175F00022781CE22401F2781CE2FF021EE990F0E0740EF0900077
:201FCD000075F00022AFF0AE83E582781DF2EE08F2EF08F2781DE22402FA08E23400FB0826
:201FED00E2FC8A828B838CF0125C2FF52E852E2F75300090FA5CE0F531AE317F00E52FC3F8
:20200D009EFEE5309FFF7875EEF2EF08F2900063C004C003C0021258C1AE82AF83D002D043
:20202D0003D0048E2F8F3090FA77E52FF0E530A3F0781DE22401FD08E23400FE08E2FF8D68
:20204D00828E838FF0125C2FFD90F91FE0FFEDB50702800122E52E24D5500122C3E52E9508
:20206D00315001227463252FFEE43530FFC374239E74089F500122781DE2FD08E2FE08E272
:20208D00FF78117466F28D828E838FF0C004C003C002121B6AE582D002D003D0047003020B
:2020AD002146781DE22403FD08E23400FE08E28D2F8E3090FA77E0FEA3E0FFEE24F3FEEF3E
:2020CD0034F0FF8E828F837463C0E0E4C0E0C02FC030123EF4E58124FCF5818A828B838CEE
:2020ED00F0125C2FFA7F00788A7408F2E408F28A828F83C007C002125B6AAD82AE83D002CF
:20210D00D007ED2421FDEE34F9FE5302078AF005F07401800225E0D5F0FBF4FA8D828E83FE
:20212D00E052028D828E83EAF07497C0E07464C0E01253E615811581227499C0E07464C063
:20214D00E01253E61581158122AF82AE83ADF0FC7820EFF2EE08F2ED08F2EC08F290FA5CEA
:20216D00E0FB7A0090F91FE0FF7E00C003C002C007C00674AAC0E07464C0E01253E6E581FF
:20218D0024FAF581D21812499612427F85823285833385F034F53578207977E22414F3080C
:2021AD00E2340009F308E2340009F308E2340009F3900019E4F5F01258E1AA82AB83AEF017
:2021CD00FFEA2532F532EB3533F533EE3534F534EF3535F53512427FAA82AB83AEF0FFC380
:2021ED00EA9532EB9533EE9534EF9535503C1249A8AF82C374818FF063F08095F050D61277
:20220D001A53AF82BFE8CE90F97175F000121FD27F00EF2421FDE434F9FE8D828E83E0700D
:20222D00060FBF060040EBBF06AB7478C0E07464C0E01253E615811581C218124996024A8A
:20224D004B90F972E4F0A3F090F97175F00022742AC0E0E4C0E0C0E090F9DB123E96158101
:20226D001581158190F9DB742AF090F940E0600890F9F174E4F0800690F9F174E7F0740899
:20228D00C0E07450C0E074F9C0E090F9E9123F2E1581158115817408C0E07446C0E074F98A
:2022AD00C0E090F9E1123F2E15811581158190F9DCE054F84401F090F9DCE054C74440F02C
:2022CD0090F9DDE0440C54CF44C0F090F958E0FF04F090F9DEEFF090F94EE0FEA3E0FF9083
:2022ED00F9DFEEF0EFA3F07DF27EF98D828E837411C0E07416C0E074F9C0E0123F2E158122
:20230D00158115817DF27EF97F0078167411F28D828E838FF0121BCF90F9DB024892E581D9
:20232D002404F581D218124996124A4B7F00BF1E00400302240EC00712225CD00712427F9C
:20234D00AB82AC83ADF0FE90FA7974642BF0749F3CA3F0740B3DA3F0E43EA3F0C00712497B
:20236D00A8AE82D007C374818EF063F08095F05051C007121A53AE82D007BEE8028028BE17
:20238D00E9028005BEEC33802978117403F290F97175F000C007121B6AE582D0076023903A
:2023AD00F97175F000806312224EAC82AD83AEF0805890000075F000805090000075F0004E
:2023CD008048C00712427FC8E58124FCC8A68208A68308A6F008F690FA79E0FAA3E0FDA383
:2023ED00E0FEA3E0FFE58124FCF8C3E69A08E69D08E69E08E69FD00750030223690F02231F
:20240D003B12224EAD82AE83AFF0E58124FCF58122741BC0E0E4C0E0C0E090F9DB123E9638
:20242D0015811581158190F9DB7419F090F9F174EAF07408C0E07450C0E074F9C0E090F90E
:20244D00E9123F2E1581158115817408C0E07446C0E074F9C0E090F9E1123F2E15811581AD
:20246D00158190F9DCE054F84401F090F9DCE054C74440F090F9DDE0440C54CF44C0F090E2
:20248D00F94EE0FEA3E0FF90F9DFEEF0EFA3F090F958E0FF04F090F9DEEFF090F9DB024818
:2024AD0092D2181249967F00BF1000506CC00712241ED00712427F85823A85833B85F03C9E
:2024CD00F53D12427F85823685833785F038F539E536C3953AFAE537953BFCE538953CFD19
:2024ED00E539953DFEC3EA94A6EC940EED9400EE94005022C0071249A8AE82D007C374816E
:20250D008EF063F08095F050B9C007121A53AE82D007BEEBAD220F808F22AF82E4FDCD5497
:20252D0003A2E0CD13CD13A2E0CD13CD13CDFCEF0303543F4DFDEF030354C0FE7F00740171
:20254D002DFDE43C8F828E838DF022AD82AE83AFF07C007B00BB040040030225E7C0048B0E
:20256D0082C007C006C005C003122527A882A983AAF0FCD003D005D006D0077416C0E0E40A
:20258D00C0E074F3C0E074F0C0E0888289838AF0EC1206AAE58124FCF5817460C0E074FC65
:2025AD00C0E090F0FB12420115811581920ED004300E218D008E018F027408C0E0C000C056
:2025CD000190F0F3123EC2158115811581920E50038C82220B8B040225627582FF22AF8217
:2025ED005307F87E007D00BD04004003022673C0068D82C007C005122527AA82AB83ACF02D
:20260D00FED005D0077416C0E0E4C0E074F3C0E074F0C0E08A828B838CF0EE1206AAE5819E
:20262D0024FCF5817460C0E074FCC0E090F0FB124201158115819228D006302823C0069016
:20264D00F108E0FC5304F87B008F027E00ECB50206EBB506028004D0068005D0068E822287
:20266D000D8D060225F47582FF22122527AC82AD83AEF0FF7416C0E0E4C0E074F3C0E074F8
:20268D00F0C0E08C828D838EF0EF1206AAE58124FCF58190F108E0F58222AF828F060EEE90
:2026AD0024FB50027E00EEB507038E82228E82C007C006122527AA82AB83ACF0FDD006D0AB
:2026CD00077416C0E0E4C0E074F3C0E074F0C0E08A828B838CF0ED1206AAE58124FCF581EC
:2026ED007460C0E074FCC0E090F0FB12420115811581922850A890F108E0FD5305F87C0069
:20270D00BD789BBC00988E8222122527AC82AD83AEF0FF7404C0E0E4C0E08C828D838EF0C5
:20272D00EF1208F515811581227F00BF0400500C8F82C007122716D0070F80EF22AF828F44
:20274D00057E00C005C00674B9C0E07464C0E01253E6E58124FCF5818F82122527020A3522
:20276D007825E4F208F208F208F27B00BB0400400302280C8B82C00312252785823E8583BD
:20278D003F85F040F541D0037416C0E0E4C0E074F3C0E074F0C0E0853E82853F838540F035
:2027AD00E5411206AAE58124FCF5817460C0E074FCC0E090F0FB12420115811581920F50B7
:2027CD003AC00390F104E0FAA3E0FBA3E0FEA3E0FF7825C3E29A08E29B08E29E08E29FD0CD
:2027ED0003501890F1047825E0F2A3E008F2A3E008F2A3E008F290F945EBF00B0227797828
:20280D0025E2F58208E2F58308E2F5F008E222AF82AE83D21090F91FE0FD7C007B007A00B6
:20282D008C44EBC454F0C544C4C5446544C54454F0C5446544F545EDC4540F4544F544ED4D
:20284D00C454F0F543754200300D17782FE542F27470254308F2E4354408F2E4354508F26B
:20286D0080497810E2F582C007C00612252785824685834785F048F549D006D007741625C3
:20288D0046F546E43547F547E43548F548E43549F549782FE5462542F2E547354308F2E522
:2028AD0048354408F2E549354508F290FA807405F090FA5CE4F090F94004F07829EFF2083A
:2028CD00EEF27406C0E0E4C0E0C0E090F921123E9615811581158190FA80E0FB14F0EB7037
:2028ED0003022C5F1010030229AE7829E2FA08E2FB8A828B8378627463F2E408F21256EAF0
:20290D00AA8290FA7DEAF07829E2FB08E2FF8B828F8378837463F2E408F2C002125A2DE535
:20292D00828583F0D00245F0600690FA7DEA04F090FA7DE024EA500690FA7D7415F090FA69
:20294D005CE0FB7A0090FA7DE0FFC3EA9F50528B067F00788A7408F2E408F28E828F83C0A5
:20296D0007C006C003C002125B6AAC82AD83D002D003D006D007EC2421FCED34F9FD5306D4
:20298D00078EF005F07401800225E0D5F0FBFE8C828D83E0FF42068C828D83EEF00B0A8020
:2029AD00A412232BAA82AB83AFF0EA4B7003F582220ABA00010B8A828B838FF0125C2FFEC8
:2029CD00A3125C2FFF4E60428E048F05C3EC9423ED9400501A7877EEF2EF08F2E408F208A6
:2029ED00F2900019E4F5F01258E11242E0801BEC24F6FCED34FFFD7F007E008C828D838F83
:202A0D00F0EE1217D2D218124996900122E4F5F012215678337401F290FA5CE0FF7E00900B
:202A2D00FA7DE0FDC3EE9D505E8F047D00788A7408F2E408F28C828D83C007C006C005C0AB
:202A4D0004125B6AAA82AB83D004D005D006D007EA2421F582EB34F9F5835304078CF005C9
:202A6D00F07C017D008006EC2CFCED33FDD5F0F7E0FB7A005204EA5205EC4D60067833E4D2
:202A8D00F280040F0E80987833E27003022C2490FA7DE07875F2E408F29000631258C1AEBC
:202AAD0082AF83782DEEF2EF08F290FA8174F3F074F0A3F0E4A3F090FA5CE0704B90F0F323
:202ACD00E0FCA3E0FD7829ECF208EDF290F0F5E0FCA3E0FD782BECF208EDF290FA7EE4F012
:202AED00A3F0782DE2FC08E2FDEC24FCFCED34FFFD782DECF2ED08F290FA81740424F3F0B3
:202B0D00E434F0A3F0E4A3F07829E2FC08E2FD782DC3E2F5F0EC95F008E2F5F0ED95F050FF
:202B2D000A7829792DE2F308E209F37829E2FC08E2FD782DD3E29CF4B3FCB308E29DF4FD52
:202B4D007829ECF208EDF275820412178D90FA81E0F546A3E0F547A3E0F548AA46AF47784E
:202B6D002DE2C0E008E2C0E0C002C007782FE2F58208E2F58308E2F5F008E21207E5E58107
:202B8D0024FCF5817582041217C6782DE2FA08E2FD7E007F00782FE22AF208E23DF208E29B
:202BAD003EF208E23FF2AD46AE47AF48782DE2F54608E2F547AA46AC47154674FFB5460248
:202BCD001547EA4C60368D828E838FF0125C2FFCA3AD82AE838C4275430090FA7EE0FAA37A
:202BED00E0FC8A4A8C4BAB42AC43EB254AFBEC354BFC90FA7EEBF0ECA3F080B990FA7DE026
:202C0D00FF90FA5CE02FF07829E2FE08E2FF4E60067833E4F2D21090F940E4F07833E270A8
:202C2D00030228E4782BE2FE08E2FF90FA7EE0FCA3E0FDEEB50406EFB50502801174D3C0B6
:202C4D00E07464C0E01253E61581158180047582012275820022AFF0AE83E58290FA88F0A8
:202C6D00EEA3F0EFA3F090FA88E0FDA3E0FEA3E00DBD00010E8D828E837408C0E07430C0D8
:202C8D00E074F9C0E0123EC21581158115819211501490F938E0FCA3E0FDA3E0FEA3E0FF3F
:202CAD00EC4D4E4F707490F91FE4F090FA88E0FDA3E0FEA3E0FF74012DFAE43EFBC002C0A4
:202CCD000390F917123DC415811581740D2DFAE43EFB8F048A828B838CF0125C2FFA90F9F7
:202CED0020F07411C0E0C005C00690F92F123F2E1581158115817408C0E0E4C0E09070006E
:202D0D00E4F5F01208F51581158190F938E0FEA3E0FF90FA86EEF0EFA3F090F938E0FCA3D1
:202D2D00E0FDA3E0FEA3E0FFEC4D4E4F7003022DBCC3E49C74109DE49EE49F500B90FA84A0
:202D4D00E4F07410A3F0800890FA84ECF0EDA3F0D20D90FA84E0FEA3E0FF8E828F831228E0
:202D6D001CE582604690F91FE0FF0F90F91FEFF090F938E0FCA3E0FDA3E0FEA3E0FF90FA56
:202D8D0084E0FAA3E0FB8A008B01E4FAFBECC398FCED99FDEE9AFEEF9BFF90F938ECF0EDFC
:202DAD00A3F0EEA3F0EFA3F0022D277582002275820122AFF0AE83E58290FA8DF0EEA3F028
:202DCD00EFA3F090FA8DE0FDA3E0FEA3E0FF74012DFAE43EFB8F048A828B837408C0E07477
:202DED0030C0E074F9C0E0123EC21581158115819212504090F93DE0FC740E2DFDE43EFE73
:202E0D008D828E838FF0125C2FFDECB5052690F938E0FCA3E0FDA3E0FEA3E0FFEC4D4E4FAA
:202E2D00601274EBC0E07464C0E01253E615811581022FCA75820412178D90F9457834E01F
:202E4D00F290FA8DE0FCA3E0FDA3E0FE740E2CFAE43DFB8E078A828B838FF0125C2FFA54A2
:202E6D00FC60317834E2FB7F00C003C00774FEC0E07464C0E01253E6E58124FCF58190FACB
:202E8D006E7411F0E4A3F08C828D838EF0121ADA7834E4F290F945E02401F0FFBF040040E2
:202EAD000590F945E4F090F945E0FF7834E2B507197582041217C67422C0E07465C0E012A3
:202ECD0053E615811581758201228F82122527AC82AD83AEF0FF7416C0E0E4C0E074F3C027
:202EED00E074F0C0E08C828D838EF0EF1206AAE58124FCF5817460C0E074FCC0E090F0FB99
:202F0D00124201158115819212500890F108E054F8708190F945E0FF7810F28F82122527EB
:202F2D00AC82AD83AEF0FF7404C0E0E4C0E08C828D838EF0EF1208F515811581758204121A
:202F4D0017C67810E2FE7F00C006C007742CC0E07465C0E01253E6E58124FCF58190F91F6B
:202F6D00E4F090FA8DE0FDA3E0FEA3E0FF74012DFAE43EFBC002C00390F917123DC41581F2
:202F8D001581740D2DFAE43EFB8F048A828B838CF0125C2FFA90F920F07411C0E0C005C0C6
:202FAD000690F92F123F2E15811581158190F938E0FEA3E0FF90FA8BEEF0EFA3F090F938AE
:202FCD00E0FCA3E0FDA3E0FEA3E0FFEC4D4E4F7003023061C3E49C74109DE49EE49F500BE5
:202FED0090FA84E4F07410A3F0800890FA84ECF0EDA3F090FA84E0FEA3E0FF8E828F831237
:20300D00281CE582604A90F91FE0FF0F90F91FEFF090F938E0F54CA3E0F54DA3E0F54EA321
:20302D00E0F54F90FA84E0FAA3E0FBE4FEFFE54CC39AFAE54D9BFBE54E9EFEE54F9FFF9097
:20304D00F938EAF0EBA3F0EEA3F0EFA3F0022FCA7582002275820412178D7430C0E074F961
:20306D00C0E090F0F3123DC41581158190F0FB7421F07447A3F0744DA3F07447A3F090F978
:20308D0041E02401F0A3E03400F0A3E03400F0A3E03400F090F941E0FCA3E0FDA3E0FEA3AE
:2030AD00E0FF90F104ECF0EDA3F0EEA3F0EFA3F090FA8BE0FEA3E0FF7D007C0090F0FFEE65
:2030CD00F0EFA3F0EDA3F0ECA3F090F93CE090F103F090F93DE090F108F07810E2F5821247
:2030ED002527AC82AD83AEF0FF7416C0E0E4C0E074F3C0E074F0C0E08C828D838EF0EF1226
:20310D0007E5E58124FCF5817582041217C675820122AFF0AE83E58290FA91F0EEA3F0EF04
:20312D00A3F0C20D90FA91E0F553A3E0F554A3E0F555740D2553FAE43554FBAC558A828B51
:20314D00838CF0125C2FFCBC02028024BC03030234A7BC10028019BC20028014BC2102808F
:20316D000FBCA80302339ABCAF0302348702351690FA91E0FFA3E0FEA3E0FD75509075516F
:20318D00FA755200740E2FF553E43EF5548D558553828554838555F0125C2FFB8550828527
:2031AD0051838552F01258A690FA90E020E20302327E758204C007C006C00512178DD005CE
:2031CD00D006D00790FA90E0C423541FFB603CBB0F02806C8553828554838555F0125C2F75
:2031ED00F582C007C006C0051225EBAB82D005D006D007BBFF0280488B82C007C006C00545
:20320D00122716D005D006D007803574012FF553E43EF5548D558553828554838555F0C0A2
:20322D0007C006C005122558AB82D005D006D007BBFF02800B1224AE78357401F2023394A9
:20324D00758204C007C006C0051217C6D005D006D0078F828E838DF0122DC0E582600B1221
:20326D0024AE78357401F20233947835E4F202339474012FF553E43EF5548D558553508560
:20328D0054518555528550828551837408C0E07427C0E074F9C0E0123EC215811581158168
:2032AD009213500B1224AE78357401F2023394758204C007C006C00512178D85538285540A
:2032CD00838555F0122558AC82758204C0041217C6D004D005D006D007BCFF028051C0077E
:2032ED00C006C005C0041224AED004D005D006D0078F538E548D55AA53AB547411C0E0C0B1
:20330D0002C00390F92F123F2E15811581158190F938E4F0A3F0A3F0A3F090FC5FECF0903D
:20332D00FA90E054037824F28C8212274A803D743AC0E07465C0E01253E6158115818F8294
:20334D008E838DF0122DC0E582601B1224AE7810E2FB90FC5FF090FA90E054037824F28B63
:20336D008212274A80067835E4F2801B90F930E0FAA3E0FBC002C00390F927123DC41581A8
:20338D00158178357401F27835E2F5822290F938E0FAA3E0FBA3E0FEA3E0FFEA4B4E4F70F0
:2033AD002F74012553FDE43554FEAF558D828E837408C0E07430C0E074F9C0E0123EC215C4
:2033CD008115811581921350071224AE7582012290F91FE4F090FA91E0F550A3E0F551A311
:2033ED00E0F55274012550FAE43551FBC002C00390F917123DC415811581740D2550FDE415
:20340D003551FEAF528D828E838FF0125C2F90F920F0AD50AE517411C0E0C005C00690F910
:20342D002F123F2E15811581158174092550FDE43551FEAF528D828E838FF0125C2FFDA3DB
:20344D00125C2FFE8D828E8312281CE582602790F938E4F0A3F0A3F0A3F075820412178D61
:20346D0090F0F775F0001213947582041217C61224AE75820122758200221224AE740E251E
:20348D0053FDE43554FEAF558D828E838FF0125C2FF5821204327582012275820412178D9A
:2034AD008553828554838555F0122C63E58260551224AE75820412178D123531300D0E90DA
:2034CD007019E4F5F012068A124FB680537442C0E07465C0E01253E61581158175820412AE
:2034ED0017C690FA5B7401F090F0E374E0F07408C0E0E4C0E0C0E090F927123E9615811570
:20350D00811581801B758200227F00C004C007745FC0E07465C0E01253E6E58124FCF58196
:20352D0075820022783AE4F208F208F208F2C20D7419C0E0E4C0E074A2C0E074FDC0E09018
:20354D007000E4F5F01206AAE58124FCF58178367419F2747008F2E408F208F2905C5D93A8
:20356D00FD740193FE7402937406C0E0C005C00690FDAB123EC21581158115819214500784
:20358D0090F08F7405F022905C5DE493FD740193FE7402937409C0E0C005C00690FDAB12C6
:2035AD003EC21581158115819214500790F08F7402F02290FDAAE0FFBF0102800790F08F3A
:2035CD007401F02290FDA8E0FEA3E0FFC3E49E74809F500790F08F7403F02290FDA8E0FEE8
:2035ED00A3E0FF4E70030236A490FDA8E0FEA3E0FFC374239E74089F50047E237F08C006B5
:20360D00C00774F3C0E074F0C0E07836E2F58208E2F58308E2F5F008E21206AAE58124FC61
:20362D00F58190FA9474F3F074F0A3F0E4A3F090FA97EEF0EFA3F0783AE2F58208E2F58336
:20364D0008E2F5F008E2C007C00612377D783AC0E0E582F2E58308F2E5F008F2D0E008F2CB
:20366D00D006D0078E028F037C007D007836E22AF208E23BF208E23CF208E23DF290FDA84C
:20368D00E0FCA3E0FDECC39EFEED9FFF90FDA8EEF0EFA3F00235E890FDA2E0FCA3E0FDA309
:2036AD00E0FEA3E0FF783AE2B5041108E2B5050C08E2B5060708E2B50702800790F08F7431
:2036CD0004F02290FDA6E0FEA3E0FF90F08DEEF0EFA3F0C006C007747FC0E07465C0E0121C
:2036ED0053E6E58124FCF581D20D2212276DAC82AD83AEF0FF90F941ECF0EDA3F0EEA3F03F
:20370D00EFA3F0227408C0E07450C0E074F9C0E090FA66123F2E15811581158190FA5DE073
:20372D0054F84421F090FA5EE054F344C8F090FA607437F07413A3F090FA6274FFF0A3F04F
:20374D0090FA647437F07413A3F0227411C0E0745DC0E074FAC0E090F9DC123F2E15811564
:20376D0081158190F958E0FF04F090F9DEEFF022AC82AD83AEF0FF783EECF4F2EDF408F2AB
:20378D00EEF408F2EFF408F290FA94E0F55AA3E0F55BA3E0F55C90FA97E0F556A3E0F55754
:2037AD00855658855759155674FFB556021557E5584559700302387B855A82855B83855C95
:2037CD00F0125C2FFEA385825A85835B8E047D007E007B00783EE26CF208E26DF208E26E4B
:2037ED00F208E26BF27846E4F208F27846C3E2940808E26480948050A7783EE25401FA082E
:20380D00E25400FB08E25400FC08E25400FE7842C3E49AF2E49B08F2E49C08F2E49E08F298
:20382D007841E2C313F56018E213F55F18E213F55E18E213F55D7842E25420FC08E25483C8
:20384D00FD08E254B8FE08E254EDFA783EEC655DF2ED655E08F2EE655F08F2EA656008F2F0
:20386D007846E22401F208E23400F20237F8783EE2F4FB08E2F4FC08E2F4FD08E2F48B821C
:05388D008C838DF02288
:206478000A002530327820004150206F6E2025640A004E6F204150206F6E2025640A002E4E
:2064980000636865636B435243206661696C65640A0052455120256420706172742025646E
:2064B8000044726177696E6720696D61676520696E20736C6F742025640A00626C6B20668A
:2064D80061696C65642076616C69646174696F6E210A0072657374617274696E6720696DF6
:2064F8006720646C0A004368616E67696E67207374617274696E67536C6F742066726F6D02
:2065180020256420746F20300A004E6F20736C6F74730A006E657720646C20746F2025645B
:206538000A00646C20696D670A004F544120696D6167652076616C69646174696F6E20662A
:2065580061696C65640A00646174615479706520307825782069676E6F7265640A004368BC
:20657800726F6D613239004F54412076616C6964617465642C207570646174696E672074FB
:0F6598006F2076657273696F6E202530780A0068
:0568A900FF21474D47EF
:20389200C007C006C005C004C00390FA9EE0600302398690FA9FE0FF24FB5003023983EFEA
:2038B2002F2F9038B8730238C70238E502396602397D02398390FA9C744BF0E4A3F090FA98
:2038D2009E740BF090FA9F7401F090FAA07468F002398690FA991241AEE582FF6045EF2442
:2038F200E0FFBF600040027F1F90FAA1E0FE0E90FAA1EEF0C0078E82123CD8AD82AE831546
:203912008190FAA0E0FC7B002DFDEB3EFE8D828E837467C0E01241A9AE82158190FAA0EECD
:20393200F0800B90FA9F7402F090FAA0E0FFEF75F002A424A7F582746535F0F583E493FE3B
:20395200A3E493FF90FA9CEEF0EFA3F090FA9E740BF0802090FA9F7403F090FA9C74E3F082
:20397200741AA3F090FA9E03F0800990FA9F7404F0C3802D90FA9CE0FEA3E0FFEE54012482
:20399200FFE433FDEFC313CE13CEFF90FA9CEEF0EFA3F090FA9EE0FF1F90FA9EEFF0ED24CB
:0C39B200FFD003D004D005D006D00722BF
:2065A7009B01B3013303C90089019101990019013101930013012301CD01D90199039D01D7
:2065C700B90139037302D30193033B017301B7039701A7012703370167016702DB001B0309
:2065E7006303C500D10011038D00B10031028B00A3002302ED008D03B103DD001D0371031E
:2066070077038B03A303BB003B02BB03D70017034703B7003702C702F70213028F02650017
:20662700850169000903A10121034D000D01590019026101610243025300EF024301F1023E
:20664700E501E901C9033D01790179022F014F014F02DB037B036F03F500C503D103BD0077
:0E6667003D02AF002F02DD03BD03D703AF03DA
:2039BE00C007C006C005C004C001C000AC82AD83AEF0FFBF20005031BF0A03023A5D8F8281
:2039DE00C007C006C005C004C003C002C001C000C025123BA5D025D000D001D002D003D0CB
:2039FE0004D005D006D00780567E00EF24E0FFEE34FFFEEF2FFFEE33FEEF2438F582EE349E
:203A1E005DF583E493A3E493C4540FFE90F0B3EEF0300507EE2EFE90F0B3F090F0B3E0FF61
:203A3E003395E0FE0FBF00010E90F099E0FCA3E0FDEF2CFFEE3DFE90F099EFF0EEA3F0D0E4
:203A5E0000D001D004D005D006D00722C007C006C005C004C003C001C000E58124F6FFC066
:203A7E0007C006C005C004C003C002C001C000C025123B58D025D000D001D002D003D00433
:203A9E00D005D006D007E58124F6F886050886068D828E83E493FCBC0C7290F099E4F0A392
:203ABE00F0C007C005C006C0E0C0E09039BE125095E58124FBF58190F099E0FDA3E0FE3343
:203ADE0095E0FCFB7428C39DFD74019EFEE49CFCE49BFB78647402F2E408F208F208F28DB9
:203AFE00828E838CF0EBC007C002C001C000C025125735AB82AC83ADF0FED025D000D00194
:203B1E00D002D00790F099EBF0ECA3F0C007E58124F5F8E6C0E008E6C0E0E4C0E0C0E09065
:203B3E001063125095E58124FBF581D000D001D003D004D005D006D0072230062530050680
:203B5E007E147F0080047E0A7F0090F0B4EEF03005067E207F0080047E107F0090F0B3EE8F
:203B7E00F0223005067E207F0080047E107F0090F0B4EEF03005067E147F0080047E0A7F43
:203B9E000090F0B3EEF022AF82BF08028018BF0902804EBF0A028013BF0B028055BF0C01DF
:203BBE0022BF0D568038B205023B58123B5890F0B4E0FE3395E0FD90F09BE0FBA3E0FCEEE0
:203BDE002BFEED3CFD90F09BEEF0EDA3F090F09DE0FDA3E0FE90F099EDF0EEA3F022B20435
:203BFE002290F099E0FDA3E0FE90F09DEDF0EEA3F02290F09DE4F0A3F0227E00C007C006C0
:123C1E007475C0E07466C0E01253E6E58124FCF5812228
:15667500496E76616C69642063686172203078253032780A00BA
:203C3000E58620E0FB225390FD00225380FB0022E58620E0FB004390020022E58620E0FB37
:203C500000438004002275FB02228582F9E5F830E1FB53F8FDE5F820E0FB85F9822253F366
:203C7000C775FA3C75FC0F75F8C043F4C043F102D20B2253F1FD53F43F75FA0075FC31759C
:083C9000F84043F338C20B2297
:203C9800858283D0F0D0E0D082C082C0E0C0F022C00074FB2581F8E5828682088683088631
:203CB800F0D0002275F008C58213C58233D5F0F7C58222E583A2E713F583E58213F5822215
:203CD800D083D0E0D0F0C0F0C0E0C083E582A4F58285F08322C000E58124FDF8E6F88582B6
:203CF800F0A4F582E8A8F08583F0A428F583E5F03400F5F0E4D00022C000C001C0E0C0F050
:203D180074FA2581F88600E58288F0A4F582A9F0E58388F0A429F583E5F03400F9D0E08807
:203D3800F0A429C5F03400F9D0E0C0F088F0A429D0F0D001D00022C000C001C002E58124D7
:203D5800FBF8E6F918E6F88582F0A4C0E0AAF0E58388F0A42AF8E5F03400FAE98582F0A481
:203D780028C0E0E5F03AFA74003400F8E98583F0A42AFAE5F0388AF0D083D082D002D00142
:203D9800D00022D0E0D0F0C000C001C002C0F0C0E074F82581F9E7F809E7F922D002D0017E
:203DB800D00022C9C583C9C8C582C822123D9B75F008123DBBE0A3123DBBF0A3D5F0F302EB
:203DD8003DB4123D9B75F008123DBBE493A3123DBBF0A3D5F0F2023DB4123D9BC375F008FE
:203DF800123DBBE0A3F502123DBBE03AF0A3D5F0EF023DB4123D9B75F008123DBBE0A3F5F0
:203E180002123DBBE05AF0A3D5F0EF023DB4123D9BC375F008123DBBE0A3F502123DBBE082
:203E38009AF0A3D5F0EF023DB4123D9BC375F008123DBBE0A3F502123DBBE0A39AD5F0F01C
:203E5800023DB4123D9B75F008123DBBE0A3F502123DBBE0A36A7007D5F0EED3023DB4C3D2
:203E7800023DB4C8C0E075F008E038F0A3D5F0F9D00022D3E4023E7BC374FF023E7BC000E4
:203E9800C00174FA2581F8E6F5F0088601496015088600E8F0A374FF25F0F5F074FF39F50E
:203EB8000145F070EED001D00022C000C001C00274F92581F9E7D3601CF5F0098700098709
:203ED80001C3E0F502A3123DBBE0A3123DBB6A7004D5F0EED3D002D001D00022C000C0017B
:203EF800C00274F82581F9E7F5F00987024A601F098700098701123DBBE0A3123DBBF0A36B
:203F180074FF25F0F5F074FF3AF50245F070E7D002D001D00022C000C001C00274F9258101
:203F3800F9E76015F5F0098700098701123DBBE0A3123DBBF0A3D5F0F3D002D001D0002297
:203F5800C083C082E06003A380FAC3E582D0F095F0F582E583D0F095F0F58322C003C002B2
:203F7800C001C000C0E0C0F0C083C082A98174F62581F886F01886007502017503007582A6
:203F980011A2F74014C3E833F8E5F033F5F0C3EA33FAEB33FB058280E8E4C003C002C0E05D
:203FB800C0E0AA81C0F0C000C0E0C0E0A881C0E0C0E0C0E0C0E0AB81C000C001C375830459
:203FD80086F018E71995F0D583F6D001D000402BC000C001C375830486F018E795F0F71912
:203FF800D583F585020085030175830486F018E745F0F719D583F5D001D00074FC28F8C355
:2040180075830408E613F6D583F9C00074FC2AF8C375830408E613F6D583F9D000D582982C
:2040380020D508D082D083D0F0D00074F42581F58130D508D082D083D0F0D000E8D000D0E8
:2040580001D002D00322C2D5023F74D2D5023F74C003C002C001C000C0E0C0F0C083C082FD
:20407800A98174F62581F886F07401758219A2F7400A23C5F023C5F0058280F2C0E0E4C02B
:20409800E0C0E0C0E0AA81C0F0C0E0C0E0C0E0A881C0E0C0E0C0E0C0E0AB81C000C001C314
:2040B80075830486F018E71995F0D583F6D001D000402BC000C001C375830486F018E79535
:2040D800F0F719D583F585020085030175830486F018E745F0F719D583F5D001D00074FC57
:2040F80028F8C375830408E613F6D583F9C00074FC2AF8C375830408E613F6D583F9D00058
:20411800D58298D082D083D0F0D00074F42581F581E8D000D001D002D00322C006C005C044
:2041380004C003C002C001C00074F72581F886F074017C09A2F7400923C5F023C5F00C80C6
:20415800F3FBE4FAA9F0F88582F0FDFEC3E58298E583994011C3E58298F582E58399F58332
:20417800EA4DFDEB4EFEC3E913F9E813F8C3EB13FBEA13FADCD620D5048D828E83D000D0F3
:2041980001D002D003D004D005D00622C2D5024133D2D5024133E0C0E02401F0A3E0C0E0DE
:2041B8003400F0A3E0D083D0826014B4600AC000A882E2D000F582224009E493F58222E09B
:2041D800F58222C000A882E6D000F58222123D9B75F004D3123DBBE0FA3400F0EAA3123DEB
:2041F800BBF0A3D5F0EE023DB4123D9B75F004C3123DBBE0FAA3123DBBE0A36A7004D5F0E6
:20421800EFD3023DB4123D9BC3E0A398E0A399E0A39400E0A39400023DB4123D9BC3E0A39C
:2042380038E0A339E0A33400E0A33400023DB475F004E07004A3D5F0F9F58222A3A3A3E091
:0242580033220F
:04425A0075C90B22F5
:20425E00C0E0C007C006C0D075D000AEDAAFDB74012EF5DAE43FF5DBD0D0D006D007D0E0CA
:20427E0032C007C006C005C004C000AEDAAFDB784AEEF208EFF27848E5E2F27849E5E3F287
:20429E00EEB5DAE7EFB5DBE37848E2FC08E2FD08E2FE08E28C828D838EF0D000D004D005CE
:2042BE00D006D0072285E28222E4F5DAF5DBF5E4F5E5F5E6F5E7F5E275E40543D84043B88E
:2042DE000222AF82AE83ADF0FC784CEFF2EE08F2ED08F2EC08F212427F7850C0E0E582F2B3
:2042FE00E58308F2E5F008F2D0E008F212427FAA82AB83AEF0FF7850D3E29AF4B3FAB30888
:20431E00E29BF4B3FBB308E29EF4B3FEB308E29FF4FF784CC3E29A08E29B08E29E08E29FB8
:03433E0050CA2240
:2043410053C07F53A1FE53BEFC3243870122AF82AE83ADF0FC7854EFF2EE08F2ED08F2EC49
:2043610008F290FAA2E4F090FAA3F090FAA474DFF090FAA574BEF090FAA6E054E0F090FAA5
:20438100A6E0541FF090FAA77407F090FAA8E054E0F090FAA8E0549F4420F090FAA8E054A2
:2043A1007FF090FAA9E054FC4402F090FAA9E054FBF090FAA9E054F7F090FAA9E054CFF02E
:2043C10090FAA9E0543F4440F07854E2F5F008E242F008E242F008E245F0701B7B01750F4D
:2043E1006B7510FC85101190FAA2E511F07A6B90FAA3EAF00244837854C3E2943F08E294A1
:204401000008E2940008E29400500C7854743FF2E408F208F208F27854E225E0F51208E25C
:2044210033F51308E233F51408E233F515E5122512F512E51333F513E51433F514E5153329
:20444100F515747DC0E0E4C0E08512828513838514F0E51512405E7854C0E0E582F2E583A8
:2044610008F2E5F008F2D0E008F2158115817B007D647EFC8E0590FAA2EDF07E6490FAA31B
:20448100EEF053C07F53A1FE43A11075A8A0EB70147854E2F5F008E242F008E242F008E2E4
:2044A10045F070012253BEFBE5BE30E5FBE5C654384441F5C6E5C630E6FB43BE0453C67FA4
:2044C1007854C3E2F5F074F095F008E2F5F074FF95F008E2F5F0E495F008E2F5F0E495F065
:2044E100501B7DF07EFF7854E22410F208E23400F208E234FFF208E234FFF280117854E225
:20450100FD08E2FE7854E4F208F208F208F2EB60067A007C0080047A107C008AA175C000F4
:2045210043D6817AA27CFA8AD48CD575D60175A204E5A570FC75A2028EA48DA3AEA5EEB5C1
:20454100A50280FA43C702EB60077B0075BE07800375BE06000000E5BE5403600875D701BB
:20456100004387010053C7FDE5BE30E5FB75BE00E5BE30E5FB75C679E5BE30E6FB7E007D5C
:1B45810000000DBD80FB0EBE80F575C639E5C620E6FB75C63875BE0402448FFA
:0E68AE00060606060606040707070707070486
:20459C00AF8275BB0074304FF5B575B473E5B420E6FBE5B430E7FBAEBA7F00ADBB7C0090C5
:2045BC00FAAEEC4EF0ED4FA3F08FB522C21590FAAEE0FEA3E08E82C4C582C4540F6582C57A
:2045DC0082540FC5826582C582F58374E2C0E07404C0E0123D4FAC82AD83AEF0FF1581159B
:2045FC008190FAACE0FAA3E0FB74FFC0E07407C0E08A828B83123D4FA882A983AAF0FB15AA
:20461C00811581ECC398FCED99FDEE9AFEEF9BFF747DC0E08C828D838EF0EF123D10AC82E9
:20463C00AD83AEF0FF1581EFC40354F8CEC403CE6ECE54F8CE6EFFEDC40354074EFEEDC4C7
:20465C000354F8CCC403CC6CCC54F8CC6CFDEF30E70FD215C3E49CFCE49DFDE49EFEE49F1B
:20467C00FF90FAAAE0C0E0A3E0C0E08C828D838EF0EF12405EAC82AD83AEF0FF15811581E6
:20469C0074FF2CFC74033DFDE43EFEE43FFF74FFC0E07407C0E08C828D838EF0EF12405E07
:1646BC00AC821581158190FAB0ECF030150790FAB0C3E49CF0229D
:2046D200E58620E0FB225390FD00225380FB0022E58620E0FB004390020022E58620E0FB8B
:2046F200004380040022C007C006AF82BF64004027BF6A00502290DF097421F090DF0A74F2
:204712003BF090DF0B7413F08F06EE249CFE90DF0675F003A4F0802F90DF097422F090DF9D
:204732000A74BBF090DF0B7413F0BFC8004013BFE100500EEF2438FF90DF0675F00CA4F0B1
:20475200800590DF06E4F0D006D00722C00775E10490DF3BE0B401FCD0072212475E7F001F
:204772008F057EDFEFC390668A938D828E83F00FBF200040EB90DF237488F090DF24743192
:20479200F090DF257409F090DF2E748EF075911075ED00759D0075EF0322C007AF82C3EFCA
:2047B2006480946250047FE2800EC3748A8FF063F08095F050027F0A741E2FC3139066AA20
:2047D2009390DF2EF0D00722C007C006AE82AF838ED48FD575D601000000000000000000AD
:2047F200D006D0072275D68100000000000000000022C007C006C005AE82AF831247F78F57
:204812000590FC74EDF090FC75EEF07E727FFC8E828F831247DAD005D006D00722C007C0DA
:2048320006C005AE82AF831247F78F0590FC7AEDF090FC7BEEF07E7A7FFC8E828F8312479F
:20485200DAD005D006D00722301604E5EF70012212475E53C0FE43B801E5ED75F080A424D4
:20487200B2F58274FA35F0F58312480475E1022253B8FE1247F712475E75D10053C0FE2291
:20489200AE82AF837CFF7DFF1248828E828F8312482F75E90075E103E5E920E42375820F74
:2048B200C005C00412459CD004D00590FAAEE0FEA3E0FFC3EE9CEF9D50DE8E048F0580D8A4
:2048D2001247F7C005C00412485AD004D0057423C0E08C828D831241A415817404C0E01284
:2048F2003CEDAC82AD83158190F0E7ECF0EDA3F022C025C0E0C0F0C082C083C007C006C09D
:2049120005C004C003C002C001C000C0D075D000E5D130E040E5ED75F080A424B2FE74FA3E
:2049320035F0FF53D1FE8E828F83E0FD248240200D0DED2EF582E43FF583E0FF30E711E5E7
:20495200ED04FF8FEDBF030375ED00E5EF14F5EF12485A800F74BFC0E07466C0E01253E60B
:204972001581158153C0FED0D0D000D001D002D003D004D005D006D007D083D082D0F0D077
:20499200E0D02532201806124882C21622201605D21602485A22E59D75F080A424B2FE74AE
:2049B200FA35F0FF8E828F83E0FD7403B5EF047582FF228D037C0074022BF9E43CFAE92EBA
:2049D200F582EA3FF583E0FA747F5AD39494F4FABA7F0040047AFF8003EA2AFA90F0BFEAED
:2049F200F00BBB00010CEB2EF582EC3FF583E0A2E71324B390F0C0F00EBE00010FC005C0CB
:204A120006C00790F95B123F2E158115811581E59D04FF8F9DBF0303759D00D21910AF025E
:204A3200C219E5EFFF04F5EFA21992AFEF7007C00512485AD0058D8222D21A10AF02C21A64
:104A5200AFEF75EF03A21A92AFEF700302485A222A
:20668A00D3917D044522000F0022BB131D3B1373A7650700181E1CC700B0B610EA2A001FF2
:2066AA00030506080B0E191C242527293855408D8A84CAC4C0646D612069727120756E6517
:0966CA00787065637465640A00D0
:1068BC00DFD900008080131A0000DFD9207E13423C
:1700E10090FC437456F090FC447412F090FC4503F090FC467485F0BA
:204A6200E58620E0FB225390FD00225380FB0022E58620E0FB004390020022E58620E0FBF7
:204A8200004380040022C007C006C005C004C003C002C001C000E582785BF27E00C21C780F
:204AA2005CE4F2C006785CE2C0E0901000123CEDAA82AB831581785DEAF2EB08F2785F74FA
:204AC20004F2E408F2785DE2FA08E2FBE4FCFE7404C0E0E4C0E07447C0E074FCC0E08A8279
:204AE2008B838CF0EE1206AAE58124FCF5817404C0E07443C0E074FCC0E090FC47123EC21A
:204B0200158115811581921DD006201D03024BEC785FE2FB08E2FCC394104003024BECC096
:204B220006785D795FE3C5F0E225F0FB09E3C5F008E235F0FAE4FCFE7402C0E0E4C0E074A0
:204B420047C0E074FCC0E08B828A838CF0EE1206AAE58124FCF58190FC47E0F51674FFB534
:204B62001605D006024BECD006785BE2B5165D90FC48E0FCBC020040531C1C8C06785AC3F6
:204B8200E29C5004785AE2FCC0067B007858E2F51708E2F518785DE2FD08E2FF74022DFD5E
:204BA200E43FFF785FE22DFD08E23FFA7E007F00C004C003C017C0188D828A838EF0EF12FD
:204BC20006AAE58124FCF581D21CD00690FC48E0FF7D00785FE2FB08E2FCEF2BFBED3CFC5F
:204BE200785FEBF2EC08F2024B12785CE22401F2785CE2B40A005003024AA5301C048E0750
:204C020080027FFF8F82D000D001D002D003D004D005D006D00722758204C007C006C00576
:204C2200C004C003C002C001C00012178D124CBBD000D001D002D003D004D005D006D0073D
:204C4200301B4774D3C0E07466C0E01253E615811581C007C006C005C004C003C002C0018C
:204C6200C0001216B2124CBBD000D001D002D003D004D005D006D007301B0F74FFC0E07402
:204C820066C0E01253E615811581758204C007C006C005C004C003C002C001C0001217C68F
:204CA2007582001255C4D000D001D002D003D004D005D006D007D2AF22D21B785874A2F2CC
:204CC20074FD08F2785A7407F275822A124A88E582FF30E72A785874A2F274FD08F2785A67
:204CE2007406F2758201124A88E582FF30E710742CC0E07467C0E01253E615811581227415
:204D020004C0E0E4C0E0C0E090FDB2123E961581158115817404C0E074B2C0E074FDC0E0F3
:204D220090FDA4123EC2158115811581921E503B743EC0E07467C0E01253E6158115817479
:204D420004C0E074B2C0E074FDC0E0906412123EC2158115811581921E4010744DC0E07427
:204D620067C0E01253E6158115812290F9577444F090F9567467F090FDA4E0FF90F953F083
:204D820090FDA5E0FE90F952F090FDA6E090F951F090FDA7E090F950F090FDA4E4F07D00FA
:204DA2007C00C006C005C007C00474A2C0E074FDC0E0E4C0E07465C0E07467C0E01253E6D5
:204DC200E58124F7F58190F950E0FF7E0090F951E0FD7C00C007C006C005C0047473C0E0D4
:204DE2007467C0E01253E6E58124FAF58190FDA2E024BF90F955F090FDA3E024BF90F95461
:204E0200F090F956E0FF7E0090F957E0FD7C00C007C006C005C004747DC0E07467C0E07495
:204E220032C0E074FCC0E012545FE58124F8F58190F954E0FF7E0090F955E0FD7C00C00799
:204E4200C006C005C004747DC0E07467C0E07436C0E074FCC0E012545FE58124F8F581904E
:204E6200F952E0FF7E0090F953E0FD7C00C007C006C005C004747DC0E07467C0E0743AC0C3
:204E8200E074FCC0E012545FE58124F8F58190F950E0FF7E0090F951E0FD7C00C007C0066D
:204EA200C005C004747DC0E07467C0E0743EC0E074FCC0E012545FE58124F8F581785874F8
:204EC200AAF274FA08F2785A7402F2758212124A88E58230E7107486C0E07467C0E012539D
:204EE200E6158115812290FAAAE0C0E0A3E0C0E0749FC0E07467C0E01253E6E58124FCF5B1
:204F020081785874ACF274FA08F2785A7402F2758209124A88E58230E71074ADC0E074677C
:204F2200C0E01253E6158115812290FAACE0C0E0A3E0C0E074CAC0E07467C0E01253E6E5D4
:204F42008124FCF581C21B22904F5574B6C39582F5F02275F020C2ADC2AC43AE0100E5AE13
:204F620020E7FB05AD05ADD5F0F09000008583AD8582ACA375AB2275F00275F900E5F83055
:204F8200E1FB53F8FDE5F820E0FBC0F9D5F0EB43AE02E5AE20E6FBD0E0D0AFF5AFE5AE209D
:204FA200E6FB53AEFDE5AE20E7FBE583B440BE75C90B80FEC007C006C005C004C003124F60
:204FC2004AAC82AD83AEF0FF8E03C003C004C00590FDA2123F2E15811581158175D6FF757E
:204FE200A80075C70390FDA2E473D003D004D005D006D00722C007C00675A80075B80075AB
:205002009A0075C70075BE00E5BE30E5FB75C679E5BE30E6FB7F007E00000EBE80FB0FBF58
:2050220080F575C639E5C620E6FB75C63875BE04D006D0072243B404E5B4540C600280F892
:20504200E5BC65BDF58222125037C082125037C082125037C082125037D083D0F0D0E022E3
:0D506200C0008582BC7861E2F5BCD0002260
:2066D30046697273742063616C6C20746F204C6F6164476C6F62616C7346726F6D4545500E
:2066F300524F4D206661696C65640A005365636F6E642063616C6C20746F204C6F61644708
:206713006C6F62616C7346726F6D454550524F4D206661696C65640A006661696C65642079
:20673300746F2067657420534E0A00534E2069732064656661756C740A0067446566617540
:206753006C74454550524F4D20757064617465640A00534E20257325303278253032780016
:2067730025303278253032780A002530325825303258006661696C656420746F2067657478
:206793002041444320736C6F70650A0041444320736C6F70652025640A006661696C65648E
:2067B30020746F206765742041444320696E746572636570740A00414443206D41646349DD
:0D67D3006E746572636570742025640A00A1
:20506F00E58620E0FB225390FD00225380FB0022E58620E0FB004390020022E58620E0FBE4
:20508F00004380040022C007C083C082858107C004C003C002C001C00074F42581F88683E6
:2050AF0018868218860018E0A36013B4250B7C007A00E0A36008B4251612537780E9D0004C
:2050CF00D001D002D003D004D082D083D00722B4630518E61880E2FB4420B46D3AEB54202C
:2050EF0003F9C083C0821253137C0874FF2C93C083C082FAC47B02540F299053A693125325
:20510F0077EADBF3D082D083DC06D082D0838097743A12537780D4EBB42A09BA009B740194
:20512F004CFC808EB43007BA0004740680F2FB24D0501224F6400E240AFB740A8AF0A42BCC
:20514F00FA740480DBBB6C0DEC54086004741080CF740880CBBB733CEC5408C083C0827052
:20516F000512531A8003125313EC54047009E0A3609812537780F7BA0002808EE0A3600A5F
:20518F00125377DAF780830252677420125377DAF9025119EB4420B478EDC083C082125394
:2051AF0030C083C082E5F023F90324FF2582F582E5833400F583E054F0701119E0700D19AE
:2051CF001582E582B4FF021583D5F0EAB9000109EC5420600B09EC54026005742D1253770B
:2051EF00EC54046018EAC39940136011FAEC5402C4032420F582E582125377DAF9EC5420A6
:20520F00600B19EC54027005742D125377EB542003FAD082D083E904C313FC142582F582D5
:20522F00E5833400F583E954016005E079018005E07902FBC4540F2AC083C0829053A69381
:20524F00D082D083125377EBD9EB1582E582B4FF021583DCDB025119BB640674204CFC8020
:20526F0008BB750280030250B6C083C082125330C0F07408C395F0244BF9E434FCFBE0A3D2
:20528F0012536CF0A312536CD5F0F312536CF5F0EC54206028E5F054807006EC54DFFC80BA
:2052AF001CD0F0C0F07408C395F0244BF582E434FCF583C3E0F9E499F0A3D5F0F775F00A46
:2052CF00E4F0A3D5F0FBD0E0C403FB90FC5375F00AE0F9540F24FBE950022403F954F024AA
:2052EF00B0E950022430F0A3D5F0E690FC4BC375F012E033F0A3D5F0F9DBD090FC5375F0BE
:20530F000A0251B086831886821822E61860F5648060F164C0600585938380EA7583FF8081
:20532F00E5EC5401701F88F07583FFEC5418600A5410600418181818181818888218E5F011
:20534F00C398F5F022EC5418600E5410600575F00880B175F00480AC75F00280A7C583CB79
:20536F00C583C582C9C58222C083C082C001C0008F0086821886831818181886011886001A
:20538F0012539BD000D001D082D08322C082C083850082850183223031323334353637380B
:2053AF003941424344454630313233343536373839616263646566C007C006C005C004FF99
:2053CF00BF0A0675820D123C5A8F82123C5AD004D005D006D00722C007C001C000A20B928B
:2053EF001FE58124FAFF200B03123C6EC007E58124F9F8E6C0E008E6C0E0E4C0E0C0E09008
:20540F0053C6125095E58124FBF581201F03123C83D000D001D00722C007C006C005C004AF
:20542F00C003C001AC82FF8C018F0487060987071974012EFBE43FFDA70309A7058E828F93
:20544F0083ECF0D001D003D004D005D006D00722C007C006C005C001C000E58124F6FFE58B
:20546F008124F8FE7D00C007E58124F5F8E6C0E008E6C0E0C006C005905427125095E581C0
:19548F0024FBF58124F8F88682088683E4F0D000D001D005D006D0072229
:0200F800C22024
:2054A800E58620E0FB225390FD00225380FB0022E58620E0FB004390020022E58620E0FBA7
:2054C800004380040022C007AF82E58620E0FB53807F008F8212564B00E58620E0FB43803E
:2054E80080D0072253BEFC32AE82AF838E828F83E493FD74012EFBE43FFCEDFA60525390BB
:20550800FD008B828C83E493FD0BBB00010CE58620E0FB53807F008D8212564B00E586201E
:20552800E0FB438080EA14FDED6015E58620E0FB8B828C83E493F5C1A3AB82AC831D80E8B5
:205548008B068C07E58620E0FB0043900200809C2230200122D2207582011255C443900249
:205568005380BF43F42875C20075C5317586009000FDE4F5F01242E04390049000FDE4F5CE
:20558800F01242E02090FD9067E01254F05390FD00E58620E0FB53807F0075820412564BBF
:2055A80000E58620E0FB4380803090FDE58620E0FB00439002009067EC0254F0E58260163C
:2055C80090F953E054F0600122438FC143FDC143F62E43FE2E2253F4D790F953E0FF54F097
:2055E800600B53807E5390D100D2860022538F3A53FD3A53F6D153FED1222020012290685A
:20560800781254F07582001255C4C220221255595390FD003021067E137F0080047E107FF6
:2056280000E58620E0FB53807F008E8212564B00E58620E0FB438080E58620E0FB00439005
:20564800020022C007AF82E58620E0FB8FC1D007227EFF7FFF7485C0E07468C0E01253E61C
:2056680015811581906882C007C0061254F0D006D00720902F900032E4F5F0C007C00612E3
:20568800434F124FF775820F12459CD006D00790FAAEE0FCA3E0FDC3EC9EED9F50D48C064F
:2056A8008D0780CE7423C0E08E828F831241A415817404C0E0123CEDAC82AD83158190F053
:2056C800E9ECF0EDA3F075820112178D12560212196B7497C0E07468C0E01253E6158115B2
:0256E80081221D
:2067E000050107000900040607070F0002008F0461800128023029025017028208026022E9
:20680000102001010103040906060A040419030409102101010103840986460A8444190370
:206820004409102201010143040986460A84441983040910250A0A0102140D1414010000A9
:206840000000000010264A4A0182540D54540100000000000010270A0A0102140D14140149
:20686000000000000000102401810183840986460A844419030409000282000501020000FE
:2068800000000112005570646174696E6720646973706C61790A0055706461746520636F34
:0868A0006D706C6574650A005F
:2056EA00AE82AF837C007D007B10EF235401FAEE2EFEEF33FFEC2CFCED33FDEA6003430459
:20570A00017862C3E2F5F0EC95F008E2F5F0ED95F040117862D3E29CF4B3FCB308E29DF41B
:0B572A00FD430601DBC48E828F83224A
:20573500AC82AD83AEF0FF33E433FB6013C3E49CF519E49DF51AE49EF51BE49FF51C800812
:205755008C198D1A8E1B8F1CAC19AD1AAE1BAF1C7867E233E433FA60207864E2D3F4340036
:20577500F51908E2F43400F51A08E2F43400F51B08E2F43400F51C80117864E2F51908E259
:20579500F51A08E2F51B08E2F51C786CE519F2E51A08F2E51B08F2E51C08F28C828D838E82
:2057B500F0EFC003C0021258097868C0E0E582F2E58308F2E5F008F2D0E008F2D002D003A4
:2057D500EA6B60207868E2D3F43400FA08E2F43400FB08E2F43400FE08E2F434008A828B62
:1457F500838EF0227868E2F58208E2F58308E2F5F008E22207
:20580900AF82AE83ADF0FC7870EFF2EE08F2ED08F2EC08F27A007B007E007F007D2078738C
:20582900E2235401FC7870E225E0F208E233F208E233F208E233F2EA2AFAEB33FBEE33FED5
:20584900EF33FFEC6003430201786CC3E2F5F0EA95F008E2F5F0EB95F008E2F5F0EE95F02B
:2058690008E2F5F0EF95F04022786CD3E29AF4B3FAB308E29BF4B3FBB308E29EF4B3FEB339
:1D58890008E29FF4FF7870E24401F2DD917870E2F58208E2F58308E2F5F008E22299
:0600B200E478FFF6D8FD22
:200090007924E94400601B7A019068A8785E7593FCE493F2A308B800020593D9F4DAF275A2
:0200B00093FFBC
:1B58A60020F71130F6138883A88220F509F6A8837583002280FEF280F5F02201
:2058C100AA83AB828BF090F075E0A4F8A9F08AF0E0A429F98BF0A3E0A429F5838882222237
:2058E100AF82AE83ADF0FC787BEFF2EE08F2ED08F2EC08F2787BE2FF7879E28FF0A4FFADAD
:20590100F07881EFF208EDF2787BE2FF7877E28FF0A4FFADF0787FEFF208EDF27882E2FFD7
:20592100787EE2FE7877E28EF0A42FFF7882F2787DE2FE7878E28EF0A42F7882F27881E2C4
:20594100FE08E2FF787DE2FD7877E28DF0A4ABF02EFEEB3FFF7881EEF208EFF2787CE2FD14
:205961007878E28DF0A4ABF02EFEEB3FFF7881EEF208EFF2787CE2FF7879E28FF0A4787EC0
:20598100F2787CE2FF7877E28FF0A4FFADF0787CEFF208EDF2787BE2FF787AE28FF0A478B0
:2059A1007AF2787BE2FF7878E28FF0A4FFADF07878EFF208EDF27877E4F2787BF2787FE2DA
:2059C100F55608E2F55708E2F55808E2F559787BE2FA08E2FB08E2FE08E2FFEA2556F556A1
:2059E100EB3557F557EE3558F558EF3559F559787FE556F208E557F208E558F208E559F287
:205A0100787FE208E208E208E27877E2FC08E2FD08E2FE08E2FFEC2556FCED3557FDEE356D
:0C5A210058FEEF35598C828D838EF022E8
:205A2D00AE82AF837D007C007884E2235401FB70357883E225E0F208E233F27883C3E2F590
:205A4D00F0EE95F008E2F5F0EF95F050147883E2F5F008E2C313C5F01318F2C5F008F280AC
:205A6D00050C8C0580C27883C3E2F5F0EE95F008E2F5F0EF95F0400E7883D3E29EF4B3FEB9
:205A8D00B308E29FF4FF7883E2F5F008E2C313C5F01318F2C5F008F28D041DEC70C88E82E5
:035AAD008F8322C2
:205AB000AD82AE83AFF07888E2F5F008E245F07004900000227888E2FB08E2FC1BBBFF0132
:205AD0001CEB4C6069C003C0048D568E578F588556828557838558F0125C2FFA7885E2F570
:205AF0005908E2F55A08E2F55B855982855A83855BF0125C2FFCEAB504028006D004D003CD
:205B1000802C74012556FAE43557FBAC588A058B068C0774012559FAE4355AFBAC5B78855E
:205B3000EAF2EB08F2EC08F2D004D003808E8D828E838FF0125C2FFD7F007885E2FB08E27D
:1A5B5000FC08E2FE8B828C838EF0125C2FFB7E00EDC39BF582EF9EF58322BE
:205B6A00AE82E583FF33E433FD6009C3E49EFBE49FFC80048E038F04788BE233E433FF60DF
:205B8A0010788AE2D3F43400FA08E2F43400FE8007788AE2FA08E2FE7862EAF2EE08F28B8C
:205BAA00828C83C007C0051256EAAC82AE83D005D007EF6D600AC3E49CF582E49EF58322C5
:055BCA008C828E832295
:2000B800788CE84400600A79007593F0E4F309D8FC78D2E8440B600C790C90F08CE4F0A374
:0400D800D8FCD9FA7D
:0F008100E473758160125C4BE582600302007EC0
:205BCF00758911758800758B00758D0020B0FD20B0FA20B0F720B0F420B0F130B0FDD28E88
:205BEF0020B0FD30B0FD20B0FD30B0FDC28EE58D25E0FFE58B2354014FF58DE58D25E0FF4D
:205C0F00E58B232354014FF58DE58DF4F58DE58D04F58D858D8B7589217587807598522200
