:040000000200833245
:01000B0032C2
:0100130032BA
:01001B0032B2
:0100230032AA
:03002B00024A473F
:01003300329A
:01003B003292
:030043000250095F
:03004B0002496403
:01005300327A
:01005B003272
:01006300326A
:01006B003262
:01007300325A
:03007B00025B50D5
:0300FA0002007E83
:03007E0002050672
:2000FD00E58620E0FB225390FD00225380FB0022E58620E0FB004390020022E58620E0FBA6
:20011D00004380040022AF8290F090E4F090F091F08F061FEE60767E0090F95AE0FDBD024E
:20013D000BEE9062B393FDBDC800405990F95AE0FDBD010BEE9062B393FDBDC8005046EEA1
:20015D0024B3FCE43462FD8C828D83E493F582C007C006C005C004121C5EE582D004D0057A
:20017D00D006D007601F90F090E0FB90F0BFE0FAC3EB9A501090F090EAF08C828D83E4930B
:20019D00FC90F091F00EBE0C005086808C90F091E0FFE06013BFC800400890F95A7402F030
:2001BD00800690F95A7401F090F091E0F5822290F0EDE0FEA3E0FFC3742C9E74019F40099F
:2001DD0090F0E3E0700330015E300A0920020690F0C6E0700930031E90F0C7E0601890FC37
:2001FD0063E0FFBFFF02800B7824E4F28F821227858003123CFE121E2AAD82AE83AFF0905C
:20021D00F092EDF0EEA3F0EFA3F0ED4E602D90F0EDE4F0A3F010010090F0E3E06002D2013A
:20023D0090F0E3E4F08014121F15AD82AE83AFF090F092EDF0EEA3F0EFA3F01218BE90F037
:20025D0092E0FDA3E0FEA3E0FFED4E700990F0E1E4F0A3F08059740F2DFAE43EFB8F048AD6
:20027D00828B838CF0126293FAA3126293FB90F0E1EAF0EBA3F0740D2DFAE43EFB8F048A14
:20029D00828B838CF012629360168D828E838FF012315AE582701890F0E1E4F0A3F0800F36
:2002BD0074C4C0E07462C0E0125A4A15811581121909AE82AF8390F0EDE0FCA3E0FD90F012
:2002DD00EDEE2CF0EF3DA3F0BE580CBF020990F0C5E06003C2002290FA5BE0600E90FA5BDB
:2002FD00E4F0900064E4F5F002180990F0E1E0FEA3E0FF4E603BEF30E71F8E048F055305E0
:20031D007F7877ECF208EDF208E4F208F29003E8E4F5F0125F450218097877EEF208EFF2E0
:20033D0008E4F208F290EA60E4F5F0125F45021809121909AE82AF837877EEF208EFF208F6
:20035D00E4F208F29003E8E4F5F0125F4502180990F0CEE0FF600D8F82121C5EE58290F96C
:20037D0059F0800C758202120123E58290F959F090F959E0700920030690F0C7E0701430E4
:20039D000A0920020690F0C6E0700890F0E4E0FFBF233690FC63E0FFBFFF02801A758202EB
:2003BD00123E9EE582702290FC63E0FF7824E4F28F82122785801290F0E4E0FFBF23004033
:2003DD0005123E3F8003123DFC90F959E0604890F0E4E4F090F0CEE0700F7582041217C467
:2003FD001214C77582041217FD90F0E374FDF09000281217A1121909AE82AF837877EEF227
:20041D0008EFF208E4F208F29003E8E4F5F0125F45121809D20022758201121884AC82AD5C
:20043D0083AEF0FF7877ECF208EDF208EEF208EFF29003E8E4F5F0125F45021809E582FF77
:20045D0024FA50030204EEEF2F2F90046B7302496002047D0204940204C40204EE0204D0FF
:20047D0074CFC0E07462C0E0125A4A15811581C20090F959E4F02290F959E0FE74DCC0E0DA
:20049D007462C0E0125A4A15811581758204C0061217C41213811214C77582041217FDD0B5
:2004BD000690F959EEF022123A1D900000E4F5F002180974ECC0E07462C0E0125A4A158190
:2004DD0015817582041217C41227717582040217FD7E00C007C00674FCC0E07462C0E01223
:2004FD005A4AE58124FCF581227582011217C475820F124CA290FAB2E0FEA3E0FF7423C03F
:20051D00E08E828F831248AA15817404C0E01243F3AC82AD83158190F0E5ECF0EDA3F0907D
:20053D0062BFE493C0E0740193C0E09062C1E493C0E0740193C0E0740293C0E0740EC0E081
:20055D007463C0E0125A4AE58124F9F58112531F1219A212195A90F0E374FCF0AEBE5306FA
:20057D00187F00BE1009BF000690F0E374FEF0301B0C123E98900000E4F5F01218097436F1
:20059D00C0E074FCC0E0E4C0E0743DC0E07463C0E0125A4AE58124FBF581123752900190D5
:2005BD00E4F5F01218097582041217C41213F312373990F0C2E060117445C0E07463C0E03D
:2005DD00125A4A15811581801B7456C0E07463C0E0125A4A15811581123ACC902710E4F506
:2005FD00F012180990F959E0FFE0601F8F82121C5EE58270257463C0E07463C0E0125A4A5E
:20061D001581158190F959E4F0800F7481C0E07463C0E0125A4A1581158190F959E0700329
:20063D0012036D90F959E06007123CFED2008005123DFCC2007582041217C41214C730003D
:20065D00067E287F0080047E587F028E828F831217A130000A7C887D137E007F0080087CBC
:1E067D00C07DD47E017F008C828D838EF0EF1218093000051201CC80F812036D80F311
:2062B300C864C965CA66CB67CC68CD6909009363804E6F207570646174650A00434D445F89
:2062D300444F5F5343414E0A0052657365742073657474696E67730A0045726173696E6723
:2062F30020696D616765730A00436D6420307825782069676E6F7265640A000A2573204F4F
:2063130045504C2076253034782C20636F6D70696C656420417567202032203230323420A2
:2063330030383A30333A34360A004D41432025730A00446F696E67206661737420626F6FE5
:20635300740A004E6F726D616C20626F6F740A004E6F20415020666F756E64206F6E20732B
:2063730061766564206368616E6E656C0A004E6F207361766564206368616E6E656C0A0074
:096393004368726F6D613239003C
:017675000113
:20069B00E58620E0FB225390FD00225380FB0022E58620E0FB004390020022E58620E0FB02
:2006BB00004380040022AC82AD83AEF0FF00C2A0007582031243608E821243608D82124301
:2006DB00608C82024360C007C006C005C004C003C002C001C000AC82AD83AEF0FFE581244B
:2006FB00F5F8860208860300C2A0007582031243608E821243608D821243608C821243607C
:20071B008A068B07E58124F3F886040886058C028D031CBCFF011DEA4B6015758200124301
:20073B0060AB828E828F83EBF0A3AE82AF8380DE00D2A000D000D001D002D003D004D00550
:20075B00D006D00722AF8200C2A0008F8212436000D2A0002200C2A000758205124360753A
:20077B008200124360E58220E0F500D2A00022AC82AD83AEF0FF7803E2FA08E2FBC007C079
:20079B0006C005C004C003C002120770758206120760D002D003D004D005D006D00700C26E
:2007BB00A0007582021243608E821243608D821243608C821243608A068B077805E2FC08FF
:2007DB00E2FD8C028D031CBCFF011DEA4B60128E828F83E0FBA3AE82AF838B821243608021
:2007FB00E100D2A000221207707582B9120760C20C227582AB12076075F034D5F0FDD20C73
:20081B0022C007C006C005C004C003C002C001C000C082C083C0F0C0E005810581E5812414
:20083B00EFF88605088604E58124EDF8E608467003020915C005C004E58124F9F8860208CF
:20085B007B00E58124FDF8E4C39AF674019B08F6E58124FDF8E58124EBF9C3E79609E70819
:20087B0096D004D005500EE58124EDF8A98119E6F70809E6F77803EDF208ECF2A881187949
:20089B0005E6F30809E6F3E58124FBF886820886830886F008E6C007C006C005C004C0039A
:2008BB00C002C001C000C02512078AD025D000D001D002D003D004D005D006D007A8811880
:2008DB008602088603E4FEFFE58124FBF8EA26F6EB0836F6EE0836F6EF0836F6A88118E6F5
:2008FB002DFD08E63CFCE58124EDF8A98119E6C397F608E60997F6020842E58124FAF581DB
:20091B00D000D001D002D003D004D005D006D00722C007C006C005C004C003C002C001C0E2
:20093B0000C082C083C0F0C0E0E58124FDF88602088603EA7005EB540F6006758200020A19
:20095B002FE58124F1F8E608467003020A2C758206C007C006C005C004C003C002C001C0E2
:20097B0000C025120760D025D000D001D002D003D004D005D006D00700C2A000E58124F190
:20099B00F88602088603758220124360E58124FDF808088682124360E58124FDF808868284
:2009BB00124360E58124FDF8868212436000D2A000C007C006C005C004C003C002C001C09D
:2009DB0000C025120770D025D000D001D002D003D004D005D006D0077401C0E09010001236
:2009FB0043F3AC82AD83AEF0FF1581E58124FDF8EC26F6ED0836F6EE0836F6EF0836F61A0E
:200A1B00BAFF011BE58124F1F8A60208A60302095C758201E58124FCF581D000D001D0024C
:0B0A3B00D003D004D005D006D0072265
:200A4600E58620E0FB225390FD00225380FB0022E58620E0FB004390020022E58620E0FB53
:200A6600004380040022C007C006C005C004AF82AE83ADF0FC90F0BBEFF0EEA3F0EDA3F05B
:200A8600ECA3F0C202C203D208758204C007C006C005C004C003C002C001C000C025121749
:200AA600C4D025D000D001D002D003D004D005D006D00790F0BBE0FCA3E0FDA3E0FEA3E040
:200AC600FF7416C0E0E4C0E074F3C0E074F0C0E08C828D838EF0EF1206E1E58124FCF581D8
:200AE60090F0BBE0FCA3E0FDA3E0FEA3E0FF90F0BB74162CF0E43DA3F0E43EA3F0E43FA346
:200B0600F090F103E0FFBF2004C207806A90F103E0FFBF2104D207805E90F103E0FF7E0007
:200B2600C007C0067484C0E07469C0E0125A4AE58124FCF58190FA6E7416F0E4A3F090F0F2
:200B4600F375F000C007C006C005C004C003C002C001C000C025121B11D025758204C02523
:200B66001217FDD025D000D001D002D003D004D005D006D0078051C221C007C006C005C0F2
:200B860004C003C002C001C000C025125C79D025C025120BD7D025D221C025125C79D02502
:200BA600C025120BD7D025758204C0251217FDD025C025125CBDD025D000D001D002D0031B
:200BC600D004D005D006D007D004D005D006D007227F807E0090F0ABE4F0A3F090F0A5F01D
:200BE600A3F05390FD007D00200803020C6A30211D20071A74A0C0E07404C0E0E4C0E090CD
:200C0600F0F312459C158115811581020CBAC00590F0BBE0FAA3E0FBA3E0FCA3E0FD74A003
:200C2600C0E07404C0E074F3C0E074F0C0E08A828B838CF0ED1206E1E58124FCF58190F0F3
:200C4600BBE0FAA3E0FBA3E0FCA3E0FD90F0BB74A02AF074043BA3F0E43CA3F0E43DA3F066
:200C6600D005805074A0C0E07404C0E0E4C0E090F0F312459C1581158115817B4A7C00C050
:200C860007C006C005C004C0037807E2F58208E2F583120081D003D004D005D006D00790AF
:200CA600F0A5E02401F0A3E03400F01BBBFF011CEB4C70CB7B007C00EF60503021238E02FF
:200CC600EA2AFEEB24F3F582EC34F0F583E0FAEF5A7003430601EF30E02B8E82125CAF8044
:200CE600248E02EA2A25E0FEEB24F3F582EC34F0F583E0FAEF5A6003430603EF5411600597
:200D06008E82125CAFEFC313FF80AD7F800BBB00010CC3EB94A0EC9404409D90F0ABE0FB94
:200D2600A3E0FC744A2BFBE43CFC90F0ABEBF0ECA3F00DBD04005003020BEEE58620E0FB27
:200D4600004390020022AE82AF83C202C203C208D207C2217807EEF208EFF2125C79120BD9
:200D6600D7D221125C79120BD7025CBDC007C006C005C004C003C002C001C000AD82AE8331
:200D8600AFF0A204202101B3505090F09FE0F508A3E0F50974012DFAE43EFB8F048A828B13
:200DA600838CF0126293FA780CF208E4F2850882850983C007C006C005C004C003C002C05E
:200DC60001C000121003E582D000D001D002D003D004D005D006D0076003020FA98D828E6A
:200DE600838FF07809126293F290F0A1E0F508A3E0F5097809E2F50A750B00780EE50AF2A9
:200E060008E50BF2850882850983C007C006C005C004C003C002C001C00012107AD000D06A
:200E260001D002D003D00490F0ADE0F508A3E0F50990F0B1E0FBA3E0FCEBC39508F582EC6E
:200E46009509F5837875E50AF208E50BF2C002C001C000125F25AB82AC83D000D001D00216
:200E6600D005D006D007ECC423CBC423541F6BCB541FCB6BCBFC90F0B7EBF0ECA3F0740245
:200E86002BFBE43CFCEB2DFDEC3EFE90F0A7E0FBA3E0FCEB5407700A7809E2540770030259
:200EA6000F5D5303078BF005F07B80E4FC3392D28008A2D2EC13FCEB13FBD5F0F5780AEB6A
:200EC600F2780B7480F28D828E838FF0126293FA74012DF50CE43EF50D8F0E7809E2F50A4B
:200EE600AC0A150AEC7003020FA9780BE25A6025C00290F0B5E0FAA3E0FCEA24F3FAEC344F
:200F0600F0FC8A828C83E0FB780AE242038A828C83EBF0D002780BE2C313F2780BE270195D
:200F2600850C82850D83850EF0126293FAA385820C85830D780B7480F2780AE2C313F27827
:200F46000AE2709C780A7480F290F0B5E02401F0A3E03400F080897809E2604790F0B5E032
:200F6600FBA3E0FCEB24F3FBEC34F0FC8B828C83E0F50C8D828E838FF0126293FAA3AD8279
:200F8600AE83E50C42028B828C83EAF090F0B5E02401F0A3E03400F07809E2FC780924F822
:200FA600F280B4D000D001D002D003D004D005D006D0072290F0A7E0FEA3E0C423CEC42323
:200FC600541F6ECE541FCE6ECE30E40244E0FF90F0ABE0FCA3E0FD90F0B1E0FAA3E0FBEAAC
:200FE600C39CFCEB9DC454F0CCC4CC6CCC54F0CC6CFD90F0B5EC2EF0ED3FA3F022AE82AFF4
:201006008390F095EEF0EFA3F090F0AFEEF0EFA3F07427C39EFE74019FFF90F0A9EEF0EF40
:20102600A3F090F0A5E0FCA3E0FD90F0B1ECF0EDA3F0C3EE9CEF64808DF063F08095F040D4
:201046002F780CE22CFC08E23DFDC3EE9CEF9D501F780CD3E29EF4B3FEB308E29FF4FF0EA8
:20106600BE00010F90F0ADEEF0EFA3F07582002275820122AE82AF8390F0A7EEF0EFA3F0F3
:20108600780E90F097E22EF008E23FA3F0120FBA75820022C007C006C005C004C003C00262
:2010A600C001C000AC82AD83AEF0FF058105810581BF2000502C8F82C007C006C005C0049A
:2010C600C003C002C001C000C0251242ABD025D000D001D002D003D004D005D006D007028D
:2010E60013447E00EF24E0FFEE34FFFEEF2FFFEE33FEEF249CF582EE3463F583E493FEA38D
:20110600E493FF90F0B7EEF0EFA3F0EFC4540FFE90F0B3F0300507EE2EFE90F0B3F090F08C
:2011260099E0FEA3E0FF90F0B9EEF0EFA3F090F0B3E0FDFB3395E0FC0BBB00010CEB2EFB81
:20114600EC3FFC90F099EBF0ECA3F0A204202101B3504190F0B9E0FEA3E0FF780CEDF2EDDA
:201166003395E008F28E828F83C007C006C005C004C003C002C001C000C025121003E58218
:20118600D025D000D001D002D003D004D005D006D007600302134490F09BE0FEA3E0FF90F1
:2011A600F0B4E0FD780EF2ED3395E008F28E828F83C007C006C005C004C003C002C001C063
:2011C60000C02512107AD025D000D001D002D003D004D005D006D00790F0B7E0FEA3E0FF60
:2011E60053070F90F0B7EEF0EFA3F0A8811818760008768090F0A7E0FCA3E05304078CF0BC
:2012060005F07C80E4FD3392D28008A2D2ED13FDEC13FCD5F0F5A881A60490F0B3E0FD903E
:20122600F0ADE0FAA3E0FB90F0A5E0FCA3E0FFECC39AFAEF9BFBED3395E0FFEDC39AFAEFA1
:201246009BFB1ABAFF011B90F0B9EAF0EBA3F030050FEBC313CA13CAFB90F0B9EAF0EBA32A
:20126600F090F0B9E0FEA3E0FF90F0B7E0FCA3E0FD90F0B7EE2CF0EF3DA3F090F0B7E0FE37
:20128600A3E0FFEE2EFEEF33FFEE245CF582EF3464F583E493FEA3E493FF90F0B9E4F0A369
:2012A600F090F0B9E0FCA3E0FD90F0B4E0FB3395E0FAC3EC9BED9A4003021344A88118182C
:2012C600E65EFC08E65FFD4C602190F0B5E0FCA3E0FDEC24F3FCED34F0FD8C828D83E0FB1A
:2012E600A881E642038C828D83EBF030051A90F0B9E0FCA3E0FDEC30E01AA88118E618C39F
:2013060013C613C608F6800CA88118E618C313C613C608F6A881E6C313F6A881E6701090DF
:20132600F0B5E02401F0A3E03400F0A881768090F0B9E02401F0A3E03400F00212A7158121
:1513460015811581D000D001D002D003D004D005D006D00722A8
:20639C000070071008500D9016601CA026A03010316037603D7044904D204F60552057801C
:2063BC005F7066706D6073507880805085708C7093709A70A120A320A570AC80B470BB70B2
:2063DC00C2A0CCA0D670DD80E570EC70F370FA8002710971105115811D7124812C7133813A
:2063FC003B7142814A7151715891617168A172A17CA186A1908198519D81A551AA81B2A1EE
:20641C00BC21BE71C571CC71D371DA71E181E971F071F741FB51007207420B9214721B7246
:20643C0022722972306236623C724362499252A25C8264A26E8276627C127D6283A28D7288
:20645C000000000000000000000000000000D87F0078000000000000007880009804E005D8
:20647C00801E9864E005801E80648004183808640842FCFF8841F040083810442044C04485
:20649C0000397002880C881088207040E0001001083A08468845C84C3838180068008001DE
:2064BC000078E00718180C300420024002400240024004200C301818E00700100018000F1B
:2064DC000072000F001800104000400040004000F807400040004000400019001E00800041
:2064FC00800080008000800080001800180002000C003000C0000003000C00300040C00F84
:20651C0030300840084008403030C00F082008200820F87F08000800080018602840484089
:20653C0088400843083C0840084208420842F03DC0004003400440184020F87F400040009F
:20655C00087C084408441042E041E00F10320844084408441042E00100401840E04000434D
:20657C00004C00500060F038084508420842084590456038001E0821884088408840302150
:20659C00C01F1806180619061E06C000C0002001200110021002080420012001200120010B
:2065BC00200120012001200108041002100220012001C000C00000700040D84000410042FE
:2065DC0000640038C00F30181820C84728486850D851E03F2000200008007000C001400E6E
:2065FC004018400C4003C00030000800F81F08110811081108118812700CC003300C1008F8
:20661C0008100810081008100818F81F08100810081008101008E007F81F88108810881089
:20663C00881088100810F81F801080108010801080100010C003300C100808100810881020
:20665C008810F818F81F80008000800080008000F81F081008100810F81F08100810081021
:20667C000800081008100810F01FF81F0001800140022004200810100800F81F0800080029
:20669C000800080008000800F81F001C8007E00060008003001CF81FF81F00080006800168
:2066BC0060001000F81FE007100808100810081008101008E007F81F801080108010801082
:2066DC000011000EE00710080810081008100C101208E207F81F80108010C0102011100EC3
:2066FC000800180E0812081108118810901070180010001000100010F81F001000100010BD
:20671C000010E01F18000800080008001000E01F0010000C8003600018001800E0000003FD
:20673C00000C00100018C0073800F0000007800370003800C0070018081010082004400273
:20675C008001800140022004100808100010000800060001F800000100020004000800104F
:20677C0018102810481088100811081208140818FE7F024002400240024000400030000C3D
:20679C000003C00030000C0002000240024002400240FE7F2000C0000007001C0070000ED6
:2067BC00C00120000400040004000400040004000400040004000400008000403000480478
:2067DC00880488049004F8030800F87F10020804080408041006E001E0011002080408043F
:2067FC00080408040804E00118020804080408041002F87FE001900288048804880488040E
:20681C00880300040004F83F00240044004400440044E00119020904090409041202FC0724
:20683C00F87F00010002000400040004F803000400040064F8670100010401040164FE671B
:20685C00F87F8000C0002001200210020804004000400040F87FF807000200040004F803C9
:20687C00000200040004F803F80700030002000400040004F803E0011002080408040804D5
:20689C001002E001FF0710020804080408041006E001E00118020804080408041002FF077F
:2068BC00F8070001000200040004000718038804880448044804300400040004F01F080489
:2068DC00080408040804F0070800080008001000F807000480036000180008003000C00063
:2068FC00000300040006E001180070008003800170001800E0010006080410022001C00094
:20691C00C00020011002080401040103C10062001C001800600080000003000408041804ED
:20693C00280448048804080508060804800080007C3F024002400240FE7F0240024002404C
:20695C007C3F80008000C000000100010001800080004000400040008001F801080308044C
:20697C00080808040803F80164617461547970652030782578206E6F7420737570706F7200
:05699C007465640A00AF
:20135B00E58620E0FB225390FD00225380FB0022E58620E0FB004390020022E58620E0FB35
:20137B0000438004002290F0C17401F090F0C2E4F090F0C3F090F0C4F090F0C5F090F0C6CB
:20139B0004F090F0C7F090F0C9E4F090F0C8F090F0CC7428F0E4A3F090F0CEF090F0CA7467
:2013BB0028F0740AA3F090F959E4F090F95AF022AD82AE83126293FCBC011C7BC17CF08BCF
:2013DB00828C83740EC0E0C005C0061246341581158115810214C7227480C0E0E4C0E074DB
:2013FB00A2C0E074FDC0E0906000E4F5F01206E1E58124FCF581740EC0E07414C0E074FE15
:20141B00C0E090F0C112463415811581158190FDA2E0FCA3E0FDA3E0FEA3E0FFBCA513BDC3
:20143B005A10BEBA0DBFAB0A90FDA6E0FFBF0102803590FDA2E0FCA3E0FDA3E0FEA3E0FF17
:20145B0090FDA6E0FB7A00C004C005C006C007C003C00274A1C0E07469C0E0125A4AE58100
:20147B0024F8F58102138190FDA7E090F959F090FDA8E090F95AF074CFC0E07469C0E012E9
:20149B005A4A1581158112161990FDA2E4F004C0E0E4C0E074A2C0E074FDC0E0906000E45A
:2014BB00F5F012081CE58124FCF581227480C0E0E4C0E074A2C0E074FDC0E0906000E4F530
:2014DB00F01206E1E58124FCF58190FDA2E0FCA3E0FDA3E0FEA3E0FFBCA53EBD5A3BBEBA15
:2014FB0038BFAB35788574C1F20874F0F208E4F27888740EF208E4F290FE1475F0001261CE
:20151B0014E5828583F045F0700F90FDA7E0FF90F959E0FEEFB506012290FE21E0FF90F0DB
:20153B00CEE0FEEFB50602803EEE603BBE6400502390FE21E0FF7D00C007C00574E1C0E0D0
:20155B007469C0E0125A4AE58124FCF58190F0CEE4F08013BEC800400890F95A7402F080F5
:20157B000690F95A7401F07480C0E0E4C0E0C0E090FDA212459C158115811581740EC0E044
:20159B0074C1C0E074F0C0E090FE1412463415811581158190FDA274A5F0F4A3F074BAA3D7
:2015BB00F0C4A3F090FDA67401F090F959E090FDA7F090F95AE090FDA8F07401C0E0E4C0AA
:2015DB00E0906000E4F5F012092C158115817480C0E0E4C0E074A2C0E074FDC0E090600015
:2015FB00E4F5F012081CE58124FCF58174FAC0E07469C0E0125A4A1581158102161990F0B7
:20161B00C5E0FF7E00C007C006740BC0E0746AC0E0125A4AE58124FCF58190F0CEE0FF7E06
:20163B0000C007C0067424C0E0746AC0E0125A4AE58124FCF58190F0CAE0FEA3E0FFC0062A
:20165B00C0077437C0E0746AC0E0125A4AE58124FCF58190F0C2E0FF7E00C007C006744B42
:20167B00C0E0746AC0E0125A4AE58124FCF58190F959E0FF7E00C007C0067460C0E0746A61
:0C169B00C0E0125A4AE58124FCF58122CF
:2069A1004C6F616465642064656661756C74732073657474696E67735665722030782578F2
:2069C100204D61676963203078256C780A004C6F616465642073657474696E67733A0A00BC
:2069E10049676E6F7265642066697865644368616E6E656C2025640A0053617665642073AC
:206A0100657474696E67733A0A0020205363616E2041667465722054696D656F7574202510
:206A2100640A00202066697865644368616E6E656C2025640A0020206261744C6F77566FBD
:206A41006C746167652025640A002020656E61626C6546617374426F6F742025640A0020D9
:0D6A6100204C6173742063682025640A00D6
:2016A700E58620E0FB225390FD00225380FB0022E58620E0FB004390020022E58620E0FBE6
:2016C70000438004002275F10175805875FDDD75F33875904075FE6E75F4E875A00175FF76
:2016E70001227401C0E0E4C0E0900000E4F5F012092C158115817414C0E0E4C0E0746EC00D
:20170700E0746AC0E090F0F31245FAE58124FCF5817414C0E0E4C0E074F3C0E074F0C0E0ED
:20172700900000E4F5F012081CE58124FCF58122C00775E40075FC0075F70075FE0290F9FA
:2017470053E0FF54F06002800DD291758F0075F60075FD008012758F8175F62F75FD8175C0
:14176700FE2F53807E5390D075F30075F40075F500D0072209
:146A6E005612098501084A41000000000904EC0212045A0A15
:027FFE00746AA3
:20177B00E58620E0FB225390FD00225380FB0022E58620E0FB004390020022E58620E0FB11
:20179B00004380040022AE82AF837D00BD08005017ED75F002A424CFF58274F035F0F583D7
:2017BB00EEF0EFA3F00D80E422E582FF30E02512565BC0071249CDD2AF1216CD12435C1295
:2017DB004E73D00775820A124EB290F959E0FEF582124DFEEF30E209124389200C0302088E
:2017FB000D22E58230E206300C0302080122AF82AE83ADF0FC90F0EFEFF0EEA3F0EDA3F06A
:20181B00ECA3F090F0EFE0FCA3E0FDA3E0FEA3E0FFC004C005C006C0077482C0E0746AC016
:20183B00E0125A4AE58124FAF581300C16758204C007C006C005C0041217FDD004D005D0FB
:20185B0006D007C007C006C005C004125C66D004D005D006D0071217378C828D838EF0EF65
:20187B00124A557582010217C4E582FF601090F0E4E0FFBFFF00500690F0E4EF04F090F0D3
:20189B00E4E0FFBF18005007900E10E4F5F022BF24005007901C20E4F5F02290518075F0EC
:2018BB0001E42290F0E0E07875F208E4F2900230125F257862740EF208E4F2125D4EAE8298
:2018DB00AF8374282EFEE43FFF90F0DFE054077D0025E0FCED33FDEC24CFF582ED34F0F540
:2018FB0083EEF0EFA3F090F0DFE02401F0227E007F007D00BD0800501DED75F002A424CFDD
:20191B00F58274F035F0F583E0FBA3E0FCEB2EFEEC3FFF0D80DEEFC423CEC423541F6ECEF4
:20193B00541FCE6ECEFF90F0CCE0FCA3E0FDC3EE9CEF9D50058C828D83228E828F83229026
:20195B00FAB4E0FF3395E0FEC007C0067497C0E0746AC0E0125A4AE58124FCF58190F0BF92
:20197B00E0FF7E0090F0C0E0FD3395E0FCC007C006C005C00474A2C0E0746AC0E0125A4A2E
:20199B00E58124FAF5812275820E124CA2124CCE75820F124CA290FAB2E0FEA3E0FF7423A6
:2019BB00C0E08E828F831248AA15817404C0E01243F3AC82AD83158190F0EBECF0EDA3F095
:2019DB00C20A90F0CAE0FEA3E0FFC3EC9EED9F5004D20A803A90F0E7E0FCA3E0FD4C601331
:2019FB00C3EC9EED9F500C90F0EBECF0EDA3F0D20A801C90F0E9E0FCA3E0FD4C6011C3EC27
:201A1B009EED9F500A90F0EBECF0EDA3F0D20A90F0E9E0C0E0A3E0C0E090F0E7E0C0E0A3EE
:201A3B00E0C0E090F0EBE0C0E0A3E0C0E090F0E5E0C0E0A3E0C0E074B3C0E0746AC0E0129E
:091A5B005A4AE58124F6F58122C6
:206A8200536C656570696E6720666F7220256C64206D730A0054656D7020256420430A008B
:206AA200525353492025642C204C51492025640A00426174745620426F6F742025642C207B
:1A6AC2006E6F772025642C2054782025642C207570646174652025640A007A
:0500DC00781074FFF232
:201A6400E58620E0FB225390FD00225380FB0022E58620E0FB004390020022E58620E0FB25
:201A8400004380040022121AE0E582600790F96CE0F58222121AAAE582600790F970E0F59F
:201AA40082227582002290F95BE05407FFBF012890F95CE003035403FFBF031C90F95CE09B
:201AC40023235403FFBF031090F95BE023235401FFBF0104758201227582002290F95BE07B
:201AE4005407FFBF012390F95CE003035403FFBF021790F95CE023235403FFBF030B90F9F5
:201B04005BE020E6047582012275820022AFF0AE83E58290FA70F0EEA3F0EFA3F090FA702B
:201B2400E0FDA3E0FEA3E0FF90FA6EE0FBA3E0FC79007A00C3E99BEA9C5052E94A6016E97B
:201B4400540F6002800F74DCC0E0746AC0E0125A4A15811581C003C004E92DF8EA3EFB8F96
:201B64000488828B838CF0126293F87C00C000C00474DEC0E0746AC0E0125A4AE58124FC1E
:201B8400F58109B900010AD004D00380A774DCC0E0746AC0E0125A4A1581158122AFF0AE71
:201BA40083E5827812F208EEF208EFF27815E4F27B017811C3E2F5F0EB95F050227812E2AA
:201BC400FA08E2FC08E2FFEB2AFAE43CFC8A828C838FF0126293FA7815E22AF20B80D37811
:201BE40012E2FD08E2FE08E2FF8D828E838FF0126293FD7815E2B50503D38001C3E433F52D
:201C04008222AFF0AE83E5827817F208EEF208EFF2781AE4F27B017816C3E2F5F0EB95F027
:201C240050227817E2FA08E2FC08E2FFEB2AFAE43CFC8A828C838FF0126293FA781AE22A90
:201C4400F20B80D37817E2FD08E2FE08E2FF8D828E838FF0781AE2025F0AE5812404F5816F
:201C6400AF82C218C00712509CD0078F82124DFEC007125151D21812509CD0077E01EE2480
:201C8400FC5003021D8890F9DB7414F0C007C00612379990F9ED74EDF090F9DB124F98D00B
:201CA40006D007124985AA82AB83ACF0FD90FA7374A62AF0740E3BA3F0E43CA3F0E43DA378
:201CC400F0C006124985AA82AB83ACF0FD90FA73E58124FCF8E0F6A3E008F6A3E008F6A381
:201CE400E008F6E58124FCF8C3EA96EB0896EC0896ED0896D0064003021D84C007C0061248
:201D040050AEAD82D006D007C374818DF063F08095F050AD90F971E0FDB507A5C007C00696
:201D2400121A8AAD82D006D007BDEE95C007C006121AAAE582D006D00760867408C0E074E0
:201D440068C0E074F9C0E090F94612463415811581158190F95EE0FCA3E0FD90F94EECF057
:201D6400EDA3F08F047D00C004C00574E4C0E0746AC0E0125A4AE58124FCF5818F8280206D
:201D84000E021C828F057E00C005C00674EEC0E0746AC0E0125A4AE58124FCF581758200CB
:201DA400E58124FCF5812290F9DB742AF012379990F9ED74E5F090F9F47482F090F0E3E0C8
:201DC40090F9F5F090F0C0E090F9F0F090F0BFE090F9EFF090FAB4E090F9F1F090F0EBE0AE
:201DE400FEA3E0FF90F9F2EEF0EFA3F090F9F6E4F09062BF93FE740193FF90F9F7EEF0EF9B
:201E0400A3F090F959E090F9F9F090F0C9E090F9FAF078167415F290F9EE75F000121C0642
:201E240090F9DB024F98D21812509C1219A212195A7F00781BE4F2781BE2B40E00400302B3
:201E44001F08C007121DABD007124985AA82AB83ACF0FD74882AF52674133BF527E43CF5D8
:201E640028E43DF529C007124985AC82AD83AEF0FFC3EC9526ED9527EE9528EF9529D00713
:201E84004003021EFBC0071250AEAE82D007C374818EF063F08095F050CBC007121A8AAE2E
:201EA40082D007BEE6BF78117411F290F97175F000C007121BA1E582D00760A97408C0E00B
:201EC4007468C0E074F9C0E090F94612463415811581158190F95E75F000126293FDA31253
:201EE4006293FE90F94EEDF0EEA3F090F0E0EFF090F97175F00022781BE22401F2781BE2F5
:201F0400FF021E3B90F0E0740EF090000075F00022D21812509C7F00781CE4F2781CE2B47F
:201F24000E004003021FFC90F9DB7414F090F9ED74E3F0C00712379990F9DB124F98D007B9
:201F4400124985AA82AB83ACF0FD74882AF52A74133BF52BE43CF52CE43DF52DC0071249DD
:201F640085AC82AD83AEF0FFC3EC952AED952BEE952CEF952DD0075072C0071250AEAE82C2
:201F8400D007C374818EF063F08095F050CEC007121A8AAE82D007BEE6C278117411F29040
:201FA400F97175F000C007121BA1E582D00760AC7408C0E07468C0E074F9C0E090F94612E9
:201FC400463415811581158190F95E75F000126293FDA3126293FE90F94EEDF0EEA3F09004
:201FE400F0E0EFF090F97175F00022781CE22401F2781CE2FF021F2090F0E0740EF0900008
:202004000075F00022AFF0AE83E582781DF208EEF208EFF2781DE22402FA08E23400FB08EE
:20202400E2FC8A828B838CF0126293F52E852E2F75300090FA5CE0F531AE317F00E52FC356
:202044009EFEE5309FFF7875EEF208EFF2900063C004C003C002125F25AE82AF83D002D0A1
:2020640003D0048E2F8F3090FA77E52FF0E530A3F0781DE22401FD08E23400FE08E2FF8D31
:20208400828E838FF0126293FD90F91FE0FFEDB50702800122E52E24D5500122C3E52E9567
:2020A400315001227463252FFEE43530FFC374239E74089F500122781DE2FD08E2FE08E23B
:2020C400FF78117466F28D828E838FF0C004C003C002121BA1E582D002D003D0047003029D
:2020E400217D781DE22403FD08E23400FE08E28D2F8E3090FA77E0FEA3E0FFEE24F3FEEFD0
:2021040034F0FF8E828F837463C0E0E4C0E0C02FC0301245FAE58124FCF5818A828B838CA9
:20212400F0126293FA7F00788A7408F208E4F28A828F83C007C0021261CEAD82AE83D002C3
:20214400D007ED2421FDEE34F9FE5302078AF005F07401800225E0D5F0FBF4FA8D828E83C7
:20216400E052028D828E83EAF074FBC0E0746AC0E0125A4A158115812274FDC0E0746AC0ED
:20218400E0125A4A1581158122AF82AE83ADF0FC7820EFF208EEF208EDF208ECF290FA5C48
:2021A400E0FB7A0090F91FE0FF7E00C003C002C007C006740EC0E0746BC0E0125A4AE581F2
:2021C40024FAF581D21812509C12498585823285833385F034F53578207977E22414F308BB
:2021E400E2340009F308E2340009F308E2340009F3900019E4F5F0125F45AA82AB83AEF075
:20220400FFEA2532F532EB3533F533EE3534F534EF3535F535124985AA82AB83AEF0FFC33B
:20222400EA9532EB9533EE9534EF9535503C1250AEAF82C374818FF063F08095F050D61232
:202244001A8AAF82BFE8CE90F97175F0001220097F00EF2421FDE434F9FE8D828E83E07067
:20226400060FBF060040EBBF06AB74DCC0E0746AC0E0125A4A15811581C21812509C02516A
:202284005190F972E4F0A3F090F97175F00022742AC0E0E4C0E0C0E090F9DB12459C1581B7
:2022A4001581158190F9DB742AF090F940E0600890F9F174E4F0800690F9F174E7F0740862
:2022C400C0E07450C0E074F9C0E090F9E91246341581158115817408C0E07446C0E074F946
:2022E400C0E090F9E112463415811581158190F9DCE054F84401F090F9DCE054C74440F0E8
:2023040090F9DDE0440C54CF44C0F090F958E0FF04F090F9DEEFF090F94EE0FEA3E0FF904B
:20232400F9DFEEF0EFA3F07DF27EF98D828E837411C0E07416C0E074F9C0E01246341581DD
:20234400158115817DF27EF97F0078167411F28D828E838FF0121C0690F9DB024F98E5815D
:202364002404F581D21812509C1251517F00BF1E004003022445C007122293D007124985D0
:20238400AB82AC83ADF0FE90FA7974642BF0749F3CA3F0740B3DA3F0E43EA3F0C00712503D
:2023A400AEAE82D007C374818EF063F08095F05051C007121A8AAE82D007BEE8028028BEA3
:2023C400E9028005BEEC33802978117403F290F97175F000C007121BA1E582D007602390CC
:2023E400F97175F0008063122285AC82AD83AEF0805890000075F000805090000075F000E0
:202404008048C007124985C8E58124FCC8A68208A68308A6F008F690FA79E0FAA3E0FDA33E
:20242400E0FEA3E0FFE58124FCF8C3E69A08E69D08E69E08E69FD00750030223A00F0223B0
:2024440072122285AD82AE83AFF0E58124FCF58122741BC0E0E4C0E0C0E090F9DB12459C86
:2024640015811581158190F9DB7419F090F9F174EAF07408C0E07450C0E074F9C0E090F9D7
:20248400E91246341581158115817408C0E07446C0E074F9C0E090F9E1124634158115815C
:2024A400158190F9DCE054F84401F090F9DCE054C74440F090F9DDE0440C54CF44C0F090AB
:2024C400F94EE0FEA3E0FF90F9DFEEF0EFA3F090F958E0FF04F090F9DEEFF090F9DB024FDA
:2024E40098D21812509C7F00BF10005070C007122455D00712498585823A85833B85F03C0C
:20250400F53DC00712498585823685833785F038F539E536C3953AFAE537953BFCE5389546
:202524003CFDE539953DFEC3EA94A6EC940EED9400EE9400D0075022C0071250AEAE82D0D8
:2025440007C374818EF063F08095F050B5C007121A8AAE82D007BEEBA9220F808B22AF8278
:20256400E4FDCD5403A2E0CD13CD13A2E0CD13CD13CDFCEF0303543F4DFDEF030354C0FE2C
:202584007F0074012DFDE43C8F828E838DF022AD82AE83AFF07C007B00BB04004003022618
:2025A40022C0048B82C007C006C005C003122562A882A983AAF0FCD003D005D006D00774C1
:2025C40016C0E0E4C0E074F3C0E074F0C0E0888289838AF0EC1206E1E58124FCF581746469
:2025E400C0E074FCC0E090F0FB12490715811581920ED004300E218D008E018F027408C062
:20260400E0C000C00190F0F31245C8158115811581920E50038C82220B8B0402259D758289
:20262400FF22AF825307F87E007D00BD040040030226AEC0068D82C007C005122562AA82F7
:20264400AB83ACF0FED005D0077416C0E0E4C0E074F3C0E074F0C0E08A828B838CF0EE12B3
:2026640006E1E58124FCF5817464C0E074FCC0E090F0FB124907158115819228D0063028FA
:2026840023C00690F108E0FC5304F87B008F027E00ECB50206EBB506028004D0068005D00F
:2026A400068E82220D8D0602262F7582FF22122562AC82AD83AEF0FF7416C0E0E4C0E07419
:2026C400F3C0E074F0C0E08C828D838EF0EF1206E1E58124FCF58190F108E0F58222AF82AC
:2026E4008F060EEE24FB50027E00EEB507038E82228E82C007C006122562AA82AB83ACF04B
:20270400FDD006D0077416C0E0E4C0E074F3C0E074F0C0E08A828B838CF0ED1206E1E58170
:2027240024FCF5817464C0E074FCC0E090F0FB12490715811581922850A890F108E0FD5303
:2027440005F87C00BD789BBC00988E8222122562AC82AD83AEF0FF7404C0E0E4C0E08C8268
:202764008D838EF0EF12092C15811581227F00BF0400500C8F82C007122751D0070F80EFEE
:2027840022AF828F057E00C005C006741DC0E0746BC0E0125A4AE58124FCF5818F8212259B
:2027A40062020A6C7825E4F208F208F208F27B00BB040040030228478B82C00312256285FE
:2027C400823E85833F85F040F541D0037416C0E0E4C0E074F3C0E074F0C0E0853E82853F6E
:2027E400838540F0E5411206E1E58124FCF5817464C0E074FCC0E090F0FB12490715811572
:2028040081920F503AC00390F104E0FAA3E0FBA3E0FEA3E0FF7825C3E29A08E29B08E29E7C
:2028240008E29FD003501890F1047825E0F2A3E008F2A3E008F2A3E008F290F945EBF00BB1
:202844000227B47825E2F58208E2F58308E2F5F008E222AF82AE83D21090F91FE0FD7C001F
:202864007B007A008C44EBC454F0C544C4C5446544C54454F0C5446544F545EDC4540F458B
:2028840044F544EDC454F0F543754200300D17782FE542F27470254308F2E4354408F2E43E
:2028A400354508F280497810E2F582C007C00612256285824685834785F048F549D006D093
:2028C4000774162546F546E43547F547E43548F548E43549F549782FE5462542F2E5473557
:2028E4004308F2E548354408F2E549354508F290FA807405F090FA5CE4F090F94004F078F3
:2029040029EFF208EEF27406C0E0E4C0E0C0E090F92112459C15811581158190FA80E0FB3F
:2029240014F0EB7003022C9A1010030229E97829E2FA08E2FB8A828B8378627463F208E427
:20294400F2125D4EAA8290FA7DEAF07829E2FB08E2FF8B828F8378837463F208E4F2C002CD
:20296400126091E5828583F0D00245F0600690FA7DEA04F090FA7DE024EA500690FA7D74D9
:2029840015F090FA5CE0FB7A0090FA7DE0FFC3EA9F50528B067F00788A7408F208E4F28E33
:2029A400828F83C007C006C003C0021261CEAC82AD83D002D003D006D007EC2421FCED342E
:2029C400F9FD5306078EF005F07401800225E0D5F0FBFE8C828D83E0FF42068C828D83EE1F
:2029E400F00B0A80A4122362AA82AB83AFF0EA4B7003F582220ABA00010B8A828B838FF070
:202A0400126293FEA3126293FF4E60428E048F05C3EC9423ED9400501A7877EEF208EFF2E5
:202A240008E4F208F2900019E4F5F0125F451249E6801BEC24F6FCED34FFFD7F007E008C0E
:202A4400828D838FF0EE121809D21812509C900122E4F5F012218D78337401F290FA5CE044
:202A6400FF7E0090FA7DE0FDC3EE9D505E8F047D00788A7408F208E4F28C828D83C007C0F2
:202A840006C005C0041261CEAA82AB83D004D005D006D007EA2421F582EB34F9F583530425
:202AA400078CF005F07C017D008006EC2CFCED33FDD5F0F7E0FB7A005204EA5205EC4D60A8
:202AC400067833E4F280040F0E80987833E27003022C5F90FA7DE07875F208E4F29000638E
:202AE400125F25AE82AF83782DEEF208EFF290FA8174F3F074F0A3F0E4A3F090FA5CE07066
:202B04004B90F0F3E0FCA3E0FD7829ECF208EDF290F0F5E0FCA3E0FD782BECF208EDF29068
:202B2400FA7EE4F0A3F0782DE2FC08E2FDEC24FCFCED34FFFD782DECF208EDF290FA81743A
:202B44000424F3F0E434F0A3F0E4A3F07829E2FC08E2FD782DC3E2F5F0EC95F008E2F5F07F
:202B6400ED95F0500A7829792DE2F308E209F37829E2FC08E2FD782DD3E29CF4B3FCB308C9
:202B8400E29DF4FD7829ECF208EDF27582041217C490FA81E0F546A3E0F547A3E0F548AA24
:202BA40046AF47782DE2C0E008E2C0E0C002C007782FE2F58208E2F58308E2F5F008E2126E
:202BC400081CE58124FCF5817582041217FD782DE2FA08E2FD7E007F00782FE22AF208E2BC
:202BE4003DF208E23EF208E23FF2AD46AE47AF48782DE2F54608E2F547AA46AC47154674F4
:202C0400FFB546021547EA4C60368D828E838FF0126293FCA3AD82AE838C4275430090FAD7
:202C24007EE0FAA3E0FC8A4A8C4BAB42AC43EB254AFBEC354BFC90FA7EEBF0ECA3F080B9DA
:202C440090FA7DE0FF90FA5CE02FF07829E2FE08E2FF4E60067833E4F2D21090F940E4F087
:202C64007833E2700302291F782BE2FE08E2FF90FA7EE0FCA3E0FDEEB50406EFB50502805E
:202C8400117437C0E0746BC0E0125A4A1581158180047582012275820022AFF0AE83E58285
:202CA40090FA88F0EEA3F0EFA3F090FA88E0FDA3E0FEA3E00DBD00010E8D828E837408C0E3
:202CC400E07430C0E074F9C0E01245C81581158115819211501490F938E0FCA3E0FDA3E037
:202CE400FEA3E0FFEC4D4E4F707490F91FE4F090FA88E0FDA3E0FEA3E0FF74012DFAE43E6A
:202D0400FBC002C00390F9171244CA15811581740D2DFAE43EFB8F048A828B838CF01262E1
:202D240093FA90F920F07411C0E0C005C00690F92F1246341581158115817408C0E0E4C0F3
:202D4400E0907000E4F5F012092C1581158190F938E0FEA3E0FF90FA86EEF0EFA3F090F939
:202D640038E0FCA3E0FDA3E0FEA3E0FFEC4D4E4F7003022DF7C3E49C74109DE49EE49F5090
:202D84000B90FA84E4F07410A3F0800890FA84ECF0EDA3F0D20D90FA84E0FEA3E0FF8E82DC
:202DA4008F83122857E582604690F91FE0FF0F90F91FEFF090F938E0FCA3E0FDA3E0FEA301
:202DC400E0FF90FA84E0FAA3E0FB8A008B01E4FAFBECC398FCED99FDEE9AFEEF9BFF90F95D
:202DE40038ECF0EDA3F0EEA3F0EFA3F0022D627582002275820122AFF0AE83E58290FA8D26
:202E0400F0EEA3F0EFA3F090FA8DE0FDA3E0FEA3E0FF74012DFAE43EFB8F048A828B8374EA
:202E240008C0E07430C0E074F9C0E01245C81581158115819212504090F93DE0FC740E2D2F
:202E4400FDE43EFE8D828E838FF0126293FDECB5052690F938E0FCA3E0FDA3E0FEA3E0FFC2
:202E6400EC4D4E4F6012744FC0E0746BC0E0125A4A158115810230057582041217C490F99A
:202E8400457834E0F290FA8DE0FCA3E0FDA3E0FE740E2CFAE43DFB8E078A828B838FF01273
:202EA4006293FA54FC60317834E2FB7F00C003C0077462C0E0746BC0E0125A4AE58124FC7B
:202EC400F58190FA6E7411F0E4A3F08C828D838EF0121B117834E4F290F945E02401F0FF76
:202EE400BF0400400590F945E4F090F945E0FF7834E2B507197582041217FD7486C0E074E5
:202F04006BC0E0125A4A15811581758201228F82122562AC82AD83AEF0FF7416C0E0E4C033
:202F2400E074F3C0E074F0C0E08C828D838EF0EF1206E1E58124FCF5817464C0E074FCC07A
:202F4400E090F0FB124907158115819212500890F108E054F8708190F945E0FF7810F28F2C
:202F640082122562AC82AD83AEF0FF7404C0E0E4C0E08C828D838EF0EF12092C158115819D
:202F84007582041217FD7810E2FE7F00C006C0077490C0E0746BC0E0125A4AE58124FCF544
:202FA4008190F91FE4F090FA8DE0FDA3E0FEA3E0FF74012DFAE43EFBC002C00390F9171229
:202FC40044CA15811581740D2DFAE43EFB8F048A828B838CF0126293FA90F920F07411C0E6
:202FE400E0C005C00690F92F12463415811581158190F938E0FEA3E0FF90FA8BEEF0EFA3B6
:20300400F090F938E0FCA3E0FDA3E0FEA3E0FFEC4D4E4F700302309CC3E49C74109DE49E9F
:20302400E49F500B90FA84E4F07410A3F0800890FA84ECF0EDA3F090FA84E0FEA3E0FF8EC7
:20304400828F83122857E582604A90F91FE0FF0F90F91FEFF090F938E0F54CA3E0F54DA3CF
:20306400E0F54EA3E0F54F90FA84E0FAA3E0FBE4FEFFE54CC39AFAE54D9BFBE54E9EFEE517
:203084004F9FFF90F938EAF0EBA3F0EEA3F0EFA3F0023005758200227582041217C4743047
:2030A400C0E074F9C0E090F0F31244CA1581158190F0FB7421F07447A3F0744DA3F0744743
:2030C400A3F090F941E02401F0A3E03400F0A3E03400F0A3E03400F090F941E0FCA3E0FD7F
:2030E400A3E0FEA3E0FF90F104ECF0EDA3F0EEA3F0EFA3F090FA8BE0FEA3E0FF7D007C0077
:2031040090F0FFEEF0EFA3F0EDA3F0ECA3F090F93CE090F103F090F93DE090F108F078100D
:20312400E2F582122562AC82AD83AEF0FF7416C0E0E4C0E074F3C0E074F0C0E08C828D83C7
:203144008EF0EF12081CE58124FCF5817582041217FD75820122AFF0AE83E58290FA91F04F
:20316400EEA3F0EFA3F0C20D90FA91E0F553A3E0F554A3E0F555740D2553FAE43554FBAC96
:20318400558A828B838CF0126293FCBC02028024BC03030234E2BC10028019BC2002801426
:2031A400BC2102800FBCA8030233D5BCAF030234C202355790FA91E0FFA3E0FEA3E0FD75C8
:2031C40050907551FA755200740E2FF553E43EF5548D558553828554838555F0126293FBBC
:2031E4008550828551838552F0125F0A90FA90E020E2030232B9758204C007C006C005128E
:2032040017C4D005D006D00790FA90E0C423541FFB603CBB0F02806C85538285548385551A
:20322400F0126293F582C007C006C005122626AB82D005D006D007BBFF0280488B82C00765
:20324400C006C005122751D005D006D007803574012FF553E43EF5548D558553828554832F
:203264008555F0C007C006C005122593AB82D005D006D007BBFF02800B1224E57835740131
:20328400F20233CF758204C007C006C0051217FDD005D006D0078F828E838DF0122DFBE581
:2032A40082600B1224E578357401F20233CF7835E4F20233CF74012FF553E43EF5548D552A
:2032C4008553508554518555528550828551837408C0E07427C0E074F9C0E01245C81581A3
:2032E400158115819213500B1224E578357401F20233CF758204C007C006C0051217C485AC
:2033040053828554838555F0122593AC82758204C0041217FDD004D005D006D007BCFF02BE
:203324008051C007C006C005C0041224E5D004D005D006D0078F538E548D55AA53AB54741B
:2033440011C0E0C002C00390F92F12463415811581158190F938E4F0A3F0A3F0A3F090FC53
:2033640063ECF090FA90E054037824F28C82122785803D749EC0E0746BC0E0125A4A158125
:2033840015818F828E838DF0122DFBE582601B1224E57810E2FB90FC63F090FA90E0540328
:2033A4007824F28B8212278580067835E4F2801B90F930E0FAA3E0FBC002C00390F92712B4
:2033C40044CA1581158178357401F27835E2F5822290F938E0FAA3E0FBA3E0FEA3E0FFEA6D
:2033E4004B4E4F702F74012553FDE43554FEAF558D828E837408C0E07430C0E074F9C0E05C
:203404001245C8158115811581921350071224E57582012290F91FE4F090FA91E0F550A337
:20342400E0F551A3E0F55274012550FAE43551FBC002C00390F9171244CA15811581740D5D
:203444002550FDE43551FEAF528D828E838FF012629390F920F0AD50AE517411C0E0C00568
:20346400C00690F92F12463415811581158174092550FDE43551FEAF528D828E838FF01273
:203484006293FDA3126293FE8D828E83122857E582602790F938E4F0A3F0A3F0A3F07582AA
:2034A400041217C490F0F775F0001213CB7582041217FD1224E575820122758200221224A6
:2034C400E5740E2553FDE43554FEAF558D828E838FF0126293F58212045A758201227582FF
:2034E400041217C48553828554838555F0122C9EE582605B1224E57582041217C41235729D
:20350400300D11123B07907019E4F5F01206C112561A805674A6C0E0746BC0E0125A4A15EE
:203524008115817582041217FD90FA5B7401F090F0E374E0F0123B807408C0E0E4C0E0C031
:20354400E090F92712459C158115811581801B758200227F00C004C00774C3C0E0746BC0EE
:20356400E0125A4AE58124FCF58175820022783AE4F208F208F208F2C20D7419C0E0E4C086
:20358400E074A2C0E074FDC0E0907000E4F5F01206E1E58124FCF58178367419F2087470A9
:2035A400F208E4F208F29062C193FD740193FE7402937406C0E0C005C00690FDAB1245C8EF
:2035C4001581158115819214500790F08F7405F0229062C1E493FD740193FE7402937409DB
:2035E400C0E0C005C00690FDAB1245C81581158115819214500790F08F7402F02290FDAAB8
:20360400E0FFBF0102800790F08F7401F02290FDA8E0FEA3E0FFC3E49E74809F500790F0A4
:203624008F7403F02290FDA8E0FEA3E0FF4E70030236E590FDA8E0FEA3E0FFC374239E74FA
:20364400089F50047E237F08C006C00774F3C0E074F0C0E07836E2F58208E2F58308E2F563
:20366400F008E21206E1E58124FCF58190FA9474F3F074F0A3F0E4A3F090FA97EEF0EFA303
:20368400F0783AE2F58208E2F58308E2F5F008E2C007C0061237BE783AC0E0E582F208E5E4
:2036A40083F208E5F0F2D0E008F2D006D0078E028F037C007D007836E22AF208E23BF20885
:2036C400E23CF208E23DF290FDA8E0FCA3E0FDECC39EFEED9FFF90FDA8EEF0EFA3F0023689
:2036E4002990FDA2E0FCA3E0FDA3E0FEA3E0FF783AE2B5041108E2B5050C08E2B50607084D
:20370400E2B50702800790F08F7404F02290FDA6E0FEA3E0FF90F08DEEF0EFA3F0C006C05F
:203724000774E3C0E0746BC0E0125A4AE58124FCF581D20D221227A8AC82AD83AEF0FF90E9
:20374400F941ECF0EDA3F0EEA3F0EFA3F0227408C0E07450C0E074F9C0E090FA66124634A1
:2037640015811581158190FA5DE054F84421F090FA5EE054F344C8F090FA607437F0741304
:20378400A3F090FA6274FFF0A3F090FA647437F07413A3F0227411C0E0745DC0E074FAC027
:2037A400E090F9DC12463415811581158190F958E0FF04F090F9DEEFF022AC82AD83AEF05A
:2037C400FF783EECF4F2EDF408F2EEF408F2EFF408F290FA94E0F55EA3E0F55FA3E0F560CA
:2037E40090FA97E0F55AA3E0F55B855A5C855B5D155A74FFB55A02155BE55C455D7003026F
:2038040038BC855E82855F838560F0126293FEA385825E85835F8E047D007E007B00783EDD
:20382400E26CF208E26DF208E26EF208E26BF27846E4F208F27846C3E2940808E26480947B
:203844008050A7783EE25401FA08E25400FB08E25400FC08E25400FE7842C3E49AF2E49BEB
:2038640008F2E49C08F2E49E08F27841E2C313F56418E213F56318E213F56218E213F5615E
:203884007842E25420FC08E25483FD08E254B8FE08E254EDFA783EEC6561F2ED656208F239
:2038A400EE656308F2EA656408F27846E22401F208E23400F2023839783EE2F4FB08E2F408
:0F38C400FC08E2F4FD08E2F48B828C838DF02285
:206ADC000A002530327820004150206F6E2025640A004E6F204150206F6E2025640A002EE4
:206AFC0000636865636B435243206661696C65640A00524551202564207061727420256404
:206B1C000044726177696E6720696D61676520696E20736C6F742025640A00626C6B20661F
:206B3C0061696C65642076616C69646174696F6E210A0072657374617274696E6720696D8B
:206B5C006720646C0A004368616E67696E67207374617274696E67536C6F742066726F6D97
:206B7C0020256420746F20300A004E6F20736C6F74730A006E657720646C20746F202564F1
:206B9C000A00646C20696D670A004F544120696D6167652076616C69646174696F6E2066C0
:206BBC0061696C65640A00646174615479706520307825782069676E6F7265640A00436852
:206BDC00726F6D613239004F54412076616C6964617465642C207570646174696E67207491
:0F6BFC006F2076657273696F6E202530780A00FE
:05767600FF21474D4714
:2038D300E58620E0FB225390FD00225380FB0022E58620E0FB004390020022E58620E0FB98
:2038F30000438004002290F09B7438F0E4A3F030050990F09B7430F0E4A3F02290F959E056
:20391300704590F0C7E0603FC20490F09F7410F0C4A3F090F0A17406F0E4A3F09071DD7514
:20393300F080120D72D20490F09F7418F07401A3F090F0A1740DF0E4A3F09071FF75F0800C
:20395300120D72D2038002C203300A2690F0C6E06020C20490F09F7410F0C4A3F090F0A1D0
:203973007470F0E4A3F090720975F080120D72D20222C20222123EC17430C0E07472C0E0B1
:20399300124170158115817443C0E07472C0E01241701581158190F09BE0FEA3E0FF740862
:2039B3002EFEE43FFF90F09BEEF0EFA3F07456C0E07472C0E0124170158115817479C0E0BF
:2039D3007472C0E012417015811581749BC0E07472C0E01241701581158190F09BE0FEA39F
:2039F300E0FF74082EFEE43FFF90F09BEEF0EFA3F090F09DE4F0A3F0742BC0E07472C0E047
:203A130012417015811581023A3D758205123E9EE58260012274B9C0E07472C0E0125A4A4E
:203A330015811581903988020D4C7436C0E074FCC0E0E4C0E074C5C0E07472C0E01241709B
:203A5300E58124FBF581229062BFE493C0E0740193C0E074D1C0E07472C0E0124170E58132
:203A730024FCF58122123EC1123EDD74E0C0E07472C0E012417015811581123A5A90F0E5C9
:203A9300E0C0E0A3E0C0E074F1C0E07472C0E0124170E58124FCF58190FAB4E0FF3395E061
:203AB300FEC007C00674FFC0E07472C0E0124170E58124FCF581023A3D758201123E9EE5CC
:203AD300826001221219A2903A78020D4C123EC1123EDDC2051238F990F08DE0C0E0A3E00C
:203AF300C0E07412C0E07473C0E0124170E58124FCF58122903AE0020D4C123EC1123EDD42
:203B1300D2057428C0E07473C0E012417015811581D20490F08FE0FFBF02028018BF040225
:203B33008023BF05307439C0E07473C0E012417015811581227448C0E07473C0E012417050
:203B530015811581227459C0E07473C0E012417015811581227E00C007C0067464C0E07408
:203B730073C0E0124170E58124FCF58122903B0D020D4C123EC1123EDD7473C0E07473C09F
:203B9300E012417015811581748BC0E07473C0E01241701581158190F09BE0FEA3E0FF9023
:203BB300F0A1EEF0EFA3F090F94CE0FF7E0090F94DE0FD7C00C007C006C005C00474A4C0B2
:203BD300E07473C0E0124170E58124FAF58190F94AE0FF7E0090F94BE0FD7C00C007C006C4
:203BF300C005C00474B6C0E07473C0E0124170E58124FAF58190F948E0FF7E0090F949E03B
:203C1300FD7C00C007C006C005C00474B6C0E07473C0E0124170E58124FAF58190F946E045
:203C3300FF7E0090F947E0FD7C00C007C006C005C00474B6C0E07473C0E0124170E5812417
:203C5300FAF58190F099E0FEA3E0FF8E02EFFB3395E0FCFD7428C39AF50F74019BF510E457
:203C73009CF511E49DF512906F31E493FDE4FC3395E0FBFAE50FC39DFDE5109CFCE5119B77
:203C9300FBE5129AFA78647402F208E4F208F208F28D828C838BF0EAC007C006125D99AAB3
:203CB30082AB83D006D00790F09FEA2EF0EB3FA3F090F0BFE0FF7E0090F0C0E0FD3395E04F
:203CD300FC90F959E0FB7A00C007C006C005C004C003C00274BFC0E07473C0E0124170E501
:203CF3008124F8F581123F5E023A5A758203123E9EE5826001221219A2903B86020D4C12FC
:203D13003EC1123EDD74D9C0E07473C0E01241701581158174ECC0E07473C0E012417015A2
:203D330081158190F099E0FEA3E0FF90FA99EEF0EFA3F090F09BE0FEA3E0FF90F0A1EEF0E3
:203D5300EFA3F07401C0E07474C0E01241701581158190FA99E0FEA3E0FF8E02EFFB33957D
:203D7300E0FCFD74F0C39AFAE49BFBE49CFCE49DFD78647402F208E4F208F208F28A828B7B
:203D9300838CF0EDC007C006125D99AA82AB83D006D007EA2EFEEB3FFF90F09FEEF0EFA3BA
:203DB300F0EE5407601574075EFC7D00EEC39CFEEF9DFF90F09FEEF0EFA3F0906F3175F006
:203DD30080120D7290F0A1E0FEA3E0FF74082EFEE43FFF90F0A1EEF0EFA3F0D2049070BB62
:203DF30075F080120D7202390F758204123E9EE582600122903D12020D4C123EC1123EDDA5
:203E130090F09BE0FEA3E0FF74102EFEE43FFF90F09BEEF0EFA3F07415C0E07474C0E01204
:203E3300417015811581123F5E02390F758205123E9EE582600122903E0D020D4C123EC17E
:203E5300123EDD7425C0E07474C0E0124170158115817439C0E07474C0E01241701581152F
:203E73008190F09F747CF0E4A3F090F09BE0FEA3E0FF90F0A1EEF0EFA3F0D2049070BB7536
:203E9300F080020D72903E50020D4CE582C40354F8F582122626AF82BFFF02800D7824E458
:203EB300F28F821227857582012275820022C206C204C20590F099E4F0A3F090F09DF0A376
:203ED300F090F09BF0A3F0C20922D20490F0A1E4F0A3F0906DAE93FF7E007428C39FFF74CA
:203EF300019EFE90F09FEFF0EEA3F0906DAD75F080120D72C204906C0CE493FF7E0090F031
:203F13009FE0FCA3E0FDECC39FFFED9EFE90F09FEFF0EEA3F0906C0B75F080120D72906EC3
:203F330070E493FF7E0090F09FE0FCA3E0FDECC39FFFED9EFE90F09FEFF0EEA3F0D20490D4
:203F53006E6F75F080120D72C2042290F0E9E0FEA3E0FF4E601190F0E7E0FCA3E0FDC3EE17
:203F73009CEF9D5002800890F0E7E0FEA3E0FFC006C0077453C0E07474C0E0124170E581C0
:053F930024FCF5812271
:206C0B00801AFFFFFFFFFFFFFFFFFFFFFFFFFFFFFFFF0000000000000000000000000000DF
:206C2B00000000000000000000000000000000000000000000000000000000000000000049
:206C4B000000000000000000000000000000000000001C000000001F9F8000000000387027
:206C6B0001C07F000000001F9FC000000000387001C07F000000001F9FE00000000038701D
:206C8B0001C0F7800000001C1CE000000000380001C0E3800000001C1CE0000000003800ED
:206CAB0001C0E39DC1C7701F9CE773B871D03873B9C7E39FE3E7F81F9FEFF3FCF9F03873E3
:206CCB00FDCEE39FE777F81F9FCFF3FDDDF03873FDDCE39CE7F7381C1F8E739DFDC0387362
:206CEB009DF8E39CE7F7381C1C0E739DFDC038739DF8F79CE707381C1C0E739DC1C03873D1
:206D0B009DDC7F1FE7F7381F9C0FF3FDFDC03F739DDC7F1FE3E7381F9C0FF3FCF9C03F73D5
:206D2B009DCE1E1DC1C7381F9C0773B871C03F739DC7001C0000000000000380000000000F
:206D4B000000001C0000000000000380000000000000001C000000000000038000000000EA
:206D6B000000001C0000000000000380000000000000000000000000000000000000000069
:206D8B00000000000000000000000000000000000000FFFFFFFFFFFFFFFFFFFFFFFFFFFFF6
:206DAB00FFFF800C000882A2AB55BFFFFFFF7DB4622800000010101176FF7BFFFF7FB7A99D
:206DCB0055505100002922966FF7BFFFFFFFEAE622AA08000002542ABF3F7FFFFFFFFD59BB
:206DEB00B4102000002423B5B5DFFFFFFFFFF6AE48551000008890546AEFFFFFFFFFFBF516
:206E0B00A382000000012DA3B3FFFFFFFFFFF6BE4E5209000490020D55DFFFFFFFFFFDDDB9
:206E2B0068A9001000490CFBAB6FFFFFFFFFFEEB955A002000129122BFDFFFFFFFFFFFF575
:206E4B00658140400028127DEFFFFFFFFFFFFFEFAB28000000420A9775FFFFFFFFFFFFF716
:206E6B004AC20400800C0008029CDFFFFFFFFFFFFF6A6A8D002000044D72AAFFFFFFFFFF03
:206E8B00FFD5D57480000240128EDFFDFFFFFFFFFFAEAA0A11200020525FF57FFFFFFFFFBD
:206EAB00FF7294AA240000010AAB6F77FFFFFFFFFDAF545488000004804D95EBFFFFFFFF33
:206ECB005B58B5514000000808A6B3F77FFFFFFFFFAD4AA0100000029641DCAEFFFFFFFFCD
:206EEB00FDBFEA4802000000093EAB75EFFFFFFFFFD4B121080000000AC35DFF7FFFFFFFF2
:206F0B00EFEF444A64800000A152A6EFEFFFFFFFD6CAF5101800000002154BD5DFFFFFF7DA
:206F2B00EBD4D88500003838000000000000000000000000000000000000000000000000BA
:206F4B000000000000000000000000000000000007C00000000001FFF0000000000FFFF071
:206F6B00000000007FFFF000000001FFFFF000000007FFFFC00000001FFF80000000007FC7
:206F8B00F80000000000FFE00000000001FF000000000007FE00000000000FF80000000003
:206FAB00001FE000000000003FC00003E000007F80007FF00000FE0003FFF00001FC000F7B
:206FCB00FFF00001F8003FFFF00003F800FFFF800007F001FFE000000FE003FF0000000F40
:206FEB00C00FF80000001F801FF00000001F803FC00000003F003F800000003F007F0000B7
:20700B0000007E00FE0007E0007E01FC001FF000FC01F8007FF000FC03F001FFF000F8033A
:20702B00F003FFF001F807E007FF0001F807E00FF00001F00FC01FE00001F00FC03F800060
:20704B0003F00F803F000003F01F807E000003E01F807E000003E01F00FC01E003E01F0073
:20706B00FC07F803E01F00F80FFC03E03F00F80FFC03E03F01F81FFE03E03F01F81FFE036D
:20708B00E03F01F81FFE03C03E01F01FFE01C01E00F00FFC00000000000FFC0000000000BC
:2070AB0007F8000000000001E000000000000000303000001FF800000000FFFF000000036D
:2070CB00FFFFE000000FFFFFF000003FFFFFFC00007FF00FFE0000FF8001FF0001FE000097
:2070EB007F8003F800001FC007F000003FE00FE000007FF00FC00000FFF01F800001FFF8E3
:20710B001F000003FFF83F000007FEFC3E00000FFC7C7E00001FF87E7C00003FF03E7C00CE
:20712B00007FE03EFC0000FFC03FF80001FF801FF80003FF001FF80007FE001FF8000FFCDE
:20714B00001FF8001FF8001FF8003FF0001FF8007FE0001FF800FFC0001FFC01FF80003F8A
:20716B007C03FF00003E7C07FE00003E7E0FFC00007E3E1FF800007C3F3FF00000FC3F7F89
:20718B00E00000FC1FFFC00001F80FFF800003F00FFF000007F007FE00000FE003FC0000B8
:2071AB001FC001FE00007F8000FF8001FF00007FF00FFE00003FFFFFFC00000FFFFFF000B6
:2071CB000003FFFFE0000000FFFF000000001FF800001010000000000000000000007C0012
:2071EB008200000038004407007903811C0103810079000708080063773E1C3E77631010E5
:20720B00000003C00FF0081008100810081008100810081008100BD00BD008100FF0000014
:20722B000A000A0A0009084F70656E4550617065724C696E6B0A08006F70656E657061704D
:20724B0065726C696E6B2E64650A0049276D0920666173742061736C656570202E202E2093
:20726B002E20746F2077616B65206D653A000A52656D6F7665206261747465726965732C57
:20728B002073686F727420626174746572790A00636F6E74616374732C207265696E73653D
:2072AB007274206261747465726965732E004465657020736C6565700A00546167204D4141
:2072CB00433A202573004368726F6D613239207625303458005374617274696E67202E2078
:2072EB002E202E0A0A000A564261743A202564206D560A0054656D70657261747572653AE4
:20730B00202564430A0A000C466C617368696E67207625303478202E202E202E000C4F54FA
:20732B0041204641494C4544203A280A0A000C4E6F74204F544120696D616765000C57726D
:20734B006F6E67204F544120696D616765000C435243206572726F72000C4572726F722053
:20736B00436F64652025640057616974696E6720666F722064617461202E202E202E0A00F6
:20738B000A466F756E642074686520666F6C6C6F77696E672041503A000A4150204D414313
:2073AB003A202530325825303258002530325825303258000A43683A2025642052535349F3
:2073CB003A202564204C51493A2025640A00084E6F20415020666F756E64203A280A080A7C
:2073EB00005765276C6C2074727920616761696E20696E2061000A6C6974746C6520776819
:20740B00696C65202E202E202E00087A7A5A5A5A202E202E202E0A080A000C454550524FA6
:20742B004D204641494C4544203A280A0A000C536C656570696E6720666F7265766572201D
:15744B002E202E202E0A0A00564261743A202564206D560A0011
:203F9800C007C006C005C004C00390FAA2E0600302408C90FAA3E0FF24FB5003024089EFBB
:203FB8002F2F903FBE73023FCD023FEB02406C02408302408990FAA0744BF0E4A3F090FA39
:203FD800A2740BF090FAA37401F090FAA47468F002408C90FA9D1248B4E582FF6045EF240B
:203FF800E0FFBF600040027F1F90FAA5E0FE0E90FAA5EEF0C0078E821243DEAD82AE831524
:204018008190FAA4E0FC7B002DFDEB3EFE8D828E837467C0E01248AFAE82158190FAA4EEAB
:20403800F0800B90FAA37402F090FAA4E0FFEF75F002A42460F582747435F0F583E493FE5E
:20405800A3E493FF90FAA0EEF0EFA3F090FAA2740BF0802090FAA37403F090FAA074E3F065
:20407800741AA3F090FAA203F0800990FAA37404F0C3802D90FAA0E0FEA3E0FFEE54012469
:20409800FFE433FDEFC313CE13CEFF90FAA0EEF0EFA3F090FAA2E0FF1F90FAA2EFF0ED24B2
:0C40B800FFD003D004D005D006D00722B2
:207460009B01B3013303C90089019101990019013101930013012301CD01D90199039D010F
:20748000B90139037302D30193033B017301B7039701A7012703370167016702DB001B0341
:2074A0006303C500D10011038D00B10031028B00A3002302ED008D03B103DD001D03710356
:2074C00077038B03A303BB003B02BB03D70017034703B7003702C702F70213028F02650050
:2074E000850169000903A10121034D000D01590019026101610243025300EF024301F10277
:20750000E501E901C9033D01790179022F014F014F02DB037B036F03F500C503D103BD00AF
:0E7520003D02AF002F02DD03BD03D703AF0312
:2040C400C007C006C005C004C001C000AC82AD83AEF0FFBF20005031BF0A030241638F8267
:2040E400C007C006C005C004C003C002C001C000C0251242ABD025D000D001D002D003D0B1
:2041040004D005D006D00780567E00EF24E0FFEE34FFFEEF2FFFEE33FEEF249CF582EE342C
:2041240063F583E493A3E493C4540FFE90F0B3EEF0300507EE2EFE90F0B3F090F0B3E0FF4E
:204144003395E0FE0FBF00010E90F099E0FCA3E0FDEF2CFFEE3DFE90F099EFF0EEA3F0D0D7
:2041640000D001D004D005D006D00722C007C006C005C004C003C001C000E58124F6FFC059
:2041840007C006C005C004C003C002C001C000C02512425ED025D000D001D002D003D00419
:2041A400D005D006D007E58124F6F886050886068D828E83E493FCBC0C7290F099E4F0A385
:2041C400F0C007C005C006C0E0C0E09040C41256F9E58124FBF58190F099E0FDA3E0FE33BF
:2041E40095E0FCFB7428C39DFD74019EFEE49CFCE49BFB78647402F208E4F208F208F28DAC
:20420400828E838CF0EBC007C002C001C000C025125D99AB82AC83ADF0FED025D000D0011C
:20422400D002D00790F099EBF0ECA3F0C007E58124F5F8E6C0E008E6C0E0E4C0E0C0E09058
:20424400109A1256F9E58124FBF581D000D001D003D004D005D006D00722300625300506D2
:204264007E147F0080047E0A7F0090F0B4EEF03005067E207F0080047E107F0090F0B3EE82
:20428400F0223005067E207F0080047E107F0090F0B4EEF03005067E147F0080047E0A7F36
:2042A4000090F0B3EEF022AF82BF08028018BF0902804EBF0A028013BF0B028055BF0C01D2
:2042C40022BF0D568038B20502425E12425E90F0B4E0FE3395E0FD90F09BE0FBA3E0FCEEB9
:2042E4002BFEED3CFD90F09BEEF0EDA3F090F09DE0FDA3E0FE90F099EDF0EEA3F022B20428
:204304002290F099E0FDA3E0FE90F09DEDF0EEA3F02290F09DE4F0A3F0227E00C007C006B2
:12432400742EC0E07475C0E0125A4AE58124FCF58122E8
:15752E00496E76616C69642063686172203078253032780A00F2
:20433600E58620E0FB225390FD00225380FB0022E58620E0FB004390020022E58620E0FB2A
:2043560000438004002275FB02228582F9E5F830E1FB53F8FDE5F820E0FB85F9822253F359
:20437600C775FA2275FC0C75F8C043F4C043F102D20B2253F1FD53F43F75FA0075FC3175AC
:08439600F84043F338C20B228A
:20439E00858283D0F0D0E0D082C082C0E0C0F022C00074FB2581F8E5828682088683088624
:2043BE00F0D0002275F008C58213C58233D5F0F7C58222E583A2E713F583E58213F5822208
:2043DE00D083D0E0D0F0C0F0C0E0C083E582A4F58285F08322C000E58124FDF8E6F88582A9
:2043FE00F0A4F582E8A8F08583F0A428F583E5F03400F5F0E4D00022C000C001C0E0C0F043
:20441E0074FA2581F88600E58288F0A4F582A9F0E58388F0A429F583E5F03400F9D0E088FA
:20443E00F0A429C5F03400F9D0E0C0F088F0A429D0F0D001D00022C000C001C002E58124CA
:20445E00FBF8E6F918E6F88582F0A4C0E0AAF0E58388F0A42AF8E5F03400FAE98582F0A474
:20447E0028C0E0E5F03AFA74003400F8E98583F0A42AFAE5F0388AF0D083D082D002D00135
:20449E00D00022D0E0D0F0C000C001C002C0F0C0E074F82581F9E7F809E7F922D002D00171
:2044BE00D00022C9C583C9C8C582C8221244A175F0081244C1E0A31244C1F0A3D5F0F302B7
:2044DE0044BA1244A175F0081244C1E493A31244C1F0A3D5F0F20244BA1244A1C375F008A3
:2044FE001244C1E0A3F5021244C1E03AF0A3D5F0EF0244BA1244A175F0081244C1E0A3F5A2
:20451E00021244C1E05AF0A3D5F0EF0244BA1244A1C375F0081244C1E0A3F5021244C1E034
:20453E009AF0A3D5F0EF0244BA1244A1C375F0081244C1E0A3F5021244C1E0A39AD5F0F0DB
:20455E000244BA1244A175F0081244C1E0A3F5021244C1E0A36A7007D5F0EED30244BAC384
:20457E000244BAC8C0E075F008E038F0A3D5F0F9D00022D3E4024581C374FF024581C000B0
:20459E00C00174FA2581F8E6F5F0088601496015088600E8F0A374FF25F0F5F074FF39F501
:2045BE000145F070EED001D00022C000C001C00274F92581F9E7D3601CF5F00987000987FC
:2045DE0001C3E0F502A31244C1E0A31244C16A7004D5F0EED3D002D001D00022C000C00154
:2045FE00C00274F82581F9E7F5F00987024A601F0987000987011244C1E0A31244C1F0A344
:20461E0074FF25F0F5F074FF3AF50245F070E7D002D001D00022C000C001C00274F92581F4
:20463E00F9E76015F5F00987000987011244C1E0A31244C1F0A3D5F0F3D002D001D0002270
:20465E00C083C082E06003A380FAC3E582D0F095F0F582E583D0F095F0F58322C003C002A5
:20467E00C001C000C0E0C0F0C083C082A98174F62581F886F0188600750201750300758299
:20469E0011A2F74014C3E833F8E5F033F5F0C3EA33FAEB33FB058280E8E4C003C002C0E050
:2046BE00C0E0AA81C0F0C000C0E0C0E0A881C0E0C0E0C0E0C0E0AB81C000C001C37583044C
:2046DE0086F018E71995F0D583F6D001D000402BC000C001C375830486F018E795F0F71905
:2046FE00D583F585020085030175830486F018E745F0F719D583F5D001D00074FC28F8C348
:20471E0075830408E613F6D583F9C00074FC2AF8C375830408E613F6D583F9D000D582981F
:20473E0020D508D082D083D0F0D00074F42581F58130D508D082D083D0F0D000E8D000D0DB
:20475E0001D002D00322C2D502467AD2D502467AC003C002C001C000C0E0C0F0C083C082D6
:20477E00A98174F62581F886F07401758219A2F7400A23C5F023C5F0058280F2C0E0E4C01E
:20479E00E0C0E0C0E0AA81C0F0C0E0C0E0C0E0A881C0E0C0E0C0E0C0E0AB81C000C001C307
:2047BE0075830486F018E71995F0D583F6D001D000402BC000C001C375830486F018E79528
:2047DE00F0F719D583F585020085030175830486F018E745F0F719D583F5D001D00074FC4A
:2047FE0028F8C375830408E613F6D583F9C00074FC2AF8C375830408E613F6D583F9D0004B
:20481E00D58298D082D083D0F0D00074F42581F581E8D000D001D002D00322C006C005C037
:20483E0004C003C002C001C00074F72581F886F074017C09A2F7400923C5F023C5F00C80B9
:20485E00F3FBE4FAA9F0F88582F0FDFEC3E58298E583994011C3E58298F582E58399F58325
:20487E00EA4DFDEB4EFEC3E913F9E813F8C3EB13FBEA13FADCD620D5048D828E83D000D0E6
:20489E0001D002D003D004D005D00622C2D5024839D2D5024839E0C0E02401F0A3E0C0E0B7
:2048BE003400F0A3E0D083D0826014B4600AC000A882E2D000F582224009E493F58222E08E
:2048DE00F58222C000A882E6D000F582221244A175F004D31244C1E0FA3400F0EAA31244BD
:2048FE00C1F0A3D5F0EE0244BA1244A175F004C31244C1E0FAA31244C1E0A36A7004D5F09F
:20491E00EFD30244BA1244A1C3E0A398E0A399E0A39400E0A394000244BA1244A1C3E0A35B
:20493E0038E0A339E0A33400E0A334000244BA75F004E07004A3D5F0F9F58222A3A3A3E077
:02495E00332202
:0449600075C90B22E8
:20496400C0E0C007C006C0D075D000AEDAAFDB74012EF5DAE43FF5DBD0D0D006D007D0E0BD
:2049840032C007C006C005C004C000AEDAAFDB784AEEF208EFF27848E5E2F27849E5E3F27A
:2049A400EEB5DAE7EFB5DBE37848E2FC08E2FD08E2FE08E28C828D838EF0D000D004D005C1
:2049C400D006D0072285E28222E4F5DAF5DBF5E4F5E5F5E6F5E7F5E275E40543D84043B881
:2049E4000222AF82AE83ADF0FC784CEFF208EEF208EDF208ECF21249857850C0E0E582F299
:204A040008E583F208E5F0F2D0E008F2124985AA82AB83AEF0FF7850D3E29AF4B3FAB3086D
:204A2400E29BF4B3FBB308E29EF4B3FEB308E29FF4FF784CC3E29A08E29B08E29E08E29FAB
:034A440050CA2233
:204A470053C07F53A1FE53BEFC3243870122AF82AE83ADF0FC7854EFF208EEF208EDF20820
:204A6700ECF290FAA6E4F090FAA7F090FAA874DFF090FAA974BEF090FAAAE054E0F090FAA0
:204A8700AAE0541FF090FAAB7407F090FAACE054E0F090FAACE0549F4420F090FAACE05481
:204AA7007FF090FAADE054FC4402F090FAADE054FBF090FAADE054F7F090FAADE054CFF011
:204AC70090FAADE0543F4440F07854E2F5F008E242F008E242F008E245F0701B7B01751338
:204AE7006F7514FC85141590FAA6E515F07A6F90FAA7EAF0024B897854C3E2943F08E29467
:204B07000008E2940008E29400500C7854743FF208E4F208F208F27854E225E0F51608E24B
:204B270033F51708E233F51808E233F519E5162516F516E51733F517E51833F518E51933F0
:204B4700F519747DC0E0E4C0E08516828517838518F0E5191247647854C0E0E582F208E5F5
:204B670083F208E5F0F2D0E008F2158115817B007D687EFC8E0590FAA6EDF07E6890FAA783
:204B8700EEF053C07F53A1FE43A11075A8A0EB70147854E2F5F008E242F008E242F008E2D7
:204BA70045F070012253BEFBE5BE30E5FBE5C654384441F5C6E5C630E6FB43BE0453C67F97
:204BC7007854C3E2F5F074F095F008E2F5F074FF95F008E2F5F0E495F008E2F5F0E495F058
:204BE700501B7DF07EFF7854E22410F208E23400F208E234FFF208E234FFF280117854E218
:204C0700FD08E2FE7854E4F208F208F208F2EB60067A007C0080047A107C008AA175C000E7
:204C270043D6817AA67CFA8AD48CD575D60175A204E5A570FC75A2028EA48DA3AEA5EEB5B0
:204C4700A50280FA43C702EB60077B0075BE07800375BE06000000E5BE5403600875D701AE
:204C6700004387010053C7FDE5BE30E5FB75BE00E5BE30E5FB75C679E5BE30E6FB7E007D4F
:1B4C870000000DBD80FB0EBE80F575C639E5C620E6FB75C63875BE04024B95E0
:0E767B000606060606060407070707070704AB
:204CA200AF8275BB0074304FF5B575B473E5B420E6FBE5B430E7FBAEBA7F00ADBB7C0090B8
:204CC200FAB2EC4EF0ED4FA3F08FB522C21590FAB2E0FEA3E08E82C4C582C4540F6582C565
:204CE20082540FC5826582C582F58374E2C0E07404C0E0124455AC82AD83AEF0FF15811581
:204D02008190FAB0E0FAA3E0FB74FFC0E07407C0E08A828B83124455A882A983AAF0FB158B
:204D2200811581ECC398FCED99FDEE9AFEEF9BFF747DC0E08C828D838EF0EF124416AC82CF
:204D4200AD83AEF0FF1581EFC40354F8CEC403CE6ECE54F8CE6EFFEDC40354074EFEEDC4BA
:204D62000354F8CCC403CC6CCC54F8CC6CFDEF30E70FD215C3E49CFCE49DFDE49EFEE49F0E
:204D8200FF90FAAEE0C0E0A3E0C0E08C828D838EF0EF124764AC82AD83AEF0FF15811581C8
:204DA20074FF2CFC74033DFDE43EFEE43FFF74FFC0E07407C0E08C828D838EF0EF124764ED
:164DC200AC821581158190FAB4ECF030150790FAB4C3E49CF02288
:204DD800E58620E0FB225390FD00225380FB0022E58620E0FB004390020022E58620E0FB7E
:204DF800004380040022C007C006AF82BF64004027BF6A00502290DF097421F090DF0A74E5
:204E18003BF090DF0B7413F08F06EE249CFE90DF0675F003A4F0802F90DF097422F090DF90
:204E38000A74BBF090DF0B7413F0BFC8004013BFE100500EEF2438FF90DF0675F00CA4F0A4
:204E5800800590DF06E4F0D006D00722C00775E10490DF3BE0B401FCD00722124E647F0005
:204E78008F057EDFEFC3907543938D828E83F00FBF200040EB90DF237488F090DF247431BD
:204E9800F090DF257409F090DF2E748EF075911075ED00759D0075EF0322C007AF82C3EFBD
:204EB8006480946250047FE2800EC3748A8FF063F08095F050027F0A741E2FC3139075634B
:204ED8009390DF2EF0D00722C007C006AE82AF838ED48FD575D601000000000000000000A0
:204EF800D006D0072275D68100000000000000000022C007C006C005AE82AF83124EFD8F3D
:204F18000590FC78EDF090FC79EEF07E767FFC8E828F83124EE0D005D006D00722C007C0B4
:204F380006C005AE82AF83124EFD8F0590FC7EEDF090FC7FEEF07E7E7FFC8E828F83124E72
:204F5800E0D005D006D00722301604E5EF700122124E6453C0FE43B801E5ED75F080A424B4
:204F7800B6F58274FA35F0F583124F0A75E1022253B8FE124EFD124E6475D10053C0FE2259
:204F9800AE82AF837CFF7DFF124F888E828F83124F3575E90075E103E5E920E42375820F4D
:204FB800C005C004124CA2D004D00590FAB2E0FEA3E0FFC3EE9CEF9D50DE8E048F0580D886
:204FD800124EFDC005C004124F60D004D0057423C0E08C828D831248AA15817404C0E01250
:204FF80043F3AC82AD83158190F0E7ECF0EDA3F022C025C0E0C0F0C082C083C007C006C083
:2050180005C004C003C002C001C000C0D075D000E5D130E040E5ED75F080A424B6FE74FA2D
:2050380035F0FF53D1FE8E828F83E0FD248240200D0DED2EF582E43FF583E0FF30E711E5DA
:20505800ED04FF8FEDBF030375ED00E5EF14F5EF124F60800F7478C0E07475C0E0125A4ABE
:205078001581158153C0FED0D0D000D001D002D003D004D005D006D007D083D082D0F0D06A
:20509800E0D02532201806124F88C21622201605D216024F6022E59D75F080A424B6FE7483
:2050B800FA35F0FF8E828F83E0FD7403B5EF047582FF228D037C0074022BF9E43CFAE92EAD
:2050D800F582EA3FF583E0FA747F5AD39494F4FABA7F0040047AFF8003EA2AFA90F0BFEAE0
:2050F800F00BBB00010CEB2EF582EC3FF583E0A2E71324B390F0C0F00EBE00010FC005C0BE
:2051180006C00790F95B124634158115811581E59D04FF8F9DBF0303759D00D21910AF0244
:20513800C219E5EFFF04F5EFA21992AFEF7007C005124F60D0058D8222D21A10AF02C21A4A
:10515800AFEF75EF03A21A92AFEF7003024F602210
:20754300D3917D044522000F0022BB131D3B1373A7650700181E1CC700B0B610EA2A001F2A
:20756300030506080B0E191C242527293855408D8A84CAC4C0646D612069727120756E654F
:09758300787065637465640A0008
:10768900DFD900008080131A0000DFD9207E134261
:1700E10090FC477456F090FC487412F090FC4903F090FC4A7485F0AA
:20516800E58620E0FB225390FD00225380FB0022E58620E0FB004390020022E58620E0FBEA
:20518800004380040022C007C006C005C004C003C002C001C000E582785BF27E00C21C7802
:2051A8005CE4F2C006785CE2C0E09010001243F3AA82AB831581785DEAF208EBF2785F74E0
:2051C80004F208E4F2785DE2FA08E2FBE4FCFE7404C0E0E4C0E0744BC0E074FCC0E08A8268
:2051E8008B838CF0EE1206E1E58124FCF5817404C0E07447C0E074FCC0E090FC4B1245C8C1
:20520800158115811581921DD006201D030252F2785FE2FB08E2FCC3941040030252F2C06F
:2052280006785D795FE3C5F0E225F0FB09E3C5F008E235F0FAE4FCFE7402C0E0E4C0E07493
:205248004BC0E074FCC0E08B828A838CF0EE1206E1E58124FCF58190FC4BE0F51A74FFB5E4
:205268001A05D0060252F2D006785BE2B51A5D90FC4CE0FCBC020040531C1C8C06785AC3D0
:20528800E29C5004785AE2FCC0067B007858E2F51B08E2F51C785DE2FD08E2FF74022DFD49
:2052A800E43FFF785FE22DFD08E23FFA7E007F00C004C003C01BC01C8D828A838EF0EF12E8
:2052C80006E1E58124FCF581D21CD00690FC4CE0FF7D00785FE2FB08E2FCEF2BFBED3CFC17
:2052E800785FEBF208ECF2025218785CE22401F2785CE2B40A0050030251AB301C048E0729
:2053080080027FFF8F82D000D001D002D003D004D005D006D00722758204C007C006C00569
:20532800C004C003C002C001C0001217C41253A0D000D001D002D003D004D005D006D0070D
:20534800301B26C007C006C005C004C003C002C001C0001216E91253A0D000D001D002D05F
:2053680003D004D005D006D007758204C007C006C005C004C003C002C001C0001217FD751A
:205388008200125C28D000D001D002D003D004D005D006D007D2AF22D21B785874A2F208E1
:2053A80074FDF2785A7407F275822A12518EE582FF30E71B785874A2F20874FDF2785A7410
:2053C80006F275820112518EE582FF30E701227404C0E0E4C0E0C0E090FDB212459C158140
:2053E800158115817404C0E074B2C0E074FDC0E090FDA41245C8158115811581921E501D5B
:205408007404C0E074B2C0E074FDC0E0906A761245C8158115811581921E40012290F95751
:205428007444F090F9567467F090FDA4E0FF90F953F090FDA5E0FE90F952F090FDA6E090B8
:20544800F951F090FDA7E090F950F090FDA4E4F07D007C00C006C005C007C00474A2C0E063
:2054680074FDC0E0E4C0E0748CC0E07475C0E0125A4AE58124F7F58190F950E0FF7E0090F3
:20548800F951E0FD7C00C007C006C005C004749AC0E07475C0E0125A4AE58124FAF58190D4
:2054A800FDA2E024BF90F955F090FDA3E024BF90F954F090F956E0FF7E0090F957E0FD7C7F
:2054C80000C007C006C005C00474A4C0E07475C0E07436C0E074FCC0E0125AC3E58124F862
:2054E800F58190F954E0FF7E0090F955E0FD7C00C007C006C005C00474A4C0E07475C0E066
:20550800743AC0E074FCC0E0125AC3E58124F8F58190F952E0FF7E0090F953E0FD7C00C0D1
:2055280007C006C005C00474A4C0E07475C0E0743EC0E074FCC0E0125AC3E58124F8F58143
:2055480090F950E0FF7E0090F951E0FD7C00C007C006C005C00474A4C0E07475C0E07442CD
:20556800C0E074FCC0E0125AC3E58124F8F581785874AEF20874FAF2785A7402F2758212BD
:2055880012518EE58230E70122785874B0F20874FAF2785A7402F275820912518EE5823061
:2055A800E70122C21B229055B9741AC39582F5F02275F020C2ADC2AC43AE0100E5AE20E7DF
:2055C800FB05AD05ADD5F0F09000008583AD8582ACA375AB2275F00275F900E5F830E1FB14
:2055E80053F8FDE5F820E0FBC0F9D5F0EB43AE02E5AE20E6FBD0E0D0AFF5AFE5AE20E6FB2C
:2056080053AEFDE5AE20E7FBE583B440BE75C90B80FEC007C006C005C004C0031255AEAC74
:2056280082AD83AEF0FF8E03C003C004C00590FDA212463415811581158175D6FF75A80052
