:040000000200833245
:01000B0032C2
:0100130032BA
:01001B0032B2
:0100230032AA
:03002B000243523B
:01003300329A
:01003B003292
:030043000249145B
:03004B0002426FFF
:01005300327A
:01005B003272
:01006300326A
:01006B003262
:01007300325A
:03007B0002551C0F
:0300FA0002007E83
:03007E000204DB9E
:2000FD00E58620E0FB225390FD00225380FB0022E58620E0FB004390020022E58620E0FBA6
:20011D00004380040022AF8290F090E4F090F091F08F061FEE60767E0090F95CE0FDBD024C
:20013D000BEE905C9293FDBDC800405990F95CE0FDBD010BEE905C9293FDBDC8005046EEED
:20015D002492FCE4345CFD8C828D83E493F582C007C006C005C004121C39E582D004D005C6
:20017D00D006D007601F90F090E0FB90F0C1E0FAC3EB9A501090F090EAF08C828D83E49309
:20019D00FC90F091F00EBE0C005086808C90F091E0FFE06013BFC800400890F95C7402F02E
:2001BD00800690F95C7401F090F091E0F5822290F0EFE0FEA3E0FFC3742C9E74019F40099B
:2001DD0090F0E5E07003300159300A0920020690F0C8E0700930031990F0C9E0601390FC40
:2001FD0062E0FFBFFF0280097824E4F28F82122759121E05AD82AE83AFF090F092EDF0EE32
:20021D00A3F0EFA3F0ED4E602D90F0EFE4F0A3F010010090F0E5E06002D20190F0E5E4F04A
:20023D008014121EF0AD82AE83AFF090F092EDF0EEA3F0EFA3F012189990F092E0FDA3E0C7
:20025D00FEA3E0FFED4E700990F0E3E4F0A3F08059740F2DFAE43EFB8F048A828B838CF0BA
:20027D00125C72FAA3125C72FB90F0E3EAF0EBA3F0740D2DFAE43EFB8F048A828B838CF060
:20029D00125C7260168D828E838FF012312EE582701890F0E3E4F0A3F0800F74A3C0E07468
:2002BD005CC0E0125410158115811218E4AE82AF8390F0EFE0FCA3E0FD90F0EFEE2CF0EFE0
:2002DD003DA3F0BE580CBF020990F0C7E06003C2002290FA5DE0600E90FA5DE4F0900064F3
:2002FD00E4F5F00217E490F0E3E0FEA3E0FF4E603BEF30E71F8E048F0553057F7877ECF280
:20031D00ED08F2E408F208F29003E8E4F5F01259240217E47877EEF2EF08F2E408F208F2A1
:20033D0090EA60E4F5F01259240217E41218E4AE82AF837877EEF2EF08F2E408F208F290E1
:20035D0003E8E4F5F01259240217E490F0D0E0FF600D8F82121C39E58290F95BF0800C75F0
:20037D008202120123E58290F95BF090F95BE0700920030690F0C9E07014300A09200206ED
:20039D0090F0C8E0700890F0E6E0FFBF231390FC62E0FFBFFF0280097824E4F28F82122794
:2003BD005990F95BE0604890F0E6E4F090F0D0E0700F75820412179F1214A27582041217C3
:2003DD00D890F0E574FDF090002812177C1218E4AE82AF837877EEF2EF08F2E408F208F205
:2003FD009003E8E4F5F01259241217E4D2002275820112185FAC82AD83AEF0FF7877ECF2C3
:20041D00ED08F2EE08F2EF08F29003E8E4F5F01259240217E4E582FF24FA50030204C3EFA8
:20043D002F2F9004437302426B02045502046C02049C0204C30204A574AEC0E0745CC0E033
:20045D0012541015811581C20090F95BE4F02290F95BE0FE74BBC0E0745CC0E012541015B5
:20047D00811581758204C00612179F12135C1214A27582041217D8D00690F95BEEF0229030
:20049D000000E4F5F00217E474CBC0E0745CC0E01254101581158175820412179F12274547
:2004BD007582040217D87E00C007C00674DBC0E0745CC0E0125410E58124FCF5812275823E
:2004DD000112179F75820F1245AD90FAB0E0FEA3E0FF7423C0E08E828F831241B515817427
:2004FD0004C0E0123CFEAC82AD83158190F0E7ECF0EDA3F0905C9EE493C0E0740193C0E0EF
:20051D00905CA0E493C0E0740193C0E0740293C0E074EDC0E0745CC0E0125410E58124F960
:20053D00F581124C2A12197D12193590F0E574FCF0AEBE5306187F00BE1009BF000690F05B
:20055D00E574FEF0301B09900000E4F5F01217E47434C0E074FCC0E0E4C0E0741CC0E074FD
:20057D005DC0E0125410E58124FBF581123722900190E4F5F01217E475820412179F1213A6
:20059D00CE12370990F0C4E060117424C0E0745DC0E01254101581158180187435C0E074E9
:2005BD005DC0E012541015811581902710E4F5F01217E490F95BE0FFE0601F8F82121C3948
:2005DD00E58270257442C0E0745DC0E01254101581158190F95BE4F0800F7460C0E0745D0D
:2005FD00C0E01254101581158190F95BE0700312036890F95BE06004D2008002C2007582B3
:20061D000412179F1214A23000067E287F0080047E587F028E828F8312177C30000A7C88EE
:20063D007D137E007F0080087CC07DD47E017F008C828D838EF0EF1217E43000051201CC51
:07065D0080F812036880F32E
:205C9200C864C965CA66CB67CC68CD690900725D804E6F207570646174650A00434D445FD7
:205CB200444F5F5343414E0A0052657365742073657474696E67730A0045726173696E674A
:205CD20020696D616765730A00436D6420307825782069676E6F7265640A000A2573204F76
:205CF20045504C2076253034782C20636F6D70696C656420417567202033203230323420C9
:205D120031313A32313A35380A004D41432025730A00446F696E67206661737420626F6F0F
:205D3200740A004E6F726D616C20626F6F740A004E6F20415020666F756E64206F6E207352
:205D520061766564206368616E6E656C0A004E6F207361766564206368616E6E656C0A009B
:0E5D72004368726F6D6134325F38313736002E
:01696F000126
:20066400E58620E0FB225390FD00225380FB0022E58620E0FB004390020022E58620E0FB39
:20068400004380040022AC82AD83AEF0FF00C2A000758203123C6B8E82123C6B8D82123C37
:2006A4006B8C82023C6BC007C006C005C004C003C002C001C000AC82AD83AEF0FFE5812473
:2006C400F5F8860208860300C2A000758203123C6B8E82123C6B8D82123C6B8C82123C6BA3
:2006E4008A068B07E58124F3F886040886058C028D031CBCFF011DEA4B6015758200123C40
:200704006BAB828E828F83EBF0A3AE82AF8380DE00D2A000D000D001D002D003D004D0057C
:20072400D006D00722AF8200C2A0008F82123C6B00D2A0002200C2A000758205123C6B7569
:200744008200123C6BE58220E0F500D2A00022AC82AD83AEF0FF7803E2FA08E2FBC007C0AC
:2007640006C005C004C003C002120739758206120729D002D003D004D005D006D00700C213
:20078400A000758202123C6B8E82123C6B8D82123C6B8C82123C6B8A068B077805E2FC0826
:2007A400E2FD8C028D031CBCFF011DEA4B60128E828F83E0FBA3AE82AF838B82123C6B8054
:2007C400E100D2A000221207397582B9120729C20C227582AB12072975F034D5F0FDD20C4F
:2007E40022C007C006C005C004C003C002C001C000C082C083C0F0C0E005810581E581244C
:20080400EFF88605088604E58124EDF8E6084670030208DEC005C004E58124F9F88602083E
:200824007B00E58124FDF8E4C39AF674019B08F6E58124FDF8E58124EBF9C3E79609E70850
:2008440096D004D005500EE58124EDF8A98119E6F708E609F77803EDF2EC08F2A881187980
:2008640005E6F308E609F3E58124FBF886820886830886F008E6C007C006C005C004C003D1
:20088400C002C001C000C025120753D025D000D001D002D003D004D005D006D007A88118EE
:2008A4008602088603E4FEFFE58124FBF8EA26F6EB0836F6EE0836F6EF0836F6A88118E62C
:2008C4002DFD08E63CFCE58124EDF8A98119E6C397F608E60997F602080BE58124FAF58149
:2008E400D000D001D002D003D004D005D006D00722C007C006C005C004C003C002C001C01A
:2009040000C082C083C0F0C0E0E58124FDF88602088603EA7005EB540F6006758200020A50
:2009240029E58124F1F8E608467003020A26758206C007C006C005C004C003C002C001C025
:2009440000C025120729D025D000D001D002D003D004D005D006D00700C2A000E58124F1FE
:20096400F88602088603C3EA9410EB94004018E58124FDF88602088603EA4B700A7582D824
:20098400123C6B7D108008758220123C6B7D01E58124FDF808088682123C6BE58124FDF868
:2009A400088682123C6BE58124FDF88682123C6B00D2A000C007C006C005C004C003C0021D
:2009C400C001C000C025120739D025D000D001D002D003D004D005D006D007C00590100065
:2009E400123CFEAA82AB83AEF0FF1581E58124FDF8EA26F6EB0836F6EE0836F6EF0836F631
:200A04008D037F00E58124F1F88605088606EDC39BFDEE9FFEE58124F1F8A60508A606028A
:1C0A24000925758201E58124FCF581D000D001D002D003D004D005D006D00722D6
:200A4000E58620E0FB225390FD00225380FB0022E58620E0FB004390020022E58620E0FB59
:200A6000004380040022C007C006C005C004AF82AE83ADF0FC90F0BDEFF0EEA3F0EDA3F05F
:200A8000ECA3F0C202C203D209758204C007C006C005C004C003C002C001C000C02512174E
:200AA0009FD025D000D001D002D003D004D005D006D00790F0BDE0FCA3E0FDA3E0FEA3E069
:200AC000FF7416C0E0E4C0E074F5C0E074F0C0E08C828D838EF0EF1206AAE58124FCF58113
:200AE00090F0BDE0FCA3E0FDA3E0FEA3E0FF90F0BD74162CF0E43DA3F0E43EA3F0E43FA348
:200B0000F090F105E0FFBF2004C207806A90F105E0FFBF2104D207805E90F105E0FF7E0007
:200B2000C007C0067468C0E07463C0E0125410E58124FCF58190FA707416F0E4A3F090F058
:200B4000F575F000C007C006C005C004C003C002C001C000C025121AECD025758204C0254D
:200B60001217D8D025D000D001D002D003D004D005D006D0078051C221C007C006C005C01D
:200B800004C003C002C001C000C025125622D025C025120BD1D025D221C025125622D025C8
:200BA000C025120BD1D025758204C0251217D8D025C025125673D025D000D001D002D0039C
:200BC000D004D005D006D007D004D005D006D007227F807E0090F09BE4F0A3F090F0A7F031
:200BE000A3F090F09DF0A3F05390FD007D00200903020C8230211C20071974DCC0E0740593
:200C0000C0E0E4C0E090F0F5123EA71581158115818054C00590F0BDE0FAA3E0FBA3E0FCD5
:200C2000A3E0FD74DCC0E07405C0E074F5C0E074F0C0E08A828B838CF0ED1206AAE581244F
:200C4000FCF58190F0BDE0FAA3E0FBA3E0FCA3E0FD90F0BD74DC2AF074053BA3F0E43CA3DD
:200C6000F0E43DA3F0D0057B1E7C0090F09DE02401F0A3E03400F01BBBFF011CEB4C70EBA9
:200C8000805074DCC0E07405C0E0E4C0E090F0F5123EA71581158115817B1E7C00C007C02D
:200CA00006C005C004C0037807E2F58208E2F583120081D003D004D005D006D00790F09DCF
:200CC000E02401F0A3E03400F01BBBFF011CEB4C70CB7B007C00EF60528E02EA2AFEEB24CB
:200CE000F5F582EC34F0F583E0FAEF5A6003430601EF30E0058E8212565EC005EFC313FFCD
:200D000090F09BE02401F0A3E03400F090F09BE0FAA3E0FDBA9005BD01028004D00580B609
:200D2000D00590F09BE4F0A3F080AB7F800BBB00010CC3EB94DCEC9405409B90F0A7E0FBDF
:200D4000A3E0FC741E2BFBE43CFC90F0A7EBF0ECA3F00DBD0A005003020BEEE58620E0FB37
:200D6000004390020022AE82AF83C202C203C209D207C2217807EEF2EF08F2125622120B1B
:200D8000D1D221125622120BD1025673C007C006C005C004C003C002C001C000AD82AE83D0
:200DA000AFF07809125C72F2A204202101B34003020EF390F099E0F508A3E0F50974012D47
:200DC000FAE43EFB8F048A828B838CF0125C72FA780CF2E408F2850882850983C007C006F8
:200DE000C005C004C003C002C001C000120F82E582D000D001D002D003D004D005D006D0C5
:200E0000076003020EF390F097E0F508A3E0F5097809E2F50A750B00780AE50AF2E50B08B3
:200E2000F2850882850983C007C006C005C004C003C002C001C000120F5AD000D001D00296
:200E4000D003D00490F0A3E0F508A3E0F50990F0ABE0FBA3E0FCEBC39508F582EC9509F5A4
:200E6000837875E50AF2E50B08F2C002C001C000125904AB82AC83D000D001D002D005D011
:200E800006D007ECC423CBC423541F6BCB541FCB6BCBFC90F0B9EBF0ECA3F074022BFBE4C4
:200EA0003CFCEB2DFDEC3EFE7809E2604690F0B7E0FBA3E0FC90F0B774012BF0E43CA3F0A9
:200EC000EB24F5FBEC34F0FC8B828C83E0F50A8D828E838FF0125C72FAA3AD82AE83E50AA1
:200EE00042028B828C83EAF07809E2FC780924F8F280B5D000D001D002D003D004D005D0D6
:200F000006D0072290F0A9E0FEA3E0C423CEC423541F6ECE541FCE6ECE30E40244E0FF90B7
:200F2000F0A7E0FCA3E0FD90F0ABE0FAA3E0FBEAC39CFCEB9DFD7875ECF2ED08F2900032FD
:200F4000C007C006125904AC82AD83D006D00790F0B7EC2EF0ED3FA3F022AE82AF8390F086
:200F60009FEEF0EFA3F090F0A9EEF0EFA3F0780A90F0A1E22EF008E23FA3F0120F0475826E
:200F80000022AF83E582780EF2EF08F2780E790CE3C5F0E225F0FC09E3C5F008E235F0FDF2
:200FA00090F0A5ECF0EDA3F090F09DE0FAA3E0FB8A068B07780EC3E2F5F0EE95F008E2F5B7
:200FC000F0EF95F04025EA9CEB64808DF063F08095F05017780E90F0A3E2F008E2A3F0902F
:200FE000F0ABEAF0EBA3F07582002275820122C007C006C005C004C003C002C001C000AC03
:2010000082AD83AEF0FFE5812404F581BF2000502C8F82C007C006C005C004C003C002C0B6
:2010200001C000C025123BB6D025D000D001D002D003D004D005D006D00702131F7E00EFD5
:2010400024E0FFEE34FFFEEF2FFFEE33FEEF2480F582EE345DF583E493FEA3E493FF90F023
:20106000B9EEF0EFA3F0EFC4540FFE90F0B1F0300507EE2EFE90F0B1F090F0AFE0FEA3E01B
:20108000FF90F0B2E0FD780CF2ED3395E008F28E828F83C007C006C005C004C003C002C0C0
:2010A00001C000C025120F82E582D025D000D001D002D003D004D005D006D007602790F0E8
:2010C000B1E0FF3395E0FE0FBF00010E90F0ADE0FCA3E0FDEF2CFFEE3DFE90F0ADEFF0EE37
:2010E000A3F002131FA204202101B3400302131F90F0ADE0FEA3E0FF90F0B1E0FD780AF208
:20110000ED3395E008F28E828F83C007C006C005C004C003C002C001C000C025120F5AD0D2
:2011200025D000D001D002D003D004D005D006D00790F0B9E0FEA3E0FF53070F90F0B9EEC5
:20114000F0EFA3F090F0ADE0FEA3E0FF8E055305078DF005F07D80E4FC3392D28008A2D2BC
:20116000EC13FCED13FDD5F0F590F0B1E0FC3395E0FB0CBC00010BEC2EFCEB3FFB90F0ADD1
:20118000ECF0EBA3F030055A90F0A3E0FEA3E0FF90F09DE0FBA3E0FCEBC39EFEEC9FFF8E0A
:2011A000828F83788A7402F2E408F2C005C004C003C002C001C000C025125BADAE82D025A0
:2011C000D000D001D002D003D004D0058EF005F07E007F808007C3EF13FFEE13FED5F0F62B
:2011E000802FC00590F0A3E0FBA3E0FC90F09DE0FAA3E0EAC39BFA8AF005F07A007D8080DC
:2012000007C3ED13FDEA13FAD5F0F68A068D07D005C006C00790F0A3E0FBA3E0FC90F0AF23
:20122000E0FAA3E0FFEAC39BFBEF9CFC90F0B9E0FEA3E0FF90F0B9EB2EF0EC3FA3F090F06F
:20124000BBE4F0A3F0D007D006C006C00790F0BBE0FBA3E0FC90F0B1E0FA3395E0FFC3EB3D
:201260009AEC9FD007D006400302131FC006C00790F0B9E58124FBF8E0F6A3E008F6E58125
:2012800024FBF8E626FA08E633FFEA2440F582EF345EF583E58124FDF8E493F6A3E4930845
:2012A000F6D007D006300517EB30E024E58124FDF890F0B9740126F0E40836A3F08011E5B2
:2012C0008124FDF890F0B9740126F0E40836A3F0A88118EE56FBEF0856FC4B601F90F0B731
:2012E000E0FBA3E0FCEB24F5FBEC34F0FC8B828C83E0FAED42028B828C83EAF0EDC313FDAC
:20130000700E90F0B7E02401F0A3E03400F07D8090F0BBE02401F0A3E03400F0021249E566
:161320008124FCF581D000D001D002D003D004D005D006D00722E2
:205D80000070071008500D9016601CA026A03010316037603D7044904D204F60552057803E
:205DA0005F7066706D6073507880805085708C7093709A70A120A320A570AC80B470BB70D4
:205DC000C2A0CCA0D670DD80E570EC70F370FA8002710971105115811D7124812C7133815C
:205DE0003B7142814A7151715891617168A172A17CA186A1908198519D81A551AA81B2A110
:205E0000BC21BE71C571CC71D371DA71E181E971F071F741FB51007207420B9214721B7268
:205E200022722972306236623C724362499252A25C8264A26E8276627C127D6283A28D72AA
:205E40000000000000000000000000000000D87F0078000000000000007880009804E005FA
:205E6000801E9864E005801E80648004183808640842FCFF8841F040083810442044C044A7
:205E800000397002880C881088207040E0001001083A08468845C84C383818006800800100
:205EA0000078E00718180C300420024002400240024004200C301818E00700100018000F3D
:205EC0000072000F001800104000400040004000F807400040004000400019001E00800063
:205EE000800080008000800080001800180002000C003000C0000003000C00300040C00FA6
:205F000030300840084008403030C00F082008200820F87F080008000800186028404840AB
:205F200088400843083C0840084208420842F03DC0004003400440184020F87F40004000C1
:205F4000087C084408441042E041E00F10320844084408441042E00100401840E04000436F
:205F6000004C00500060F038084508420842084590456038001E0821884088408840302172
:205F8000C01F1806180619061E06C000C0002001200110021002080420012001200120012D
:205FA000200120012001200108041002100220012001C000C00000700040D8400041004220
:205FC00000640038C00F30181820C84728486850D851E03F2000200008007000C001400E90
:205FE0004018400C4003C00030000800F81F08110811081108118812700CC003300C10081A
:2060000008100810081008100818F81F08100810081008101008E007F81F881088108810AB
:20602000881088100810F81F801080108010801080100010C003300C100808100810881042
:206040008810F818F81F80008000800080008000F81F081008100810F81F08100810081043
:206060000800081008100810F01FF81F0001800140022004200810100800F81F080008004B
:206080000800080008000800F81F001C8007E00060008003001CF81FF81F0008000680018A
:2060A00060001000F81FE007100808100810081008101008E007F81F8010801080108010A4
:2060C0000011000EE00710080810081008100C101208E207F81F80108010C0102011100EE5
:2060E0000800180E0812081108118810901070180010001000100010F81F001000100010DF
:206100000010E01F18000800080008001000E01F0010000C8003600018001800E00000031F
:20612000000C00100018C0073800F0000007800370003800C0070018081010082004400295
:206140008001800140022004100808100010000800060001F8000001000200040008001071
:2061600018102810481088100811081208140818FE7F024002400240024000400030000C5F
:206180000003C00030000C0002000240024002400240FE7F2000C0000007001C0070000EF8
:2061A000C0012000040004000400040004000400040004000400040000800040300048049A
:2061C000880488049004F8030800F87F10020804080408041006E001E00110020804080461
:2061E000080408040804E00118020804080408041002F87FE0019002880488048804880430
:20620000880300040004F83F00240044004400440044E00119020904090409041202FC0746
:20622000F87F00010002000400040004F803000400040064F8670100010401040164FE673D
:20624000F87F8000C0002001200210020804004000400040F87FF807000200040004F803EB
:20626000000200040004F803F80700030002000400040004F803E0011002080408040804F7
:206280001002E001FF0710020804080408041006E001E00118020804080408041002FF07A1
:2062A000F8070001000200040004000718038804880448044804300400040004F01F0804AB
:2062C000080408040804F0070800080008001000F807000480036000180008003000C00085
:2062E000000300040006E001180070008003800170001800E0010006080410022001C000B6
:20630000C00020011002080401040103C10062001C0018006000800000030004080418040F
:20632000280448048804080508060804800080007C3F024002400240FE7F0240024002406E
:206340007C3F80008000C000000100010001800080004000400040008001F801080308046E
:20636000080808040803F80164617461547970652030782578206E6F7420737570706F7222
:056380007465640A00D1
:20133600E58620E0FB225390FD00225380FB0022E58620E0FB004390020022E58620E0FB5A
:2013560000438004002290F0C37401F090F0C4E4F090F0C5F090F0C6F090F0C7F090F0C8E4
:2013760004F090F0C9F090F0CBE4F090F0CAF090F0CE7428F0E4A3F090F0D0F090F0CC7480
:2013960028F0740AA3F090F95BE4F090F95CF022AD82AE83125C72FCBC011C7BC37CF08B15
:2013B600828C83740EC0E0C005C006123F3F1581158115810214A2227480C0E0E4C0E07421
:2013D600A2C0E074FDC0E090C000E4F5F01206AAE58124FCF581740EC0E07414C0E074FE11
:2013F600C0E090F0C3123F3F15811581158190FDA2E0FCA3E0FDA3E0FEA3E0FFBCA513BDE3
:201416005A10BEBA0DBFAB0A90FDA6E0FFBF0102803590FDA2E0FCA3E0FDA3E0FEA3E0FF3C
:2014360090FDA6E0FB7A00C004C005C006C007C003C0027485C0E07463C0E0125410E58187
:2014560024F8F58102135C90FDA7E090F95BF090FDA8E090F95CF074B3C0E07463C0E01251
:201476005410158115811215F490FDA2E4F004C0E0E4C0E074A2C0E074FDC0E090C000E485
:20149600F5F01207E5E58124FCF581227480C0E0E4C0E074A2C0E074FDC0E090C000E4F52D
:2014B600F01206AAE58124FCF58190FDA2E0FCA3E0FDA3E0FEA3E0FFBCA53EBD5A3BBEBA71
:2014D60038BFAB35788574C3F274F008F2E408F27888740EF2E408F290FE1475F000125AF8
:2014F600F3E5828583F045F0700F90FDA7E0FF90F95BE0FEEFB506012290FE21E0FF90F020
:20151600D0E0FEEFB50602803EEE603BBE6400502390FE21E0FF7D00C007C00574C5C0E00F
:201536007463C0E0125410E58124FCF58190F0D0E4F08013BEC800400890F95C7402F0805C
:201556000690F95C7401F07480C0E0E4C0E0C0E090FDA2123EA7158115811581740EC0E063
:2015760074C3C0E074F0C0E090FE14123F3F15811581158190FDA274A5F0F4A3F074BAA3F6
:20159600F0C4A3F090FDA67401F090F95BE090FDA7F090F95CE090FDA8F07401C0E0E4C0CB
:2015B600E090C000E4F5F01208F5158115817480C0E0E4C0E074A2C0E074FDC0E090C000B2
:2015D600E4F5F01207E5E58124FCF58174DEC0E07463C0E0125410158115810215F490F09C
:2015F600C7E0FF7E00C007C00674EFC0E07463C0E0125410E58124FCF58190F0D0E0FF7E8B
:2016160000C007C0067408C0E07464C0E0125410E58124FCF58190F0CCE0FEA3E0FFC006AF
:20163600C007741BC0E07464C0E0125410E58124FCF58190F0C4E0FF7E00C007C006742FE3
:20165600C0E07464C0E0125410E58124FCF58190F95BE0FF7E00C007C0067444C0E07464EC
:0C167600C0E0125410E58124FCF5812234
:206385004C6F616465642064656661756C74732073657474696E6773566572203078257814
:2063A500204D61676963203078256C780A004C6F616465642073657474696E67733A0A00DE
:2063C50049676E6F7265642066697865644368616E6E656C2025640A0053617665642073CE
:2063E500657474696E67733A0A0020205363616E2041667465722054696D656F7574202533
:20640500640A00202066697865644368616E6E656C2025640A0020206261744C6F77566FDF
:206425006C746167652025640A002020656E61626C6546617374426F6F742025640A0020FB
:0D644500204C6173742063682025640A00F8
:20168200E58620E0FB225390FD00225380FB0022E58620E0FB004390020022E58620E0FB0B
:2016A20000438004002275F10175805875FDDD75F33875904075FE6E75F4E875A00175FF9B
:2016C20001227401C0E0E4C0E0900000E4F5F01208F5158115817417C0E0E4C0E07452C083
:2016E200E07464C0E090F0F5123F05E58124FCF5817417C0E0E4C0E074F5C0E074F0C0E00D
:20170200900000E4F5F01207E5E58124FCF58122C00775E40075FC0075F70075FE0290F957
:2017220055E0FF54F06002800DD291758F0075F60075FD008012758F8575F62F75FD8575DB
:14174200FE2F53807A5390D075F30075F40075F500D0072232
:176452005612098501084A43000000002303080904EC0212045A0A04
:027FFE005864C5
:20175600E58620E0FB225390FD00225380FB0022E58620E0FB004390020022E58620E0FB36
:20177600004380040022AE82AF837D00BD08005017ED75F002A424D1F58274F035F0F583FA
:20179600EEF0EFA3F00D80E422E582FF30E025125021C0071242D8D2AF1216A8123C671217
:2017B600477ED00775820A1247BD90F95BE0FEF582124709EF30E209123C94200C030207A1
:2017D600D622E58230E206300C030207CA22AF82AE83ADF0FC90F0F1EFF0EEA3F0EDA3F0FC
:2017F600ECA3F090F0F1E0FCA3E0FDA3E0FEA3E0FFC004C005C006C0077469C0E07464C059
:20181600E0125410E58124FAF581300C16758204C007C006C005C0041217D8D004D005D085
:2018360006D007C007C006C005C0041255FFD004D005D006D0071217128C828D838EF0EF1D
:2018560012436075820102179FE582FF601090F0E6E0FFBFFF00500690F0E6EF04F090F015
:20187600E6E0FFBF18005007900E10E4F5F022BF24005007901C20E4F5F02290518075F00F
:2018960001E42290F0E2E07875F2E408F29002301259047862740EF2E408F212572DAE8209
:2018B600AF8374282EFEE43FFF90F0E1E054077D0025E0FCED33FDEC24D1F582ED34F0F561
:2018D60083EEF0EFA3F090F0E1E02401F0227E007F007D00BD0800501DED75F002A424D1FE
:2018F600F58274F035F0F583E0FBA3E0FCEB2EFEEC3FFF0D80DEEFC423CEC423541F6ECE1A
:20191600541FCE6ECEFF90F0CEE0FCA3E0FDC3EE9CEF9D50058C828D83228E828F83229049
:20193600FAB2E0FF3395E0FEC007C006747EC0E07464C0E0125410E58124FCF58190F0C116
:20195600E0FF7E0090F0C2E0FD3395E0FCC007C006C005C0047489C0E07464C0E0125410B0
:20197600E58124FAF5812275820E1245AD1245D975820F1245AD90FAB0E0FEA3E0FF7423C1
:20199600C0E08E828F831241B515817404C0E0123CFEAC82AD83158190F0EDECF0EDA3F0B0
:2019B600C20A90F0CCE0FEA3E0FFC3EC9EED9F5004D20A803A90F0E9E0FCA3E0FD4C601352
:2019D600C3EC9EED9F500C90F0EDECF0EDA3F0D20A801C90F0EBE0FCA3E0FD4C6011C3EC48
:2019F6009EED9F500A90F0EDECF0EDA3F0D20A90F0EBE0C0E0A3E0C0E090F0E9E0C0E0A30E
:201A1600E0C0E090F0EDE0C0E0A3E0C0E090F0E7E0C0E0A3E0C0E0749AC0E07464C0E012DE
:091A36005410E58124F6F581222B
:20646900536C656570696E6720666F7220256C64206D730A0054656D7020256420430A00AA
:20648900525353492025642C204C51492025640A00426174745620426F6F742025642C209A
:1A64A9006E6F772025642C2054782025642C207570646174652025640A0099
:0500DC00781074FFF232
:201A3F00E58620E0FB225390FD00225380FB0022E58620E0FB004390020022E58620E0FB4A
:201A5F00004380040022121ABBE582600790F96EE0F58222121A85E582600790F972E0F50A
:201A7F0082227582002290F95DE05407FFBF012890F95EE003035403FFBF031C90F95EE0BA
:201A9F0023235403FFBF031090F95DE023235401FFBF0104758201227582002290F95DE09C
:201ABF005407FFBF012390F95EE003035403FFBF021790F95EE023235403FFBF030B90F916
:201ADF005DE020E6047582012275820022AFF0AE83E58290FA72F0EEA3F0EFA3F090FA724B
:201AFF00E0FDA3E0FEA3E0FF90FA70E0FBA3E0FC79007A00C3E99BEA9C5052E94A6016E99F
:201B1F00540F6002800F74C3C0E07464C0E012541015811581C003C004E92DF8EA3EFB8F1A
:201B3F000488828B838CF0125C72F87C00C000C00474C5C0E07464C0E0125410E58124FCC9
:201B5F00F58109B900010AD004D00380A774C3C0E07464C0E01254101581158122AFF0AEF5
:201B7F0083E5827812F2EE08F2EF08F27815E4F27B017811C3E2F5F0EB95F050227812E2CF
:201B9F00FA08E2FC08E2FFEB2AFAE43CFC8A828C838FF0125C72FA7815E22AF20B80D3785D
:201BBF0012E2FD08E2FE08E2FF8D828E838FF0125C72FD7815E2B50503D38001C3E433F579
:201BDF008222AFF0AE83E5827817F2EE08F2EF08F2781AE4F27B017816C3E2F5F0EB95F04D
:201BFF0050227817E2FA08E2FC08E2FFEB2AFAE43CFC8A828C838FF0125C72FA781AE22ADD
:201C1F00F20B80D37817E2FD08E2FE08E2FF8D828E838FF0781AE20258E9E5812404F581BC
:201C3F00AF82C218C0071249A7D0078F82124709C007124A5CD2181249A7D0077E01EE2494
:201C5F00FC5003021D6390F9DD7414F0C007C00612376990F9EF74EDF090F9DD1248A3D07B
:201C7F0006D007124290AA82AB83ACF0FD90FA7574A62AF0740E3BA3F0E43CA3F0E43DA397
:201C9F00F0C006124290AA82AB83ACF0FD90FA75E58124FCF8E0F6A3E008F6A3E008F6A3A0
:201CBF00E008F6E58124FCF8C3EA96EB0896EC0896ED0896D0064003021D5FC007C0061292
:201CDF0049B9AD82D006D007C374818DF063F08095F050AD90F973E0FDB507A5C007C006B6
:201CFF00121A65AD82D006D007BDEE95C007C006121A85E582D006D00760867408C0E07450
:201D1F006AC0E074F9C0E090F948123F3F15811581158190F960E0FCA3E0FD90F950ECF070
:201D3F00EDA3F08F047D00C004C00574CBC0E07464C0E0125410E58124FCF5818F828020F1
:201D5F000E021C5D8F057E00C005C00674D5C0E07464C0E0125410E58124FCF58175820074
:201D7F00E58124FCF5812290F9DD742AF012376990F9EF74E5F090F9F67483F090F0E5E014
:201D9F0090F9F7F090F0C2E090F9F2F090F0C1E090F9F1F090FAB2E090F9F3F090F0EDE0C7
:201DBF00FEA3E0FF90F9F4EEF0EFA3F090F9F8E4F0905C9E93FE740193FF90F9F9EEF0EFE1
:201DDF00A3F090F95BE090F9FBF090F0CBE090F9FCF078167415F290F9F075F000121BE184
:201DFF0090F9DD0248A3D2181249A712197D1219357F00781BE4F2781BE2B40E0040030219
:201E1F001EE3C007121D86D007124290AA82AB83ACF0FD74882AF52674133BF527E43CF544
:201E3F0028E43DF529C007124290AC82AD83AEF0FFC3EC9526ED9527EE9528EF9529D00734
:201E5F004003021ED6C0071249B9AE82D007C374818EF063F08095F050CBC007121A65AE99
:201E7F0082D007BEE6BF78117411F290F97375F000C007121B7CE582D00760A97408C0E053
:201E9F00746AC0E074F9C0E090F948123F3F15811581158190F96075F000125C72FDA31295
:201EBF005C72FE90F950EDF0EEA3F090F0E2EFF090F97375F00022781BE22401F2781BE23B
:201EDF00FF021E1690F0E2740EF090000075F00022D2181249A77F00781CE4F2781CE2B4C4
:201EFF000E004003021FD790F9DD7414F090F9EF74E3F0C00712376990F9DD1248A3D0072A
:201F1F00124290AA82AB83ACF0FD74882AF52A74133BF52BE43CF52CE43DF52DC007124205
:201F3F0090AC82AD83AEF0FFC3EC952AED952BEE952CEF952DD0075072C0071249B9AE82D8
:201F5F00D007C374818EF063F08095F050CEC007121A65AE82D007BEE6C278117411F2908A
:201F7F00F97375F000C007121B7CE582D00760AC7408C0E0746AC0E074F9C0E090F948122D
:201F9F003F3F15811581158190F96075F000125C72FDA3125C72FE90F950EDF0EEA3F0906F
:201FBF00F0E2EFF090F97375F00022781CE22401F2781CE2FF021EFB90F0E2740EF090004D
:201FDF000075F00022AFF0AE83E582781DF2EE08F2EF08F2781DE22402FA08E23400FB0814
:201FFF00E2FC8A828B838CF0125C72F52E852E2F75300090FA5EE0F531AE317F00E52FC3A1
:20201F009EFEE5309FFF7875EEF2EF08F2900063C004C003C002125904AE82AF83D002D0ED
:20203F0003D0048E2F8F3090FA79E52FF0E530A3F0781DE22401FD08E23400FE08E2FF8D54
:20205F00828E838FF0125C72FD90F921E0FFEDB50702800122E52E24D5500122C3E52E95B1
:20207F00315001227463252FFEE43530FFC374239E74089F500122781DE2FD08E2FE08E260
:20209F00FF78117466F28D828E838FF0C004C003C002121B7CE582D002D003D004700302E7
:2020BF002158781DE22403FD08E23400FE08E28D2F8E3090FA79E0FEA3E0FFEE24F5FEEF16
:2020DF0034F0FF8E828F837463C0E0E4C0E0C02FC030123F05E58124FCF5818A828B838CCA
:2020FF00F0125C72FA7F00788A7408F2E408F28A828F83C007C002125BADAD82AE83D00237
:20211F00D007ED2423FDEE34F9FE5302078AF005F07401800225E0D5F0FBF4FA8D828E83EA
:20213F00E052028D828E83EAF074E2C0E07464C0E0125410158115812274E4C0E07464C090
:20215F00E01254101581158122AF82AE83ADF0FC7820EFF2EE08F2ED08F2EC08F290FA5EAB
:20217F00E0FB7A0090F921E0FF7E00C003C002C007C00674F5C0E07464C0E0125410E58175
:20219F0024FAF581D2181249A712429085823285833385F034F53578207977E22414F308D8
:2021BF00E2340009F308E2340009F308E2340009F3900019E4F5F0125924AA82AB83AEF0C1
:2021DF00FFEA2532F532EB3533F533EE3534F534EF3535F535124290AA82AB83AEF0FFC35D
:2021FF00EA9532EB9533EE9534EF9535503C1249B9AF82C374818FF063F08095F050D61254
:20221F001A65AF82BFE8CE90F97375F000121FE47F00EF2423FDE434F9FE8D828E83E070D3
:20223F00060FBF060040EBBF06AB74C3C0E07464C0E012541015811581C2181249A7024AF1
:20225F005C90F974E4F0A3F090F97375F00022742AC0E0E4C0E0C0E090F9DD123EA71581C7
:20227F001581158190F9DD742AF090F942E0600890F9F374E4F0800690F9F374E7F074087F
:20229F00C0E07452C0E074F9C0E090F9EB123F3F1581158115817408C0E07448C0E074F961
:2022BF00C0E090F9E3123F3F15811581158190F9DEE054F84401F090F9DEE054C74440F003
:2022DF0090F9DFE0440C54CF44C0F090F95AE0FF04F090F9E0EFF090F950E0FEA3E0FF9069
:2022FF00F9E1EEF0EFA3F07DF47EF98D828E837411C0E07418C0E074F9C0E0123F3F1581F9
:20231F00158115817DF47EF97F0078167411F28D828E838FF0121BE190F9DD0248A3E581A0
:20233F002404F581D2181249A7124A5C7F00BF1E004003022420C00712226ED00712429033
:20235F00AB82AC83ADF0FE90FA7B74642BF0749F3CA3F0740B3DA3F0E43EA3F0C007124967
:20237F00B9AE82D007C374818EF063F08095F05051C007121A65AE82D007BEE8028028BEE2
:20239F00E9028005BEEC33802978117403F290F97375F000C007121B7CE582D00760239014
:2023BF00F97375F0008063122260AC82AD83AEF0805890000075F000805090000075F00028
:2023DF008048C007124290C8E58124FCC8A68208A68308A6F008F690FA7BE0FAA3E0FDA35E
:2023FF00E0FEA3E0FFE58124FCF8C3E69A08E69D08E69E08E69FD007500302237B0F0223FB
:20241F004D122260AD82AE83AFF0E58124FCF58122741BC0E0E4C0E0C0E090F9DD123EA7EF
:20243F0015811581158190F9DD7419F090F9F374EAF07408C0E07452C0E074F9C0E090F9F6
:20245F00EB123F3F1581158115817408C0E07448C0E074F9C0E090F9E3123F3F1581158173
:20247F00158190F9DEE054F84401F090F9DEE054C74440F090F9DFE0440C54CF44C0F090CA
:20249F00F950E0FEA3E0FF90F9E1EEF0EFA3F090F95AE0FF04F090F9E0EFF090F9DD0248FC
:2024BF00A3D2181249A77F00BF1000506CC007122430D00712429085823A85833B85F03C47
:2024DF00F53D12429085823685833785F038F539E536C3953AFAE537953BFCE538953CFDF6
:2024FF00E539953DFEC3EA94A6EC940EED9400EE94005022C0071249B9AE82D007C374814B
:20251F008EF063F08095F050B9C007121A65AE82D007BEEBAD220F808F22AF827877EFF2A5
:20253F00E408F208F208F290B000E4F5F0125924AC82AD83AEF0FF74902DFD74013EFEE454
:20255F003F8C828D838EF022AD82AE83AFF07C007B00BB150040030225F6C0048B82C007A1
:20257F00C006C005C003122539A882A983AAF0FCD003D005D006D0077416C0E0E4C0E0741B
:20259F00F5C0E074F0C0E0888289838AF0EC1206AAE58124FCF5817463C0E074FCC0E09032
:2025BF00F0FD12421215811581920ED004300E218D008E018F027408C0E0C000C00190F0E0
:2025DF00F5123ED3158115811581920E50038C82220B8B040225717582FF22AF825307F812
:2025FF007E007D00BD15004003022682C0068D82C007C005122539AA82AB83ACF0FED00568
:20261F00D0077416C0E0E4C0E074F5C0E074F0C0E08A828B838CF0EE1206AAE58124FCF548
:20263F00817463C0E074FCC0E090F0FD124212158115819228D006302823C00690F10AE028
:20265F00FC5304F87B008F027E00ECB50206EBB506028004D0068005D0068E82220D8D06AE
:20267F000226037582FF22122539AC82AD83AEF0FF7416C0E0E4C0E074F5C0E074F0C0E0D2
:20269F008C828D838EF0EF1206AAE58124FCF58190F10AE0F58222AF828F060EEE24EA50AE
:2026BF00027E00EEB507038E82228E82C007C006122539AA82AB83ACF0FDD006D007741665
:2026DF00C0E0E4C0E074F5C0E074F0C0E08A828B838CF0ED1206AAE58124FCF5817463C0D2
:2026FF00E074FCC0E090F0FD12421215811581922850A890F10AE0FD5305F87C00BD789B06
:20271F00BC00988E8222122539AC82AD83AEF0FF740BC0E0E4C0E08C828D838EF0EF120861
:20273F00F515811581227F00BF1500500C8F82C007122725D0070F80EF22AF828F057E0098
:20275F00C005C0067404C0E07465C0E0125410E58124FCF5818F82122539020A667825E458
:20277F00F208F208F208F27B00BB1500400302281B8B82C00312253985823E85833F85F046
:20279F0040F541D0037416C0E0E4C0E074F5C0E074F0C0E0853E82853F838540F0E541129D
:2027BF0006AAE58124FCF5817463C0E074FCC0E090F0FD12421215811581920F503AC003CA
:2027DF0090F106E0FAA3E0FBA3E0FEA3E0FF7825C3E29A08E29B08E29E08E29FD00350184B
:2027FF0090F1067825E0F2A3E008F2A3E008F2A3E008F290F947EBF00B0227887825E2F572
:20281F008208E2F58308E2F5F008E222AF82AE83D21090F921E0FD7C007B007A008C44EBE3
:20283F00C454F0C544C4C5446544C54454F0C5446544F545EDC4540F4544F544EDC454F0EE
:20285F00F543754200300D16782FE542F2E54308F27401254408F2E4354508F280497810B4
:20287F00E2F582C007C00612253985824685834785F048F549D006D00774162546F546E48B
:20289F003547F547E43548F548E43549F549782FE5462542F2E547354308F2E548354408AC
:2028BF00F2E549354508F290FA827405F090FA5EE4F090F94204F07829EFF208EEF2740691
:2028DF00C0E0E4C0E0C0E090F923123EA715811581158190FA82E0FB14F0EB7003022C6DCC
:2028FF001010030229BC7829E2FA08E2FB8A828B8378627463F2E408F212572DAA8290FA66
:20291F007FEAF07829E2FB08E2FF8B828F8378837463F2E408F2C002125A70E5828583F01A
:20293F00D00245F0600690FA7FEA04F090FA7FE024EA500690FA7F7415F090FA5EE0FB7A18
:20295F000090FA7FE0FFC3EA9F50528B067F00788A7408F2E408F28E828F83C007C006C0B5
:20297F0003C002125BADAC82AD83D002D003D006D007EC2423FCED34F9FD5306078EF00580
:20299F00F07401800225E0D5F0FBFE8C828D83E0FF42068C828D83EEF00B0A80A412233D82
:2029BF00AA82AB83AFF0EA4B7003F582220ABA00010B8A828B838FF0125C72FEA3125C72F4
:2029DF00FF4E60428E048F05C3EC9423ED9400501A7877EEF2EF08F2E408F208F290001939
:2029FF00E4F5F01259241242F1801BEC24F6FCED34FFFD7F007E008C828D838FF0EE1217B0
:202A1F00E4D2181249A7900122E4F5F012216878337401F290FA5EE0FF7E0090FA7FE0FD73
:202A3F00C3EE9D505E8F047D00788A7408F2E408F28C828D83C007C006C005C004125BADCF
:202A5F00AA82AB83D004D005D006D007EA2423F582EB34F9F5835304078CF005F07C017DA6
:202A7F00008006EC2CFCED33FDD5F0F7E0FB7A005204EA5205EC4D60067833E4F280040F25
:202A9F000E80987833E27003022C3290FA7FE07875F2E408F2900063125904AE82AF8378AF
:202ABF002DEEF2EF08F290FA8374F5F074F0A3F0E4A3F090FA5EE0704B90F0F5E0FCA3E0D6
:202ADF00FD7829ECF208EDF290F0F7E0FCA3E0FD782BECF208EDF290FA80E4F0A3F0782D23
:202AFF00E2FC08E2FDEC24FCFCED34FFFD782DECF2ED08F290FA83740424F5F0E434F0A32A
:202B1F00F0E4A3F07829E2FC08E2FD782DC3E2F5F0EC95F008E2F5F0ED95F0500A78297974
:202B3F002DE2F308E209F37829E2FC08E2FD782DD3E29CF4B3FCB308E29DF4FD7829ECF2E5
:202B5F0008EDF275820412179F90FA83E0F546A3E0F547A3E0F548AA46AF47782DE2C0E0F8
:202B7F0008E2C0E0C002C007782FE2F58208E2F58308E2F5F008E21207E5E58124FCF5810E
:202B9F007582041217D8782DE2FA08E2FD7E007F00782FE22AF208E23DF208E23EF208E2F3
:202BBF003FF2AD46AE47AF48782DE2F54608E2F547AA46AC47154674FFB546021547EA4CBE
:202BDF0060368D828E838FF0125C72FCA3AD82AE838C4275430090FA80E0FAA3E0FC8A4A05
:202BFF008C4BAB42AC43EB254AFBEC354BFC90FA80EBF0ECA3F080B990FA7FE0FF90FA5ED9
:202C1F00E02FF07829E2FE08E2FF4E60067833E4F2D21090F942E4F07833E270030228F25A
:202C3F00782BE2FE08E2FF90FA80E0FCA3E0FDEEB50406EFB505028011741EC0E07465C0EF
:202C5F00E01254101581158180047582012275820022AFF0AE83E58290FA8AF0EEA3F0EF71
:202C7F00A3F090FA8AE0FDA3E0FEA3E00DBD00010E8D828E837408C0E07432C0E074F9C025
:202C9F00E0123ED31581158115819211501490F93AE0FCA3E0FDA3E0FEA3E0FFEC4D4E4F51
:202CBF00707590F921E4F090FA8AE0FDA3E0FEA3E0FF74012DFAE43EFBC002C00390F919BE
:202CDF00123DD515811581740D2DFAE43EFB8F048A828B838CF0125C72FA90F922F074119D
:202CFF00C0E0C005C00690F931123F3F1581158115817408C0E0E4C0E090000075F001E404
:202D1F001208F51581158190F93AE0FEA3E0FF90FA88EEF0EFA3F090F93AE0FCA3E0FDA302
:202D3F00E0FEA3E0FFEC4D4E4F7003022DCBC3E49C74109DE49EE49F500B90FA86E4F074B5
:202D5F0010A3F0800890FA86ECF0EDA3F0D20D90FA86E0FEA3E0FF8E828F8312282BE58280
:202D7F00604690F921E0FF0F90F921EFF090F93AE0FCA3E0FDA3E0FEA3E0FF90FA86E0FA61
:202D9F00A3E0FB8A008B01E4FAFBECC398FCED99FDEE9AFEEF9BFF90F93AECF0EDA3F0EEC5
:202DBF00A3F0EFA3F0022D367582002275820122AFF0AE83E58290FA8FF0EEA3F0EFA3F004
:202DDF0090FA8FE0FDA3E0FEA3E0FF74012DFAE43EFB8F048A828B837408C0E07432C0E013
:202DFF0074F9C0E0123ED31581158115819212504090F93FE0FC740E2DFDE43EFE8D828E81
:202E1F00838FF0125C72FDECB5052690F93AE0FCA3E0FDA3E0FEA3E0FFEC4D4E4F6012740A
:202E3F0036C0E07465C0E012541015811581022FD975820412179F90F9477834E0F290FADD
:202E5F008FE0FCA3E0FDA3E0FE740E2CFAE43DFB8E078A828B838FF0125C72FA54FC60313A
:202E7F007834E2FB7F00C003C0077449C0E07465C0E0125410E58124FCF58190FA707411DA
:202E9F00F0E4A3F08C828D838EF0121AEC7834E4F290F947E02401F0FFBF1500400590F910
:202EBF0047E4F090F947E0FF7834E2B507197582041217D8746DC0E07465C0E01254101545
:202EDF00811581758201228F82122539AC82AD83AEF0FF7416C0E0E4C0E074F5C0E074F00B
:202EFF00C0E08C828D838EF0EF1206AAE58124FCF5817463C0E074FCC0E090F0FD12421260
:202F1F00158115819212500890F10AE054F8708190F947E0FF7810F28F82122539AC82AD3D
:202F3F0083AEF0FF740BC0E0E4C0E08C828D838EF0EF1208F5158115817582041217D87875
:202F5F0010E2FE7F00C006C0077477C0E07465C0E0125410E58124FCF58190F921E4F090D2
:202F7F00FA8FE0FDA3E0FEA3E0FF74012DFAE43EFBC002C00390F919123DD5158115817425
:202F9F000D2DFAE43EFB8F048A828B838CF0125C72FA90F922F07411C0E0C005C00690F9EA
:202FBF0031123F3F15811581158190F93AE0FEA3E0FF90FA8DEEF0EFA3F090F93AE0FCA393
:202FDF00E0FDA3E0FEA3E0FFEC4D4E4F7003023070C3E49C74109DE49EE49F500B90FA8633
:202FFF00E4F07410A3F0800890FA86ECF0EDA3F090FA86E0FEA3E0FF8E828F8312282BE5F7
:20301F0082604A90F921E0FF0F90F921EFF090F93AE0F54CA3E0F54DA3E0F54EA3E0F54F0E
:20303F0090FA86E0FAA3E0FBE4FEFFE54CC39AFAE54D9BFBE54E9EFEE54F9FFF90F93AEA8A
:20305F00F0EBA3F0EEA3F0EFA3F0022FD97582002275820412179F7432C0E074F9C0E09017
:20307F00F0F5123DD51581158190F0FD7421F07447A3F0744DA3F07447A3F090F943E0243A
:20309F0001F0A3E03400F0A3E03400F0A3E03400F090F943E0FCA3E0FDA3E0FEA3E0FF9070
:2030BF00F106ECF0EDA3F0EEA3F0EFA3F090FA8DE0FEA3E0FF7D007C0090F101EEF0EFA339
:2030DF00F0EDA3F0ECA3F090F93EE090F105F090F93FE090F10AF07810E2F582122539ACA5
:2030FF0082AD83AEF0FF7416C0E0E4C0E074F5C0E074F0C0E08C828D838EF0EF1207E5E539
:20311F008124FCF5817582041217D875820122AFF0AE83E58290FA93F0EEA3F0EFA3F0C25A
:20313F000D90FA93E0F553A3E0F554A3E0F555740D2553FAE43554FBAC558A828B838CF093
:20315F00125C72FCBC02028024BC03030234B6BC10028019BC20028014BC2102800FBCA8B7
:20317F00030233A9BCAF0302349602352690FA93E0FFA3E0FEA3E0FD7550927551FA7552DD
:20319F0000740E2FF553E43EF5548D558553828554838555F0125C72FB855082855183853A
:2031BF0052F01258E990FA92E020E20302328D758204C007C006C00512179FD005D006D009
:2031DF000790FA92E0C423541FFB603CBB0F02806C8553828554838555F0125C72F582C08D
:2031FF0007C006C0051225FAAB82D005D006D007BBFF0280488B82C007C006C005122725FD
:20321F00D005D006D007803574012FF553E43EF5548D558553828554838555F0C007C00612
:20323F00C005122567AB82D005D006D007BBFF02800B1224C078357401F20233A375820439
:20325F00C007C006C0051217D8D005D006D0078F828E838DF0122DCFE582600B1224C0788D
:20327F00357401F20233A37835E4F20233A374012FF553E43EF5548D558553508554518550
:20329F0055528550828551837408C0E07429C0E074F9C0E0123ED315811581158192135078
:2032BF000B1224C078357401F20233A3758204C007C006C00512179F85538285548385555D
:2032DF00F0122567AC82758204C0041217D8D004D005D006D007BCFF028051C007C006C022
:2032FF0005C0041224C0D004D005D006D0078F538E548D55AA53AB547411C0E0C002C0034E
:20331F0090F931123F3F15811581158190F93AE4F0A3F0A3F0A3F090FC62ECF090FA92E06C
:20333F0054037824F28C82122759803D7485C0E07465C0E0125410158115818F828E838DC9
:20335F00F0122DCFE582601B1224C07810E2FB90FC62F090FA92E054037824F28B8212270E
:20337F005980067835E4F2801B90F932E0FAA3E0FBC002C00390F929123DD515811581781F
:20339F00357401F27835E2F5822290F93AE0FAA3E0FBA3E0FEA3E0FFEA4B4E4F702F740146
:2033BF002553FDE43554FEAF558D828E837408C0E07432C0E074F9C0E0123ED3158115812C
:2033DF001581921350071224C07582012290F921E4F090FA93E0F550A3E0F551A3E0F552D9
:2033FF0074012550FAE43551FBC002C00390F919123DD515811581740D2550FDE43551FE93
:20341F00AF528D828E838FF0125C7290F922F0AD50AE517411C0E0C005C00690F931123FBB
:20343F003F15811581158174092550FDE43551FEAF528D828E838FF0125C72FDA3125C7215
:20345F00FE8D828E8312282BE582602790F93AE4F0A3F0A3F0A3F075820412179F90F0F950
:20347F0075F0001213A67582041217D81224C075820122758200221224C0740E2553FDE407
:20349F003554FEAF558D828E838FF0125C72F5821204327582012275820412179F8553820D
:2034BF008554838555F0122C71E58260561224C075820412179F123541300D0F9000197550
:2034DF00F001E412068A124FE08053748DC0E07465C0E0125410158115817582041217D88A
:2034FF0090FA5D7401F090F0E574E0F07408C0E0E4C0E0C0E090F929123EA715811581158E
:20351F0081801B758200227F00C004C00774AAC0E07465C0E0125410E58124FCF5817582AD
:20353F000022783AE4F208F208F208F2C20D7419C0E0E4C0E074A2C0E074FDC0E0900000FD
:20355F0075F001E41206AAE58124FCF58178367419F2E408F20408F2E408F2905CA093FD41
:20357F00740193FE7402937406C0E0C005C00690FDAB123ED31581158115819214500790CE
:20359F00F08F7405F022905CA0E493FD740193FE740293740EC0E0C005C00690FDAB123EBE
:2035BF00D31581158115819214500790F08F7402F02290FDAAE0FFBF0102800790F08F74E1
:2035DF0001F02290FDA8E0FEA3E0FFC3E49E74809F500790F08F7403F02290FDA8E0FEA3A7
:2035FF00E0FF4E70030236B590FDA8E0FEA3E0FFC374239E74089F50047E237F08C006C075
:20361F000774F5C0E074F0C0E07836E2F58208E2F58308E2F5F008E21206AAE58124FCF518
:20363F008190FA9674F5F074F0A3F0E4A3F090FA99EEF0EFA3F0783AE2F58208E2F583080B
:20365F00E2F5F008E2C007C00612378E783AC0E0E582F2E58308F2E5F008F2D0E008F2D0E0
:20367F0006D0078E028F037C007D007836E22AF208E23BF208E23CF208E23DF290FDA8E02A
:20369F00FCA3E0FDECC39EFEED9FFF90FDA8EEF0EFA3F00235F990FDA2E0FCA3E0FDA3E0E6
:2036BF00FEA3E0FF783AE2B5041108E2B5050C08E2B5060708E2B50702800790F08F7404FB
:2036DF00F02290FDA6E0FEA3E0FF90F08DEEF0EFA3F0C006C00774CFC0E07465C0E012546A
:2036FF0010E58124FCF581D20D2212277CAC82AD83AEF0FF90F943ECF0EDA3F0EEA3F0EF56
:20371F00A3F0227408C0E07452C0E074F9C0E090FA68123F3F15811581158190FA5FE054E5
:20373F00F84421F090FA60E054F344C8F090FA627437F07413A3F090FA6474FFF0A3F090FB
:20375F00FA667437F07413A3F0227411C0E0745FC0E074FAC0E090F9DE123F3F158115814A
:20377F00158190F95AE0FF04F090F9E0EFF022AC82AD83AEF0FF783EECF4F2EDF408F2EE28
:20379F00F408F2EFF408F290FA96E0F55AA3E0F55BA3E0F55C90FA99E0F556A3E0F55785A7
:2037BF005658855759155674FFB556021557E5584559700302388C855A82855B83855CF007
:2037DF00125C72FEA385825A85835B8E047D007E007B00783EE26CF208E26DF208E26EF2F4
:2037FF0008E26BF27846E4F208F27846C3E2940808E26480948050A7783EE25401FA08E22C
:20381F005400FB08E25400FC08E25400FE7842C3E49AF2E49B08F2E49C08F2E49E08F278F0
:20383F0041E2C313F56018E213F55F18E213F55E18E213F55D7842E25420FC08E25483FD31
:20385F0008E254B8FE08E254EDFA783EEC655DF2ED655E08F2EE655F08F2EA656008F27863
:20387F0046E22401F208E23400F2023809783EE2F4FB08E2F4FC08E2F4FD08E2F48B828CE4
:04389F00838DF02203
:2064C3000A002530327820004150206F6E2025640A004E6F204150206F6E2025640A002E03
:2064E30000636865636B435243206661696C65640A00524551202564207061727420256423
:206503000044726177696E6720696D61676520696E20736C6F742025640A00626C6B20663E
:2065230061696C65642076616C69646174696F6E210A0072657374617274696E6720696DAA
:206543006720646C0A004368616E67696E67207374617274696E67536C6F742066726F6DB6
:2065630020256420746F20300A004E6F20736C6F74730A006E657720646C20746F20256410
:206583000A00646C20696D670A004F544120696D6167652076616C69646174696F6E2066DF
:2065A30061696C65640A00646174615479706520307825782069676E6F7265640A00436871
:2065C300726F6D6134325F38313736004F54412076616C6964617465642C20757064617452
:1465E300696E6720746F2076657273696F6E202530780A0046
:05697000FF21474D4727
:2038A300C007C006C005C004C00390FAA0E0600302399790FAA1E0FF24FB5003023994EFB3
:2038C3002F2F9038C9730238D80238F602397702398E02399490FA9E744BF0E4A3F090FA1F
:2038E300A0740BF090FAA17401F090FAA27468F002399790FA9B1241BFE582FF6045EF2407
:20390300E0FFBF600040027F1F90FAA3E0FE0E90FAA3EEF0C0078E82123CE9AD82AE83151F
:203923008190FAA2E0FC7B002DFDEB3EFE8D828E837467C0E01241BAAE82158190FAA2EEA7
:20394300F0800B90FAA17402F090FAA2E0FFEF75F002A424F7F582746535F0F583E493FED6
:20396300A3E493FF90FA9EEEF0EFA3F090FAA0740BF0802090FAA17403F090FA9E74E3F069
:20398300741AA3F090FAA003F0800990FAA17404F0C3802D90FA9EE0FEA3E0FFEE5401246B
:2039A300FFE433FDEFC313CE13CEFF90FA9EEEF0EFA3F090FAA0E0FF1F90FAA0EFF0ED24B4
:0C39C300FFD003D004D005D006D00722AE
:2065F7009B01B3013303C90089019101990019013101930013012301CD01D90199039D0187
:20661700B90139037302D30193033B017301B7039701A7012703370167016702DB001B03B8
:206637006303C500D10011038D00B10031028B00A3002302ED008D03B103DD001D037103CD
:2066570077038B03A303BB003B02BB03D70017034703B7003702C702F70213028F026500C7
:20667700850169000903A10121034D000D01590019026101610243025300EF024301F102EE
:20669700E501E901C9033D01790179022F014F014F02DB037B036F03F500C503D103BD0027
:0E66B7003D02AF002F02DD03BD03D703AF038A
:2039CF00C007C006C005C004C001C000AC82AD83AEF0FFBF20005031BF0A03023A6E8F825F
:2039EF00C007C006C005C004C003C002C001C000C025123BB6D025D000D001D002D003D0A9
:203A0F0004D005D006D00780567E00EF24E0FFEE34FFFEEF2FFFEE33FEEF2480F582EE3444
:203A2F005DF583E493A3E493C4540FFE90F0B1EEF0300507EE2EFE90F0B1F090F0B1E0FF56
:203A4F003395E0FE0FBF00010E90F0ADE0FCA3E0FDEF2CFFEE3DFE90F0ADEFF0EEA3F0D0AB
:203A6F0000D001D004D005D006D00722C007C006C005C004C003C001C000E58124F6FFC055
:203A8F0007C006C005C004C003C002C001C000C025123B69D025D000D001D002D003D00411
:203AAF00D005D006D007E58124F6F886050886068D828E83E493FCBC0C7290F0ADE4F0A36D
:203ACF00F0C007C005C006C0E0C0E09039CF1250BFE58124FBF58190F0ADE0FDA3E0FE33E3
:203AEF0095E0FCFB7490C39DFD74019EFEE49CFCE49BFB78647402F2E408F208F208F28D40
:203B0F00828E838CF0EBC007C002C001C000C025125778AB82AC83ADF0FED025D000D0013F
:203B2F00D002D00790F0ADEBF0ECA3F0C007E58124F5F8E6C0E008E6C0E0E4C0E0C0E09040
:203B4F000FEF1250BFE58124FBF581D000D001D003D004D005D006D00722300625300506BA
:203B6F007E147F0080047E0A7F0090F0B2EEF03005067E207F0080047E107F0090F0B1EE82
:203B8F00F0223005067E207F0080047E107F0090F0B2EEF03005067E147F0080047E0A7F34
:203BAF000090F0B1EEF022AF82BF08028018BF0902804EBF0A028013BF0B028055BF0C01D0
:203BCF0022BF0D568038B205023B69123B6990F0B2E0FE3395E0FD90F0AFE0FBA3E0FCEE9B
:203BEF002BFEED3CFD90F0AFEEF0EDA3F090F095E0FDA3E0FE90F0ADEDF0EEA3F022B20404
:203C0F002290F0ADE0FDA3E0FE90F095EDF0EEA3F02290F095E4F0A3F0227E00C007C006AA
:123C2F0074C5C0E07466C0E0125410E58124FCF581229C
:1566C500496E76616C69642063686172203078253032780A006A
:203C4100E58620E0FB225390FD00225380FB0022E58620E0FB004390020022E58620E0FB26
:203C610000438004002275FB02228582F9E5F830E1FB53F8FDE5F820E0FB85F9822253F355
:203C8100C775FA3C75FC0F75F8C043F4C043F102D20B2253F1FD53F43F75FA0075FC31758B
:083CA100F84043F338C20B2286
:203CA900858283D0F0D0E0D082C082C0E0C0F022C00074FB2581F8E5828682088683088620
:203CC900F0D0002275F008C58213C58233D5F0F7C58222E583A2E713F583E58213F5822204
:203CE900D083D0E0D0F0C0F0C0E0C083E582A4F58285F08322C000E58124FDF8E6F88582A5
:203D0900F0A4F582E8A8F08583F0A428F583E5F03400F5F0E4D00022C000C001C0E0C0F03E
:203D290074FA2581F88600E58288F0A4F582A9F0E58388F0A429F583E5F03400F9D0E088F6
:203D4900F0A429C5F03400F9D0E0C0F088F0A429D0F0D001D00022C000C001C002E58124C6
:203D6900FBF8E6F918E6F88582F0A4C0E0AAF0E58388F0A42AF8E5F03400FAE98582F0A470
:203D890028C0E0E5F03AFA74003400F8E98583F0A42AFAE5F0388AF0D083D082D002D00131
:203DA900D00022D0E0D0F0C000C001C002C0F0C0E074F82581F9E7F809E7F922D002D0016D
:203DC900D00022C9C583C9C8C582C822123DAC75F008123DCCE0A3123DCCF0A3D5F0F302A7
:203DE9003DC5123DAC75F008123DCCE493A3123DCCF0A3D5F0F2023DC5123DACC375F00887
:203E0900123DCCE0A3F502123DCCE03AF0A3D5F0EF023DC5123DAC75F008123DCCE0A3F589
:203E290002123DCCE05AF0A3D5F0EF023DC5123DACC375F008123DCCE0A3F502123DCCE01C
:203E49009AF0A3D5F0EF023DC5123DACC375F008123DCCE0A3F502123DCCE0A39AD5F0F0C7
:203E6900023DC5123DAC75F008123DCCE0A3F502123DCCE0A36A7007D5F0EED3023DC5C36C
:203E8900023DC5C8C0E075F008E038F0A3D5F0F9D00022D3E4023E8CC374FF023E8CC000A0
:203EA900C00174FA2581F8E6F5F0088601496015088600E8F0A374FF25F0F5F074FF39F5FD
:203EC9000145F070EED001D00022C000C001C00274F92581F9E7D3601CF5F00987000987F8
:203EE90001C3E0F502A3123DCCE0A3123DCC6A7004D5F0EED3D002D001D00022C000C00148
:203F0900C00274F82581F9E7F5F00987024A601F098700098701123DCCE0A3123DCCF0A337
:203F290074FF25F0F5F074FF3AF50245F070E7D002D001D00022C000C001C00274F92581F0
:203F4900F9E76015F5F0098700098701123DCCE0A3123DCCF0A3D5F0F3D002D001D0002264
:203F6900C083C082E06003A380FAC3E582D0F095F0F582E583D0F095F0F58322C003C002A1
:203F8900C001C000C0E0C0F0C083C082A98174F62581F886F0188600750201750300758295
:203FA90011A2F74014C3E833F8E5F033F5F0C3EA33FAEB33FB058280E8E4C003C002C0E04C
:203FC900C0E0AA81C0F0C000C0E0C0E0A881C0E0C0E0C0E0C0E0AB81C000C001C375830448
:203FE90086F018E71995F0D583F6D001D000402BC000C001C375830486F018E795F0F71901
:20400900D583F585020085030175830486F018E745F0F719D583F5D001D00074FC28F8C343
:2040290075830408E613F6D583F9C00074FC2AF8C375830408E613F6D583F9D000D582981B
:2040490020D508D082D083D0F0D00074F42581F58130D508D082D083D0F0D000E8D000D0D7
:2040690001D002D00322C2D5023F85D2D5023F85C003C002C001C000C0E0C0F0C083C082CA
:20408900A98174F62581F886F07401758219A2F7400A23C5F023C5F0058280F2C0E0E4C01A
:2040A900E0C0E0C0E0AA81C0F0C0E0C0E0C0E0A881C0E0C0E0C0E0C0E0AB81C000C001C303
:2040C90075830486F018E71995F0D583F6D001D000402BC000C001C375830486F018E79524
:2040E900F0F719D583F585020085030175830486F018E745F0F719D583F5D001D00074FC46
:2041090028F8C375830408E613F6D583F9C00074FC2AF8C375830408E613F6D583F9D00046
:20412900D58298D082D083D0F0D00074F42581F581E8D000D001D002D00322C006C005C033
:2041490004C003C002C001C00074F72581F886F074017C09A2F7400923C5F023C5F00C80B5
:20416900F3FBE4FAA9F0F88582F0FDFEC3E58298E583994011C3E58298F582E58399F58321
:20418900EA4DFDEB4EFEC3E913F9E813F8C3EB13FBEA13FADCD620D5048D828E83D000D0E2
:2041A90001D002D003D004D005D00622C2D5024144D2D5024144E0C0E02401F0A3E0C0E0AB
:2041C9003400F0A3E0D083D0826014B4600AC000A882E2D000F582224009E493F58222E08A
:2041E900F58222C000A882E6D000F58222123DAC75F004D3123DCCE0FA3400F0EAA3123DB8
:20420900CCF0A3D5F0EE023DC5123DAC75F004C3123DCCE0FAA3123DCCE0A36A7004D5F07F
:20422900EFD3023DC5123DACC3E0A398E0A399E0A39400E0A39400023DC5123DACC3E0A347
:2042490038E0A339E0A33400E0A33400023DC575F004E07004A3D5F0F9F58222A3A3A3E06F
:024269003322FE
:04426B0075C90B22E4
:20426F00C0E0C007C006C0D075D000AEDAAFDB74012EF5DAE43FF5DBD0D0D006D007D0E0B9
:20428F0032C007C006C005C004C000AEDAAFDB784AEEF208EFF27848E5E2F27849E5E3F276
:2042AF00EEB5DAE7EFB5DBE37848E2FC08E2FD08E2FE08E28C828D838EF0D000D004D005BD
:2042CF00D006D0072285E28222E4F5DAF5DBF5E4F5E5F5E6F5E7F5E275E40543D84043B87D
:2042EF000222AF82AE83ADF0FC784CEFF2EE08F2ED08F2EC08F21242907850C0E0E582F291
:20430F00E58308F2E5F008F2D0E008F2124290AA82AB83AEF0FF7850D3E29AF4B3FAB30865
:20432F00E29BF4B3FBB308E29EF4B3FEB308E29FF4FF784CC3E29A08E29B08E29E08E29FA7
:03434F0050CA222F
:2043520053C07F53A1FE53BEFC3243870122AF82AE83ADF0FC7854EFF2EE08F2ED08F2EC38
:2043720008F290FAA4E4F090FAA5F090FAA674DFF090FAA774BEF090FAA8E054E0F090FA8A
:20439200A8E0541FF090FAA97407F090FAAAE054E0F090FAAAE0549F4420F090FAAAE05487
:2043B2007FF090FAABE054FC4402F090FAABE054FBF090FAABE054F7F090FAABE054CFF015
:2043D20090FAABE0543F4440F07854E2F5F008E242F008E242F008E245F0701B7B01750C3D
:2043F2006E750DFC850D0E90FAA4E50EF07A6E90FAA5EAF00244947854C3E2943F08E29481
:204412000008E2940008E29400500C7854743FF2E408F208F208F27854E225E0F50F08E24E
:2044320033F51008E233F51108E233F512E50F250FF50FE51033F510E51133F511E5123339
:20445200F512747DC0E0E4C0E0850F828510838511F0E51212406F7854C0E0E582F2E58395
:2044720008F2E5F008F2D0E008F2158115817B007D677EFC8E0590FAA4EDF07E6790FAA500
:20449200EEF053C07F53A1FE43A11075A8A0EB70147854E2F5F008E242F008E242F008E2D3
:2044B20045F070012253BEFBE5BE30E5FBE5C654384441F5C6E5C630E6FB43BE0453C67F93
:2044D2007854C3E2F5F074F095F008E2F5F074FF95F008E2F5F0E495F008E2F5F0E495F054
:2044F200501B7DF07EFF7854E22410F208E23400F208E234FFF208E234FFF280117854E214
:20451200FD08E2FE7854E4F208F208F208F2EB60067A007C0080047A107C008AA175C000E3
:2045320043D6817AA47CFA8AD48CD575D60175A204E5A570FC75A2028EA48DA3AEA5EEB5AE
:20455200A50280FA43C702EB60077B0075BE07800375BE06000000E5BE5403600875D701AA
:20457200004387010053C7FDE5BE30E5FB75BE00E5BE30E5FB75C679E5BE30E6FB7E007D4B
:1B45920000000DBD80FB0EBE80F575C639E5C620E6FB75C63875BE040244A0D8
:0E6975000606060606060407070707070704BE
:2045AD00AF8275BB0074304FF5B575B473E5B420E6FBE5B430E7FBAEBA7F00ADBB7C0090B4
:2045CD00FAB0EC4EF0ED4FA3F08FB522C21590FAB0E0FEA3E08E82C4C582C4540F6582C565
:2045ED0082540FC5826582C582F58374E2C0E07404C0E0123D60AC82AD83AEF0FF15811579
:20460D008190FAAEE0FAA3E0FB74FFC0E07407C0E08A828B83123D60A882A983AAF0FB1585
:20462D00811581ECC398FCED99FDEE9AFEEF9BFF747DC0E08C828D838EF0EF123D21AC82C7
:20464D00AD83AEF0FF1581EFC40354F8CEC403CE6ECE54F8CE6EFFEDC40354074EFEEDC4B6
:20466D000354F8CCC403CC6CCC54F8CC6CFDEF30E70FD215C3E49CFCE49DFDE49EFEE49F0A
:20468D00FF90FAACE0C0E0A3E0C0E08C828D838EF0EF12406FAC82AD83AEF0FF15811581C2
:2046AD0074FF2CFC74033DFDE43EFEE43FFF74FFC0E07407C0E08C828D838EF0EF12406FE5
:1646CD00AC821581158190FAB2ECF030150790FAB2C3E49CF02288
:2046E300E58620E0FB225390FD00225380FB0022E58620E0FB004390020022E58620E0FB7A
:20470300004380040022C007C006AF82BF64004027BF6A00502290DF097421F090DF0A74E0
:204723003BF090DF0B7413F08F06EE249CFE90DF0675F003A4F0802F90DF097422F090DF8C
:204743000A74BBF090DF0B7413F0BFC8004013BFE100500EEF2438FF90DF0675F00CA4F0A0
:20476300800590DF06E4F0D006D00722C00775E10490DF3BE0B401FCD0072212476F7F00FD
:204783008F057EDFEFC39066DA938D828E83F00FBF200040EB90DF237488F090DF24743131
:2047A300F090DF257409F090DF2E748EF075911075ED00759D0075EF0322C007AF82C3EFB9
:2047C3006480946250047FE2800EC3748A8FF063F08095F050027F0A741E2FC3139066FABF
:2047E3009390DF2EF0D00722C007C006AE82AF838ED48FD575D6010000000000000000009C
:20480300D006D0072275D68100000000000000000022C007C006C005AE82AF831248088F33
:204823000590FC77EDF090FC78EEF07E757FFC8E828F831247EBD005D006D00722C007C0AF
:2048430006C005AE82AF831248088F0590FC7DEDF090FC7EEEF07E7D7FFC8E828F83124773
:20486300EBD005D006D00722301604E5EF70012212476F53C0FE43B801E5ED75F080A424A1
:20488300B4F58274FA35F0F58312481575E1022253B8FE12480812476F75D10053C0FE224A
:2048A300AE82AF837CFF7DFF1248938E828F8312484075E90075E103E5E920E42375820F41
:2048C300C005C0041245ADD004D00590FAB0E0FEA3E0FFC3EE9CEF9D50DE8E048F0580D880
:2048E300124808C005C00412486BD004D0057423C0E08C828D831241B515817404C0E0123F
:204903003CFEAC82AD83158190F0E9ECF0EDA3F022C025C0E0C0F0C082C083C007C006C078
:2049230005C004C003C002C001C000C0D075D000E5D130E040E5ED75F080A424B4FE74FA2B
:2049430035F0FF53D1FE8E828F83E0FD248240200D0DED2EF582E43FF583E0FF30E711E5D6
:20496300ED04FF8FEDBF030375ED00E5EF14F5EF12486B800F740FC0E07467C0E01254106D
:204983001581158153C0FED0D0D000D001D002D003D004D005D006D007D083D082D0F0D066
:2049A300E0D02532201806124893C21622201605D21602486B22E59D75F080A424B4FE7479
:2049C300FA35F0FF8E828F83E0FD7403B5EF047582FF228D037C0074022BF9E43CFAE92EA9
:2049E300F582EA3FF583E0FA747F5AD39494F4FABA7F0040047AFF8003EA2AFA90F0C1EADA
:204A0300F00BBB00010CEB2EF582EC3FF583E0A2E71324B390F0C2F00EBE00010FC005C0B7
:204A230006C00790F95D123F3F158115811581E59D04FF8F9DBF0303759D00D21910AF023A
:204A4300C219E5EFFF04F5EFA21992AFEF7007C00512486BD0058D8222D21A10AF02C21A42
:104A6300AFEF75EF03A21A92AFEF700302486B2208
:2066DA00D3917D044522000F0022BB131D3B1373A7650700181E1CC700B0B610EA2A001FA2
:2066FA00030506080B0E191C242527293855408D8A84CAC4C0646D612069727120756E65C7
:09671A00787065637465640A007F
:10698300DFD900008080131A0000DFD9207E134274
:1700E10090FC457456F090FC467412F090FC4703F090FC487485F0B2
:204A7300E58620E0FB225390FD00225380FB0022E58620E0FB004390020022E58620E0FBE6
:204A9300004380040022C007C006C005C004C003C002C001C000E582785BF27E00C21C78FE
:204AB3005CE4F2C006785CE2C0E0901000123CFEAA82AB831581785DEAF2EB08F2785F74D8
:204AD30004F2E408F2785DE2FA08E2FBE4FCFE7404C0E0E4C0E07449C0E074FCC0E08A8266
:204AF3008B838CF0EE1206AAE58124FCF5817404C0E07445C0E074FCC0E090FC49123ED3F4
:204B1300158115811581921DD006201D03024BFD785FE2FB08E2FCC394104003024BFDC063
:204B330006785D795FE3C5F0E225F0FB09E3C5F008E235F0FAE4FCFE7402C0E0E4C0E0748F
:204B530049C0E074FCC0E08B828A838CF0EE1206AAE58124FCF58190FC49E0F51374FFB522
:204B73001305D006024BFDD006785BE2B5135D90FC4AE0FCBC020040531C1C8C06785AC3D8
:204B9300E29C5004785AE2FCC0067B007858E2F51408E2F515785DE2FD08E2FF74022DFD53
:204BB300E43FFF785FE22DFD08E23FFA7E007F00C004C003C014C0158D828A838EF0EF12F2
:204BD30006AAE58124FCF581D21CD00690FC4AE0FF7D00785FE2FB08E2FCEF2BFBED3CFC4C
:204BF300785FEBF2EC08F2024B23785CE22401F2785CE2B40A005003024AB6301C048E071D
:204C130080027FFF8F82D000D001D002D003D004D005D006D00722758204C007C006C00565
:204C3300C004C003C002C001C00012179F124CC6D000D001D002D003D004D005D006D0070F
:204C5300301B477423C0E07467C0E012541015811581C007C006C005C004C003C002C001FF
:204C7300C0001216C4124CC6D000D001D002D003D004D005D006D007301B0F744FC0E07484
:204C930067C0E012541015811581758204C007C006C005C004C003C002C001C0001217D840
:204CB300D000D001D002D003D004D005D006D007D2AF22D21B785874A2F274FD08F2785AA0
:204CD3007407F275822A124A99E582FF30E72A785874A2F274FD08F2785A7406F27582011E
:204CF300124A99E582FF30E710747CC0E07467C0E012541015811581227404C0E0E4C0E0B4
:204D1300C0E090FDB2123EA71581158115817404C0E074B2C0E074FDC0E090FDA4123ED3A5
:204D3300158115811581921E503B748EC0E07467C0E0125410158115817404C0E074B2C0A6
:204D5300E074FDC0E090645A123ED3158115811581921E4010749DC0E07467C0E01254107A
:204D7300158115812290F9597444F090F9587467F090FDA4E0FF90F955F090FDA5E0FE901E
:204D9300F954F090FDA6E090F953F090FDA7E090F952F090FDA4E4F07D007C00C006C0057C
:204DB300C007C00474A2C0E074FDC0E0E4C0E074B5C0E07467C0E0125410E58124F7F58159
:204DD30090F952E0FF7E0090F953E0FD7C00C007C006C005C00474C3C0E07467C0E0125485
:204DF30010E58124FAF58190FDA2E024BF90F957F090FDA3E024BF90F956F090F957E0440E
:204E130020F07401C0E0E4C0E074CDC0E07467C0E0125410E58124FCF58190F958E0FF7ECA
:204E33000090F959E0FD7C00C007C006C005C00474DCC0E07467C0E07434C0E074FCC0E04B
:204E5300125489E58124F8F58190F956E0FF7E0090F957E0FD7C00C007C006C005C0047459
:204E7300DCC0E07467C0E07438C0E074FCC0E0125489E58124F8F58190F954E0FF7E00901B
:204E9300F955E0FD7C00C007C006C005C00474DCC0E07467C0E0743CC0E074FCC0E0125411
:204EB30089E58124F8F58190F952E0FF7E0090F953E0FD7C00C007C006C005C00474DCC0CB
:204ED300E07467C0E07440C0E074FCC0E0125489E58124F8F581785874ACF274FA08F27857
:204EF3005A7402F2758212124A99E58230E71074E5C0E07467C0E012541015811581229089
:204F1300FAACE0C0E0A3E0C0E074FEC0E07467C0E0125410E58124FCF581785874AEF274DE
:204F3300FA08F2785A7402F2758209124A99E58230E710740CC0E07468C0E0125410158105
:204F530015812290FAAEE0C0E0A3E0C0E07429C0E07468C0E0125410E58124FCF581C21BA3
:204F730022904F7F74E0C39582F5F02275F020C2ADC2AC43AE0100E5AE20E7FB05AD05AD1C
:204F9300D5F0F09000008583AD8582ACA375AB2275F00275F900E5F830E1FB53F8FDE5F889
:204FB30020E0FBC0F9D5F0EB43AE02E5AE20E6FBD0E0D0AFF5AFE5AE20E6FB53AEFDE5AEFB
:204FD30020E7FBE583B440BE75C90B80FEC007C006C005C004C003124F74AC82AD83AEF031
:204FF300FF8E03C003C004C00590FDA2123F3F15811581158175D6FF75A80075C70390FD0E
:20501300A2E473D003D004D005D006D00722C007C00675A80075B800759A0075C70075BEE4
:2050330000E5BE30E5FB75C679E5BE30E6FB7F007E00000EBE80FB0FBF80F575C639E5C69C
:2050530020E6FB75C63875BE04D006D0072243B404E5B4540C600280F8E5BC65BDF5822299
:20507300125061C082125061C082125061C082125061D083D0F0D0E022C0008582BC78610A
:06509300E2F5BCD0002292
:2067230046697273742063616C6C20746F204C6F6164476C6F62616C7346726F6D454550BD
:20674300524F4D206661696C65640A005365636F6E642063616C6C20746F204C6F616447B7
:206763006C6F62616C7346726F6D454550524F4D206661696C65640A006661696C65642029
:20678300746F2067657420534E0A00534E2069732064656661756C740A00674465666175F0
:2067A3006C74454550524F4D20757064617465640A00534E202573253032782530327800C6
:2067C30025303278253032780A0048572076617269616E742025640A0025303258253032E1
:2067E30058006661696C656420746F206765742041444320736C6F70650A004144432073E6
:206803006C6F70652025640A006661696C656420746F206765742041444320696E74657220
:1C682300636570740A00414443206D416463496E746572636570742025640A00E5
:20509900E58620E0FB225390FD00225380FB0022E58620E0FB004390020022E58620E0FBBA
:2050B900004380040022C007C083C082858107C004C003C002C001C00074F42581F88683BC
:2050D90018868218860018E0A36013B4250B7C007A00E0A36008B425161253A180E9D000F8
:2050F900D001D002D003D004D082D083D00722B4630518E61880E2FB4420B46D3AEB542002
:2051190003F9C083C08212533D7C0874FF2C93C083C082FAC47B02540F299053D0931253A6
:20513900A1EADBF3D082D083DC06D082D0838097743A1253A180D4EBB42A09BA009B740116
:205159004CFC808EB43007BA0004740680F2FB24D0501224F6400E240AFB740A8AF0A42BA2
:20517900FA740480DBBB6C0DEC54086004741080CF740880CBBB733CEC5408C083C0827028
:2051990005125344800312533DEC54047009E0A360981253A180F7BA0002808EE0A3600AB7
:2051B9001253A1DAF7808302529174201253A1DAF9025143EB4420B478EDC083C0821253C2
:2051D9005AC083C082E5F023F90324FF2582F582E5833400F583E054F0701119E0700D195A
:2051F9001582E582B4FF021583D5F0EAB9000109EC5420600B09EC54026005742D1253A1B7
:20521900EC54046018EAC39940136011FAEC5402C4032420F582E5821253A1DAF9EC542051
:20523900600B19EC54027005742D1253A1EB542003FAD082D083E904C313FC142582F58281
:20525900E5833400F583E954016005E079018005E07902FBC4540F2AC083C0829053D0932D
:20527900D082D0831253A1EBD9EB1582E582B4FF021583DCDB025143BB640674204CFC80A2
:2052990008BB750280030250E0C083C08212535AC0F07408C395F0244DF9E434FCFBE0A352
:2052B900125396F0A3125396D5F0F3125396F5F0EC54206028E5F054807006EC54DFFC8012
:2052D9001CD0F0C0F07408C395F0244DF582E434FCF583C3E0F9E499F0A3D5F0F775F00A1A
:2052F900E4F0A3D5F0FBD0E0C403FB90FC5575F00AE0F9540F24FBE950022403F954F0247E
:20531900B0E950022430F0A3D5F0E690FC4DC375F012E033F0A3D5F0F9DBD090FC5575F08F
:205339000A0251DA86831886821822E61860F5648060F164C0600585938380EA7583FF802D
:20535900E5EC5401701F88F07583FFEC5418600A5410600418181818181818888218E5F0E7
:20537900C398F5F022EC5418600E5410600575F00880B175F00480AC75F00280A7C583CB4F
:20539900C583C582C9C58222C083C082C001C0008F008682188683181818188601188600F0
:2053B9001253C5D000D001D082D08322C082C08385008285018322303132333435363738B7
:2053D9003941424344454630313233343536373839616263646566C007C006C005C004FF6F
:2053F900BF0A0675820D123C6B8F82123C6BD004D005D006D00722C007C001C000A20B923F
:205419001FE58124FAFF200B03123C7FC007E58124F9F8E6C0E008E6C0E0E4C0E0C0E090CC
:2054390053F01250BFE58124FBF581201F03123C94D000D001D00722C007C006C005C00420
:20545900C003C001AC82FF8C018F0487060987071974012EFBE43FFDA70309A7058E828F69
:2054790083ECF0D001D003D004D005D006D00722C007C006C005C001C000E58124F6FFE561
:205499008124F8FE7D00C007E58124F5F8E6C0E008E6C0E0C006C0059054511250BFE58142
:1954B90024FBF58124F8F88682088683E4F0D000D001D005D006D00722FF
:0200F800C22024
:2054D200E58620E0FB225390FD00225380FB0022E58620E0FB004390020022E58620E0FB7D
:2054F200004380040022C007AF82E58620E0FB90FC607401F053807F008F8212565E00E5F4
:205512008620E0FB438080D0072253BEFC32AE82AF838E828F83E493FD74012EFBE43FFCC8
:20553200EDFA605C5390FD008B828C83E493FD0BBB00010CE58620E0FB90FC607401F05369
:20555200807F008D8212565E00E58620E0FB438080EA14FDED6019E58620E0FB8B828C83D9
:20557200E493FAA3AB82AC838A8212565E1D80E48B068C07E58620E0FB00439002008092E5
:205592002230200122D2204390024380045380BF43F42875C20075C5317586009000FDE4D7
:2055B200F5F01242F14390049000FDE4F5F01242F13090FD90683F1255205390FD00E58677
:2055D20020E0FB90FC607401F053807F0075828212565E00E58620E0FB4380807582121218
:2055F200565EE58620E0FB004390020022202001229069421255203090FD906945125520E1
:2056120053F4D753807A5390D100D28600C220221255935390FD003021067E137F00800438
:205632007E107F00E58620E0FB90FC607401F053807F008E8212565E00E58620E0FB438043
:2056520080E58620E0FB004390020022C007AF82E58620E0FB8FC190FC60E02401F0D007F5
:20567200227EFF7FFF744CC0E07469C0E0125410158115815390FD00E58620E0FB90FC604A
:205692007401F053807F0075820412565E00E58620E0FB438080E58620E0FB00439002009C
:2056B2003090FD906949C007C006125520D006D00720902F900032E4F5F0C007C0061243CC
:2056D2006012502175820F1245ADD006D00790FAB0E0FCA3E0FDC3EC9EED9F50D48C068D6C
:2056F2000780CE7423C0E08E828F831241B515817404C0E0123CFEAC82AD83158190F0EB89
:1B571200ECF0EDA3F01255FF12197D745EC0E07469C0E012541015811581225F
:20683F0002030004060ECD2602002F0241000250870260222B21000000000000000000000C
:20685F00000000000000000000000000000000000000000000000000000000000000000019
:20687F00060103002B2B0A02303A2D20001800000001008484000001000A0A00001E005032
:20689F0002500205000302060224000A0532050600050632030800002B2300180000000154
:2068BF00108484000001600A0A00001E485002500205800302060224000A05320506020519
:2068DF00063203082B24001800000001A08484000001600A0A00001E4850025002050403BB
:2068FF0002060224000A053205061005063203082B22801800000001A08484000001600AAE
:20691F000A00001E4850025002058403020602248C0A053205068C050632030805610190E7
:20693F00012C000102000207A5000112005570646174696E6720646973706C61790A005596
:10695F00706461746520636F6D706C6574650A0097
:20572D00AE82AF837C007D007B10EF235401FAEE2EFEEF33FFEC2CFCED33FDEA6003430415
:20574D00017862C3E2F5F0EC95F008E2F5F0ED95F040117862D3E29CF4B3FCB308E29DF4D8
:0B576D00FD430601DBC48E828F832207
:20577800AC82AD83AEF0FF33E433FB6013C3E49CF516E49DF517E49EF518E49FF5198008DB
:205798008C168D178E188F19AC16AD17AE18AF197867E233E433FA60207864E2D3F434000B
:2057B800F51608E2F43400F51708E2F43400F51808E2F43400F51980117864E2F51608E225
:2057D800F51708E2F51808E2F519786CE516F2E51708F2E51808F2E51908F28C828D838E54
:2057F800F0EFC003C00212584C7868C0E0E582F2E58308F2E5F008F2D0E008F2D002D0031E
:20581800EA6B60207868E2D3F43400FA08E2F43400FB08E2F43400FE08E2F434008A828B1E
:14583800838EF0227868E2F58208E2F58308E2F5F008E222C3
:20584C00AF82AE83ADF0FC7870EFF2EE08F2ED08F2EC08F27A007B007E007F007D20787349
:20586C00E2235401FC7870E225E0F208E233F208E233F208E233F2EA2AFAEB33FBEE33FE92
:20588C00EF33FFEC6003430201786CC3E2F5F0EA95F008E2F5F0EB95F008E2F5F0EE95F0E8
:2058AC0008E2F5F0EF95F04022786CD3E29AF4B3FAB308E29BF4B3FBB308E29EF4B3FEB3F6
:1D58CC0008E29FF4FF7870E24401F2DD917870E2F58208E2F58308E2F5F008E22256
:0600B200E478FFF6D8FD22
:200090007924E94400601B7A0190696F78617593FCE493F2A308B800020593D9F4DAF275D7
:0200B00093FFBC
:1B58E90020F71130F6138883A88220F509F6A8837583002280FEF280F5F022BE
:20590400AA83AB828BF090F075E0A4F8A9F08AF0E0A429F98BF0A3E0A429F58388822222F3
:20592400AF82AE83ADF0FC787BEFF2EE08F2ED08F2EC08F2787BE2FF7879E28FF0A4FFAD69
:20594400F07881EFF208EDF2787BE2FF7877E28FF0A4FFADF0787FEFF208EDF27882E2FF94
:20596400787EE2FE7877E28EF0A42FFF7882F2787DE2FE7878E28EF0A42F7882F27881E281
:20598400FE08E2FF787DE2FD7877E28DF0A4ABF02EFEEB3FFF7881EEF208EFF2787CE2FDD1
:2059A4007878E28DF0A4ABF02EFEEB3FFF7881EEF208EFF2787CE2FF7879E28FF0A4787E7D
:2059C400F2787CE2FF7877E28FF0A4FFADF0787CEFF208EDF2787BE2FF787AE28FF0A4786D
:2059E4007AF2787BE2FF7878E28FF0A4FFADF07878EFF208EDF27877E4F2787BF2787FE297
:205A0400F55608E2F55708E2F55808E2F559787BE2FA08E2FB08E2FE08E2FFEA2556F5565D
:205A2400EB3557F557EE3558F558EF3559F559787FE556F208E557F208E558F208E559F243
:205A4400787FE208E208E208E27877E2FC08E2FD08E2FE08E2FFEC2556FCED3557FDEE352A
:0C5A640058FEEF35598C828D838EF022A5
:205A7000AE82AF837D007C007884E2235401FB70357883E225E0F208E233F27883C3E2F54D
:205A9000F0EE95F008E2F5F0EF95F050147883E2F5F008E2C313C5F01318F2C5F008F28069
:205AB000050C8C0580C27883C3E2F5F0EE95F008E2F5F0EF95F0400E7883D3E29EF4B3FE76
:205AD000B308E29FF4FF7883E2F5F008E2C313C5F01318F2C5F008F28D041DEC70C88E82A2
:035AF0008F83227F
:205AF300AD82AE83AFF07888E2F5F008E245F07004900000227888E2FB08E2FC1BBBFF01EF
:205B13001CEB4C6069C003C0048D568E578F588556828557838558F0125C72FA7885E2F5E9
:205B33005908E2F55A08E2F55B855982855A83855BF0125C72FCEAB504028006D004D00346
:205B5300802C74012556FAE43557FBAC588A058B068C0774012559FAE4355AFBAC5B78851B
:205B7300EAF2EB08F2EC08F2D004D003808E8D828E838FF0125C72FD7F007885E2FB08E2F7
:1A5B9300FC08E2FE8B828C838EF0125C72FB7E00EDC39BF582EF9EF5832238
:205BAD00AE82E583FF33E433FD6009C3E49EFBE49FFC80048E038F04788BE233E433FF609C
:205BCD0010788AE2D3F43400FA08E2F43400FE8007788AE2FA08E2FE7862EAF2EE08F28B49
